{
	"contracts/Users.sol": {
		"Users": {
			"abi": [
				{
					"anonymous": false,
					"inputs": [
						{
							"indexed": true,
							"internalType": "address",
							"name": "_beneficiary",
							"type": "address"
						}
					],
					"name": "AddedBeneficiary",
					"type": "event"
				},
				{
					"anonymous": false,
					"inputs": [
						{
							"indexed": true,
							"internalType": "address",
							"name": "previousOwner",
							"type": "address"
						},
						{
							"indexed": true,
							"internalType": "address",
							"name": "newOwner",
							"type": "address"
						}
					],
					"name": "OwnershipTransferred",
					"type": "event"
				},
				{
					"inputs": [
						{
							"internalType": "address",
							"name": "",
							"type": "address"
						}
					],
					"name": "actors",
					"outputs": [
						{
							"internalType": "string",
							"name": "name",
							"type": "string"
						},
						{
							"internalType": "enum Users.Role",
							"name": "roles",
							"type": "uint8"
						}
					],
					"stateMutability": "view",
					"type": "function"
				},
				{
					"inputs": [
						{
							"internalType": "address",
							"name": "_beneficiaries",
							"type": "address"
						}
					],
					"name": "addToWhitelist",
					"outputs": [],
					"stateMutability": "nonpayable",
					"type": "function"
				},
				{
					"inputs": [
						{
							"internalType": "address",
							"name": "id",
							"type": "address"
						},
						{
							"internalType": "string",
							"name": "name",
							"type": "string"
						},
						{
							"internalType": "enum Users.Role",
							"name": "role",
							"type": "uint8"
						}
					],
					"name": "addUser",
					"outputs": [],
					"stateMutability": "nonpayable",
					"type": "function"
				},
				{
					"inputs": [],
					"name": "getUsersCount",
					"outputs": [
						{
							"internalType": "uint256",
							"name": "",
							"type": "uint256"
						}
					],
					"stateMutability": "view",
					"type": "function"
				},
				{
					"inputs": [],
					"name": "owner",
					"outputs": [
						{
							"internalType": "address",
							"name": "",
							"type": "address"
						}
					],
					"stateMutability": "view",
					"type": "function"
				},
				{
					"inputs": [
						{
							"internalType": "address",
							"name": "_beneficiary",
							"type": "address"
						}
					],
					"name": "removeFromWhitelist",
					"outputs": [],
					"stateMutability": "nonpayable",
					"type": "function"
				},
				{
					"inputs": [
						{
							"internalType": "address",
							"name": "newOwner",
							"type": "address"
						}
					],
					"name": "transferOwnership",
					"outputs": [],
					"stateMutability": "nonpayable",
					"type": "function"
				},
				{
					"inputs": [
						{
							"internalType": "uint256",
							"name": "",
							"type": "uint256"
						}
					],
					"name": "users",
					"outputs": [
						{
							"internalType": "address",
							"name": "",
							"type": "address"
						}
					],
					"stateMutability": "view",
					"type": "function"
				},
				{
					"inputs": [
						{
							"internalType": "address",
							"name": "",
							"type": "address"
						}
					],
					"name": "whitelist",
					"outputs": [
						{
							"internalType": "bool",
							"name": "",
							"type": "bool"
						}
					],
					"stateMutability": "view",
					"type": "function"
				}
			],
			"devdoc": {
				"kind": "dev",
				"methods": {
					"addToWhitelist(address)": {
						"details": "Adds list of addresses to whitelist. Not overloaded due to limitations with truffle testing.",
						"params": {
							"_beneficiaries": "Addresses to be added to the whitelist"
						}
					},
					"removeFromWhitelist(address)": {
						"details": "Removes single address from whitelist.",
						"params": {
							"_beneficiary": "Address to be removed to the whitelist"
						}
					},
					"transferOwnership(address)": {
						"details": "Allows the current owner to transfer control of the contract to a newOwner.",
						"params": {
							"newOwner": "The address to transfer ownership to."
						}
					}
				},
				"version": 1
			},
			"evm": {
				"assembly": "    /* \"contracts/Users.sol\":113:1641  contract Users is Ownable, Whitelist {... */\n  mstore(0x40, 0x80)\n  callvalue\n  dup1\n  iszero\n  tag_1\n  jumpi\n  0x00\n  dup1\n  revert\ntag_1:\n  pop\n    /* \"contracts/Owner.sol\":557:567  msg.sender */\n  caller\n    /* \"contracts/Owner.sol\":549:554  owner */\n  0x00\n  dup1\n    /* \"contracts/Owner.sol\":549:567  owner = msg.sender */\n  0x0100\n  exp\n  dup2\n  sload\n  dup2\n  0xffffffffffffffffffffffffffffffffffffffff\n  mul\n  not\n  and\n  swap1\n  dup4\n  0xffffffffffffffffffffffffffffffffffffffff\n  and\n  mul\n  or\n  swap1\n  sstore\n  pop\n    /* \"contracts/Users.sol\":113:1641  contract Users is Ownable, Whitelist {... */\n  dataSize(sub_0)\n  dup1\n  dataOffset(sub_0)\n  0x00\n  codecopy\n  0x00\n  return\nstop\n\nsub_0: assembly {\n        /* \"contracts/Users.sol\":113:1641  contract Users is Ownable, Whitelist {... */\n      mstore(0x40, 0x80)\n      callvalue\n      dup1\n      iszero\n      tag_1\n      jumpi\n      0x00\n      dup1\n      revert\n    tag_1:\n      pop\n      jumpi(tag_2, lt(calldatasize, 0x04))\n      shr(0xe0, calldataload(0x00))\n      dup1\n      0x9b19251a\n      gt\n      tag_12\n      jumpi\n      dup1\n      0x9b19251a\n      eq\n      tag_7\n      jumpi\n      dup1\n      0xa4a1e263\n      eq\n      tag_8\n      jumpi\n      dup1\n      0xe43252d7\n      eq\n      tag_9\n      jumpi\n      dup1\n      0xeaa66a3c\n      eq\n      tag_10\n      jumpi\n      dup1\n      0xf2fde38b\n      eq\n      tag_11\n      jumpi\n      jump(tag_2)\n    tag_12:\n      dup1\n      0x365b98b2\n      eq\n      tag_3\n      jumpi\n      dup1\n      0x40d26854\n      eq\n      tag_4\n      jumpi\n      dup1\n      0x8ab1d681\n      eq\n      tag_5\n      jumpi\n      dup1\n      0x8da5cb5b\n      eq\n      tag_6\n      jumpi\n    tag_2:\n      0x00\n      dup1\n      revert\n        /* \"contracts/Users.sol\":605:627  address[] public users */\n    tag_3:\n      tag_13\n      0x04\n      dup1\n      calldatasize\n      sub\n      dup2\n      add\n      swap1\n      tag_14\n      swap2\n      swap1\n      tag_15\n      jump\t// in\n    tag_14:\n      tag_16\n      jump\t// in\n    tag_13:\n      mload(0x40)\n      tag_17\n      swap2\n      swap1\n      tag_18\n      jump\t// in\n    tag_17:\n      mload(0x40)\n      dup1\n      swap2\n      sub\n      swap1\n      return\n        /* \"contracts/Users.sol\":664:1496  function addUser(address id, string memory name, Role role) public {... */\n    tag_4:\n      tag_19\n      0x04\n      dup1\n      calldatasize\n      sub\n      dup2\n      add\n      swap1\n      tag_20\n      swap2\n      swap1\n      tag_21\n      jump\t// in\n    tag_20:\n      tag_22\n      jump\t// in\n    tag_19:\n      stop\n        /* \"contracts/WhiteList.sol\":890:1006  function removeFromWhitelist(address _beneficiary) public onlyOwner {\r... */\n    tag_5:\n      tag_23\n      0x04\n      dup1\n      calldatasize\n      sub\n      dup2\n      add\n      swap1\n      tag_24\n      swap2\n      swap1\n      tag_25\n      jump\t// in\n    tag_24:\n      tag_26\n      jump\t// in\n    tag_23:\n      stop\n        /* \"contracts/Owner.sol\":275:295  address public owner */\n    tag_6:\n      tag_27\n      tag_28\n      jump\t// in\n    tag_27:\n      mload(0x40)\n      tag_29\n      swap2\n      swap1\n      tag_18\n      jump\t// in\n    tag_29:\n      mload(0x40)\n      dup1\n      swap2\n      sub\n      swap1\n      return\n        /* \"contracts/WhiteList.sol\":189:230  mapping(address => bool) public whitelist */\n    tag_7:\n      tag_30\n      0x04\n      dup1\n      calldatasize\n      sub\n      dup2\n      add\n      swap1\n      tag_31\n      swap2\n      swap1\n      tag_25\n      jump\t// in\n    tag_31:\n      tag_32\n      jump\t// in\n    tag_30:\n      mload(0x40)\n      tag_33\n      swap2\n      swap1\n      tag_34\n      jump\t// in\n    tag_33:\n      mload(0x40)\n      dup1\n      swap2\n      sub\n      swap1\n      return\n        /* \"contracts/Users.sol\":1551:1639  function getUsersCount() public view returns (uint) {... */\n    tag_8:\n      tag_35\n      tag_36\n      jump\t// in\n    tag_35:\n      mload(0x40)\n      tag_37\n      swap2\n      swap1\n      tag_38\n      jump\t// in\n    tag_37:\n      mload(0x40)\n      dup1\n      swap2\n      sub\n      swap1\n      return\n        /* \"contracts/WhiteList.sol\":624:739  function addToWhitelist(address _beneficiaries) public  {\r... */\n    tag_9:\n      tag_39\n      0x04\n      dup1\n      calldatasize\n      sub\n      dup2\n      add\n      swap1\n      tag_40\n      swap2\n      swap1\n      tag_25\n      jump\t// in\n    tag_40:\n      tag_41\n      jump\t// in\n    tag_39:\n      stop\n        /* \"contracts/Users.sol\":524:563  mapping(address => Actor) public actors */\n    tag_10:\n      tag_42\n      0x04\n      dup1\n      calldatasize\n      sub\n      dup2\n      add\n      swap1\n      tag_43\n      swap2\n      swap1\n      tag_25\n      jump\t// in\n    tag_43:\n      tag_44\n      jump\t// in\n    tag_42:\n      mload(0x40)\n      tag_45\n      swap3\n      swap2\n      swap1\n      tag_46\n      jump\t// in\n    tag_45:\n      mload(0x40)\n      dup1\n      swap2\n      sub\n      swap1\n      return\n        /* \"contracts/Owner.sol\":940:1157  function transferOwnership(address newOwner) public onlyOwner {... */\n    tag_11:\n      tag_47\n      0x04\n      dup1\n      calldatasize\n      sub\n      dup2\n      add\n      swap1\n      tag_48\n      swap2\n      swap1\n      tag_25\n      jump\t// in\n    tag_48:\n      tag_49\n      jump\t// in\n    tag_47:\n      stop\n        /* \"contracts/Users.sol\":605:627  address[] public users */\n    tag_16:\n      0x03\n      dup2\n      dup2\n      sload\n      dup2\n      lt\n      tag_50\n      jumpi\n      0x00\n      dup1\n      revert\n    tag_50:\n      swap1\n      0x00\n      mstore\n      keccak256(0x00, 0x20)\n      add\n      0x00\n      swap2\n      pop\n      sload\n      swap1\n      0x0100\n      exp\n      swap1\n      div\n      0xffffffffffffffffffffffffffffffffffffffff\n      and\n      dup2\n      jump\t// out\n        /* \"contracts/Users.sol\":664:1496  function addUser(address id, string memory name, Role role) public {... */\n    tag_22:\n        /* \"contracts/Users.sol\":741:761  Actor memory newUser */\n      0x00\n        /* \"contracts/Users.sol\":764:781  Actor(name, role) */\n      mload(0x40)\n      dup1\n      0x40\n      add\n      0x40\n      mstore\n      dup1\n        /* \"contracts/Users.sol\":770:774  name */\n      dup5\n        /* \"contracts/Users.sol\":764:781  Actor(name, role) */\n      dup2\n      mstore\n      0x20\n      add\n        /* \"contracts/Users.sol\":776:780  role */\n      dup4\n        /* \"contracts/Users.sol\":764:781  Actor(name, role) */\n      0x03\n      dup2\n      gt\n      iszero\n      tag_53\n      jumpi\n      mstore(0x00, 0x4e487b7100000000000000000000000000000000000000000000000000000000)\n      mstore(0x04, 0x21)\n      revert(0x00, 0x24)\n    tag_53:\n      dup2\n      mstore\n      pop\n        /* \"contracts/Users.sol\":741:781  Actor memory newUser = Actor(name, role) */\n      swap1\n      pop\n        /* \"contracts/Users.sol\":791:816  Actor memory currentActor */\n      0x00\n        /* \"contracts/Users.sol\":819:825  actors */\n      0x02\n        /* \"contracts/Users.sol\":819:837  actors[msg.sender] */\n      0x00\n        /* \"contracts/Users.sol\":826:836  msg.sender */\n      caller\n        /* \"contracts/Users.sol\":819:837  actors[msg.sender] */\n      0xffffffffffffffffffffffffffffffffffffffff\n      and\n      0xffffffffffffffffffffffffffffffffffffffff\n      and\n      dup2\n      mstore\n      0x20\n      add\n      swap1\n      dup2\n      mstore\n      0x20\n      add\n      0x00\n      keccak256\n        /* \"contracts/Users.sol\":791:837  Actor memory currentActor = actors[msg.sender] */\n      mload(0x40)\n      dup1\n      0x40\n      add\n      0x40\n      mstore\n      swap1\n      dup2\n      0x00\n      dup3\n      add\n      dup1\n      sload\n      tag_54\n      swap1\n      tag_55\n      jump\t// in\n    tag_54:\n      dup1\n      0x1f\n      add\n      0x20\n      dup1\n      swap2\n      div\n      mul\n      0x20\n      add\n      mload(0x40)\n      swap1\n      dup2\n      add\n      0x40\n      mstore\n      dup1\n      swap3\n      swap2\n      swap1\n      dup2\n      dup2\n      mstore\n      0x20\n      add\n      dup3\n      dup1\n      sload\n      tag_56\n      swap1\n      tag_55\n      jump\t// in\n    tag_56:\n      dup1\n      iszero\n      tag_57\n      jumpi\n      dup1\n      0x1f\n      lt\n      tag_58\n      jumpi\n      0x0100\n      dup1\n      dup4\n      sload\n      div\n      mul\n      dup4\n      mstore\n      swap2\n      0x20\n      add\n      swap2\n      jump(tag_57)\n    tag_58:\n      dup3\n      add\n      swap2\n      swap1\n      0x00\n      mstore\n      keccak256(0x00, 0x20)\n      swap1\n    tag_59:\n      dup2\n      sload\n      dup2\n      mstore\n      swap1\n      0x01\n      add\n      swap1\n      0x20\n      add\n      dup1\n      dup4\n      gt\n      tag_59\n      jumpi\n      dup3\n      swap1\n      sub\n      0x1f\n      and\n      dup3\n      add\n      swap2\n    tag_57:\n      pop\n      pop\n      pop\n      pop\n      pop\n      dup2\n      mstore\n      0x20\n      add\n      0x01\n      dup3\n      add\n      0x00\n      swap1\n      sload\n      swap1\n      0x0100\n      exp\n      swap1\n      div\n      0xff\n      and\n      0x03\n      dup2\n      gt\n      iszero\n      tag_60\n      jumpi\n      mstore(0x00, 0x4e487b7100000000000000000000000000000000000000000000000000000000)\n      mstore(0x04, 0x21)\n      revert(0x00, 0x24)\n    tag_60:\n      0x03\n      dup2\n      gt\n      iszero\n      tag_61\n      jumpi\n      mstore(0x00, 0x4e487b7100000000000000000000000000000000000000000000000000000000)\n      mstore(0x04, 0x21)\n      revert(0x00, 0x24)\n    tag_61:\n      dup2\n      mstore\n      pop\n      pop\n      swap1\n      pop\n        /* \"contracts/Users.sol\":847:863  Role currentRole */\n      0x00\n        /* \"contracts/Users.sol\":866:878  currentActor */\n      dup2\n        /* \"contracts/Users.sol\":866:884  currentActor.roles */\n      0x20\n      add\n      mload\n        /* \"contracts/Users.sol\":847:884  Role currentRole = currentActor.roles */\n      swap1\n      pop\n        /* \"contracts/Users.sol\":911:916  owner */\n      0x00\n      dup1\n      sload\n      swap1\n      0x0100\n      exp\n      swap1\n      div\n      0xffffffffffffffffffffffffffffffffffffffff\n      and\n        /* \"contracts/Users.sol\":897:916  msg.sender != owner */\n      0xffffffffffffffffffffffffffffffffffffffff\n      and\n        /* \"contracts/Users.sol\":897:907  msg.sender */\n      caller\n        /* \"contracts/Users.sol\":897:916  msg.sender != owner */\n      0xffffffffffffffffffffffffffffffffffffffff\n      and\n      eq\n        /* \"contracts/Users.sol\":894:1398  if(msg.sender != owner){... */\n      tag_62\n      jumpi\n        /* \"contracts/Users.sol\":945:962  Role.Manufacturer */\n      0x00\n        /* \"contracts/Users.sol\":930:962  currentRole == Role.Manufacturer */\n      0x03\n      dup2\n      gt\n      iszero\n      tag_63\n      jumpi\n      mstore(0x00, 0x4e487b7100000000000000000000000000000000000000000000000000000000)\n      mstore(0x04, 0x21)\n      revert(0x00, 0x24)\n    tag_63:\n        /* \"contracts/Users.sol\":930:941  currentRole */\n      dup2\n        /* \"contracts/Users.sol\":930:962  currentRole == Role.Manufacturer */\n      0x03\n      dup2\n      gt\n      iszero\n      tag_64\n      jumpi\n      mstore(0x00, 0x4e487b7100000000000000000000000000000000000000000000000000000000)\n      mstore(0x04, 0x21)\n      revert(0x00, 0x24)\n    tag_64:\n      eq\n        /* \"contracts/Users.sol\":930:987  currentRole == Role.Manufacturer && role != Role.Supplier */\n      dup1\n      iszero\n      tag_65\n      jumpi\n      pop\n        /* \"contracts/Users.sol\":974:987  Role.Supplier */\n      0x01\n        /* \"contracts/Users.sol\":966:987  role != Role.Supplier */\n      0x03\n      dup2\n      gt\n      iszero\n      tag_66\n      jumpi\n      mstore(0x00, 0x4e487b7100000000000000000000000000000000000000000000000000000000)\n      mstore(0x04, 0x21)\n      revert(0x00, 0x24)\n    tag_66:\n        /* \"contracts/Users.sol\":966:970  role */\n      dup5\n        /* \"contracts/Users.sol\":966:987  role != Role.Supplier */\n      0x03\n      dup2\n      gt\n      iszero\n      tag_67\n      jumpi\n      mstore(0x00, 0x4e487b7100000000000000000000000000000000000000000000000000000000)\n      mstore(0x04, 0x21)\n      revert(0x00, 0x24)\n    tag_67:\n      eq\n      iszero\n        /* \"contracts/Users.sol\":930:987  currentRole == Role.Manufacturer && role != Role.Supplier */\n    tag_65:\n        /* \"contracts/Users.sol\":927:1048  if(currentRole == Role.Manufacturer && role != Role.Supplier){revert(\"Cannot add manufacturer or customer or supplier\");} */\n      iszero\n      tag_68\n      jumpi\n        /* \"contracts/Users.sol\":989:1046  revert(\"Cannot add manufacturer or customer or supplier\") */\n      mload(0x40)\n      0x08c379a000000000000000000000000000000000000000000000000000000000\n      dup2\n      mstore\n      0x04\n      add\n      tag_69\n      swap1\n      tag_70\n      jump\t// in\n    tag_69:\n      mload(0x40)\n      dup1\n      swap2\n      sub\n      swap1\n      revert\n        /* \"contracts/Users.sol\":927:1048  if(currentRole == Role.Manufacturer && role != Role.Supplier){revert(\"Cannot add manufacturer or customer or supplier\");} */\n    tag_68:\n        /* \"contracts/Users.sol\":1075:1088  Role.Supplier */\n      0x01\n        /* \"contracts/Users.sol\":1060:1088  currentRole == Role.Supplier */\n      0x03\n      dup2\n      gt\n      iszero\n      tag_71\n      jumpi\n      mstore(0x00, 0x4e487b7100000000000000000000000000000000000000000000000000000000)\n      mstore(0x04, 0x21)\n      revert(0x00, 0x24)\n    tag_71:\n        /* \"contracts/Users.sol\":1060:1071  currentRole */\n      dup2\n        /* \"contracts/Users.sol\":1060:1088  currentRole == Role.Supplier */\n      0x03\n      dup2\n      gt\n      iszero\n      tag_72\n      jumpi\n      mstore(0x00, 0x4e487b7100000000000000000000000000000000000000000000000000000000)\n      mstore(0x04, 0x21)\n      revert(0x00, 0x24)\n    tag_72:\n      eq\n        /* \"contracts/Users.sol\":1060:1120  currentRole == Role.Supplier && newUser.roles != Role.Vendor */\n      dup1\n      iszero\n      tag_73\n      jumpi\n      pop\n        /* \"contracts/Users.sol\":1109:1120  Role.Vendor */\n      0x02\n        /* \"contracts/Users.sol\":1092:1120  newUser.roles != Role.Vendor */\n      0x03\n      dup2\n      gt\n      iszero\n      tag_74\n      jumpi\n      mstore(0x00, 0x4e487b7100000000000000000000000000000000000000000000000000000000)\n      mstore(0x04, 0x21)\n      revert(0x00, 0x24)\n    tag_74:\n        /* \"contracts/Users.sol\":1092:1099  newUser */\n      dup4\n        /* \"contracts/Users.sol\":1092:1105  newUser.roles */\n      0x20\n      add\n      mload\n        /* \"contracts/Users.sol\":1092:1120  newUser.roles != Role.Vendor */\n      0x03\n      dup2\n      gt\n      iszero\n      tag_75\n      jumpi\n      mstore(0x00, 0x4e487b7100000000000000000000000000000000000000000000000000000000)\n      mstore(0x04, 0x21)\n      revert(0x00, 0x24)\n    tag_75:\n      eq\n      iszero\n        /* \"contracts/Users.sol\":1060:1120  currentRole == Role.Supplier && newUser.roles != Role.Vendor */\n    tag_73:\n        /* \"contracts/Users.sol\":1057:1182  if(currentRole == Role.Supplier && newUser.roles != Role.Vendor){revert( \"Cannot add manufacturer or supplier or customer\");} */\n      iszero\n      tag_76\n      jumpi\n        /* \"contracts/Users.sol\":1122:1180  revert( \"Cannot add manufacturer or supplier or customer\") */\n      mload(0x40)\n      0x08c379a000000000000000000000000000000000000000000000000000000000\n      dup2\n      mstore\n      0x04\n      add\n      tag_77\n      swap1\n      tag_78\n      jump\t// in\n    tag_77:\n      mload(0x40)\n      dup1\n      swap2\n      sub\n      swap1\n      revert\n        /* \"contracts/Users.sol\":1057:1182  if(currentRole == Role.Supplier && newUser.roles != Role.Vendor){revert( \"Cannot add manufacturer or supplier or customer\");} */\n    tag_76:\n        /* \"contracts/Users.sol\":1209:1220  Role.Vendor */\n      0x02\n        /* \"contracts/Users.sol\":1194:1220  currentRole == Role.Vendor */\n      0x03\n      dup2\n      gt\n      iszero\n      tag_79\n      jumpi\n      mstore(0x00, 0x4e487b7100000000000000000000000000000000000000000000000000000000)\n      mstore(0x04, 0x21)\n      revert(0x00, 0x24)\n    tag_79:\n        /* \"contracts/Users.sol\":1194:1205  currentRole */\n      dup2\n        /* \"contracts/Users.sol\":1194:1220  currentRole == Role.Vendor */\n      0x03\n      dup2\n      gt\n      iszero\n      tag_80\n      jumpi\n      mstore(0x00, 0x4e487b7100000000000000000000000000000000000000000000000000000000)\n      mstore(0x04, 0x21)\n      revert(0x00, 0x24)\n    tag_80:\n      eq\n        /* \"contracts/Users.sol\":1194:1254  currentRole == Role.Vendor && newUser.roles != Role.Customer */\n      dup1\n      iszero\n      tag_81\n      jumpi\n      pop\n        /* \"contracts/Users.sol\":1241:1254  Role.Customer */\n      0x03\n        /* \"contracts/Users.sol\":1224:1254  newUser.roles != Role.Customer */\n      dup1\n      dup2\n      gt\n      iszero\n      tag_82\n      jumpi\n      mstore(0x00, 0x4e487b7100000000000000000000000000000000000000000000000000000000)\n      mstore(0x04, 0x21)\n      revert(0x00, 0x24)\n    tag_82:\n        /* \"contracts/Users.sol\":1224:1231  newUser */\n      dup4\n        /* \"contracts/Users.sol\":1224:1237  newUser.roles */\n      0x20\n      add\n      mload\n        /* \"contracts/Users.sol\":1224:1254  newUser.roles != Role.Customer */\n      0x03\n      dup2\n      gt\n      iszero\n      tag_83\n      jumpi\n      mstore(0x00, 0x4e487b7100000000000000000000000000000000000000000000000000000000)\n      mstore(0x04, 0x21)\n      revert(0x00, 0x24)\n    tag_83:\n      eq\n      iszero\n        /* \"contracts/Users.sol\":1194:1254  currentRole == Role.Vendor && newUser.roles != Role.Customer */\n    tag_81:\n        /* \"contracts/Users.sol\":1191:1314  if(currentRole == Role.Vendor && newUser.roles != Role.Customer){revert( \"Cannot add manufacturer or supplier or vendor\");} */\n      iszero\n      tag_84\n      jumpi\n        /* \"contracts/Users.sol\":1256:1312  revert( \"Cannot add manufacturer or supplier or vendor\") */\n      mload(0x40)\n      0x08c379a000000000000000000000000000000000000000000000000000000000\n      dup2\n      mstore\n      0x04\n      add\n      tag_85\n      swap1\n      tag_86\n      jump\t// in\n    tag_85:\n      mload(0x40)\n      dup1\n      swap2\n      sub\n      swap1\n      revert\n        /* \"contracts/Users.sol\":1191:1314  if(currentRole == Role.Vendor && newUser.roles != Role.Customer){revert( \"Cannot add manufacturer or supplier or vendor\");} */\n    tag_84:\n        /* \"contracts/Users.sol\":1341:1354  Role.Customer */\n      0x03\n        /* \"contracts/Users.sol\":1326:1354  currentRole != Role.Customer */\n      dup1\n      dup2\n      gt\n      iszero\n      tag_87\n      jumpi\n      mstore(0x00, 0x4e487b7100000000000000000000000000000000000000000000000000000000)\n      mstore(0x04, 0x21)\n      revert(0x00, 0x24)\n    tag_87:\n        /* \"contracts/Users.sol\":1326:1337  currentRole */\n      dup2\n        /* \"contracts/Users.sol\":1326:1354  currentRole != Role.Customer */\n      0x03\n      dup2\n      gt\n      iszero\n      tag_88\n      jumpi\n      mstore(0x00, 0x4e487b7100000000000000000000000000000000000000000000000000000000)\n      mstore(0x04, 0x21)\n      revert(0x00, 0x24)\n    tag_88:\n      eq\n        /* \"contracts/Users.sol\":1323:1388  if(currentRole != Role.Customer) {revert(\"Cannot add an actor\");} */\n      tag_89\n      jumpi\n        /* \"contracts/Users.sol\":1357:1386  revert(\"Cannot add an actor\") */\n      mload(0x40)\n      0x08c379a000000000000000000000000000000000000000000000000000000000\n      dup2\n      mstore\n      0x04\n      add\n      tag_90\n      swap1\n      tag_91\n      jump\t// in\n    tag_90:\n      mload(0x40)\n      dup1\n      swap2\n      sub\n      swap1\n      revert\n        /* \"contracts/Users.sol\":1323:1388  if(currentRole != Role.Customer) {revert(\"Cannot add an actor\");} */\n    tag_89:\n        /* \"contracts/Users.sol\":894:1398  if(msg.sender != owner){... */\n    tag_62:\n        /* \"contracts/Users.sol\":1420:1437  Actor(name, role) */\n      mload(0x40)\n      dup1\n      0x40\n      add\n      0x40\n      mstore\n      dup1\n        /* \"contracts/Users.sol\":1426:1430  name */\n      dup7\n        /* \"contracts/Users.sol\":1420:1437  Actor(name, role) */\n      dup2\n      mstore\n      0x20\n      add\n        /* \"contracts/Users.sol\":1432:1436  role */\n      dup6\n        /* \"contracts/Users.sol\":1420:1437  Actor(name, role) */\n      0x03\n      dup2\n      gt\n      iszero\n      tag_92\n      jumpi\n      mstore(0x00, 0x4e487b7100000000000000000000000000000000000000000000000000000000)\n      mstore(0x04, 0x21)\n      revert(0x00, 0x24)\n    tag_92:\n      dup2\n      mstore\n      pop\n        /* \"contracts/Users.sol\":1407:1413  actors */\n      0x02\n        /* \"contracts/Users.sol\":1407:1417  actors[id] */\n      0x00\n        /* \"contracts/Users.sol\":1414:1416  id */\n      dup9\n        /* \"contracts/Users.sol\":1407:1417  actors[id] */\n      0xffffffffffffffffffffffffffffffffffffffff\n      and\n      0xffffffffffffffffffffffffffffffffffffffff\n      and\n      dup2\n      mstore\n      0x20\n      add\n      swap1\n      dup2\n      mstore\n      0x20\n      add\n      0x00\n      keccak256\n        /* \"contracts/Users.sol\":1407:1437  actors[id] = Actor(name, role) */\n      0x00\n      dup3\n      add\n      mload\n      dup2\n      0x00\n      add\n      swap1\n      dup1\n      mload\n      swap1\n      0x20\n      add\n      swap1\n      tag_93\n      swap3\n      swap2\n      swap1\n      tag_94\n      jump\t// in\n    tag_93:\n      pop\n      0x20\n      dup3\n      add\n      mload\n      dup2\n      0x01\n      add\n      exp(0x0100, 0x00)\n      dup2\n      sload\n      dup2\n      0xff\n      mul\n      not\n      and\n      swap1\n      dup4\n      0x03\n      dup2\n      gt\n      iszero\n      tag_95\n      jumpi\n      mstore(0x00, 0x4e487b7100000000000000000000000000000000000000000000000000000000)\n      mstore(0x04, 0x21)\n      revert(0x00, 0x24)\n    tag_95:\n      mul\n      or\n      swap1\n      sstore\n      pop\n      swap1\n      pop\n      pop\n        /* \"contracts/Users.sol\":1447:1452  users */\n      0x03\n        /* \"contracts/Users.sol\":1458:1460  id */\n      dup7\n        /* \"contracts/Users.sol\":1447:1461  users.push(id) */\n      swap1\n      dup1\n      0x01\n      dup2\n      sload\n      add\n      dup1\n      dup3\n      sstore\n      dup1\n      swap2\n      pop\n      pop\n      0x01\n      swap1\n      sub\n      swap1\n      0x00\n      mstore\n      keccak256(0x00, 0x20)\n      add\n      0x00\n      swap1\n      swap2\n      swap1\n      swap2\n      swap1\n      swap2\n      0x0100\n      exp\n      dup2\n      sload\n      dup2\n      0xffffffffffffffffffffffffffffffffffffffff\n      mul\n      not\n      and\n      swap1\n      dup4\n      0xffffffffffffffffffffffffffffffffffffffff\n      and\n      mul\n      or\n      swap1\n      sstore\n      pop\n        /* \"contracts/Users.sol\":1471:1489  addToWhitelist(id) */\n      tag_97\n        /* \"contracts/Users.sol\":1486:1488  id */\n      dup7\n        /* \"contracts/Users.sol\":1471:1485  addToWhitelist */\n      tag_41\n        /* \"contracts/Users.sol\":1471:1489  addToWhitelist(id) */\n      jump\t// in\n    tag_97:\n        /* \"contracts/Users.sol\":664:1496  function addUser(address id, string memory name, Role role) public {... */\n      pop\n      pop\n      pop\n      pop\n      pop\n      pop\n      jump\t// out\n        /* \"contracts/WhiteList.sol\":890:1006  function removeFromWhitelist(address _beneficiary) public onlyOwner {\r... */\n    tag_26:\n        /* \"contracts/Owner.sol\":716:721  owner */\n      0x00\n      dup1\n      sload\n      swap1\n      0x0100\n      exp\n      swap1\n      div\n      0xffffffffffffffffffffffffffffffffffffffff\n      and\n        /* \"contracts/Owner.sol\":702:721  msg.sender == owner */\n      0xffffffffffffffffffffffffffffffffffffffff\n      and\n        /* \"contracts/Owner.sol\":702:712  msg.sender */\n      caller\n        /* \"contracts/Owner.sol\":702:721  msg.sender == owner */\n      0xffffffffffffffffffffffffffffffffffffffff\n      and\n      eq\n        /* \"contracts/Owner.sol\":694:750  require(msg.sender == owner, \"Not authorized operation\") */\n      tag_99\n      jumpi\n      mload(0x40)\n      0x08c379a000000000000000000000000000000000000000000000000000000000\n      dup2\n      mstore\n      0x04\n      add\n      tag_100\n      swap1\n      tag_101\n      jump\t// in\n    tag_100:\n      mload(0x40)\n      dup1\n      swap2\n      sub\n      swap1\n      revert\n    tag_99:\n        /* \"contracts/WhiteList.sol\":993:998  false */\n      0x00\n        /* \"contracts/WhiteList.sol\":967:976  whitelist */\n      0x01\n        /* \"contracts/WhiteList.sol\":967:990  whitelist[_beneficiary] */\n      0x00\n        /* \"contracts/WhiteList.sol\":977:989  _beneficiary */\n      dup4\n        /* \"contracts/WhiteList.sol\":967:990  whitelist[_beneficiary] */\n      0xffffffffffffffffffffffffffffffffffffffff\n      and\n      0xffffffffffffffffffffffffffffffffffffffff\n      and\n      dup2\n      mstore\n      0x20\n      add\n      swap1\n      dup2\n      mstore\n      0x20\n      add\n      0x00\n      keccak256\n      0x00\n        /* \"contracts/WhiteList.sol\":967:998  whitelist[_beneficiary] = false */\n      0x0100\n      exp\n      dup2\n      sload\n      dup2\n      0xff\n      mul\n      not\n      and\n      swap1\n      dup4\n      iszero\n      iszero\n      mul\n      or\n      swap1\n      sstore\n      pop\n        /* \"contracts/WhiteList.sol\":890:1006  function removeFromWhitelist(address _beneficiary) public onlyOwner {\r... */\n      pop\n      jump\t// out\n        /* \"contracts/Owner.sol\":275:295  address public owner */\n    tag_28:\n      0x00\n      dup1\n      sload\n      swap1\n      0x0100\n      exp\n      swap1\n      div\n      0xffffffffffffffffffffffffffffffffffffffff\n      and\n      dup2\n      jump\t// out\n        /* \"contracts/WhiteList.sol\":189:230  mapping(address => bool) public whitelist */\n    tag_32:\n      mstore(0x20, 0x01)\n      dup1\n      0x00\n      mstore\n      keccak256(0x00, 0x40)\n      0x00\n      swap2\n      pop\n      sload\n      swap1\n      0x0100\n      exp\n      swap1\n      div\n      0xff\n      and\n      dup2\n      jump\t// out\n        /* \"contracts/Users.sol\":1551:1639  function getUsersCount() public view returns (uint) {... */\n    tag_36:\n        /* \"contracts/Users.sol\":1597:1601  uint */\n      0x00\n        /* \"contracts/Users.sol\":1620:1625  users */\n      0x03\n        /* \"contracts/Users.sol\":1620:1632  users.length */\n      dup1\n      sload\n      swap1\n      pop\n        /* \"contracts/Users.sol\":1613:1632  return users.length */\n      swap1\n      pop\n        /* \"contracts/Users.sol\":1551:1639  function getUsersCount() public view returns (uint) {... */\n      swap1\n      jump\t// out\n        /* \"contracts/WhiteList.sol\":624:739  function addToWhitelist(address _beneficiaries) public  {\r... */\n    tag_41:\n        /* \"contracts/WhiteList.sol\":725:729  true */\n      0x01\n        /* \"contracts/WhiteList.sol\":697:706  whitelist */\n      dup1\n        /* \"contracts/WhiteList.sol\":697:722  whitelist[_beneficiaries] */\n      0x00\n        /* \"contracts/WhiteList.sol\":707:721  _beneficiaries */\n      dup4\n        /* \"contracts/WhiteList.sol\":697:722  whitelist[_beneficiaries] */\n      0xffffffffffffffffffffffffffffffffffffffff\n      and\n      0xffffffffffffffffffffffffffffffffffffffff\n      and\n      dup2\n      mstore\n      0x20\n      add\n      swap1\n      dup2\n      mstore\n      0x20\n      add\n      0x00\n      keccak256\n      0x00\n        /* \"contracts/WhiteList.sol\":697:729  whitelist[_beneficiaries] = true */\n      0x0100\n      exp\n      dup2\n      sload\n      dup2\n      0xff\n      mul\n      not\n      and\n      swap1\n      dup4\n      iszero\n      iszero\n      mul\n      or\n      swap1\n      sstore\n      pop\n        /* \"contracts/WhiteList.sol\":624:739  function addToWhitelist(address _beneficiaries) public  {\r... */\n      pop\n      jump\t// out\n        /* \"contracts/Users.sol\":524:563  mapping(address => Actor) public actors */\n    tag_44:\n      mstore(0x20, 0x02)\n      dup1\n      0x00\n      mstore\n      keccak256(0x00, 0x40)\n      0x00\n      swap2\n      pop\n      swap1\n      pop\n      dup1\n      0x00\n      add\n      dup1\n      sload\n      tag_105\n      swap1\n      tag_55\n      jump\t// in\n    tag_105:\n      dup1\n      0x1f\n      add\n      0x20\n      dup1\n      swap2\n      div\n      mul\n      0x20\n      add\n      mload(0x40)\n      swap1\n      dup2\n      add\n      0x40\n      mstore\n      dup1\n      swap3\n      swap2\n      swap1\n      dup2\n      dup2\n      mstore\n      0x20\n      add\n      dup3\n      dup1\n      sload\n      tag_106\n      swap1\n      tag_55\n      jump\t// in\n    tag_106:\n      dup1\n      iszero\n      tag_107\n      jumpi\n      dup1\n      0x1f\n      lt\n      tag_108\n      jumpi\n      0x0100\n      dup1\n      dup4\n      sload\n      div\n      mul\n      dup4\n      mstore\n      swap2\n      0x20\n      add\n      swap2\n      jump(tag_107)\n    tag_108:\n      dup3\n      add\n      swap2\n      swap1\n      0x00\n      mstore\n      keccak256(0x00, 0x20)\n      swap1\n    tag_109:\n      dup2\n      sload\n      dup2\n      mstore\n      swap1\n      0x01\n      add\n      swap1\n      0x20\n      add\n      dup1\n      dup4\n      gt\n      tag_109\n      jumpi\n      dup3\n      swap1\n      sub\n      0x1f\n      and\n      dup3\n      add\n      swap2\n    tag_107:\n      pop\n      pop\n      pop\n      pop\n      pop\n      swap1\n      dup1\n      0x01\n      add\n      0x00\n      swap1\n      sload\n      swap1\n      0x0100\n      exp\n      swap1\n      div\n      0xff\n      and\n      swap1\n      pop\n      dup3\n      jump\t// out\n        /* \"contracts/Owner.sol\":940:1157  function transferOwnership(address newOwner) public onlyOwner {... */\n    tag_49:\n        /* \"contracts/Owner.sol\":716:721  owner */\n      0x00\n      dup1\n      sload\n      swap1\n      0x0100\n      exp\n      swap1\n      div\n      0xffffffffffffffffffffffffffffffffffffffff\n      and\n        /* \"contracts/Owner.sol\":702:721  msg.sender == owner */\n      0xffffffffffffffffffffffffffffffffffffffff\n      and\n        /* \"contracts/Owner.sol\":702:712  msg.sender */\n      caller\n        /* \"contracts/Owner.sol\":702:721  msg.sender == owner */\n      0xffffffffffffffffffffffffffffffffffffffff\n      and\n      eq\n        /* \"contracts/Owner.sol\":694:750  require(msg.sender == owner, \"Not authorized operation\") */\n      tag_111\n      jumpi\n      mload(0x40)\n      0x08c379a000000000000000000000000000000000000000000000000000000000\n      dup2\n      mstore\n      0x04\n      add\n      tag_112\n      swap1\n      tag_101\n      jump\t// in\n    tag_112:\n      mload(0x40)\n      dup1\n      swap2\n      sub\n      swap1\n      revert\n    tag_111:\n        /* \"contracts/Owner.sol\":1040:1041  0 */\n      0x00\n        /* \"contracts/Owner.sol\":1020:1042  newOwner != address(0) */\n      0xffffffffffffffffffffffffffffffffffffffff\n      and\n        /* \"contracts/Owner.sol\":1020:1028  newOwner */\n      dup2\n        /* \"contracts/Owner.sol\":1020:1042  newOwner != address(0) */\n      0xffffffffffffffffffffffffffffffffffffffff\n      and\n      eq\n      iszero\n        /* \"contracts/Owner.sol\":1012:1072  require(newOwner != address(0), \"Address shouldn't be zero\") */\n      tag_114\n      jumpi\n      mload(0x40)\n      0x08c379a000000000000000000000000000000000000000000000000000000000\n      dup2\n      mstore\n      0x04\n      add\n      tag_115\n      swap1\n      tag_116\n      jump\t// in\n    tag_115:\n      mload(0x40)\n      dup1\n      swap2\n      sub\n      swap1\n      revert\n    tag_114:\n        /* \"contracts/Owner.sol\":1115:1123  newOwner */\n      dup1\n        /* \"contracts/Owner.sol\":1087:1124  OwnershipTransferred(owner, newOwner) */\n      0xffffffffffffffffffffffffffffffffffffffff\n      and\n        /* \"contracts/Owner.sol\":1108:1113  owner */\n      0x00\n      dup1\n      sload\n      swap1\n      0x0100\n      exp\n      swap1\n      div\n      0xffffffffffffffffffffffffffffffffffffffff\n      and\n        /* \"contracts/Owner.sol\":1087:1124  OwnershipTransferred(owner, newOwner) */\n      0xffffffffffffffffffffffffffffffffffffffff\n      and\n      0x8be0079c531659141344cd1fd0a4f28419497f9722a3daafe3b4186f6b6457e0\n      mload(0x40)\n      mload(0x40)\n      dup1\n      swap2\n      sub\n      swap1\n      log3\n        /* \"contracts/Owner.sol\":1142:1150  newOwner */\n      dup1\n        /* \"contracts/Owner.sol\":1134:1139  owner */\n      0x00\n      dup1\n        /* \"contracts/Owner.sol\":1134:1150  owner = newOwner */\n      0x0100\n      exp\n      dup2\n      sload\n      dup2\n      0xffffffffffffffffffffffffffffffffffffffff\n      mul\n      not\n      and\n      swap1\n      dup4\n      0xffffffffffffffffffffffffffffffffffffffff\n      and\n      mul\n      or\n      swap1\n      sstore\n      pop\n        /* \"contracts/Owner.sol\":940:1157  function transferOwnership(address newOwner) public onlyOwner {... */\n      pop\n      jump\t// out\n    tag_94:\n      dup3\n      dup1\n      sload\n      tag_117\n      swap1\n      tag_55\n      jump\t// in\n    tag_117:\n      swap1\n      0x00\n      mstore\n      keccak256(0x00, 0x20)\n      swap1\n      0x1f\n      add\n      0x20\n      swap1\n      div\n      dup2\n      add\n      swap3\n      dup3\n      tag_119\n      jumpi\n      0x00\n      dup6\n      sstore\n      jump(tag_118)\n    tag_119:\n      dup3\n      0x1f\n      lt\n      tag_120\n      jumpi\n      dup1\n      mload\n      not(0xff)\n      and\n      dup4\n      dup1\n      add\n      or\n      dup6\n      sstore\n      jump(tag_118)\n    tag_120:\n      dup3\n      dup1\n      add\n      0x01\n      add\n      dup6\n      sstore\n      dup3\n      iszero\n      tag_118\n      jumpi\n      swap2\n      dup3\n      add\n    tag_121:\n      dup3\n      dup2\n      gt\n      iszero\n      tag_122\n      jumpi\n      dup3\n      mload\n      dup3\n      sstore\n      swap2\n      0x20\n      add\n      swap2\n      swap1\n      0x01\n      add\n      swap1\n      jump(tag_121)\n    tag_122:\n    tag_118:\n      pop\n      swap1\n      pop\n      tag_123\n      swap2\n      swap1\n      tag_124\n      jump\t// in\n    tag_123:\n      pop\n      swap1\n      jump\t// out\n    tag_124:\n    tag_125:\n      dup1\n      dup3\n      gt\n      iszero\n      tag_126\n      jumpi\n      0x00\n      dup2\n      0x00\n      swap1\n      sstore\n      pop\n      0x01\n      add\n      jump(tag_125)\n    tag_126:\n      pop\n      swap1\n      jump\t// out\n        /* \"#utility.yul\":7:351   */\n    tag_128:\n      0x00\n        /* \"#utility.yul\":110:175   */\n      tag_130\n        /* \"#utility.yul\":125:174   */\n      tag_131\n        /* \"#utility.yul\":167:173   */\n      dup5\n        /* \"#utility.yul\":125:174   */\n      tag_132\n      jump\t// in\n    tag_131:\n        /* \"#utility.yul\":110:175   */\n      tag_133\n      jump\t// in\n    tag_130:\n        /* \"#utility.yul\":101:175   */\n      swap1\n      pop\n        /* \"#utility.yul\":198:204   */\n      dup3\n        /* \"#utility.yul\":191:196   */\n      dup2\n        /* \"#utility.yul\":184:205   */\n      mstore\n        /* \"#utility.yul\":236:240   */\n      0x20\n        /* \"#utility.yul\":229:234   */\n      dup2\n        /* \"#utility.yul\":225:241   */\n      add\n        /* \"#utility.yul\":274:277   */\n      dup5\n        /* \"#utility.yul\":265:271   */\n      dup5\n        /* \"#utility.yul\":260:263   */\n      dup5\n        /* \"#utility.yul\":256:272   */\n      add\n        /* \"#utility.yul\":253:278   */\n      gt\n        /* \"#utility.yul\":250:252   */\n      iszero\n      tag_134\n      jumpi\n        /* \"#utility.yul\":291:292   */\n      0x00\n        /* \"#utility.yul\":288:289   */\n      dup1\n        /* \"#utility.yul\":281:293   */\n      revert\n        /* \"#utility.yul\":250:252   */\n    tag_134:\n        /* \"#utility.yul\":304:345   */\n      tag_135\n        /* \"#utility.yul\":338:344   */\n      dup5\n        /* \"#utility.yul\":333:336   */\n      dup3\n        /* \"#utility.yul\":328:331   */\n      dup6\n        /* \"#utility.yul\":304:345   */\n      tag_136\n      jump\t// in\n    tag_135:\n        /* \"#utility.yul\":91:351   */\n      pop\n      swap4\n      swap3\n      pop\n      pop\n      pop\n      jump\t// out\n        /* \"#utility.yul\":357:496   */\n    tag_137:\n      0x00\n        /* \"#utility.yul\":441:447   */\n      dup2\n        /* \"#utility.yul\":428:448   */\n      calldataload\n        /* \"#utility.yul\":419:448   */\n      swap1\n      pop\n        /* \"#utility.yul\":457:490   */\n      tag_139\n        /* \"#utility.yul\":484:489   */\n      dup2\n        /* \"#utility.yul\":457:490   */\n      tag_140\n      jump\t// in\n    tag_139:\n        /* \"#utility.yul\":409:496   */\n      swap3\n      swap2\n      pop\n      pop\n      jump\t// out\n        /* \"#utility.yul\":502:657   */\n    tag_141:\n      0x00\n        /* \"#utility.yul\":594:600   */\n      dup2\n        /* \"#utility.yul\":581:601   */\n      calldataload\n        /* \"#utility.yul\":572:601   */\n      swap1\n      pop\n        /* \"#utility.yul\":610:651   */\n      tag_143\n        /* \"#utility.yul\":645:650   */\n      dup2\n        /* \"#utility.yul\":610:651   */\n      tag_144\n      jump\t// in\n    tag_143:\n        /* \"#utility.yul\":562:657   */\n      swap3\n      swap2\n      pop\n      pop\n      jump\t// out\n        /* \"#utility.yul\":677:950   */\n    tag_145:\n      0x00\n        /* \"#utility.yul\":782:785   */\n      dup3\n        /* \"#utility.yul\":775:779   */\n      0x1f\n        /* \"#utility.yul\":767:773   */\n      dup4\n        /* \"#utility.yul\":763:780   */\n      add\n        /* \"#utility.yul\":759:786   */\n      slt\n        /* \"#utility.yul\":749:751   */\n      tag_147\n      jumpi\n        /* \"#utility.yul\":800:801   */\n      0x00\n        /* \"#utility.yul\":797:798   */\n      dup1\n        /* \"#utility.yul\":790:802   */\n      revert\n        /* \"#utility.yul\":749:751   */\n    tag_147:\n        /* \"#utility.yul\":840:846   */\n      dup2\n        /* \"#utility.yul\":827:847   */\n      calldataload\n        /* \"#utility.yul\":865:944   */\n      tag_148\n        /* \"#utility.yul\":940:943   */\n      dup5\n        /* \"#utility.yul\":932:938   */\n      dup3\n        /* \"#utility.yul\":925:929   */\n      0x20\n        /* \"#utility.yul\":917:923   */\n      dup7\n        /* \"#utility.yul\":913:930   */\n      add\n        /* \"#utility.yul\":865:944   */\n      tag_128\n      jump\t// in\n    tag_148:\n        /* \"#utility.yul\":856:944   */\n      swap2\n      pop\n        /* \"#utility.yul\":739:950   */\n      pop\n      swap3\n      swap2\n      pop\n      pop\n      jump\t// out\n        /* \"#utility.yul\":956:1095   */\n    tag_149:\n      0x00\n        /* \"#utility.yul\":1040:1046   */\n      dup2\n        /* \"#utility.yul\":1027:1047   */\n      calldataload\n        /* \"#utility.yul\":1018:1047   */\n      swap1\n      pop\n        /* \"#utility.yul\":1056:1089   */\n      tag_151\n        /* \"#utility.yul\":1083:1088   */\n      dup2\n        /* \"#utility.yul\":1056:1089   */\n      tag_152\n      jump\t// in\n    tag_151:\n        /* \"#utility.yul\":1008:1095   */\n      swap3\n      swap2\n      pop\n      pop\n      jump\t// out\n        /* \"#utility.yul\":1101:1363   */\n    tag_25:\n      0x00\n        /* \"#utility.yul\":1209:1211   */\n      0x20\n        /* \"#utility.yul\":1197:1206   */\n      dup3\n        /* \"#utility.yul\":1188:1195   */\n      dup5\n        /* \"#utility.yul\":1184:1207   */\n      sub\n        /* \"#utility.yul\":1180:1212   */\n      slt\n        /* \"#utility.yul\":1177:1179   */\n      iszero\n      tag_154\n      jumpi\n        /* \"#utility.yul\":1225:1226   */\n      0x00\n        /* \"#utility.yul\":1222:1223   */\n      dup1\n        /* \"#utility.yul\":1215:1227   */\n      revert\n        /* \"#utility.yul\":1177:1179   */\n    tag_154:\n        /* \"#utility.yul\":1268:1269   */\n      0x00\n        /* \"#utility.yul\":1293:1346   */\n      tag_155\n        /* \"#utility.yul\":1338:1345   */\n      dup5\n        /* \"#utility.yul\":1329:1335   */\n      dup3\n        /* \"#utility.yul\":1318:1327   */\n      dup6\n        /* \"#utility.yul\":1314:1336   */\n      add\n        /* \"#utility.yul\":1293:1346   */\n      tag_137\n      jump\t// in\n    tag_155:\n        /* \"#utility.yul\":1283:1346   */\n      swap2\n      pop\n        /* \"#utility.yul\":1239:1356   */\n      pop\n        /* \"#utility.yul\":1167:1363   */\n      swap3\n      swap2\n      pop\n      pop\n      jump\t// out\n        /* \"#utility.yul\":1369:2050   */\n    tag_21:\n      0x00\n      dup1\n      0x00\n        /* \"#utility.yul\":1529:1531   */\n      0x60\n        /* \"#utility.yul\":1517:1526   */\n      dup5\n        /* \"#utility.yul\":1508:1515   */\n      dup7\n        /* \"#utility.yul\":1504:1527   */\n      sub\n        /* \"#utility.yul\":1500:1532   */\n      slt\n        /* \"#utility.yul\":1497:1499   */\n      iszero\n      tag_157\n      jumpi\n        /* \"#utility.yul\":1545:1546   */\n      0x00\n        /* \"#utility.yul\":1542:1543   */\n      dup1\n        /* \"#utility.yul\":1535:1547   */\n      revert\n        /* \"#utility.yul\":1497:1499   */\n    tag_157:\n        /* \"#utility.yul\":1588:1589   */\n      0x00\n        /* \"#utility.yul\":1613:1666   */\n      tag_158\n        /* \"#utility.yul\":1658:1665   */\n      dup7\n        /* \"#utility.yul\":1649:1655   */\n      dup3\n        /* \"#utility.yul\":1638:1647   */\n      dup8\n        /* \"#utility.yul\":1634:1656   */\n      add\n        /* \"#utility.yul\":1613:1666   */\n      tag_137\n      jump\t// in\n    tag_158:\n        /* \"#utility.yul\":1603:1666   */\n      swap4\n      pop\n        /* \"#utility.yul\":1559:1676   */\n      pop\n        /* \"#utility.yul\":1743:1745   */\n      0x20\n        /* \"#utility.yul\":1732:1741   */\n      dup5\n        /* \"#utility.yul\":1728:1746   */\n      add\n        /* \"#utility.yul\":1715:1747   */\n      calldataload\n        /* \"#utility.yul\":1774:1792   */\n      0xffffffffffffffff\n        /* \"#utility.yul\":1766:1772   */\n      dup2\n        /* \"#utility.yul\":1763:1793   */\n      gt\n        /* \"#utility.yul\":1760:1762   */\n      iszero\n      tag_159\n      jumpi\n        /* \"#utility.yul\":1806:1807   */\n      0x00\n        /* \"#utility.yul\":1803:1804   */\n      dup1\n        /* \"#utility.yul\":1796:1808   */\n      revert\n        /* \"#utility.yul\":1760:1762   */\n    tag_159:\n        /* \"#utility.yul\":1834:1897   */\n      tag_160\n        /* \"#utility.yul\":1889:1896   */\n      dup7\n        /* \"#utility.yul\":1880:1886   */\n      dup3\n        /* \"#utility.yul\":1869:1878   */\n      dup8\n        /* \"#utility.yul\":1865:1887   */\n      add\n        /* \"#utility.yul\":1834:1897   */\n      tag_145\n      jump\t// in\n    tag_160:\n        /* \"#utility.yul\":1824:1897   */\n      swap3\n      pop\n        /* \"#utility.yul\":1686:1907   */\n      pop\n        /* \"#utility.yul\":1946:1948   */\n      0x40\n        /* \"#utility.yul\":1972:2033   */\n      tag_161\n        /* \"#utility.yul\":2025:2032   */\n      dup7\n        /* \"#utility.yul\":2016:2022   */\n      dup3\n        /* \"#utility.yul\":2005:2014   */\n      dup8\n        /* \"#utility.yul\":2001:2023   */\n      add\n        /* \"#utility.yul\":1972:2033   */\n      tag_141\n      jump\t// in\n    tag_161:\n        /* \"#utility.yul\":1962:2033   */\n      swap2\n      pop\n        /* \"#utility.yul\":1917:2043   */\n      pop\n        /* \"#utility.yul\":1487:2050   */\n      swap3\n      pop\n      swap3\n      pop\n      swap3\n      jump\t// out\n        /* \"#utility.yul\":2056:2318   */\n    tag_15:\n      0x00\n        /* \"#utility.yul\":2164:2166   */\n      0x20\n        /* \"#utility.yul\":2152:2161   */\n      dup3\n        /* \"#utility.yul\":2143:2150   */\n      dup5\n        /* \"#utility.yul\":2139:2162   */\n      sub\n        /* \"#utility.yul\":2135:2167   */\n      slt\n        /* \"#utility.yul\":2132:2134   */\n      iszero\n      tag_163\n      jumpi\n        /* \"#utility.yul\":2180:2181   */\n      0x00\n        /* \"#utility.yul\":2177:2178   */\n      dup1\n        /* \"#utility.yul\":2170:2182   */\n      revert\n        /* \"#utility.yul\":2132:2134   */\n    tag_163:\n        /* \"#utility.yul\":2223:2224   */\n      0x00\n        /* \"#utility.yul\":2248:2301   */\n      tag_164\n        /* \"#utility.yul\":2293:2300   */\n      dup5\n        /* \"#utility.yul\":2284:2290   */\n      dup3\n        /* \"#utility.yul\":2273:2282   */\n      dup6\n        /* \"#utility.yul\":2269:2291   */\n      add\n        /* \"#utility.yul\":2248:2301   */\n      tag_149\n      jump\t// in\n    tag_164:\n        /* \"#utility.yul\":2238:2301   */\n      swap2\n      pop\n        /* \"#utility.yul\":2194:2311   */\n      pop\n        /* \"#utility.yul\":2122:2318   */\n      swap3\n      swap2\n      pop\n      pop\n      jump\t// out\n        /* \"#utility.yul\":2324:2442   */\n    tag_165:\n        /* \"#utility.yul\":2411:2435   */\n      tag_167\n        /* \"#utility.yul\":2429:2434   */\n      dup2\n        /* \"#utility.yul\":2411:2435   */\n      tag_168\n      jump\t// in\n    tag_167:\n        /* \"#utility.yul\":2406:2409   */\n      dup3\n        /* \"#utility.yul\":2399:2436   */\n      mstore\n        /* \"#utility.yul\":2389:2442   */\n      pop\n      pop\n      jump\t// out\n        /* \"#utility.yul\":2448:2557   */\n    tag_169:\n        /* \"#utility.yul\":2529:2550   */\n      tag_171\n        /* \"#utility.yul\":2544:2549   */\n      dup2\n        /* \"#utility.yul\":2529:2550   */\n      tag_172\n      jump\t// in\n    tag_171:\n        /* \"#utility.yul\":2524:2527   */\n      dup3\n        /* \"#utility.yul\":2517:2551   */\n      mstore\n        /* \"#utility.yul\":2507:2557   */\n      pop\n      pop\n      jump\t// out\n        /* \"#utility.yul\":2563:2706   */\n    tag_173:\n        /* \"#utility.yul\":2656:2699   */\n      tag_175\n        /* \"#utility.yul\":2693:2698   */\n      dup2\n        /* \"#utility.yul\":2656:2699   */\n      tag_176\n      jump\t// in\n    tag_175:\n        /* \"#utility.yul\":2651:2654   */\n      dup3\n        /* \"#utility.yul\":2644:2700   */\n      mstore\n        /* \"#utility.yul\":2634:2706   */\n      pop\n      pop\n      jump\t// out\n        /* \"#utility.yul\":2712:3076   */\n    tag_177:\n      0x00\n        /* \"#utility.yul\":2828:2867   */\n      tag_179\n        /* \"#utility.yul\":2861:2866   */\n      dup3\n        /* \"#utility.yul\":2828:2867   */\n      tag_180\n      jump\t// in\n    tag_179:\n        /* \"#utility.yul\":2883:2954   */\n      tag_181\n        /* \"#utility.yul\":2947:2953   */\n      dup2\n        /* \"#utility.yul\":2942:2945   */\n      dup6\n        /* \"#utility.yul\":2883:2954   */\n      tag_182\n      jump\t// in\n    tag_181:\n        /* \"#utility.yul\":2876:2954   */\n      swap4\n      pop\n        /* \"#utility.yul\":2963:3015   */\n      tag_183\n        /* \"#utility.yul\":3008:3014   */\n      dup2\n        /* \"#utility.yul\":3003:3006   */\n      dup6\n        /* \"#utility.yul\":2996:3000   */\n      0x20\n        /* \"#utility.yul\":2989:2994   */\n      dup7\n        /* \"#utility.yul\":2985:3001   */\n      add\n        /* \"#utility.yul\":2963:3015   */\n      tag_184\n      jump\t// in\n    tag_183:\n        /* \"#utility.yul\":3040:3069   */\n      tag_185\n        /* \"#utility.yul\":3062:3068   */\n      dup2\n        /* \"#utility.yul\":3040:3069   */\n      tag_186\n      jump\t// in\n    tag_185:\n        /* \"#utility.yul\":3035:3038   */\n      dup5\n        /* \"#utility.yul\":3031:3070   */\n      add\n        /* \"#utility.yul\":3024:3070   */\n      swap2\n      pop\n        /* \"#utility.yul\":2804:3076   */\n      pop\n      swap3\n      swap2\n      pop\n      pop\n      jump\t// out\n        /* \"#utility.yul\":3082:3405   */\n    tag_187:\n      0x00\n        /* \"#utility.yul\":3245:3312   */\n      tag_189\n        /* \"#utility.yul\":3309:3311   */\n      0x19\n        /* \"#utility.yul\":3304:3307   */\n      dup4\n        /* \"#utility.yul\":3245:3312   */\n      tag_182\n      jump\t// in\n    tag_189:\n        /* \"#utility.yul\":3238:3312   */\n      swap2\n      pop\n        /* \"#utility.yul\":3342:3369   */\n      0x416464726573732073686f756c646e2774206265207a65726f00000000000000\n        /* \"#utility.yul\":3338:3339   */\n      0x00\n        /* \"#utility.yul\":3333:3336   */\n      dup4\n        /* \"#utility.yul\":3329:3340   */\n      add\n        /* \"#utility.yul\":3322:3370   */\n      mstore\n        /* \"#utility.yul\":3396:3398   */\n      0x20\n        /* \"#utility.yul\":3391:3394   */\n      dup3\n        /* \"#utility.yul\":3387:3399   */\n      add\n        /* \"#utility.yul\":3380:3399   */\n      swap1\n      pop\n        /* \"#utility.yul\":3228:3405   */\n      swap2\n      swap1\n      pop\n      jump\t// out\n        /* \"#utility.yul\":3411:3788   */\n    tag_190:\n      0x00\n        /* \"#utility.yul\":3574:3641   */\n      tag_192\n        /* \"#utility.yul\":3638:3640   */\n      0x2d\n        /* \"#utility.yul\":3633:3636   */\n      dup4\n        /* \"#utility.yul\":3574:3641   */\n      tag_182\n      jump\t// in\n    tag_192:\n        /* \"#utility.yul\":3567:3641   */\n      swap2\n      pop\n        /* \"#utility.yul\":3671:3705   */\n      0x43616e6e6f7420616464206d616e756661637475726572206f7220737570706c\n        /* \"#utility.yul\":3667:3668   */\n      0x00\n        /* \"#utility.yul\":3662:3665   */\n      dup4\n        /* \"#utility.yul\":3658:3669   */\n      add\n        /* \"#utility.yul\":3651:3706   */\n      mstore\n        /* \"#utility.yul\":3737:3752   */\n      0x696572206f722076656e646f7200000000000000000000000000000000000000\n        /* \"#utility.yul\":3732:3734   */\n      0x20\n        /* \"#utility.yul\":3727:3730   */\n      dup4\n        /* \"#utility.yul\":3723:3735   */\n      add\n        /* \"#utility.yul\":3716:3753   */\n      mstore\n        /* \"#utility.yul\":3779:3781   */\n      0x40\n        /* \"#utility.yul\":3774:3777   */\n      dup3\n        /* \"#utility.yul\":3770:3782   */\n      add\n        /* \"#utility.yul\":3763:3782   */\n      swap1\n      pop\n        /* \"#utility.yul\":3557:3788   */\n      swap2\n      swap1\n      pop\n      jump\t// out\n        /* \"#utility.yul\":3794:4173   */\n    tag_193:\n      0x00\n        /* \"#utility.yul\":3957:4024   */\n      tag_195\n        /* \"#utility.yul\":4021:4023   */\n      0x2f\n        /* \"#utility.yul\":4016:4019   */\n      dup4\n        /* \"#utility.yul\":3957:4024   */\n      tag_182\n      jump\t// in\n    tag_195:\n        /* \"#utility.yul\":3950:4024   */\n      swap2\n      pop\n        /* \"#utility.yul\":4054:4088   */\n      0x43616e6e6f7420616464206d616e756661637475726572206f7220637573746f\n        /* \"#utility.yul\":4050:4051   */\n      0x00\n        /* \"#utility.yul\":4045:4048   */\n      dup4\n        /* \"#utility.yul\":4041:4052   */\n      add\n        /* \"#utility.yul\":4034:4089   */\n      mstore\n        /* \"#utility.yul\":4120:4137   */\n      0x6d6572206f7220737570706c6965720000000000000000000000000000000000\n        /* \"#utility.yul\":4115:4117   */\n      0x20\n        /* \"#utility.yul\":4110:4113   */\n      dup4\n        /* \"#utility.yul\":4106:4118   */\n      add\n        /* \"#utility.yul\":4099:4138   */\n      mstore\n        /* \"#utility.yul\":4164:4166   */\n      0x40\n        /* \"#utility.yul\":4159:4162   */\n      dup3\n        /* \"#utility.yul\":4155:4167   */\n      add\n        /* \"#utility.yul\":4148:4167   */\n      swap1\n      pop\n        /* \"#utility.yul\":3940:4173   */\n      swap2\n      swap1\n      pop\n      jump\t// out\n        /* \"#utility.yul\":4179:4496   */\n    tag_196:\n      0x00\n        /* \"#utility.yul\":4342:4409   */\n      tag_198\n        /* \"#utility.yul\":4406:4408   */\n      0x13\n        /* \"#utility.yul\":4401:4404   */\n      dup4\n        /* \"#utility.yul\":4342:4409   */\n      tag_182\n      jump\t// in\n    tag_198:\n        /* \"#utility.yul\":4335:4409   */\n      swap2\n      pop\n        /* \"#utility.yul\":4439:4460   */\n      0x43616e6e6f742061646420616e206163746f7200000000000000000000000000\n        /* \"#utility.yul\":4435:4436   */\n      0x00\n        /* \"#utility.yul\":4430:4433   */\n      dup4\n        /* \"#utility.yul\":4426:4437   */\n      add\n        /* \"#utility.yul\":4419:4461   */\n      mstore\n        /* \"#utility.yul\":4487:4489   */\n      0x20\n        /* \"#utility.yul\":4482:4485   */\n      dup3\n        /* \"#utility.yul\":4478:4490   */\n      add\n        /* \"#utility.yul\":4471:4490   */\n      swap1\n      pop\n        /* \"#utility.yul\":4325:4496   */\n      swap2\n      swap1\n      pop\n      jump\t// out\n        /* \"#utility.yul\":4502:4824   */\n    tag_199:\n      0x00\n        /* \"#utility.yul\":4665:4732   */\n      tag_201\n        /* \"#utility.yul\":4729:4731   */\n      0x18\n        /* \"#utility.yul\":4724:4727   */\n      dup4\n        /* \"#utility.yul\":4665:4732   */\n      tag_182\n      jump\t// in\n    tag_201:\n        /* \"#utility.yul\":4658:4732   */\n      swap2\n      pop\n        /* \"#utility.yul\":4762:4788   */\n      0x4e6f7420617574686f72697a6564206f7065726174696f6e0000000000000000\n        /* \"#utility.yul\":4758:4759   */\n      0x00\n        /* \"#utility.yul\":4753:4756   */\n      dup4\n        /* \"#utility.yul\":4749:4760   */\n      add\n        /* \"#utility.yul\":4742:4789   */\n      mstore\n        /* \"#utility.yul\":4815:4817   */\n      0x20\n        /* \"#utility.yul\":4810:4813   */\n      dup3\n        /* \"#utility.yul\":4806:4818   */\n      add\n        /* \"#utility.yul\":4799:4818   */\n      swap1\n      pop\n        /* \"#utility.yul\":4648:4824   */\n      swap2\n      swap1\n      pop\n      jump\t// out\n        /* \"#utility.yul\":4830:5209   */\n    tag_202:\n      0x00\n        /* \"#utility.yul\":4993:5060   */\n      tag_204\n        /* \"#utility.yul\":5057:5059   */\n      0x2f\n        /* \"#utility.yul\":5052:5055   */\n      dup4\n        /* \"#utility.yul\":4993:5060   */\n      tag_182\n      jump\t// in\n    tag_204:\n        /* \"#utility.yul\":4986:5060   */\n      swap2\n      pop\n        /* \"#utility.yul\":5090:5124   */\n      0x43616e6e6f7420616464206d616e756661637475726572206f7220737570706c\n        /* \"#utility.yul\":5086:5087   */\n      0x00\n        /* \"#utility.yul\":5081:5084   */\n      dup4\n        /* \"#utility.yul\":5077:5088   */\n      add\n        /* \"#utility.yul\":5070:5125   */\n      mstore\n        /* \"#utility.yul\":5156:5173   */\n      0x696572206f7220637573746f6d65720000000000000000000000000000000000\n        /* \"#utility.yul\":5151:5153   */\n      0x20\n        /* \"#utility.yul\":5146:5149   */\n      dup4\n        /* \"#utility.yul\":5142:5154   */\n      add\n        /* \"#utility.yul\":5135:5174   */\n      mstore\n        /* \"#utility.yul\":5200:5202   */\n      0x40\n        /* \"#utility.yul\":5195:5198   */\n      dup3\n        /* \"#utility.yul\":5191:5203   */\n      add\n        /* \"#utility.yul\":5184:5203   */\n      swap1\n      pop\n        /* \"#utility.yul\":4976:5209   */\n      swap2\n      swap1\n      pop\n      jump\t// out\n        /* \"#utility.yul\":5215:5333   */\n    tag_205:\n        /* \"#utility.yul\":5302:5326   */\n      tag_207\n        /* \"#utility.yul\":5320:5325   */\n      dup2\n        /* \"#utility.yul\":5302:5326   */\n      tag_208\n      jump\t// in\n    tag_207:\n        /* \"#utility.yul\":5297:5300   */\n      dup3\n        /* \"#utility.yul\":5290:5327   */\n      mstore\n        /* \"#utility.yul\":5280:5333   */\n      pop\n      pop\n      jump\t// out\n        /* \"#utility.yul\":5339:5561   */\n    tag_18:\n      0x00\n        /* \"#utility.yul\":5470:5472   */\n      0x20\n        /* \"#utility.yul\":5459:5468   */\n      dup3\n        /* \"#utility.yul\":5455:5473   */\n      add\n        /* \"#utility.yul\":5447:5473   */\n      swap1\n      pop\n        /* \"#utility.yul\":5483:5554   */\n      tag_210\n        /* \"#utility.yul\":5551:5552   */\n      0x00\n        /* \"#utility.yul\":5540:5549   */\n      dup4\n        /* \"#utility.yul\":5536:5553   */\n      add\n        /* \"#utility.yul\":5527:5533   */\n      dup5\n        /* \"#utility.yul\":5483:5554   */\n      tag_165\n      jump\t// in\n    tag_210:\n        /* \"#utility.yul\":5437:5561   */\n      swap3\n      swap2\n      pop\n      pop\n      jump\t// out\n        /* \"#utility.yul\":5567:5777   */\n    tag_34:\n      0x00\n        /* \"#utility.yul\":5692:5694   */\n      0x20\n        /* \"#utility.yul\":5681:5690   */\n      dup3\n        /* \"#utility.yul\":5677:5695   */\n      add\n        /* \"#utility.yul\":5669:5695   */\n      swap1\n      pop\n        /* \"#utility.yul\":5705:5770   */\n      tag_212\n        /* \"#utility.yul\":5767:5768   */\n      0x00\n        /* \"#utility.yul\":5756:5765   */\n      dup4\n        /* \"#utility.yul\":5752:5769   */\n      add\n        /* \"#utility.yul\":5743:5749   */\n      dup5\n        /* \"#utility.yul\":5705:5770   */\n      tag_169\n      jump\t// in\n    tag_212:\n        /* \"#utility.yul\":5659:5777   */\n      swap3\n      swap2\n      pop\n      pop\n      jump\t// out\n        /* \"#utility.yul\":5783:6218   */\n    tag_46:\n      0x00\n        /* \"#utility.yul\":5968:5970   */\n      0x40\n        /* \"#utility.yul\":5957:5966   */\n      dup3\n        /* \"#utility.yul\":5953:5971   */\n      add\n        /* \"#utility.yul\":5945:5971   */\n      swap1\n      pop\n        /* \"#utility.yul\":6017:6026   */\n      dup2\n        /* \"#utility.yul\":6011:6015   */\n      dup2\n        /* \"#utility.yul\":6007:6027   */\n      sub\n        /* \"#utility.yul\":6003:6004   */\n      0x00\n        /* \"#utility.yul\":5992:6001   */\n      dup4\n        /* \"#utility.yul\":5988:6005   */\n      add\n        /* \"#utility.yul\":5981:6028   */\n      mstore\n        /* \"#utility.yul\":6045:6123   */\n      tag_214\n        /* \"#utility.yul\":6118:6122   */\n      dup2\n        /* \"#utility.yul\":6109:6115   */\n      dup6\n        /* \"#utility.yul\":6045:6123   */\n      tag_177\n      jump\t// in\n    tag_214:\n        /* \"#utility.yul\":6037:6123   */\n      swap1\n      pop\n        /* \"#utility.yul\":6133:6211   */\n      tag_215\n        /* \"#utility.yul\":6207:6209   */\n      0x20\n        /* \"#utility.yul\":6196:6205   */\n      dup4\n        /* \"#utility.yul\":6192:6210   */\n      add\n        /* \"#utility.yul\":6183:6189   */\n      dup5\n        /* \"#utility.yul\":6133:6211   */\n      tag_173\n      jump\t// in\n    tag_215:\n        /* \"#utility.yul\":5935:6218   */\n      swap4\n      swap3\n      pop\n      pop\n      pop\n      jump\t// out\n        /* \"#utility.yul\":6224:6643   */\n    tag_116:\n      0x00\n        /* \"#utility.yul\":6428:6430   */\n      0x20\n        /* \"#utility.yul\":6417:6426   */\n      dup3\n        /* \"#utility.yul\":6413:6431   */\n      add\n        /* \"#utility.yul\":6405:6431   */\n      swap1\n      pop\n        /* \"#utility.yul\":6477:6486   */\n      dup2\n        /* \"#utility.yul\":6471:6475   */\n      dup2\n        /* \"#utility.yul\":6467:6487   */\n      sub\n        /* \"#utility.yul\":6463:6464   */\n      0x00\n        /* \"#utility.yul\":6452:6461   */\n      dup4\n        /* \"#utility.yul\":6448:6465   */\n      add\n        /* \"#utility.yul\":6441:6488   */\n      mstore\n        /* \"#utility.yul\":6505:6636   */\n      tag_217\n        /* \"#utility.yul\":6631:6635   */\n      dup2\n        /* \"#utility.yul\":6505:6636   */\n      tag_187\n      jump\t// in\n    tag_217:\n        /* \"#utility.yul\":6497:6636   */\n      swap1\n      pop\n        /* \"#utility.yul\":6395:6643   */\n      swap2\n      swap1\n      pop\n      jump\t// out\n        /* \"#utility.yul\":6649:7068   */\n    tag_86:\n      0x00\n        /* \"#utility.yul\":6853:6855   */\n      0x20\n        /* \"#utility.yul\":6842:6851   */\n      dup3\n        /* \"#utility.yul\":6838:6856   */\n      add\n        /* \"#utility.yul\":6830:6856   */\n      swap1\n      pop\n        /* \"#utility.yul\":6902:6911   */\n      dup2\n        /* \"#utility.yul\":6896:6900   */\n      dup2\n        /* \"#utility.yul\":6892:6912   */\n      sub\n        /* \"#utility.yul\":6888:6889   */\n      0x00\n        /* \"#utility.yul\":6877:6886   */\n      dup4\n        /* \"#utility.yul\":6873:6890   */\n      add\n        /* \"#utility.yul\":6866:6913   */\n      mstore\n        /* \"#utility.yul\":6930:7061   */\n      tag_219\n        /* \"#utility.yul\":7056:7060   */\n      dup2\n        /* \"#utility.yul\":6930:7061   */\n      tag_190\n      jump\t// in\n    tag_219:\n        /* \"#utility.yul\":6922:7061   */\n      swap1\n      pop\n        /* \"#utility.yul\":6820:7068   */\n      swap2\n      swap1\n      pop\n      jump\t// out\n        /* \"#utility.yul\":7074:7493   */\n    tag_70:\n      0x00\n        /* \"#utility.yul\":7278:7280   */\n      0x20\n        /* \"#utility.yul\":7267:7276   */\n      dup3\n        /* \"#utility.yul\":7263:7281   */\n      add\n        /* \"#utility.yul\":7255:7281   */\n      swap1\n      pop\n        /* \"#utility.yul\":7327:7336   */\n      dup2\n        /* \"#utility.yul\":7321:7325   */\n      dup2\n        /* \"#utility.yul\":7317:7337   */\n      sub\n        /* \"#utility.yul\":7313:7314   */\n      0x00\n        /* \"#utility.yul\":7302:7311   */\n      dup4\n        /* \"#utility.yul\":7298:7315   */\n      add\n        /* \"#utility.yul\":7291:7338   */\n      mstore\n        /* \"#utility.yul\":7355:7486   */\n      tag_221\n        /* \"#utility.yul\":7481:7485   */\n      dup2\n        /* \"#utility.yul\":7355:7486   */\n      tag_193\n      jump\t// in\n    tag_221:\n        /* \"#utility.yul\":7347:7486   */\n      swap1\n      pop\n        /* \"#utility.yul\":7245:7493   */\n      swap2\n      swap1\n      pop\n      jump\t// out\n        /* \"#utility.yul\":7499:7918   */\n    tag_91:\n      0x00\n        /* \"#utility.yul\":7703:7705   */\n      0x20\n        /* \"#utility.yul\":7692:7701   */\n      dup3\n        /* \"#utility.yul\":7688:7706   */\n      add\n        /* \"#utility.yul\":7680:7706   */\n      swap1\n      pop\n        /* \"#utility.yul\":7752:7761   */\n      dup2\n        /* \"#utility.yul\":7746:7750   */\n      dup2\n        /* \"#utility.yul\":7742:7762   */\n      sub\n        /* \"#utility.yul\":7738:7739   */\n      0x00\n        /* \"#utility.yul\":7727:7736   */\n      dup4\n        /* \"#utility.yul\":7723:7740   */\n      add\n        /* \"#utility.yul\":7716:7763   */\n      mstore\n        /* \"#utility.yul\":7780:7911   */\n      tag_223\n        /* \"#utility.yul\":7906:7910   */\n      dup2\n        /* \"#utility.yul\":7780:7911   */\n      tag_196\n      jump\t// in\n    tag_223:\n        /* \"#utility.yul\":7772:7911   */\n      swap1\n      pop\n        /* \"#utility.yul\":7670:7918   */\n      swap2\n      swap1\n      pop\n      jump\t// out\n        /* \"#utility.yul\":7924:8343   */\n    tag_101:\n      0x00\n        /* \"#utility.yul\":8128:8130   */\n      0x20\n        /* \"#utility.yul\":8117:8126   */\n      dup3\n        /* \"#utility.yul\":8113:8131   */\n      add\n        /* \"#utility.yul\":8105:8131   */\n      swap1\n      pop\n        /* \"#utility.yul\":8177:8186   */\n      dup2\n        /* \"#utility.yul\":8171:8175   */\n      dup2\n        /* \"#utility.yul\":8167:8187   */\n      sub\n        /* \"#utility.yul\":8163:8164   */\n      0x00\n        /* \"#utility.yul\":8152:8161   */\n      dup4\n        /* \"#utility.yul\":8148:8165   */\n      add\n        /* \"#utility.yul\":8141:8188   */\n      mstore\n        /* \"#utility.yul\":8205:8336   */\n      tag_225\n        /* \"#utility.yul\":8331:8335   */\n      dup2\n        /* \"#utility.yul\":8205:8336   */\n      tag_199\n      jump\t// in\n    tag_225:\n        /* \"#utility.yul\":8197:8336   */\n      swap1\n      pop\n        /* \"#utility.yul\":8095:8343   */\n      swap2\n      swap1\n      pop\n      jump\t// out\n        /* \"#utility.yul\":8349:8768   */\n    tag_78:\n      0x00\n        /* \"#utility.yul\":8553:8555   */\n      0x20\n        /* \"#utility.yul\":8542:8551   */\n      dup3\n        /* \"#utility.yul\":8538:8556   */\n      add\n        /* \"#utility.yul\":8530:8556   */\n      swap1\n      pop\n        /* \"#utility.yul\":8602:8611   */\n      dup2\n        /* \"#utility.yul\":8596:8600   */\n      dup2\n        /* \"#utility.yul\":8592:8612   */\n      sub\n        /* \"#utility.yul\":8588:8589   */\n      0x00\n        /* \"#utility.yul\":8577:8586   */\n      dup4\n        /* \"#utility.yul\":8573:8590   */\n      add\n        /* \"#utility.yul\":8566:8613   */\n      mstore\n        /* \"#utility.yul\":8630:8761   */\n      tag_227\n        /* \"#utility.yul\":8756:8760   */\n      dup2\n        /* \"#utility.yul\":8630:8761   */\n      tag_202\n      jump\t// in\n    tag_227:\n        /* \"#utility.yul\":8622:8761   */\n      swap1\n      pop\n        /* \"#utility.yul\":8520:8768   */\n      swap2\n      swap1\n      pop\n      jump\t// out\n        /* \"#utility.yul\":8774:8996   */\n    tag_38:\n      0x00\n        /* \"#utility.yul\":8905:8907   */\n      0x20\n        /* \"#utility.yul\":8894:8903   */\n      dup3\n        /* \"#utility.yul\":8890:8908   */\n      add\n        /* \"#utility.yul\":8882:8908   */\n      swap1\n      pop\n        /* \"#utility.yul\":8918:8989   */\n      tag_229\n        /* \"#utility.yul\":8986:8987   */\n      0x00\n        /* \"#utility.yul\":8975:8984   */\n      dup4\n        /* \"#utility.yul\":8971:8988   */\n      add\n        /* \"#utility.yul\":8962:8968   */\n      dup5\n        /* \"#utility.yul\":8918:8989   */\n      tag_205\n      jump\t// in\n    tag_229:\n        /* \"#utility.yul\":8872:8996   */\n      swap3\n      swap2\n      pop\n      pop\n      jump\t// out\n        /* \"#utility.yul\":9002:9285   */\n    tag_133:\n      0x00\n        /* \"#utility.yul\":9068:9070   */\n      0x40\n        /* \"#utility.yul\":9062:9071   */\n      mload\n        /* \"#utility.yul\":9052:9071   */\n      swap1\n      pop\n        /* \"#utility.yul\":9110:9114   */\n      dup2\n        /* \"#utility.yul\":9102:9108   */\n      dup2\n        /* \"#utility.yul\":9098:9115   */\n      add\n        /* \"#utility.yul\":9217:9223   */\n      dup2\n        /* \"#utility.yul\":9205:9215   */\n      dup2\n        /* \"#utility.yul\":9202:9224   */\n      lt\n        /* \"#utility.yul\":9181:9199   */\n      0xffffffffffffffff\n        /* \"#utility.yul\":9169:9179   */\n      dup3\n        /* \"#utility.yul\":9166:9200   */\n      gt\n        /* \"#utility.yul\":9163:9225   */\n      or\n        /* \"#utility.yul\":9160:9162   */\n      iszero\n      tag_231\n      jumpi\n        /* \"#utility.yul\":9228:9246   */\n      tag_232\n      tag_233\n      jump\t// in\n    tag_232:\n        /* \"#utility.yul\":9160:9162   */\n    tag_231:\n        /* \"#utility.yul\":9268:9278   */\n      dup1\n        /* \"#utility.yul\":9264:9266   */\n      0x40\n        /* \"#utility.yul\":9257:9279   */\n      mstore\n        /* \"#utility.yul\":9042:9285   */\n      pop\n      swap2\n      swap1\n      pop\n      jump\t// out\n        /* \"#utility.yul\":9291:9623   */\n    tag_132:\n      0x00\n        /* \"#utility.yul\":9443:9461   */\n      0xffffffffffffffff\n        /* \"#utility.yul\":9435:9441   */\n      dup3\n        /* \"#utility.yul\":9432:9462   */\n      gt\n        /* \"#utility.yul\":9429:9431   */\n      iszero\n      tag_235\n      jumpi\n        /* \"#utility.yul\":9465:9483   */\n      tag_236\n      tag_233\n      jump\t// in\n    tag_236:\n        /* \"#utility.yul\":9429:9431   */\n    tag_235:\n        /* \"#utility.yul\":9550:9554   */\n      0x1f\n        /* \"#utility.yul\":9546:9555   */\n      not\n        /* \"#utility.yul\":9539:9543   */\n      0x1f\n        /* \"#utility.yul\":9531:9537   */\n      dup4\n        /* \"#utility.yul\":9527:9544   */\n      add\n        /* \"#utility.yul\":9523:9556   */\n      and\n        /* \"#utility.yul\":9515:9556   */\n      swap1\n      pop\n        /* \"#utility.yul\":9611:9615   */\n      0x20\n        /* \"#utility.yul\":9605:9609   */\n      dup2\n        /* \"#utility.yul\":9601:9616   */\n      add\n        /* \"#utility.yul\":9593:9616   */\n      swap1\n      pop\n        /* \"#utility.yul\":9358:9623   */\n      swap2\n      swap1\n      pop\n      jump\t// out\n        /* \"#utility.yul\":9629:9728   */\n    tag_180:\n      0x00\n        /* \"#utility.yul\":9715:9720   */\n      dup2\n        /* \"#utility.yul\":9709:9721   */\n      mload\n        /* \"#utility.yul\":9699:9721   */\n      swap1\n      pop\n        /* \"#utility.yul\":9688:9728   */\n      swap2\n      swap1\n      pop\n      jump\t// out\n        /* \"#utility.yul\":9734:9903   */\n    tag_182:\n      0x00\n        /* \"#utility.yul\":9852:9858   */\n      dup3\n        /* \"#utility.yul\":9847:9850   */\n      dup3\n        /* \"#utility.yul\":9840:9859   */\n      mstore\n        /* \"#utility.yul\":9892:9896   */\n      0x20\n        /* \"#utility.yul\":9887:9890   */\n      dup3\n        /* \"#utility.yul\":9883:9897   */\n      add\n        /* \"#utility.yul\":9868:9897   */\n      swap1\n      pop\n        /* \"#utility.yul\":9830:9903   */\n      swap3\n      swap2\n      pop\n      pop\n      jump\t// out\n        /* \"#utility.yul\":9909:10005   */\n    tag_168:\n      0x00\n        /* \"#utility.yul\":9975:9999   */\n      tag_240\n        /* \"#utility.yul\":9993:9998   */\n      dup3\n        /* \"#utility.yul\":9975:9999   */\n      tag_241\n      jump\t// in\n    tag_240:\n        /* \"#utility.yul\":9964:9999   */\n      swap1\n      pop\n        /* \"#utility.yul\":9954:10005   */\n      swap2\n      swap1\n      pop\n      jump\t// out\n        /* \"#utility.yul\":10011:10101   */\n    tag_172:\n      0x00\n        /* \"#utility.yul\":10088:10093   */\n      dup2\n        /* \"#utility.yul\":10081:10094   */\n      iszero\n        /* \"#utility.yul\":10074:10095   */\n      iszero\n        /* \"#utility.yul\":10063:10095   */\n      swap1\n      pop\n        /* \"#utility.yul\":10053:10101   */\n      swap2\n      swap1\n      pop\n      jump\t// out\n        /* \"#utility.yul\":10107:10234   */\n    tag_243:\n      0x00\n        /* \"#utility.yul\":10181:10186   */\n      dup2\n        /* \"#utility.yul\":10170:10186   */\n      swap1\n      pop\n        /* \"#utility.yul\":10187:10228   */\n      tag_245\n        /* \"#utility.yul\":10222:10227   */\n      dup3\n        /* \"#utility.yul\":10187:10228   */\n      tag_246\n      jump\t// in\n    tag_245:\n        /* \"#utility.yul\":10160:10234   */\n      swap2\n      swap1\n      pop\n      jump\t// out\n        /* \"#utility.yul\":10240:10366   */\n    tag_241:\n      0x00\n        /* \"#utility.yul\":10317:10359   */\n      0xffffffffffffffffffffffffffffffffffffffff\n        /* \"#utility.yul\":10310:10315   */\n      dup3\n        /* \"#utility.yul\":10306:10360   */\n      and\n        /* \"#utility.yul\":10295:10360   */\n      swap1\n      pop\n        /* \"#utility.yul\":10285:10366   */\n      swap2\n      swap1\n      pop\n      jump\t// out\n        /* \"#utility.yul\":10372:10449   */\n    tag_208:\n      0x00\n        /* \"#utility.yul\":10438:10443   */\n      dup2\n        /* \"#utility.yul\":10427:10443   */\n      swap1\n      pop\n        /* \"#utility.yul\":10417:10449   */\n      swap2\n      swap1\n      pop\n      jump\t// out\n        /* \"#utility.yul\":10455:10582   */\n    tag_176:\n      0x00\n        /* \"#utility.yul\":10544:10576   */\n      tag_250\n        /* \"#utility.yul\":10570:10575   */\n      dup3\n        /* \"#utility.yul\":10544:10576   */\n      tag_243\n      jump\t// in\n    tag_250:\n        /* \"#utility.yul\":10531:10576   */\n      swap1\n      pop\n        /* \"#utility.yul\":10521:10582   */\n      swap2\n      swap1\n      pop\n      jump\t// out\n        /* \"#utility.yul\":10588:10742   */\n    tag_136:\n        /* \"#utility.yul\":10672:10678   */\n      dup3\n        /* \"#utility.yul\":10667:10670   */\n      dup2\n        /* \"#utility.yul\":10662:10665   */\n      dup4\n        /* \"#utility.yul\":10649:10679   */\n      calldatacopy\n        /* \"#utility.yul\":10734:10735   */\n      0x00\n        /* \"#utility.yul\":10725:10731   */\n      dup4\n        /* \"#utility.yul\":10720:10723   */\n      dup4\n        /* \"#utility.yul\":10716:10732   */\n      add\n        /* \"#utility.yul\":10709:10736   */\n      mstore\n        /* \"#utility.yul\":10639:10742   */\n      pop\n      pop\n      pop\n      jump\t// out\n        /* \"#utility.yul\":10748:11055   */\n    tag_184:\n        /* \"#utility.yul\":10816:10817   */\n      0x00\n        /* \"#utility.yul\":10826:10939   */\n    tag_253:\n        /* \"#utility.yul\":10840:10846   */\n      dup4\n        /* \"#utility.yul\":10837:10838   */\n      dup2\n        /* \"#utility.yul\":10834:10847   */\n      lt\n        /* \"#utility.yul\":10826:10939   */\n      iszero\n      tag_255\n      jumpi\n        /* \"#utility.yul\":10925:10926   */\n      dup1\n        /* \"#utility.yul\":10920:10923   */\n      dup3\n        /* \"#utility.yul\":10916:10927   */\n      add\n        /* \"#utility.yul\":10910:10928   */\n      mload\n        /* \"#utility.yul\":10906:10907   */\n      dup2\n        /* \"#utility.yul\":10901:10904   */\n      dup5\n        /* \"#utility.yul\":10897:10908   */\n      add\n        /* \"#utility.yul\":10890:10929   */\n      mstore\n        /* \"#utility.yul\":10862:10864   */\n      0x20\n        /* \"#utility.yul\":10859:10860   */\n      dup2\n        /* \"#utility.yul\":10855:10865   */\n      add\n        /* \"#utility.yul\":10850:10865   */\n      swap1\n      pop\n        /* \"#utility.yul\":10826:10939   */\n      jump(tag_253)\n    tag_255:\n        /* \"#utility.yul\":10957:10963   */\n      dup4\n        /* \"#utility.yul\":10954:10955   */\n      dup2\n        /* \"#utility.yul\":10951:10964   */\n      gt\n        /* \"#utility.yul\":10948:10950   */\n      iszero\n      tag_256\n      jumpi\n        /* \"#utility.yul\":11037:11038   */\n      0x00\n        /* \"#utility.yul\":11028:11034   */\n      dup5\n        /* \"#utility.yul\":11023:11026   */\n      dup5\n        /* \"#utility.yul\":11019:11035   */\n      add\n        /* \"#utility.yul\":11012:11039   */\n      mstore\n        /* \"#utility.yul\":10948:10950   */\n    tag_256:\n        /* \"#utility.yul\":10797:11055   */\n      pop\n      pop\n      pop\n      pop\n      jump\t// out\n        /* \"#utility.yul\":11061:11381   */\n    tag_55:\n      0x00\n        /* \"#utility.yul\":11142:11143   */\n      0x02\n        /* \"#utility.yul\":11136:11140   */\n      dup3\n        /* \"#utility.yul\":11132:11144   */\n      div\n        /* \"#utility.yul\":11122:11144   */\n      swap1\n      pop\n        /* \"#utility.yul\":11189:11190   */\n      0x01\n        /* \"#utility.yul\":11183:11187   */\n      dup3\n        /* \"#utility.yul\":11179:11191   */\n      and\n        /* \"#utility.yul\":11210:11228   */\n      dup1\n        /* \"#utility.yul\":11200:11202   */\n      tag_258\n      jumpi\n        /* \"#utility.yul\":11266:11270   */\n      0x7f\n        /* \"#utility.yul\":11258:11264   */\n      dup3\n        /* \"#utility.yul\":11254:11271   */\n      and\n        /* \"#utility.yul\":11244:11271   */\n      swap2\n      pop\n        /* \"#utility.yul\":11200:11202   */\n    tag_258:\n        /* \"#utility.yul\":11328:11330   */\n      0x20\n        /* \"#utility.yul\":11320:11326   */\n      dup3\n        /* \"#utility.yul\":11317:11331   */\n      lt\n        /* \"#utility.yul\":11297:11315   */\n      dup2\n        /* \"#utility.yul\":11294:11332   */\n      eq\n        /* \"#utility.yul\":11291:11293   */\n      iszero\n      tag_259\n      jumpi\n        /* \"#utility.yul\":11347:11365   */\n      tag_260\n      tag_261\n      jump\t// in\n    tag_260:\n        /* \"#utility.yul\":11291:11293   */\n    tag_259:\n        /* \"#utility.yul\":11112:11381   */\n      pop\n      swap2\n      swap1\n      pop\n      jump\t// out\n        /* \"#utility.yul\":11387:11567   */\n    tag_262:\n        /* \"#utility.yul\":11435:11512   */\n      0x4e487b7100000000000000000000000000000000000000000000000000000000\n        /* \"#utility.yul\":11432:11433   */\n      0x00\n        /* \"#utility.yul\":11425:11513   */\n      mstore\n        /* \"#utility.yul\":11532:11536   */\n      0x21\n        /* \"#utility.yul\":11529:11530   */\n      0x04\n        /* \"#utility.yul\":11522:11537   */\n      mstore\n        /* \"#utility.yul\":11556:11560   */\n      0x24\n        /* \"#utility.yul\":11553:11554   */\n      0x00\n        /* \"#utility.yul\":11546:11561   */\n      revert\n        /* \"#utility.yul\":11573:11753   */\n    tag_261:\n        /* \"#utility.yul\":11621:11698   */\n      0x4e487b7100000000000000000000000000000000000000000000000000000000\n        /* \"#utility.yul\":11618:11619   */\n      0x00\n        /* \"#utility.yul\":11611:11699   */\n      mstore\n        /* \"#utility.yul\":11718:11722   */\n      0x22\n        /* \"#utility.yul\":11715:11716   */\n      0x04\n        /* \"#utility.yul\":11708:11723   */\n      mstore\n        /* \"#utility.yul\":11742:11746   */\n      0x24\n        /* \"#utility.yul\":11739:11740   */\n      0x00\n        /* \"#utility.yul\":11732:11747   */\n      revert\n        /* \"#utility.yul\":11759:11939   */\n    tag_233:\n        /* \"#utility.yul\":11807:11884   */\n      0x4e487b7100000000000000000000000000000000000000000000000000000000\n        /* \"#utility.yul\":11804:11805   */\n      0x00\n        /* \"#utility.yul\":11797:11885   */\n      mstore\n        /* \"#utility.yul\":11904:11908   */\n      0x41\n        /* \"#utility.yul\":11901:11902   */\n      0x04\n        /* \"#utility.yul\":11894:11909   */\n      mstore\n        /* \"#utility.yul\":11928:11932   */\n      0x24\n        /* \"#utility.yul\":11925:11926   */\n      0x00\n        /* \"#utility.yul\":11918:11933   */\n      revert\n        /* \"#utility.yul\":11945:12047   */\n    tag_186:\n      0x00\n        /* \"#utility.yul\":12037:12039   */\n      0x1f\n        /* \"#utility.yul\":12033:12040   */\n      not\n        /* \"#utility.yul\":12028:12030   */\n      0x1f\n        /* \"#utility.yul\":12021:12026   */\n      dup4\n        /* \"#utility.yul\":12017:12031   */\n      add\n        /* \"#utility.yul\":12013:12041   */\n      and\n        /* \"#utility.yul\":12003:12041   */\n      swap1\n      pop\n        /* \"#utility.yul\":11993:12047   */\n      swap2\n      swap1\n      pop\n      jump\t// out\n        /* \"#utility.yul\":12053:12166   */\n    tag_246:\n        /* \"#utility.yul\":12134:12135   */\n      0x04\n        /* \"#utility.yul\":12127:12132   */\n      dup2\n        /* \"#utility.yul\":12124:12136   */\n      lt\n        /* \"#utility.yul\":12114:12116   */\n      tag_268\n      jumpi\n        /* \"#utility.yul\":12140:12158   */\n      tag_269\n      tag_262\n      jump\t// in\n    tag_269:\n        /* \"#utility.yul\":12114:12116   */\n    tag_268:\n        /* \"#utility.yul\":12104:12166   */\n      pop\n      jump\t// out\n        /* \"#utility.yul\":12172:12294   */\n    tag_140:\n        /* \"#utility.yul\":12245:12269   */\n      tag_271\n        /* \"#utility.yul\":12263:12268   */\n      dup2\n        /* \"#utility.yul\":12245:12269   */\n      tag_168\n      jump\t// in\n    tag_271:\n        /* \"#utility.yul\":12238:12243   */\n      dup2\n        /* \"#utility.yul\":12235:12270   */\n      eq\n        /* \"#utility.yul\":12225:12227   */\n      tag_272\n      jumpi\n        /* \"#utility.yul\":12284:12285   */\n      0x00\n        /* \"#utility.yul\":12281:12282   */\n      dup1\n        /* \"#utility.yul\":12274:12286   */\n      revert\n        /* \"#utility.yul\":12225:12227   */\n    tag_272:\n        /* \"#utility.yul\":12215:12294   */\n      pop\n      jump\t// out\n        /* \"#utility.yul\":12300:12407   */\n    tag_144:\n        /* \"#utility.yul\":12381:12382   */\n      0x04\n        /* \"#utility.yul\":12374:12379   */\n      dup2\n        /* \"#utility.yul\":12371:12383   */\n      lt\n        /* \"#utility.yul\":12361:12363   */\n      tag_274\n      jumpi\n        /* \"#utility.yul\":12397:12398   */\n      0x00\n        /* \"#utility.yul\":12394:12395   */\n      dup1\n        /* \"#utility.yul\":12387:12399   */\n      revert\n        /* \"#utility.yul\":12361:12363   */\n    tag_274:\n        /* \"#utility.yul\":12351:12407   */\n      pop\n      jump\t// out\n        /* \"#utility.yul\":12413:12535   */\n    tag_152:\n        /* \"#utility.yul\":12486:12510   */\n      tag_276\n        /* \"#utility.yul\":12504:12509   */\n      dup2\n        /* \"#utility.yul\":12486:12510   */\n      tag_208\n      jump\t// in\n    tag_276:\n        /* \"#utility.yul\":12479:12484   */\n      dup2\n        /* \"#utility.yul\":12476:12511   */\n      eq\n        /* \"#utility.yul\":12466:12468   */\n      tag_277\n      jumpi\n        /* \"#utility.yul\":12525:12526   */\n      0x00\n        /* \"#utility.yul\":12522:12523   */\n      dup1\n        /* \"#utility.yul\":12515:12527   */\n      revert\n        /* \"#utility.yul\":12466:12468   */\n    tag_277:\n        /* \"#utility.yul\":12456:12535   */\n      pop\n      jump\t// out\n\n    auxdata: 0xa2646970667358221220a125916e94c368e8b032e818da43662afde2144c5e96e8965135d9f83e982d3864736f6c63430008000033\n}\n",
				"bytecode": {
					"linkReferences": {},
					"object": "608060405234801561001057600080fd5b50336000806101000a81548173ffffffffffffffffffffffffffffffffffffffff021916908373ffffffffffffffffffffffffffffffffffffffff160217905550611622806100606000396000f3fe608060405234801561001057600080fd5b50600436106100935760003560e01c80639b19251a116100665780639b19251a1461011e578063a4a1e2631461014e578063e43252d71461016c578063eaa66a3c14610188578063f2fde38b146101b957610093565b8063365b98b21461009857806340d26854146100c85780638ab1d681146100e45780638da5cb5b14610100575b600080fd5b6100b260048036038101906100ad9190610fcd565b6101d5565b6040516100bf919061125d565b60405180910390f35b6100e260048036038101906100dd9190610f66565b610214565b005b6100fe60048036038101906100f99190610f3d565b6109eb565b005b610108610ad4565b604051610115919061125d565b60405180910390f35b61013860048036038101906101339190610f3d565b610af8565b6040516101459190611278565b60405180910390f35b610156610b18565b6040516101639190611383565b60405180910390f35b61018660048036038101906101819190610f3d565b610b25565b005b6101a2600480360381019061019d9190610f3d565b610b7f565b6040516101b0929190611293565b60405180910390f35b6101d360048036038101906101ce9190610f3d565b610c38565b005b600381815481106101e557600080fd5b906000526020600020016000915054906101000a900473ffffffffffffffffffffffffffffffffffffffff1681565b60006040518060400160405280848152602001836003811115610260577f4e487b7100000000000000000000000000000000000000000000000000000000600052602160045260246000fd5b81525090506000600260003373ffffffffffffffffffffffffffffffffffffffff1673ffffffffffffffffffffffffffffffffffffffff1681526020019081526020016000206040518060400160405290816000820180546102c1906114ca565b80601f01602080910402602001604051908101604052809291908181526020018280546102ed906114ca565b801561033a5780601f1061030f5761010080835404028352916020019161033a565b820191906000526020600020905b81548152906001019060200180831161031d57829003601f168201915b505050505081526020016001820160009054906101000a900460ff16600381111561038e577f4e487b7100000000000000000000000000000000000000000000000000000000600052602160045260246000fd5b60038111156103c6577f4e487b7100000000000000000000000000000000000000000000000000000000600052602160045260246000fd5b81525050905060008160200151905060008054906101000a900473ffffffffffffffffffffffffffffffffffffffff1673ffffffffffffffffffffffffffffffffffffffff163373ffffffffffffffffffffffffffffffffffffffff16146108755760006003811115610462577f4e487b7100000000000000000000000000000000000000000000000000000000600052602160045260246000fd5b81600381111561049b577f4e487b7100000000000000000000000000000000000000000000000000000000600052602160045260246000fd5b1480156105195750600160038111156104dd577f4e487b7100000000000000000000000000000000000000000000000000000000600052602160045260246000fd5b846003811115610516577f4e487b7100000000000000000000000000000000000000000000000000000000600052602160045260246000fd5b14155b15610559576040517f08c379a000000000000000000000000000000000000000000000000000000000815260040161055090611303565b60405180910390fd5b60016003811115610593577f4e487b7100000000000000000000000000000000000000000000000000000000600052602160045260246000fd5b8160038111156105cc577f4e487b7100000000000000000000000000000000000000000000000000000000600052602160045260246000fd5b14801561064e57506002600381111561060e577f4e487b7100000000000000000000000000000000000000000000000000000000600052602160045260246000fd5b8360200151600381111561064b577f4e487b7100000000000000000000000000000000000000000000000000000000600052602160045260246000fd5b14155b1561068e576040517f08c379a000000000000000000000000000000000000000000000000000000000815260040161068590611363565b60405180910390fd5b600260038111156106c8577f4e487b7100000000000000000000000000000000000000000000000000000000600052602160045260246000fd5b816003811115610701577f4e487b7100000000000000000000000000000000000000000000000000000000600052602160045260246000fd5b1480156107825750600380811115610742577f4e487b7100000000000000000000000000000000000000000000000000000000600052602160045260246000fd5b8360200151600381111561077f577f4e487b7100000000000000000000000000000000000000000000000000000000600052602160045260246000fd5b14155b156107c2576040517f08c379a00000000000000000000000000000000000000000000000000000000081526004016107b9906112e3565b60405180910390fd5b6003808111156107fb577f4e487b7100000000000000000000000000000000000000000000000000000000600052602160045260246000fd5b816003811115610834577f4e487b7100000000000000000000000000000000000000000000000000000000600052602160045260246000fd5b14610874576040517f08c379a000000000000000000000000000000000000000000000000000000000815260040161086b90611323565b60405180910390fd5b5b60405180604001604052808681526020018560038111156108bf577f4e487b7100000000000000000000000000000000000000000000000000000000600052602160045260246000fd5b815250600260008873ffffffffffffffffffffffffffffffffffffffff1673ffffffffffffffffffffffffffffffffffffffff168152602001908152602001600020600082015181600001908051906020019061091d929190610df3565b5060208201518160010160006101000a81548160ff0219169083600381111561096f577f4e487b7100000000000000000000000000000000000000000000000000000000600052602160045260246000fd5b02179055509050506003869080600181540180825580915050600190039060005260206000200160009091909190916101000a81548173ffffffffffffffffffffffffffffffffffffffff021916908373ffffffffffffffffffffffffffffffffffffffff1602179055506109e386610b25565b505050505050565b60008054906101000a900473ffffffffffffffffffffffffffffffffffffffff1673ffffffffffffffffffffffffffffffffffffffff163373ffffffffffffffffffffffffffffffffffffffff1614610a79576040517f08c379a0000000000000000000000000000000000000000000000000000000008152600401610a7090611343565b60405180910390fd5b6000600160008373ffffffffffffffffffffffffffffffffffffffff1673ffffffffffffffffffffffffffffffffffffffff16815260200190815260200160002060006101000a81548160ff02191690831515021790555050565b60008054906101000a900473ffffffffffffffffffffffffffffffffffffffff1681565b60016020528060005260406000206000915054906101000a900460ff1681565b6000600380549050905090565b60018060008373ffffffffffffffffffffffffffffffffffffffff1673ffffffffffffffffffffffffffffffffffffffff16815260200190815260200160002060006101000a81548160ff02191690831515021790555050565b6002602052806000526040600020600091509050806000018054610ba2906114ca565b80601f0160208091040260200160405190810160405280929190818152602001828054610bce906114ca565b8015610c1b5780601f10610bf057610100808354040283529160200191610c1b565b820191906000526020600020905b815481529060010190602001808311610bfe57829003601f168201915b5050505050908060010160009054906101000a900460ff16905082565b60008054906101000a900473ffffffffffffffffffffffffffffffffffffffff1673ffffffffffffffffffffffffffffffffffffffff163373ffffffffffffffffffffffffffffffffffffffff1614610cc6576040517f08c379a0000000000000000000000000000000000000000000000000000000008152600401610cbd90611343565b60405180910390fd5b600073ffffffffffffffffffffffffffffffffffffffff168173ffffffffffffffffffffffffffffffffffffffff161415610d36576040517f08c379a0000000000000000000000000000000000000000000000000000000008152600401610d2d906112c3565b60405180910390fd5b8073ffffffffffffffffffffffffffffffffffffffff1660008054906101000a900473ffffffffffffffffffffffffffffffffffffffff1673ffffffffffffffffffffffffffffffffffffffff167f8be0079c531659141344cd1fd0a4f28419497f9722a3daafe3b4186f6b6457e060405160405180910390a3806000806101000a81548173ffffffffffffffffffffffffffffffffffffffff021916908373ffffffffffffffffffffffffffffffffffffffff16021790555050565b828054610dff906114ca565b90600052602060002090601f016020900481019282610e215760008555610e68565b82601f10610e3a57805160ff1916838001178555610e68565b82800160010185558215610e68579182015b82811115610e67578251825591602001919060010190610e4c565b5b509050610e759190610e79565b5090565b5b80821115610e92576000816000905550600101610e7a565b5090565b6000610ea9610ea4846113cf565b61139e565b905082815260208101848484011115610ec157600080fd5b610ecc848285611488565b509392505050565b600081359050610ee3816115ae565b92915050565b600081359050610ef8816115c5565b92915050565b600082601f830112610f0f57600080fd5b8135610f1f848260208601610e96565b91505092915050565b600081359050610f37816115d5565b92915050565b600060208284031215610f4f57600080fd5b6000610f5d84828501610ed4565b91505092915050565b600080600060608486031215610f7b57600080fd5b6000610f8986828701610ed4565b935050602084013567ffffffffffffffff811115610fa657600080fd5b610fb286828701610efe565b9250506040610fc386828701610ee9565b9150509250925092565b600060208284031215610fdf57600080fd5b6000610fed84828501610f28565b91505092915050565b610fff8161141b565b82525050565b61100e8161142d565b82525050565b61101d81611476565b82525050565b600061102e826113ff565b611038818561140a565b9350611048818560208601611497565b61105181611589565b840191505092915050565b600061106960198361140a565b91507f416464726573732073686f756c646e2774206265207a65726f000000000000006000830152602082019050919050565b60006110a9602d8361140a565b91507f43616e6e6f7420616464206d616e756661637475726572206f7220737570706c60008301527f696572206f722076656e646f72000000000000000000000000000000000000006020830152604082019050919050565b600061110f602f8361140a565b91507f43616e6e6f7420616464206d616e756661637475726572206f7220637573746f60008301527f6d6572206f7220737570706c69657200000000000000000000000000000000006020830152604082019050919050565b600061117560138361140a565b91507f43616e6e6f742061646420616e206163746f72000000000000000000000000006000830152602082019050919050565b60006111b560188361140a565b91507f4e6f7420617574686f72697a6564206f7065726174696f6e00000000000000006000830152602082019050919050565b60006111f5602f8361140a565b91507f43616e6e6f7420616464206d616e756661637475726572206f7220737570706c60008301527f696572206f7220637573746f6d657200000000000000000000000000000000006020830152604082019050919050565b6112578161146c565b82525050565b60006020820190506112726000830184610ff6565b92915050565b600060208201905061128d6000830184611005565b92915050565b600060408201905081810360008301526112ad8185611023565b90506112bc6020830184611014565b9392505050565b600060208201905081810360008301526112dc8161105c565b9050919050565b600060208201905081810360008301526112fc8161109c565b9050919050565b6000602082019050818103600083015261131c81611102565b9050919050565b6000602082019050818103600083015261133c81611168565b9050919050565b6000602082019050818103600083015261135c816111a8565b9050919050565b6000602082019050818103600083015261137c816111e8565b9050919050565b6000602082019050611398600083018461124e565b92915050565b6000604051905081810181811067ffffffffffffffff821117156113c5576113c461155a565b5b8060405250919050565b600067ffffffffffffffff8211156113ea576113e961155a565b5b601f19601f8301169050602081019050919050565b600081519050919050565b600082825260208201905092915050565b60006114268261144c565b9050919050565b60008115159050919050565b60008190506114478261159a565b919050565b600073ffffffffffffffffffffffffffffffffffffffff82169050919050565b6000819050919050565b600061148182611439565b9050919050565b82818337600083830152505050565b60005b838110156114b557808201518184015260208101905061149a565b838111156114c4576000848401525b50505050565b600060028204905060018216806114e257607f821691505b602082108114156114f6576114f561152b565b5b50919050565b7f4e487b7100000000000000000000000000000000000000000000000000000000600052602160045260246000fd5b7f4e487b7100000000000000000000000000000000000000000000000000000000600052602260045260246000fd5b7f4e487b7100000000000000000000000000000000000000000000000000000000600052604160045260246000fd5b6000601f19601f8301169050919050565b600481106115ab576115aa6114fc565b5b50565b6115b78161141b565b81146115c257600080fd5b50565b600481106115d257600080fd5b50565b6115de8161146c565b81146115e957600080fd5b5056fea2646970667358221220a125916e94c368e8b032e818da43662afde2144c5e96e8965135d9f83e982d3864736f6c63430008000033",
					"opcodes": "PUSH1 0x80 PUSH1 0x40 MSTORE CALLVALUE DUP1 ISZERO PUSH2 0x10 JUMPI PUSH1 0x0 DUP1 REVERT JUMPDEST POP CALLER PUSH1 0x0 DUP1 PUSH2 0x100 EXP DUP2 SLOAD DUP2 PUSH20 0xFFFFFFFFFFFFFFFFFFFFFFFFFFFFFFFFFFFFFFFF MUL NOT AND SWAP1 DUP4 PUSH20 0xFFFFFFFFFFFFFFFFFFFFFFFFFFFFFFFFFFFFFFFF AND MUL OR SWAP1 SSTORE POP PUSH2 0x1622 DUP1 PUSH2 0x60 PUSH1 0x0 CODECOPY PUSH1 0x0 RETURN INVALID PUSH1 0x80 PUSH1 0x40 MSTORE CALLVALUE DUP1 ISZERO PUSH2 0x10 JUMPI PUSH1 0x0 DUP1 REVERT JUMPDEST POP PUSH1 0x4 CALLDATASIZE LT PUSH2 0x93 JUMPI PUSH1 0x0 CALLDATALOAD PUSH1 0xE0 SHR DUP1 PUSH4 0x9B19251A GT PUSH2 0x66 JUMPI DUP1 PUSH4 0x9B19251A EQ PUSH2 0x11E JUMPI DUP1 PUSH4 0xA4A1E263 EQ PUSH2 0x14E JUMPI DUP1 PUSH4 0xE43252D7 EQ PUSH2 0x16C JUMPI DUP1 PUSH4 0xEAA66A3C EQ PUSH2 0x188 JUMPI DUP1 PUSH4 0xF2FDE38B EQ PUSH2 0x1B9 JUMPI PUSH2 0x93 JUMP JUMPDEST DUP1 PUSH4 0x365B98B2 EQ PUSH2 0x98 JUMPI DUP1 PUSH4 0x40D26854 EQ PUSH2 0xC8 JUMPI DUP1 PUSH4 0x8AB1D681 EQ PUSH2 0xE4 JUMPI DUP1 PUSH4 0x8DA5CB5B EQ PUSH2 0x100 JUMPI JUMPDEST PUSH1 0x0 DUP1 REVERT JUMPDEST PUSH2 0xB2 PUSH1 0x4 DUP1 CALLDATASIZE SUB DUP2 ADD SWAP1 PUSH2 0xAD SWAP2 SWAP1 PUSH2 0xFCD JUMP JUMPDEST PUSH2 0x1D5 JUMP JUMPDEST PUSH1 0x40 MLOAD PUSH2 0xBF SWAP2 SWAP1 PUSH2 0x125D JUMP JUMPDEST PUSH1 0x40 MLOAD DUP1 SWAP2 SUB SWAP1 RETURN JUMPDEST PUSH2 0xE2 PUSH1 0x4 DUP1 CALLDATASIZE SUB DUP2 ADD SWAP1 PUSH2 0xDD SWAP2 SWAP1 PUSH2 0xF66 JUMP JUMPDEST PUSH2 0x214 JUMP JUMPDEST STOP JUMPDEST PUSH2 0xFE PUSH1 0x4 DUP1 CALLDATASIZE SUB DUP2 ADD SWAP1 PUSH2 0xF9 SWAP2 SWAP1 PUSH2 0xF3D JUMP JUMPDEST PUSH2 0x9EB JUMP JUMPDEST STOP JUMPDEST PUSH2 0x108 PUSH2 0xAD4 JUMP JUMPDEST PUSH1 0x40 MLOAD PUSH2 0x115 SWAP2 SWAP1 PUSH2 0x125D JUMP JUMPDEST PUSH1 0x40 MLOAD DUP1 SWAP2 SUB SWAP1 RETURN JUMPDEST PUSH2 0x138 PUSH1 0x4 DUP1 CALLDATASIZE SUB DUP2 ADD SWAP1 PUSH2 0x133 SWAP2 SWAP1 PUSH2 0xF3D JUMP JUMPDEST PUSH2 0xAF8 JUMP JUMPDEST PUSH1 0x40 MLOAD PUSH2 0x145 SWAP2 SWAP1 PUSH2 0x1278 JUMP JUMPDEST PUSH1 0x40 MLOAD DUP1 SWAP2 SUB SWAP1 RETURN JUMPDEST PUSH2 0x156 PUSH2 0xB18 JUMP JUMPDEST PUSH1 0x40 MLOAD PUSH2 0x163 SWAP2 SWAP1 PUSH2 0x1383 JUMP JUMPDEST PUSH1 0x40 MLOAD DUP1 SWAP2 SUB SWAP1 RETURN JUMPDEST PUSH2 0x186 PUSH1 0x4 DUP1 CALLDATASIZE SUB DUP2 ADD SWAP1 PUSH2 0x181 SWAP2 SWAP1 PUSH2 0xF3D JUMP JUMPDEST PUSH2 0xB25 JUMP JUMPDEST STOP JUMPDEST PUSH2 0x1A2 PUSH1 0x4 DUP1 CALLDATASIZE SUB DUP2 ADD SWAP1 PUSH2 0x19D SWAP2 SWAP1 PUSH2 0xF3D JUMP JUMPDEST PUSH2 0xB7F JUMP JUMPDEST PUSH1 0x40 MLOAD PUSH2 0x1B0 SWAP3 SWAP2 SWAP1 PUSH2 0x1293 JUMP JUMPDEST PUSH1 0x40 MLOAD DUP1 SWAP2 SUB SWAP1 RETURN JUMPDEST PUSH2 0x1D3 PUSH1 0x4 DUP1 CALLDATASIZE SUB DUP2 ADD SWAP1 PUSH2 0x1CE SWAP2 SWAP1 PUSH2 0xF3D JUMP JUMPDEST PUSH2 0xC38 JUMP JUMPDEST STOP JUMPDEST PUSH1 0x3 DUP2 DUP2 SLOAD DUP2 LT PUSH2 0x1E5 JUMPI PUSH1 0x0 DUP1 REVERT JUMPDEST SWAP1 PUSH1 0x0 MSTORE PUSH1 0x20 PUSH1 0x0 KECCAK256 ADD PUSH1 0x0 SWAP2 POP SLOAD SWAP1 PUSH2 0x100 EXP SWAP1 DIV PUSH20 0xFFFFFFFFFFFFFFFFFFFFFFFFFFFFFFFFFFFFFFFF AND DUP2 JUMP JUMPDEST PUSH1 0x0 PUSH1 0x40 MLOAD DUP1 PUSH1 0x40 ADD PUSH1 0x40 MSTORE DUP1 DUP5 DUP2 MSTORE PUSH1 0x20 ADD DUP4 PUSH1 0x3 DUP2 GT ISZERO PUSH2 0x260 JUMPI PUSH32 0x4E487B7100000000000000000000000000000000000000000000000000000000 PUSH1 0x0 MSTORE PUSH1 0x21 PUSH1 0x4 MSTORE PUSH1 0x24 PUSH1 0x0 REVERT JUMPDEST DUP2 MSTORE POP SWAP1 POP PUSH1 0x0 PUSH1 0x2 PUSH1 0x0 CALLER PUSH20 0xFFFFFFFFFFFFFFFFFFFFFFFFFFFFFFFFFFFFFFFF AND PUSH20 0xFFFFFFFFFFFFFFFFFFFFFFFFFFFFFFFFFFFFFFFF AND DUP2 MSTORE PUSH1 0x20 ADD SWAP1 DUP2 MSTORE PUSH1 0x20 ADD PUSH1 0x0 KECCAK256 PUSH1 0x40 MLOAD DUP1 PUSH1 0x40 ADD PUSH1 0x40 MSTORE SWAP1 DUP2 PUSH1 0x0 DUP3 ADD DUP1 SLOAD PUSH2 0x2C1 SWAP1 PUSH2 0x14CA JUMP JUMPDEST DUP1 PUSH1 0x1F ADD PUSH1 0x20 DUP1 SWAP2 DIV MUL PUSH1 0x20 ADD PUSH1 0x40 MLOAD SWAP1 DUP2 ADD PUSH1 0x40 MSTORE DUP1 SWAP3 SWAP2 SWAP1 DUP2 DUP2 MSTORE PUSH1 0x20 ADD DUP3 DUP1 SLOAD PUSH2 0x2ED SWAP1 PUSH2 0x14CA JUMP JUMPDEST DUP1 ISZERO PUSH2 0x33A JUMPI DUP1 PUSH1 0x1F LT PUSH2 0x30F JUMPI PUSH2 0x100 DUP1 DUP4 SLOAD DIV MUL DUP4 MSTORE SWAP2 PUSH1 0x20 ADD SWAP2 PUSH2 0x33A JUMP JUMPDEST DUP3 ADD SWAP2 SWAP1 PUSH1 0x0 MSTORE PUSH1 0x20 PUSH1 0x0 KECCAK256 SWAP1 JUMPDEST DUP2 SLOAD DUP2 MSTORE SWAP1 PUSH1 0x1 ADD SWAP1 PUSH1 0x20 ADD DUP1 DUP4 GT PUSH2 0x31D JUMPI DUP3 SWAP1 SUB PUSH1 0x1F AND DUP3 ADD SWAP2 JUMPDEST POP POP POP POP POP DUP2 MSTORE PUSH1 0x20 ADD PUSH1 0x1 DUP3 ADD PUSH1 0x0 SWAP1 SLOAD SWAP1 PUSH2 0x100 EXP SWAP1 DIV PUSH1 0xFF AND PUSH1 0x3 DUP2 GT ISZERO PUSH2 0x38E JUMPI PUSH32 0x4E487B7100000000000000000000000000000000000000000000000000000000 PUSH1 0x0 MSTORE PUSH1 0x21 PUSH1 0x4 MSTORE PUSH1 0x24 PUSH1 0x0 REVERT JUMPDEST PUSH1 0x3 DUP2 GT ISZERO PUSH2 0x3C6 JUMPI PUSH32 0x4E487B7100000000000000000000000000000000000000000000000000000000 PUSH1 0x0 MSTORE PUSH1 0x21 PUSH1 0x4 MSTORE PUSH1 0x24 PUSH1 0x0 REVERT JUMPDEST DUP2 MSTORE POP POP SWAP1 POP PUSH1 0x0 DUP2 PUSH1 0x20 ADD MLOAD SWAP1 POP PUSH1 0x0 DUP1 SLOAD SWAP1 PUSH2 0x100 EXP SWAP1 DIV PUSH20 0xFFFFFFFFFFFFFFFFFFFFFFFFFFFFFFFFFFFFFFFF AND PUSH20 0xFFFFFFFFFFFFFFFFFFFFFFFFFFFFFFFFFFFFFFFF AND CALLER PUSH20 0xFFFFFFFFFFFFFFFFFFFFFFFFFFFFFFFFFFFFFFFF AND EQ PUSH2 0x875 JUMPI PUSH1 0x0 PUSH1 0x3 DUP2 GT ISZERO PUSH2 0x462 JUMPI PUSH32 0x4E487B7100000000000000000000000000000000000000000000000000000000 PUSH1 0x0 MSTORE PUSH1 0x21 PUSH1 0x4 MSTORE PUSH1 0x24 PUSH1 0x0 REVERT JUMPDEST DUP2 PUSH1 0x3 DUP2 GT ISZERO PUSH2 0x49B JUMPI PUSH32 0x4E487B7100000000000000000000000000000000000000000000000000000000 PUSH1 0x0 MSTORE PUSH1 0x21 PUSH1 0x4 MSTORE PUSH1 0x24 PUSH1 0x0 REVERT JUMPDEST EQ DUP1 ISZERO PUSH2 0x519 JUMPI POP PUSH1 0x1 PUSH1 0x3 DUP2 GT ISZERO PUSH2 0x4DD JUMPI PUSH32 0x4E487B7100000000000000000000000000000000000000000000000000000000 PUSH1 0x0 MSTORE PUSH1 0x21 PUSH1 0x4 MSTORE PUSH1 0x24 PUSH1 0x0 REVERT JUMPDEST DUP5 PUSH1 0x3 DUP2 GT ISZERO PUSH2 0x516 JUMPI PUSH32 0x4E487B7100000000000000000000000000000000000000000000000000000000 PUSH1 0x0 MSTORE PUSH1 0x21 PUSH1 0x4 MSTORE PUSH1 0x24 PUSH1 0x0 REVERT JUMPDEST EQ ISZERO JUMPDEST ISZERO PUSH2 0x559 JUMPI PUSH1 0x40 MLOAD PUSH32 0x8C379A000000000000000000000000000000000000000000000000000000000 DUP2 MSTORE PUSH1 0x4 ADD PUSH2 0x550 SWAP1 PUSH2 0x1303 JUMP JUMPDEST PUSH1 0x40 MLOAD DUP1 SWAP2 SUB SWAP1 REVERT JUMPDEST PUSH1 0x1 PUSH1 0x3 DUP2 GT ISZERO PUSH2 0x593 JUMPI PUSH32 0x4E487B7100000000000000000000000000000000000000000000000000000000 PUSH1 0x0 MSTORE PUSH1 0x21 PUSH1 0x4 MSTORE PUSH1 0x24 PUSH1 0x0 REVERT JUMPDEST DUP2 PUSH1 0x3 DUP2 GT ISZERO PUSH2 0x5CC JUMPI PUSH32 0x4E487B7100000000000000000000000000000000000000000000000000000000 PUSH1 0x0 MSTORE PUSH1 0x21 PUSH1 0x4 MSTORE PUSH1 0x24 PUSH1 0x0 REVERT JUMPDEST EQ DUP1 ISZERO PUSH2 0x64E JUMPI POP PUSH1 0x2 PUSH1 0x3 DUP2 GT ISZERO PUSH2 0x60E JUMPI PUSH32 0x4E487B7100000000000000000000000000000000000000000000000000000000 PUSH1 0x0 MSTORE PUSH1 0x21 PUSH1 0x4 MSTORE PUSH1 0x24 PUSH1 0x0 REVERT JUMPDEST DUP4 PUSH1 0x20 ADD MLOAD PUSH1 0x3 DUP2 GT ISZERO PUSH2 0x64B JUMPI PUSH32 0x4E487B7100000000000000000000000000000000000000000000000000000000 PUSH1 0x0 MSTORE PUSH1 0x21 PUSH1 0x4 MSTORE PUSH1 0x24 PUSH1 0x0 REVERT JUMPDEST EQ ISZERO JUMPDEST ISZERO PUSH2 0x68E JUMPI PUSH1 0x40 MLOAD PUSH32 0x8C379A000000000000000000000000000000000000000000000000000000000 DUP2 MSTORE PUSH1 0x4 ADD PUSH2 0x685 SWAP1 PUSH2 0x1363 JUMP JUMPDEST PUSH1 0x40 MLOAD DUP1 SWAP2 SUB SWAP1 REVERT JUMPDEST PUSH1 0x2 PUSH1 0x3 DUP2 GT ISZERO PUSH2 0x6C8 JUMPI PUSH32 0x4E487B7100000000000000000000000000000000000000000000000000000000 PUSH1 0x0 MSTORE PUSH1 0x21 PUSH1 0x4 MSTORE PUSH1 0x24 PUSH1 0x0 REVERT JUMPDEST DUP2 PUSH1 0x3 DUP2 GT ISZERO PUSH2 0x701 JUMPI PUSH32 0x4E487B7100000000000000000000000000000000000000000000000000000000 PUSH1 0x0 MSTORE PUSH1 0x21 PUSH1 0x4 MSTORE PUSH1 0x24 PUSH1 0x0 REVERT JUMPDEST EQ DUP1 ISZERO PUSH2 0x782 JUMPI POP PUSH1 0x3 DUP1 DUP2 GT ISZERO PUSH2 0x742 JUMPI PUSH32 0x4E487B7100000000000000000000000000000000000000000000000000000000 PUSH1 0x0 MSTORE PUSH1 0x21 PUSH1 0x4 MSTORE PUSH1 0x24 PUSH1 0x0 REVERT JUMPDEST DUP4 PUSH1 0x20 ADD MLOAD PUSH1 0x3 DUP2 GT ISZERO PUSH2 0x77F JUMPI PUSH32 0x4E487B7100000000000000000000000000000000000000000000000000000000 PUSH1 0x0 MSTORE PUSH1 0x21 PUSH1 0x4 MSTORE PUSH1 0x24 PUSH1 0x0 REVERT JUMPDEST EQ ISZERO JUMPDEST ISZERO PUSH2 0x7C2 JUMPI PUSH1 0x40 MLOAD PUSH32 0x8C379A000000000000000000000000000000000000000000000000000000000 DUP2 MSTORE PUSH1 0x4 ADD PUSH2 0x7B9 SWAP1 PUSH2 0x12E3 JUMP JUMPDEST PUSH1 0x40 MLOAD DUP1 SWAP2 SUB SWAP1 REVERT JUMPDEST PUSH1 0x3 DUP1 DUP2 GT ISZERO PUSH2 0x7FB JUMPI PUSH32 0x4E487B7100000000000000000000000000000000000000000000000000000000 PUSH1 0x0 MSTORE PUSH1 0x21 PUSH1 0x4 MSTORE PUSH1 0x24 PUSH1 0x0 REVERT JUMPDEST DUP2 PUSH1 0x3 DUP2 GT ISZERO PUSH2 0x834 JUMPI PUSH32 0x4E487B7100000000000000000000000000000000000000000000000000000000 PUSH1 0x0 MSTORE PUSH1 0x21 PUSH1 0x4 MSTORE PUSH1 0x24 PUSH1 0x0 REVERT JUMPDEST EQ PUSH2 0x874 JUMPI PUSH1 0x40 MLOAD PUSH32 0x8C379A000000000000000000000000000000000000000000000000000000000 DUP2 MSTORE PUSH1 0x4 ADD PUSH2 0x86B SWAP1 PUSH2 0x1323 JUMP JUMPDEST PUSH1 0x40 MLOAD DUP1 SWAP2 SUB SWAP1 REVERT JUMPDEST JUMPDEST PUSH1 0x40 MLOAD DUP1 PUSH1 0x40 ADD PUSH1 0x40 MSTORE DUP1 DUP7 DUP2 MSTORE PUSH1 0x20 ADD DUP6 PUSH1 0x3 DUP2 GT ISZERO PUSH2 0x8BF JUMPI PUSH32 0x4E487B7100000000000000000000000000000000000000000000000000000000 PUSH1 0x0 MSTORE PUSH1 0x21 PUSH1 0x4 MSTORE PUSH1 0x24 PUSH1 0x0 REVERT JUMPDEST DUP2 MSTORE POP PUSH1 0x2 PUSH1 0x0 DUP9 PUSH20 0xFFFFFFFFFFFFFFFFFFFFFFFFFFFFFFFFFFFFFFFF AND PUSH20 0xFFFFFFFFFFFFFFFFFFFFFFFFFFFFFFFFFFFFFFFF AND DUP2 MSTORE PUSH1 0x20 ADD SWAP1 DUP2 MSTORE PUSH1 0x20 ADD PUSH1 0x0 KECCAK256 PUSH1 0x0 DUP3 ADD MLOAD DUP2 PUSH1 0x0 ADD SWAP1 DUP1 MLOAD SWAP1 PUSH1 0x20 ADD SWAP1 PUSH2 0x91D SWAP3 SWAP2 SWAP1 PUSH2 0xDF3 JUMP JUMPDEST POP PUSH1 0x20 DUP3 ADD MLOAD DUP2 PUSH1 0x1 ADD PUSH1 0x0 PUSH2 0x100 EXP DUP2 SLOAD DUP2 PUSH1 0xFF MUL NOT AND SWAP1 DUP4 PUSH1 0x3 DUP2 GT ISZERO PUSH2 0x96F JUMPI PUSH32 0x4E487B7100000000000000000000000000000000000000000000000000000000 PUSH1 0x0 MSTORE PUSH1 0x21 PUSH1 0x4 MSTORE PUSH1 0x24 PUSH1 0x0 REVERT JUMPDEST MUL OR SWAP1 SSTORE POP SWAP1 POP POP PUSH1 0x3 DUP7 SWAP1 DUP1 PUSH1 0x1 DUP2 SLOAD ADD DUP1 DUP3 SSTORE DUP1 SWAP2 POP POP PUSH1 0x1 SWAP1 SUB SWAP1 PUSH1 0x0 MSTORE PUSH1 0x20 PUSH1 0x0 KECCAK256 ADD PUSH1 0x0 SWAP1 SWAP2 SWAP1 SWAP2 SWAP1 SWAP2 PUSH2 0x100 EXP DUP2 SLOAD DUP2 PUSH20 0xFFFFFFFFFFFFFFFFFFFFFFFFFFFFFFFFFFFFFFFF MUL NOT AND SWAP1 DUP4 PUSH20 0xFFFFFFFFFFFFFFFFFFFFFFFFFFFFFFFFFFFFFFFF AND MUL OR SWAP1 SSTORE POP PUSH2 0x9E3 DUP7 PUSH2 0xB25 JUMP JUMPDEST POP POP POP POP POP POP JUMP JUMPDEST PUSH1 0x0 DUP1 SLOAD SWAP1 PUSH2 0x100 EXP SWAP1 DIV PUSH20 0xFFFFFFFFFFFFFFFFFFFFFFFFFFFFFFFFFFFFFFFF AND PUSH20 0xFFFFFFFFFFFFFFFFFFFFFFFFFFFFFFFFFFFFFFFF AND CALLER PUSH20 0xFFFFFFFFFFFFFFFFFFFFFFFFFFFFFFFFFFFFFFFF AND EQ PUSH2 0xA79 JUMPI PUSH1 0x40 MLOAD PUSH32 0x8C379A000000000000000000000000000000000000000000000000000000000 DUP2 MSTORE PUSH1 0x4 ADD PUSH2 0xA70 SWAP1 PUSH2 0x1343 JUMP JUMPDEST PUSH1 0x40 MLOAD DUP1 SWAP2 SUB SWAP1 REVERT JUMPDEST PUSH1 0x0 PUSH1 0x1 PUSH1 0x0 DUP4 PUSH20 0xFFFFFFFFFFFFFFFFFFFFFFFFFFFFFFFFFFFFFFFF AND PUSH20 0xFFFFFFFFFFFFFFFFFFFFFFFFFFFFFFFFFFFFFFFF AND DUP2 MSTORE PUSH1 0x20 ADD SWAP1 DUP2 MSTORE PUSH1 0x20 ADD PUSH1 0x0 KECCAK256 PUSH1 0x0 PUSH2 0x100 EXP DUP2 SLOAD DUP2 PUSH1 0xFF MUL NOT AND SWAP1 DUP4 ISZERO ISZERO MUL OR SWAP1 SSTORE POP POP JUMP JUMPDEST PUSH1 0x0 DUP1 SLOAD SWAP1 PUSH2 0x100 EXP SWAP1 DIV PUSH20 0xFFFFFFFFFFFFFFFFFFFFFFFFFFFFFFFFFFFFFFFF AND DUP2 JUMP JUMPDEST PUSH1 0x1 PUSH1 0x20 MSTORE DUP1 PUSH1 0x0 MSTORE PUSH1 0x40 PUSH1 0x0 KECCAK256 PUSH1 0x0 SWAP2 POP SLOAD SWAP1 PUSH2 0x100 EXP SWAP1 DIV PUSH1 0xFF AND DUP2 JUMP JUMPDEST PUSH1 0x0 PUSH1 0x3 DUP1 SLOAD SWAP1 POP SWAP1 POP SWAP1 JUMP JUMPDEST PUSH1 0x1 DUP1 PUSH1 0x0 DUP4 PUSH20 0xFFFFFFFFFFFFFFFFFFFFFFFFFFFFFFFFFFFFFFFF AND PUSH20 0xFFFFFFFFFFFFFFFFFFFFFFFFFFFFFFFFFFFFFFFF AND DUP2 MSTORE PUSH1 0x20 ADD SWAP1 DUP2 MSTORE PUSH1 0x20 ADD PUSH1 0x0 KECCAK256 PUSH1 0x0 PUSH2 0x100 EXP DUP2 SLOAD DUP2 PUSH1 0xFF MUL NOT AND SWAP1 DUP4 ISZERO ISZERO MUL OR SWAP1 SSTORE POP POP JUMP JUMPDEST PUSH1 0x2 PUSH1 0x20 MSTORE DUP1 PUSH1 0x0 MSTORE PUSH1 0x40 PUSH1 0x0 KECCAK256 PUSH1 0x0 SWAP2 POP SWAP1 POP DUP1 PUSH1 0x0 ADD DUP1 SLOAD PUSH2 0xBA2 SWAP1 PUSH2 0x14CA JUMP JUMPDEST DUP1 PUSH1 0x1F ADD PUSH1 0x20 DUP1 SWAP2 DIV MUL PUSH1 0x20 ADD PUSH1 0x40 MLOAD SWAP1 DUP2 ADD PUSH1 0x40 MSTORE DUP1 SWAP3 SWAP2 SWAP1 DUP2 DUP2 MSTORE PUSH1 0x20 ADD DUP3 DUP1 SLOAD PUSH2 0xBCE SWAP1 PUSH2 0x14CA JUMP JUMPDEST DUP1 ISZERO PUSH2 0xC1B JUMPI DUP1 PUSH1 0x1F LT PUSH2 0xBF0 JUMPI PUSH2 0x100 DUP1 DUP4 SLOAD DIV MUL DUP4 MSTORE SWAP2 PUSH1 0x20 ADD SWAP2 PUSH2 0xC1B JUMP JUMPDEST DUP3 ADD SWAP2 SWAP1 PUSH1 0x0 MSTORE PUSH1 0x20 PUSH1 0x0 KECCAK256 SWAP1 JUMPDEST DUP2 SLOAD DUP2 MSTORE SWAP1 PUSH1 0x1 ADD SWAP1 PUSH1 0x20 ADD DUP1 DUP4 GT PUSH2 0xBFE JUMPI DUP3 SWAP1 SUB PUSH1 0x1F AND DUP3 ADD SWAP2 JUMPDEST POP POP POP POP POP SWAP1 DUP1 PUSH1 0x1 ADD PUSH1 0x0 SWAP1 SLOAD SWAP1 PUSH2 0x100 EXP SWAP1 DIV PUSH1 0xFF AND SWAP1 POP DUP3 JUMP JUMPDEST PUSH1 0x0 DUP1 SLOAD SWAP1 PUSH2 0x100 EXP SWAP1 DIV PUSH20 0xFFFFFFFFFFFFFFFFFFFFFFFFFFFFFFFFFFFFFFFF AND PUSH20 0xFFFFFFFFFFFFFFFFFFFFFFFFFFFFFFFFFFFFFFFF AND CALLER PUSH20 0xFFFFFFFFFFFFFFFFFFFFFFFFFFFFFFFFFFFFFFFF AND EQ PUSH2 0xCC6 JUMPI PUSH1 0x40 MLOAD PUSH32 0x8C379A000000000000000000000000000000000000000000000000000000000 DUP2 MSTORE PUSH1 0x4 ADD PUSH2 0xCBD SWAP1 PUSH2 0x1343 JUMP JUMPDEST PUSH1 0x40 MLOAD DUP1 SWAP2 SUB SWAP1 REVERT JUMPDEST PUSH1 0x0 PUSH20 0xFFFFFFFFFFFFFFFFFFFFFFFFFFFFFFFFFFFFFFFF AND DUP2 PUSH20 0xFFFFFFFFFFFFFFFFFFFFFFFFFFFFFFFFFFFFFFFF AND EQ ISZERO PUSH2 0xD36 JUMPI PUSH1 0x40 MLOAD PUSH32 0x8C379A000000000000000000000000000000000000000000000000000000000 DUP2 MSTORE PUSH1 0x4 ADD PUSH2 0xD2D SWAP1 PUSH2 0x12C3 JUMP JUMPDEST PUSH1 0x40 MLOAD DUP1 SWAP2 SUB SWAP1 REVERT JUMPDEST DUP1 PUSH20 0xFFFFFFFFFFFFFFFFFFFFFFFFFFFFFFFFFFFFFFFF AND PUSH1 0x0 DUP1 SLOAD SWAP1 PUSH2 0x100 EXP SWAP1 DIV PUSH20 0xFFFFFFFFFFFFFFFFFFFFFFFFFFFFFFFFFFFFFFFF AND PUSH20 0xFFFFFFFFFFFFFFFFFFFFFFFFFFFFFFFFFFFFFFFF AND PUSH32 0x8BE0079C531659141344CD1FD0A4F28419497F9722A3DAAFE3B4186F6B6457E0 PUSH1 0x40 MLOAD PUSH1 0x40 MLOAD DUP1 SWAP2 SUB SWAP1 LOG3 DUP1 PUSH1 0x0 DUP1 PUSH2 0x100 EXP DUP2 SLOAD DUP2 PUSH20 0xFFFFFFFFFFFFFFFFFFFFFFFFFFFFFFFFFFFFFFFF MUL NOT AND SWAP1 DUP4 PUSH20 0xFFFFFFFFFFFFFFFFFFFFFFFFFFFFFFFFFFFFFFFF AND MUL OR SWAP1 SSTORE POP POP JUMP JUMPDEST DUP3 DUP1 SLOAD PUSH2 0xDFF SWAP1 PUSH2 0x14CA JUMP JUMPDEST SWAP1 PUSH1 0x0 MSTORE PUSH1 0x20 PUSH1 0x0 KECCAK256 SWAP1 PUSH1 0x1F ADD PUSH1 0x20 SWAP1 DIV DUP2 ADD SWAP3 DUP3 PUSH2 0xE21 JUMPI PUSH1 0x0 DUP6 SSTORE PUSH2 0xE68 JUMP JUMPDEST DUP3 PUSH1 0x1F LT PUSH2 0xE3A JUMPI DUP1 MLOAD PUSH1 0xFF NOT AND DUP4 DUP1 ADD OR DUP6 SSTORE PUSH2 0xE68 JUMP JUMPDEST DUP3 DUP1 ADD PUSH1 0x1 ADD DUP6 SSTORE DUP3 ISZERO PUSH2 0xE68 JUMPI SWAP2 DUP3 ADD JUMPDEST DUP3 DUP2 GT ISZERO PUSH2 0xE67 JUMPI DUP3 MLOAD DUP3 SSTORE SWAP2 PUSH1 0x20 ADD SWAP2 SWAP1 PUSH1 0x1 ADD SWAP1 PUSH2 0xE4C JUMP JUMPDEST JUMPDEST POP SWAP1 POP PUSH2 0xE75 SWAP2 SWAP1 PUSH2 0xE79 JUMP JUMPDEST POP SWAP1 JUMP JUMPDEST JUMPDEST DUP1 DUP3 GT ISZERO PUSH2 0xE92 JUMPI PUSH1 0x0 DUP2 PUSH1 0x0 SWAP1 SSTORE POP PUSH1 0x1 ADD PUSH2 0xE7A JUMP JUMPDEST POP SWAP1 JUMP JUMPDEST PUSH1 0x0 PUSH2 0xEA9 PUSH2 0xEA4 DUP5 PUSH2 0x13CF JUMP JUMPDEST PUSH2 0x139E JUMP JUMPDEST SWAP1 POP DUP3 DUP2 MSTORE PUSH1 0x20 DUP2 ADD DUP5 DUP5 DUP5 ADD GT ISZERO PUSH2 0xEC1 JUMPI PUSH1 0x0 DUP1 REVERT JUMPDEST PUSH2 0xECC DUP5 DUP3 DUP6 PUSH2 0x1488 JUMP JUMPDEST POP SWAP4 SWAP3 POP POP POP JUMP JUMPDEST PUSH1 0x0 DUP2 CALLDATALOAD SWAP1 POP PUSH2 0xEE3 DUP2 PUSH2 0x15AE JUMP JUMPDEST SWAP3 SWAP2 POP POP JUMP JUMPDEST PUSH1 0x0 DUP2 CALLDATALOAD SWAP1 POP PUSH2 0xEF8 DUP2 PUSH2 0x15C5 JUMP JUMPDEST SWAP3 SWAP2 POP POP JUMP JUMPDEST PUSH1 0x0 DUP3 PUSH1 0x1F DUP4 ADD SLT PUSH2 0xF0F JUMPI PUSH1 0x0 DUP1 REVERT JUMPDEST DUP2 CALLDATALOAD PUSH2 0xF1F DUP5 DUP3 PUSH1 0x20 DUP7 ADD PUSH2 0xE96 JUMP JUMPDEST SWAP2 POP POP SWAP3 SWAP2 POP POP JUMP JUMPDEST PUSH1 0x0 DUP2 CALLDATALOAD SWAP1 POP PUSH2 0xF37 DUP2 PUSH2 0x15D5 JUMP JUMPDEST SWAP3 SWAP2 POP POP JUMP JUMPDEST PUSH1 0x0 PUSH1 0x20 DUP3 DUP5 SUB SLT ISZERO PUSH2 0xF4F JUMPI PUSH1 0x0 DUP1 REVERT JUMPDEST PUSH1 0x0 PUSH2 0xF5D DUP5 DUP3 DUP6 ADD PUSH2 0xED4 JUMP JUMPDEST SWAP2 POP POP SWAP3 SWAP2 POP POP JUMP JUMPDEST PUSH1 0x0 DUP1 PUSH1 0x0 PUSH1 0x60 DUP5 DUP7 SUB SLT ISZERO PUSH2 0xF7B JUMPI PUSH1 0x0 DUP1 REVERT JUMPDEST PUSH1 0x0 PUSH2 0xF89 DUP7 DUP3 DUP8 ADD PUSH2 0xED4 JUMP JUMPDEST SWAP4 POP POP PUSH1 0x20 DUP5 ADD CALLDATALOAD PUSH8 0xFFFFFFFFFFFFFFFF DUP2 GT ISZERO PUSH2 0xFA6 JUMPI PUSH1 0x0 DUP1 REVERT JUMPDEST PUSH2 0xFB2 DUP7 DUP3 DUP8 ADD PUSH2 0xEFE JUMP JUMPDEST SWAP3 POP POP PUSH1 0x40 PUSH2 0xFC3 DUP7 DUP3 DUP8 ADD PUSH2 0xEE9 JUMP JUMPDEST SWAP2 POP POP SWAP3 POP SWAP3 POP SWAP3 JUMP JUMPDEST PUSH1 0x0 PUSH1 0x20 DUP3 DUP5 SUB SLT ISZERO PUSH2 0xFDF JUMPI PUSH1 0x0 DUP1 REVERT JUMPDEST PUSH1 0x0 PUSH2 0xFED DUP5 DUP3 DUP6 ADD PUSH2 0xF28 JUMP JUMPDEST SWAP2 POP POP SWAP3 SWAP2 POP POP JUMP JUMPDEST PUSH2 0xFFF DUP2 PUSH2 0x141B JUMP JUMPDEST DUP3 MSTORE POP POP JUMP JUMPDEST PUSH2 0x100E DUP2 PUSH2 0x142D JUMP JUMPDEST DUP3 MSTORE POP POP JUMP JUMPDEST PUSH2 0x101D DUP2 PUSH2 0x1476 JUMP JUMPDEST DUP3 MSTORE POP POP JUMP JUMPDEST PUSH1 0x0 PUSH2 0x102E DUP3 PUSH2 0x13FF JUMP JUMPDEST PUSH2 0x1038 DUP2 DUP6 PUSH2 0x140A JUMP JUMPDEST SWAP4 POP PUSH2 0x1048 DUP2 DUP6 PUSH1 0x20 DUP7 ADD PUSH2 0x1497 JUMP JUMPDEST PUSH2 0x1051 DUP2 PUSH2 0x1589 JUMP JUMPDEST DUP5 ADD SWAP2 POP POP SWAP3 SWAP2 POP POP JUMP JUMPDEST PUSH1 0x0 PUSH2 0x1069 PUSH1 0x19 DUP4 PUSH2 0x140A JUMP JUMPDEST SWAP2 POP PUSH32 0x416464726573732073686F756C646E2774206265207A65726F00000000000000 PUSH1 0x0 DUP4 ADD MSTORE PUSH1 0x20 DUP3 ADD SWAP1 POP SWAP2 SWAP1 POP JUMP JUMPDEST PUSH1 0x0 PUSH2 0x10A9 PUSH1 0x2D DUP4 PUSH2 0x140A JUMP JUMPDEST SWAP2 POP PUSH32 0x43616E6E6F7420616464206D616E756661637475726572206F7220737570706C PUSH1 0x0 DUP4 ADD MSTORE PUSH32 0x696572206F722076656E646F7200000000000000000000000000000000000000 PUSH1 0x20 DUP4 ADD MSTORE PUSH1 0x40 DUP3 ADD SWAP1 POP SWAP2 SWAP1 POP JUMP JUMPDEST PUSH1 0x0 PUSH2 0x110F PUSH1 0x2F DUP4 PUSH2 0x140A JUMP JUMPDEST SWAP2 POP PUSH32 0x43616E6E6F7420616464206D616E756661637475726572206F7220637573746F PUSH1 0x0 DUP4 ADD MSTORE PUSH32 0x6D6572206F7220737570706C6965720000000000000000000000000000000000 PUSH1 0x20 DUP4 ADD MSTORE PUSH1 0x40 DUP3 ADD SWAP1 POP SWAP2 SWAP1 POP JUMP JUMPDEST PUSH1 0x0 PUSH2 0x1175 PUSH1 0x13 DUP4 PUSH2 0x140A JUMP JUMPDEST SWAP2 POP PUSH32 0x43616E6E6F742061646420616E206163746F7200000000000000000000000000 PUSH1 0x0 DUP4 ADD MSTORE PUSH1 0x20 DUP3 ADD SWAP1 POP SWAP2 SWAP1 POP JUMP JUMPDEST PUSH1 0x0 PUSH2 0x11B5 PUSH1 0x18 DUP4 PUSH2 0x140A JUMP JUMPDEST SWAP2 POP PUSH32 0x4E6F7420617574686F72697A6564206F7065726174696F6E0000000000000000 PUSH1 0x0 DUP4 ADD MSTORE PUSH1 0x20 DUP3 ADD SWAP1 POP SWAP2 SWAP1 POP JUMP JUMPDEST PUSH1 0x0 PUSH2 0x11F5 PUSH1 0x2F DUP4 PUSH2 0x140A JUMP JUMPDEST SWAP2 POP PUSH32 0x43616E6E6F7420616464206D616E756661637475726572206F7220737570706C PUSH1 0x0 DUP4 ADD MSTORE PUSH32 0x696572206F7220637573746F6D65720000000000000000000000000000000000 PUSH1 0x20 DUP4 ADD MSTORE PUSH1 0x40 DUP3 ADD SWAP1 POP SWAP2 SWAP1 POP JUMP JUMPDEST PUSH2 0x1257 DUP2 PUSH2 0x146C JUMP JUMPDEST DUP3 MSTORE POP POP JUMP JUMPDEST PUSH1 0x0 PUSH1 0x20 DUP3 ADD SWAP1 POP PUSH2 0x1272 PUSH1 0x0 DUP4 ADD DUP5 PUSH2 0xFF6 JUMP JUMPDEST SWAP3 SWAP2 POP POP JUMP JUMPDEST PUSH1 0x0 PUSH1 0x20 DUP3 ADD SWAP1 POP PUSH2 0x128D PUSH1 0x0 DUP4 ADD DUP5 PUSH2 0x1005 JUMP JUMPDEST SWAP3 SWAP2 POP POP JUMP JUMPDEST PUSH1 0x0 PUSH1 0x40 DUP3 ADD SWAP1 POP DUP2 DUP2 SUB PUSH1 0x0 DUP4 ADD MSTORE PUSH2 0x12AD DUP2 DUP6 PUSH2 0x1023 JUMP JUMPDEST SWAP1 POP PUSH2 0x12BC PUSH1 0x20 DUP4 ADD DUP5 PUSH2 0x1014 JUMP JUMPDEST SWAP4 SWAP3 POP POP POP JUMP JUMPDEST PUSH1 0x0 PUSH1 0x20 DUP3 ADD SWAP1 POP DUP2 DUP2 SUB PUSH1 0x0 DUP4 ADD MSTORE PUSH2 0x12DC DUP2 PUSH2 0x105C JUMP JUMPDEST SWAP1 POP SWAP2 SWAP1 POP JUMP JUMPDEST PUSH1 0x0 PUSH1 0x20 DUP3 ADD SWAP1 POP DUP2 DUP2 SUB PUSH1 0x0 DUP4 ADD MSTORE PUSH2 0x12FC DUP2 PUSH2 0x109C JUMP JUMPDEST SWAP1 POP SWAP2 SWAP1 POP JUMP JUMPDEST PUSH1 0x0 PUSH1 0x20 DUP3 ADD SWAP1 POP DUP2 DUP2 SUB PUSH1 0x0 DUP4 ADD MSTORE PUSH2 0x131C DUP2 PUSH2 0x1102 JUMP JUMPDEST SWAP1 POP SWAP2 SWAP1 POP JUMP JUMPDEST PUSH1 0x0 PUSH1 0x20 DUP3 ADD SWAP1 POP DUP2 DUP2 SUB PUSH1 0x0 DUP4 ADD MSTORE PUSH2 0x133C DUP2 PUSH2 0x1168 JUMP JUMPDEST SWAP1 POP SWAP2 SWAP1 POP JUMP JUMPDEST PUSH1 0x0 PUSH1 0x20 DUP3 ADD SWAP1 POP DUP2 DUP2 SUB PUSH1 0x0 DUP4 ADD MSTORE PUSH2 0x135C DUP2 PUSH2 0x11A8 JUMP JUMPDEST SWAP1 POP SWAP2 SWAP1 POP JUMP JUMPDEST PUSH1 0x0 PUSH1 0x20 DUP3 ADD SWAP1 POP DUP2 DUP2 SUB PUSH1 0x0 DUP4 ADD MSTORE PUSH2 0x137C DUP2 PUSH2 0x11E8 JUMP JUMPDEST SWAP1 POP SWAP2 SWAP1 POP JUMP JUMPDEST PUSH1 0x0 PUSH1 0x20 DUP3 ADD SWAP1 POP PUSH2 0x1398 PUSH1 0x0 DUP4 ADD DUP5 PUSH2 0x124E JUMP JUMPDEST SWAP3 SWAP2 POP POP JUMP JUMPDEST PUSH1 0x0 PUSH1 0x40 MLOAD SWAP1 POP DUP2 DUP2 ADD DUP2 DUP2 LT PUSH8 0xFFFFFFFFFFFFFFFF DUP3 GT OR ISZERO PUSH2 0x13C5 JUMPI PUSH2 0x13C4 PUSH2 0x155A JUMP JUMPDEST JUMPDEST DUP1 PUSH1 0x40 MSTORE POP SWAP2 SWAP1 POP JUMP JUMPDEST PUSH1 0x0 PUSH8 0xFFFFFFFFFFFFFFFF DUP3 GT ISZERO PUSH2 0x13EA JUMPI PUSH2 0x13E9 PUSH2 0x155A JUMP JUMPDEST JUMPDEST PUSH1 0x1F NOT PUSH1 0x1F DUP4 ADD AND SWAP1 POP PUSH1 0x20 DUP2 ADD SWAP1 POP SWAP2 SWAP1 POP JUMP JUMPDEST PUSH1 0x0 DUP2 MLOAD SWAP1 POP SWAP2 SWAP1 POP JUMP JUMPDEST PUSH1 0x0 DUP3 DUP3 MSTORE PUSH1 0x20 DUP3 ADD SWAP1 POP SWAP3 SWAP2 POP POP JUMP JUMPDEST PUSH1 0x0 PUSH2 0x1426 DUP3 PUSH2 0x144C JUMP JUMPDEST SWAP1 POP SWAP2 SWAP1 POP JUMP JUMPDEST PUSH1 0x0 DUP2 ISZERO ISZERO SWAP1 POP SWAP2 SWAP1 POP JUMP JUMPDEST PUSH1 0x0 DUP2 SWAP1 POP PUSH2 0x1447 DUP3 PUSH2 0x159A JUMP JUMPDEST SWAP2 SWAP1 POP JUMP JUMPDEST PUSH1 0x0 PUSH20 0xFFFFFFFFFFFFFFFFFFFFFFFFFFFFFFFFFFFFFFFF DUP3 AND SWAP1 POP SWAP2 SWAP1 POP JUMP JUMPDEST PUSH1 0x0 DUP2 SWAP1 POP SWAP2 SWAP1 POP JUMP JUMPDEST PUSH1 0x0 PUSH2 0x1481 DUP3 PUSH2 0x1439 JUMP JUMPDEST SWAP1 POP SWAP2 SWAP1 POP JUMP JUMPDEST DUP3 DUP2 DUP4 CALLDATACOPY PUSH1 0x0 DUP4 DUP4 ADD MSTORE POP POP POP JUMP JUMPDEST PUSH1 0x0 JUMPDEST DUP4 DUP2 LT ISZERO PUSH2 0x14B5 JUMPI DUP1 DUP3 ADD MLOAD DUP2 DUP5 ADD MSTORE PUSH1 0x20 DUP2 ADD SWAP1 POP PUSH2 0x149A JUMP JUMPDEST DUP4 DUP2 GT ISZERO PUSH2 0x14C4 JUMPI PUSH1 0x0 DUP5 DUP5 ADD MSTORE JUMPDEST POP POP POP POP JUMP JUMPDEST PUSH1 0x0 PUSH1 0x2 DUP3 DIV SWAP1 POP PUSH1 0x1 DUP3 AND DUP1 PUSH2 0x14E2 JUMPI PUSH1 0x7F DUP3 AND SWAP2 POP JUMPDEST PUSH1 0x20 DUP3 LT DUP2 EQ ISZERO PUSH2 0x14F6 JUMPI PUSH2 0x14F5 PUSH2 0x152B JUMP JUMPDEST JUMPDEST POP SWAP2 SWAP1 POP JUMP JUMPDEST PUSH32 0x4E487B7100000000000000000000000000000000000000000000000000000000 PUSH1 0x0 MSTORE PUSH1 0x21 PUSH1 0x4 MSTORE PUSH1 0x24 PUSH1 0x0 REVERT JUMPDEST PUSH32 0x4E487B7100000000000000000000000000000000000000000000000000000000 PUSH1 0x0 MSTORE PUSH1 0x22 PUSH1 0x4 MSTORE PUSH1 0x24 PUSH1 0x0 REVERT JUMPDEST PUSH32 0x4E487B7100000000000000000000000000000000000000000000000000000000 PUSH1 0x0 MSTORE PUSH1 0x41 PUSH1 0x4 MSTORE PUSH1 0x24 PUSH1 0x0 REVERT JUMPDEST PUSH1 0x0 PUSH1 0x1F NOT PUSH1 0x1F DUP4 ADD AND SWAP1 POP SWAP2 SWAP1 POP JUMP JUMPDEST PUSH1 0x4 DUP2 LT PUSH2 0x15AB JUMPI PUSH2 0x15AA PUSH2 0x14FC JUMP JUMPDEST JUMPDEST POP JUMP JUMPDEST PUSH2 0x15B7 DUP2 PUSH2 0x141B JUMP JUMPDEST DUP2 EQ PUSH2 0x15C2 JUMPI PUSH1 0x0 DUP1 REVERT JUMPDEST POP JUMP JUMPDEST PUSH1 0x4 DUP2 LT PUSH2 0x15D2 JUMPI PUSH1 0x0 DUP1 REVERT JUMPDEST POP JUMP JUMPDEST PUSH2 0x15DE DUP2 PUSH2 0x146C JUMP JUMPDEST DUP2 EQ PUSH2 0x15E9 JUMPI PUSH1 0x0 DUP1 REVERT JUMPDEST POP JUMP INVALID LOG2 PUSH5 0x6970667358 0x22 SLT KECCAK256 LOG1 0x25 SWAP2 PUSH15 0x94C368E8B032E818DA43662AFDE214 0x4C 0x5E SWAP7 0xE8 SWAP7 MLOAD CALLDATALOAD 0xD9 0xF8 RETURNDATACOPY SWAP9 0x2D CODESIZE PUSH5 0x736F6C6343 STOP ADDMOD STOP STOP CALLER "
				},
				"gasEstimates": {
					"creation": {
						"codeDepositCost": "1133200",
						"executionCost": "22046",
						"totalCost": "1155246"
					},
					"external": {
						"actors(address)": "infinite",
						"addToWhitelist(address)": "21456",
						"addUser(address,string,uint8)": "infinite",
						"getUsersCount()": "1167",
						"owner()": "1278",
						"removeFromWhitelist(address)": "22324",
						"transferOwnership(address)": "24693",
						"users(uint256)": "2357",
						"whitelist(address)": "1545"
					}
				},
				"methodIdentifiers": {
					"actors(address)": "eaa66a3c",
					"addToWhitelist(address)": "e43252d7",
					"addUser(address,string,uint8)": "40d26854",
					"getUsersCount()": "a4a1e263",
					"owner()": "8da5cb5b",
					"removeFromWhitelist(address)": "8ab1d681",
					"transferOwnership(address)": "f2fde38b",
					"users(uint256)": "365b98b2",
					"whitelist(address)": "9b19251a"
				}
			},
			"storageLayout": {
				"storage": [
					{
						"astId": 4,
						"contract": "contracts/Users.sol:Users",
						"label": "owner",
						"offset": 0,
						"slot": "0",
						"type": "t_address"
					},
					{
						"astId": 407,
						"contract": "contracts/Users.sol:Users",
						"label": "whitelist",
						"offset": 0,
						"slot": "1",
						"type": "t_mapping(t_address,t_bool)"
					},
					{
						"astId": 269,
						"contract": "contracts/Users.sol:Users",
						"label": "actors",
						"offset": 0,
						"slot": "2",
						"type": "t_mapping(t_address,t_struct(Actor)246_storage)"
					},
					{
						"astId": 272,
						"contract": "contracts/Users.sol:Users",
						"label": "users",
						"offset": 0,
						"slot": "3",
						"type": "t_array(t_address)dyn_storage"
					}
				],
				"types": {
					"t_address": {
						"encoding": "inplace",
						"label": "address",
						"numberOfBytes": "20"
					},
					"t_array(t_address)dyn_storage": {
						"base": "t_address",
						"encoding": "dynamic_array",
						"label": "address[]",
						"numberOfBytes": "32"
					},
					"t_bool": {
						"encoding": "inplace",
						"label": "bool",
						"numberOfBytes": "1"
					},
					"t_enum(Role)264": {
						"encoding": "inplace",
						"label": "enum Users.Role",
						"numberOfBytes": "1"
					},
					"t_mapping(t_address,t_bool)": {
						"encoding": "mapping",
						"key": "t_address",
						"label": "mapping(address => bool)",
						"numberOfBytes": "32",
						"value": "t_bool"
					},
					"t_mapping(t_address,t_struct(Actor)246_storage)": {
						"encoding": "mapping",
						"key": "t_address",
						"label": "mapping(address => struct Users.Actor)",
						"numberOfBytes": "32",
						"value": "t_struct(Actor)246_storage"
					},
					"t_string_storage": {
						"encoding": "bytes",
						"label": "string",
						"numberOfBytes": "32"
					},
					"t_struct(Actor)246_storage": {
						"encoding": "inplace",
						"label": "struct Users.Actor",
						"members": [
							{
								"astId": 242,
								"contract": "contracts/Users.sol:Users",
								"label": "name",
								"offset": 0,
								"slot": "0",
								"type": "t_string_storage"
							},
							{
								"astId": 245,
								"contract": "contracts/Users.sol:Users",
								"label": "roles",
								"offset": 0,
								"slot": "1",
								"type": "t_enum(Role)264"
							}
						],
						"numberOfBytes": "64"
					}
				}
			},
			"userdoc": {
				"kind": "user",
				"methods": {},
				"version": 1
			}
		}
	}
}