{
	"contracts/Users.sol": {
		"Users": {
			"abi": [
				{
					"anonymous": false,
					"inputs": [
						{
							"indexed": true,
							"internalType": "address",
							"name": "_beneficiary",
							"type": "address"
						}
					],
					"name": "AddedBeneficiary",
					"type": "event"
				},
				{
					"anonymous": false,
					"inputs": [
						{
							"indexed": true,
							"internalType": "address",
							"name": "previousOwner",
							"type": "address"
						},
						{
							"indexed": true,
							"internalType": "address",
							"name": "newOwner",
							"type": "address"
						}
					],
					"name": "OwnershipTransferred",
					"type": "event"
				},
				{
					"anonymous": false,
					"inputs": [
						{
							"indexed": false,
							"internalType": "address",
							"name": "id",
							"type": "address"
						},
						{
							"indexed": false,
							"internalType": "string",
							"name": "name",
							"type": "string"
						},
						{
							"indexed": false,
							"internalType": "enum Users.Role",
							"name": "role",
							"type": "uint8"
						}
					],
					"name": "actorCast",
					"type": "event"
				},
				{
					"inputs": [
						{
							"internalType": "address",
							"name": "",
							"type": "address"
						}
					],
					"name": "actors",
					"outputs": [
						{
							"internalType": "string",
							"name": "name",
							"type": "string"
						},
						{
							"internalType": "enum Users.Role",
							"name": "roles",
							"type": "uint8"
						}
					],
					"stateMutability": "view",
					"type": "function"
				},
				{
					"inputs": [
						{
							"internalType": "address",
							"name": "_beneficiaries",
							"type": "address"
						}
					],
					"name": "addToWhitelist",
					"outputs": [],
					"stateMutability": "nonpayable",
					"type": "function"
				},
				{
					"inputs": [
						{
							"internalType": "address",
							"name": "id",
							"type": "address"
						},
						{
							"internalType": "string",
							"name": "name",
							"type": "string"
						},
						{
							"internalType": "enum Users.Role",
							"name": "role",
							"type": "uint8"
						}
					],
					"name": "addUser",
					"outputs": [],
					"stateMutability": "nonpayable",
					"type": "function"
				},
				{
					"inputs": [],
					"name": "getUsersCount",
					"outputs": [
						{
							"internalType": "uint256",
							"name": "",
							"type": "uint256"
						}
					],
					"stateMutability": "view",
					"type": "function"
				},
				{
					"inputs": [],
					"name": "owner",
					"outputs": [
						{
							"internalType": "address",
							"name": "",
							"type": "address"
						}
					],
					"stateMutability": "view",
					"type": "function"
				},
				{
					"inputs": [
						{
							"internalType": "address",
							"name": "_beneficiary",
							"type": "address"
						}
					],
					"name": "removeFromWhitelist",
					"outputs": [],
					"stateMutability": "nonpayable",
					"type": "function"
				},
				{
					"inputs": [
						{
							"internalType": "address",
							"name": "newOwner",
							"type": "address"
						}
					],
					"name": "transferOwnership",
					"outputs": [],
					"stateMutability": "nonpayable",
					"type": "function"
				},
				{
					"inputs": [
						{
							"internalType": "uint256",
							"name": "",
							"type": "uint256"
						}
					],
					"name": "users",
					"outputs": [
						{
							"internalType": "address",
							"name": "",
							"type": "address"
						}
					],
					"stateMutability": "view",
					"type": "function"
				},
				{
					"inputs": [
						{
							"internalType": "address",
							"name": "",
							"type": "address"
						}
					],
					"name": "whitelist",
					"outputs": [
						{
							"internalType": "bool",
							"name": "",
							"type": "bool"
						}
					],
					"stateMutability": "view",
					"type": "function"
				}
			],
			"devdoc": {
				"kind": "dev",
				"methods": {
					"addToWhitelist(address)": {
						"details": "Adds list of addresses to whitelist. Not overloaded due to limitations with truffle testing.",
						"params": {
							"_beneficiaries": "Addresses to be added to the whitelist"
						}
					},
					"removeFromWhitelist(address)": {
						"details": "Removes single address from whitelist.",
						"params": {
							"_beneficiary": "Address to be removed to the whitelist"
						}
					},
					"transferOwnership(address)": {
						"details": "Allows the current owner to transfer control of the contract to a newOwner.",
						"params": {
							"newOwner": "The address to transfer ownership to."
						}
					}
				},
				"version": 1
			},
			"evm": {
				"assembly": "    /* \"contracts/Users.sol\":138:1894  contract Users is Ownable, Whitelist {... */\n  mstore(0x40, 0x80)\n  callvalue\n  dup1\n  iszero\n  tag_1\n  jumpi\n  0x00\n  dup1\n  revert\ntag_1:\n  pop\n    /* \"contracts/Owner.sol\":557:567  msg.sender */\n  caller\n    /* \"contracts/Owner.sol\":549:554  owner */\n  0x00\n  dup1\n    /* \"contracts/Owner.sol\":549:567  owner = msg.sender */\n  0x0100\n  exp\n  dup2\n  sload\n  dup2\n  0xffffffffffffffffffffffffffffffffffffffff\n  mul\n  not\n  and\n  swap1\n  dup4\n  0xffffffffffffffffffffffffffffffffffffffff\n  and\n  mul\n  or\n  swap1\n  sstore\n  pop\n    /* \"contracts/Users.sol\":138:1894  contract Users is Ownable, Whitelist {... */\n  dataSize(sub_0)\n  dup1\n  dataOffset(sub_0)\n  0x00\n  codecopy\n  0x00\n  return\nstop\n\nsub_0: assembly {\n        /* \"contracts/Users.sol\":138:1894  contract Users is Ownable, Whitelist {... */\n      mstore(0x40, 0x80)\n      callvalue\n      dup1\n      iszero\n      tag_1\n      jumpi\n      0x00\n      dup1\n      revert\n    tag_1:\n      pop\n      jumpi(tag_2, lt(calldatasize, 0x04))\n      shr(0xe0, calldataload(0x00))\n      dup1\n      0x9b19251a\n      gt\n      tag_12\n      jumpi\n      dup1\n      0x9b19251a\n      eq\n      tag_7\n      jumpi\n      dup1\n      0xa4a1e263\n      eq\n      tag_8\n      jumpi\n      dup1\n      0xe43252d7\n      eq\n      tag_9\n      jumpi\n      dup1\n      0xeaa66a3c\n      eq\n      tag_10\n      jumpi\n      dup1\n      0xf2fde38b\n      eq\n      tag_11\n      jumpi\n      jump(tag_2)\n    tag_12:\n      dup1\n      0x365b98b2\n      eq\n      tag_3\n      jumpi\n      dup1\n      0x40d26854\n      eq\n      tag_4\n      jumpi\n      dup1\n      0x8ab1d681\n      eq\n      tag_5\n      jumpi\n      dup1\n      0x8da5cb5b\n      eq\n      tag_6\n      jumpi\n    tag_2:\n      0x00\n      dup1\n      revert\n        /* \"contracts/Users.sol\":683:705  address[] public users */\n    tag_3:\n      tag_13\n      0x04\n      dup1\n      calldatasize\n      sub\n      dup2\n      add\n      swap1\n      tag_14\n      swap2\n      swap1\n      tag_15\n      jump\t// in\n    tag_14:\n      tag_16\n      jump\t// in\n    tag_13:\n      mload(0x40)\n      tag_17\n      swap2\n      swap1\n      tag_18\n      jump\t// in\n    tag_17:\n      mload(0x40)\n      dup1\n      swap2\n      sub\n      swap1\n      return\n        /* \"contracts/Users.sol\":742:1749  function addUser(address id, string memory name, Role role) public {... */\n    tag_4:\n      tag_19\n      0x04\n      dup1\n      calldatasize\n      sub\n      dup2\n      add\n      swap1\n      tag_20\n      swap2\n      swap1\n      tag_21\n      jump\t// in\n    tag_20:\n      tag_22\n      jump\t// in\n    tag_19:\n      stop\n        /* \"contracts/WhiteList.sol\":890:1006  function removeFromWhitelist(address _beneficiary) public onlyOwner {\r... */\n    tag_5:\n      tag_23\n      0x04\n      dup1\n      calldatasize\n      sub\n      dup2\n      add\n      swap1\n      tag_24\n      swap2\n      swap1\n      tag_25\n      jump\t// in\n    tag_24:\n      tag_26\n      jump\t// in\n    tag_23:\n      stop\n        /* \"contracts/Owner.sol\":275:295  address public owner */\n    tag_6:\n      tag_27\n      tag_28\n      jump\t// in\n    tag_27:\n      mload(0x40)\n      tag_29\n      swap2\n      swap1\n      tag_18\n      jump\t// in\n    tag_29:\n      mload(0x40)\n      dup1\n      swap2\n      sub\n      swap1\n      return\n        /* \"contracts/WhiteList.sol\":189:230  mapping(address => bool) public whitelist */\n    tag_7:\n      tag_30\n      0x04\n      dup1\n      calldatasize\n      sub\n      dup2\n      add\n      swap1\n      tag_31\n      swap2\n      swap1\n      tag_25\n      jump\t// in\n    tag_31:\n      tag_32\n      jump\t// in\n    tag_30:\n      mload(0x40)\n      tag_33\n      swap2\n      swap1\n      tag_34\n      jump\t// in\n    tag_33:\n      mload(0x40)\n      dup1\n      swap2\n      sub\n      swap1\n      return\n        /* \"contracts/Users.sol\":1804:1892  function getUsersCount() public view returns (uint) {... */\n    tag_8:\n      tag_35\n      tag_36\n      jump\t// in\n    tag_35:\n      mload(0x40)\n      tag_37\n      swap2\n      swap1\n      tag_38\n      jump\t// in\n    tag_37:\n      mload(0x40)\n      dup1\n      swap2\n      sub\n      swap1\n      return\n        /* \"contracts/WhiteList.sol\":624:739  function addToWhitelist(address _beneficiaries) public  {\r... */\n    tag_9:\n      tag_39\n      0x04\n      dup1\n      calldatasize\n      sub\n      dup2\n      add\n      swap1\n      tag_40\n      swap2\n      swap1\n      tag_25\n      jump\t// in\n    tag_40:\n      tag_41\n      jump\t// in\n    tag_39:\n      stop\n        /* \"contracts/Users.sol\":549:588  mapping(address => Actor) public actors */\n    tag_10:\n      tag_42\n      0x04\n      dup1\n      calldatasize\n      sub\n      dup2\n      add\n      swap1\n      tag_43\n      swap2\n      swap1\n      tag_25\n      jump\t// in\n    tag_43:\n      tag_44\n      jump\t// in\n    tag_42:\n      mload(0x40)\n      tag_45\n      swap3\n      swap2\n      swap1\n      tag_46\n      jump\t// in\n    tag_45:\n      mload(0x40)\n      dup1\n      swap2\n      sub\n      swap1\n      return\n        /* \"contracts/Owner.sol\":940:1157  function transferOwnership(address newOwner) public onlyOwner {... */\n    tag_11:\n      tag_47\n      0x04\n      dup1\n      calldatasize\n      sub\n      dup2\n      add\n      swap1\n      tag_48\n      swap2\n      swap1\n      tag_25\n      jump\t// in\n    tag_48:\n      tag_49\n      jump\t// in\n    tag_47:\n      stop\n        /* \"contracts/Users.sol\":683:705  address[] public users */\n    tag_16:\n      0x03\n      dup2\n      dup2\n      sload\n      dup2\n      lt\n      tag_50\n      jumpi\n      0x00\n      dup1\n      revert\n    tag_50:\n      swap1\n      0x00\n      mstore\n      keccak256(0x00, 0x20)\n      add\n      0x00\n      swap2\n      pop\n      sload\n      swap1\n      0x0100\n      exp\n      swap1\n      div\n      0xffffffffffffffffffffffffffffffffffffffff\n      and\n      dup2\n      jump\t// out\n        /* \"contracts/Users.sol\":742:1749  function addUser(address id, string memory name, Role role) public {... */\n    tag_22:\n        /* \"contracts/Users.sol\":819:839  Actor memory newUser */\n      0x00\n        /* \"contracts/Users.sol\":842:859  Actor(name, role) */\n      mload(0x40)\n      dup1\n      0x40\n      add\n      0x40\n      mstore\n      dup1\n        /* \"contracts/Users.sol\":848:852  name */\n      dup5\n        /* \"contracts/Users.sol\":842:859  Actor(name, role) */\n      dup2\n      mstore\n      0x20\n      add\n        /* \"contracts/Users.sol\":854:858  role */\n      dup4\n        /* \"contracts/Users.sol\":842:859  Actor(name, role) */\n      0x03\n      dup2\n      gt\n      iszero\n      tag_53\n      jumpi\n      mstore(0x00, 0x4e487b7100000000000000000000000000000000000000000000000000000000)\n      mstore(0x04, 0x21)\n      revert(0x00, 0x24)\n    tag_53:\n      dup2\n      mstore\n      pop\n        /* \"contracts/Users.sol\":819:859  Actor memory newUser = Actor(name, role) */\n      swap1\n      pop\n        /* \"contracts/Users.sol\":869:894  Actor memory currentActor */\n      0x00\n        /* \"contracts/Users.sol\":897:903  actors */\n      0x02\n        /* \"contracts/Users.sol\":897:915  actors[msg.sender] */\n      0x00\n        /* \"contracts/Users.sol\":904:914  msg.sender */\n      caller\n        /* \"contracts/Users.sol\":897:915  actors[msg.sender] */\n      0xffffffffffffffffffffffffffffffffffffffff\n      and\n      0xffffffffffffffffffffffffffffffffffffffff\n      and\n      dup2\n      mstore\n      0x20\n      add\n      swap1\n      dup2\n      mstore\n      0x20\n      add\n      0x00\n      keccak256\n        /* \"contracts/Users.sol\":869:915  Actor memory currentActor = actors[msg.sender] */\n      mload(0x40)\n      dup1\n      0x40\n      add\n      0x40\n      mstore\n      swap1\n      dup2\n      0x00\n      dup3\n      add\n      dup1\n      sload\n      tag_54\n      swap1\n      tag_55\n      jump\t// in\n    tag_54:\n      dup1\n      0x1f\n      add\n      0x20\n      dup1\n      swap2\n      div\n      mul\n      0x20\n      add\n      mload(0x40)\n      swap1\n      dup2\n      add\n      0x40\n      mstore\n      dup1\n      swap3\n      swap2\n      swap1\n      dup2\n      dup2\n      mstore\n      0x20\n      add\n      dup3\n      dup1\n      sload\n      tag_56\n      swap1\n      tag_55\n      jump\t// in\n    tag_56:\n      dup1\n      iszero\n      tag_57\n      jumpi\n      dup1\n      0x1f\n      lt\n      tag_58\n      jumpi\n      0x0100\n      dup1\n      dup4\n      sload\n      div\n      mul\n      dup4\n      mstore\n      swap2\n      0x20\n      add\n      swap2\n      jump(tag_57)\n    tag_58:\n      dup3\n      add\n      swap2\n      swap1\n      0x00\n      mstore\n      keccak256(0x00, 0x20)\n      swap1\n    tag_59:\n      dup2\n      sload\n      dup2\n      mstore\n      swap1\n      0x01\n      add\n      swap1\n      0x20\n      add\n      dup1\n      dup4\n      gt\n      tag_59\n      jumpi\n      dup3\n      swap1\n      sub\n      0x1f\n      and\n      dup3\n      add\n      swap2\n    tag_57:\n      pop\n      pop\n      pop\n      pop\n      pop\n      dup2\n      mstore\n      0x20\n      add\n      0x01\n      dup3\n      add\n      0x00\n      swap1\n      sload\n      swap1\n      0x0100\n      exp\n      swap1\n      div\n      0xff\n      and\n      0x03\n      dup2\n      gt\n      iszero\n      tag_60\n      jumpi\n      mstore(0x00, 0x4e487b7100000000000000000000000000000000000000000000000000000000)\n      mstore(0x04, 0x21)\n      revert(0x00, 0x24)\n    tag_60:\n      0x03\n      dup2\n      gt\n      iszero\n      tag_61\n      jumpi\n      mstore(0x00, 0x4e487b7100000000000000000000000000000000000000000000000000000000)\n      mstore(0x04, 0x21)\n      revert(0x00, 0x24)\n    tag_61:\n      dup2\n      mstore\n      pop\n      pop\n      swap1\n      pop\n        /* \"contracts/Users.sol\":930:1002  actorCast(msg.sender, actors[msg.sender].name, actors[msg.sender].roles) */\n      0xfcf56e8b77543617e075beddc33f51b3921b2dc365ae569ce204aab0c333fd53\n        /* \"contracts/Users.sol\":940:950  msg.sender */\n      caller\n        /* \"contracts/Users.sol\":952:958  actors */\n      0x02\n        /* \"contracts/Users.sol\":952:970  actors[msg.sender] */\n      0x00\n        /* \"contracts/Users.sol\":959:969  msg.sender */\n      caller\n        /* \"contracts/Users.sol\":952:970  actors[msg.sender] */\n      0xffffffffffffffffffffffffffffffffffffffff\n      and\n      0xffffffffffffffffffffffffffffffffffffffff\n      and\n      dup2\n      mstore\n      0x20\n      add\n      swap1\n      dup2\n      mstore\n      0x20\n      add\n      0x00\n      keccak256\n        /* \"contracts/Users.sol\":952:975  actors[msg.sender].name */\n      0x00\n      add\n        /* \"contracts/Users.sol\":977:983  actors */\n      0x02\n        /* \"contracts/Users.sol\":977:995  actors[msg.sender] */\n      0x00\n        /* \"contracts/Users.sol\":984:994  msg.sender */\n      caller\n        /* \"contracts/Users.sol\":977:995  actors[msg.sender] */\n      0xffffffffffffffffffffffffffffffffffffffff\n      and\n      0xffffffffffffffffffffffffffffffffffffffff\n      and\n      dup2\n      mstore\n      0x20\n      add\n      swap1\n      dup2\n      mstore\n      0x20\n      add\n      0x00\n      keccak256\n        /* \"contracts/Users.sol\":977:1001  actors[msg.sender].roles */\n      0x01\n      add\n      0x00\n      swap1\n      sload\n      swap1\n      0x0100\n      exp\n      swap1\n      div\n      0xff\n      and\n        /* \"contracts/Users.sol\":930:1002  actorCast(msg.sender, actors[msg.sender].name, actors[msg.sender].roles) */\n      mload(0x40)\n      tag_62\n      swap4\n      swap3\n      swap2\n      swap1\n      tag_63\n      jump\t// in\n    tag_62:\n      mload(0x40)\n      dup1\n      swap2\n      sub\n      swap1\n      log1\n        /* \"contracts/Users.sol\":1017:1089  actorCast(msg.sender, actors[msg.sender].name, actors[msg.sender].roles) */\n      0xfcf56e8b77543617e075beddc33f51b3921b2dc365ae569ce204aab0c333fd53\n        /* \"contracts/Users.sol\":1027:1037  msg.sender */\n      caller\n        /* \"contracts/Users.sol\":1039:1045  actors */\n      0x02\n        /* \"contracts/Users.sol\":1039:1057  actors[msg.sender] */\n      0x00\n        /* \"contracts/Users.sol\":1046:1056  msg.sender */\n      caller\n        /* \"contracts/Users.sol\":1039:1057  actors[msg.sender] */\n      0xffffffffffffffffffffffffffffffffffffffff\n      and\n      0xffffffffffffffffffffffffffffffffffffffff\n      and\n      dup2\n      mstore\n      0x20\n      add\n      swap1\n      dup2\n      mstore\n      0x20\n      add\n      0x00\n      keccak256\n        /* \"contracts/Users.sol\":1039:1062  actors[msg.sender].name */\n      0x00\n      add\n        /* \"contracts/Users.sol\":1064:1070  actors */\n      0x02\n        /* \"contracts/Users.sol\":1064:1082  actors[msg.sender] */\n      0x00\n        /* \"contracts/Users.sol\":1071:1081  msg.sender */\n      caller\n        /* \"contracts/Users.sol\":1064:1082  actors[msg.sender] */\n      0xffffffffffffffffffffffffffffffffffffffff\n      and\n      0xffffffffffffffffffffffffffffffffffffffff\n      and\n      dup2\n      mstore\n      0x20\n      add\n      swap1\n      dup2\n      mstore\n      0x20\n      add\n      0x00\n      keccak256\n        /* \"contracts/Users.sol\":1064:1088  actors[msg.sender].roles */\n      0x01\n      add\n      0x00\n      swap1\n      sload\n      swap1\n      0x0100\n      exp\n      swap1\n      div\n      0xff\n      and\n        /* \"contracts/Users.sol\":1017:1089  actorCast(msg.sender, actors[msg.sender].name, actors[msg.sender].roles) */\n      mload(0x40)\n      tag_64\n      swap4\n      swap3\n      swap2\n      swap1\n      tag_63\n      jump\t// in\n    tag_64:\n      mload(0x40)\n      dup1\n      swap2\n      sub\n      swap1\n      log1\n        /* \"contracts/Users.sol\":1100:1116  Role currentRole */\n      0x00\n        /* \"contracts/Users.sol\":1119:1131  currentActor */\n      dup2\n        /* \"contracts/Users.sol\":1119:1137  currentActor.roles */\n      0x20\n      add\n      mload\n        /* \"contracts/Users.sol\":1100:1137  Role currentRole = currentActor.roles */\n      swap1\n      pop\n        /* \"contracts/Users.sol\":1164:1169  owner */\n      0x00\n      dup1\n      sload\n      swap1\n      0x0100\n      exp\n      swap1\n      div\n      0xffffffffffffffffffffffffffffffffffffffff\n      and\n        /* \"contracts/Users.sol\":1150:1169  msg.sender != owner */\n      0xffffffffffffffffffffffffffffffffffffffff\n      and\n        /* \"contracts/Users.sol\":1150:1160  msg.sender */\n      caller\n        /* \"contracts/Users.sol\":1150:1169  msg.sender != owner */\n      0xffffffffffffffffffffffffffffffffffffffff\n      and\n      eq\n        /* \"contracts/Users.sol\":1147:1651  if(msg.sender != owner){... */\n      tag_65\n      jumpi\n        /* \"contracts/Users.sol\":1198:1215  Role.Manufacturer */\n      0x00\n        /* \"contracts/Users.sol\":1183:1215  currentRole == Role.Manufacturer */\n      0x03\n      dup2\n      gt\n      iszero\n      tag_66\n      jumpi\n      mstore(0x00, 0x4e487b7100000000000000000000000000000000000000000000000000000000)\n      mstore(0x04, 0x21)\n      revert(0x00, 0x24)\n    tag_66:\n        /* \"contracts/Users.sol\":1183:1194  currentRole */\n      dup2\n        /* \"contracts/Users.sol\":1183:1215  currentRole == Role.Manufacturer */\n      0x03\n      dup2\n      gt\n      iszero\n      tag_67\n      jumpi\n      mstore(0x00, 0x4e487b7100000000000000000000000000000000000000000000000000000000)\n      mstore(0x04, 0x21)\n      revert(0x00, 0x24)\n    tag_67:\n      eq\n        /* \"contracts/Users.sol\":1183:1240  currentRole == Role.Manufacturer && role != Role.Supplier */\n      dup1\n      iszero\n      tag_68\n      jumpi\n      pop\n        /* \"contracts/Users.sol\":1227:1240  Role.Supplier */\n      0x01\n        /* \"contracts/Users.sol\":1219:1240  role != Role.Supplier */\n      0x03\n      dup2\n      gt\n      iszero\n      tag_69\n      jumpi\n      mstore(0x00, 0x4e487b7100000000000000000000000000000000000000000000000000000000)\n      mstore(0x04, 0x21)\n      revert(0x00, 0x24)\n    tag_69:\n        /* \"contracts/Users.sol\":1219:1223  role */\n      dup5\n        /* \"contracts/Users.sol\":1219:1240  role != Role.Supplier */\n      0x03\n      dup2\n      gt\n      iszero\n      tag_70\n      jumpi\n      mstore(0x00, 0x4e487b7100000000000000000000000000000000000000000000000000000000)\n      mstore(0x04, 0x21)\n      revert(0x00, 0x24)\n    tag_70:\n      eq\n      iszero\n        /* \"contracts/Users.sol\":1183:1240  currentRole == Role.Manufacturer && role != Role.Supplier */\n    tag_68:\n        /* \"contracts/Users.sol\":1180:1301  if(currentRole == Role.Manufacturer && role != Role.Supplier){revert(\"Cannot add manufacturer or customer or supplier\");} */\n      iszero\n      tag_71\n      jumpi\n        /* \"contracts/Users.sol\":1242:1299  revert(\"Cannot add manufacturer or customer or supplier\") */\n      mload(0x40)\n      0x08c379a000000000000000000000000000000000000000000000000000000000\n      dup2\n      mstore\n      0x04\n      add\n      tag_72\n      swap1\n      tag_73\n      jump\t// in\n    tag_72:\n      mload(0x40)\n      dup1\n      swap2\n      sub\n      swap1\n      revert\n        /* \"contracts/Users.sol\":1180:1301  if(currentRole == Role.Manufacturer && role != Role.Supplier){revert(\"Cannot add manufacturer or customer or supplier\");} */\n    tag_71:\n        /* \"contracts/Users.sol\":1328:1341  Role.Supplier */\n      0x01\n        /* \"contracts/Users.sol\":1313:1341  currentRole == Role.Supplier */\n      0x03\n      dup2\n      gt\n      iszero\n      tag_74\n      jumpi\n      mstore(0x00, 0x4e487b7100000000000000000000000000000000000000000000000000000000)\n      mstore(0x04, 0x21)\n      revert(0x00, 0x24)\n    tag_74:\n        /* \"contracts/Users.sol\":1313:1324  currentRole */\n      dup2\n        /* \"contracts/Users.sol\":1313:1341  currentRole == Role.Supplier */\n      0x03\n      dup2\n      gt\n      iszero\n      tag_75\n      jumpi\n      mstore(0x00, 0x4e487b7100000000000000000000000000000000000000000000000000000000)\n      mstore(0x04, 0x21)\n      revert(0x00, 0x24)\n    tag_75:\n      eq\n        /* \"contracts/Users.sol\":1313:1373  currentRole == Role.Supplier && newUser.roles != Role.Vendor */\n      dup1\n      iszero\n      tag_76\n      jumpi\n      pop\n        /* \"contracts/Users.sol\":1362:1373  Role.Vendor */\n      0x02\n        /* \"contracts/Users.sol\":1345:1373  newUser.roles != Role.Vendor */\n      0x03\n      dup2\n      gt\n      iszero\n      tag_77\n      jumpi\n      mstore(0x00, 0x4e487b7100000000000000000000000000000000000000000000000000000000)\n      mstore(0x04, 0x21)\n      revert(0x00, 0x24)\n    tag_77:\n        /* \"contracts/Users.sol\":1345:1352  newUser */\n      dup4\n        /* \"contracts/Users.sol\":1345:1358  newUser.roles */\n      0x20\n      add\n      mload\n        /* \"contracts/Users.sol\":1345:1373  newUser.roles != Role.Vendor */\n      0x03\n      dup2\n      gt\n      iszero\n      tag_78\n      jumpi\n      mstore(0x00, 0x4e487b7100000000000000000000000000000000000000000000000000000000)\n      mstore(0x04, 0x21)\n      revert(0x00, 0x24)\n    tag_78:\n      eq\n      iszero\n        /* \"contracts/Users.sol\":1313:1373  currentRole == Role.Supplier && newUser.roles != Role.Vendor */\n    tag_76:\n        /* \"contracts/Users.sol\":1310:1435  if(currentRole == Role.Supplier && newUser.roles != Role.Vendor){revert( \"Cannot add manufacturer or supplier or customer\");} */\n      iszero\n      tag_79\n      jumpi\n        /* \"contracts/Users.sol\":1375:1433  revert( \"Cannot add manufacturer or supplier or customer\") */\n      mload(0x40)\n      0x08c379a000000000000000000000000000000000000000000000000000000000\n      dup2\n      mstore\n      0x04\n      add\n      tag_80\n      swap1\n      tag_81\n      jump\t// in\n    tag_80:\n      mload(0x40)\n      dup1\n      swap2\n      sub\n      swap1\n      revert\n        /* \"contracts/Users.sol\":1310:1435  if(currentRole == Role.Supplier && newUser.roles != Role.Vendor){revert( \"Cannot add manufacturer or supplier or customer\");} */\n    tag_79:\n        /* \"contracts/Users.sol\":1462:1473  Role.Vendor */\n      0x02\n        /* \"contracts/Users.sol\":1447:1473  currentRole == Role.Vendor */\n      0x03\n      dup2\n      gt\n      iszero\n      tag_82\n      jumpi\n      mstore(0x00, 0x4e487b7100000000000000000000000000000000000000000000000000000000)\n      mstore(0x04, 0x21)\n      revert(0x00, 0x24)\n    tag_82:\n        /* \"contracts/Users.sol\":1447:1458  currentRole */\n      dup2\n        /* \"contracts/Users.sol\":1447:1473  currentRole == Role.Vendor */\n      0x03\n      dup2\n      gt\n      iszero\n      tag_83\n      jumpi\n      mstore(0x00, 0x4e487b7100000000000000000000000000000000000000000000000000000000)\n      mstore(0x04, 0x21)\n      revert(0x00, 0x24)\n    tag_83:\n      eq\n        /* \"contracts/Users.sol\":1447:1507  currentRole == Role.Vendor && newUser.roles != Role.Customer */\n      dup1\n      iszero\n      tag_84\n      jumpi\n      pop\n        /* \"contracts/Users.sol\":1494:1507  Role.Customer */\n      0x03\n        /* \"contracts/Users.sol\":1477:1507  newUser.roles != Role.Customer */\n      dup1\n      dup2\n      gt\n      iszero\n      tag_85\n      jumpi\n      mstore(0x00, 0x4e487b7100000000000000000000000000000000000000000000000000000000)\n      mstore(0x04, 0x21)\n      revert(0x00, 0x24)\n    tag_85:\n        /* \"contracts/Users.sol\":1477:1484  newUser */\n      dup4\n        /* \"contracts/Users.sol\":1477:1490  newUser.roles */\n      0x20\n      add\n      mload\n        /* \"contracts/Users.sol\":1477:1507  newUser.roles != Role.Customer */\n      0x03\n      dup2\n      gt\n      iszero\n      tag_86\n      jumpi\n      mstore(0x00, 0x4e487b7100000000000000000000000000000000000000000000000000000000)\n      mstore(0x04, 0x21)\n      revert(0x00, 0x24)\n    tag_86:\n      eq\n      iszero\n        /* \"contracts/Users.sol\":1447:1507  currentRole == Role.Vendor && newUser.roles != Role.Customer */\n    tag_84:\n        /* \"contracts/Users.sol\":1444:1567  if(currentRole == Role.Vendor && newUser.roles != Role.Customer){revert( \"Cannot add manufacturer or supplier or vendor\");} */\n      iszero\n      tag_87\n      jumpi\n        /* \"contracts/Users.sol\":1509:1565  revert( \"Cannot add manufacturer or supplier or vendor\") */\n      mload(0x40)\n      0x08c379a000000000000000000000000000000000000000000000000000000000\n      dup2\n      mstore\n      0x04\n      add\n      tag_88\n      swap1\n      tag_89\n      jump\t// in\n    tag_88:\n      mload(0x40)\n      dup1\n      swap2\n      sub\n      swap1\n      revert\n        /* \"contracts/Users.sol\":1444:1567  if(currentRole == Role.Vendor && newUser.roles != Role.Customer){revert( \"Cannot add manufacturer or supplier or vendor\");} */\n    tag_87:\n        /* \"contracts/Users.sol\":1594:1607  Role.Customer */\n      0x03\n        /* \"contracts/Users.sol\":1579:1607  currentRole == Role.Customer */\n      dup1\n      dup2\n      gt\n      iszero\n      tag_90\n      jumpi\n      mstore(0x00, 0x4e487b7100000000000000000000000000000000000000000000000000000000)\n      mstore(0x04, 0x21)\n      revert(0x00, 0x24)\n    tag_90:\n        /* \"contracts/Users.sol\":1579:1590  currentRole */\n      dup2\n        /* \"contracts/Users.sol\":1579:1607  currentRole == Role.Customer */\n      0x03\n      dup2\n      gt\n      iszero\n      tag_91\n      jumpi\n      mstore(0x00, 0x4e487b7100000000000000000000000000000000000000000000000000000000)\n      mstore(0x04, 0x21)\n      revert(0x00, 0x24)\n    tag_91:\n      eq\n        /* \"contracts/Users.sol\":1576:1641  if(currentRole == Role.Customer) {revert(\"Cannot add an actor\");} */\n      iszero\n      tag_92\n      jumpi\n        /* \"contracts/Users.sol\":1610:1639  revert(\"Cannot add an actor\") */\n      mload(0x40)\n      0x08c379a000000000000000000000000000000000000000000000000000000000\n      dup2\n      mstore\n      0x04\n      add\n      tag_93\n      swap1\n      tag_94\n      jump\t// in\n    tag_93:\n      mload(0x40)\n      dup1\n      swap2\n      sub\n      swap1\n      revert\n        /* \"contracts/Users.sol\":1576:1641  if(currentRole == Role.Customer) {revert(\"Cannot add an actor\");} */\n    tag_92:\n        /* \"contracts/Users.sol\":1147:1651  if(msg.sender != owner){... */\n    tag_65:\n        /* \"contracts/Users.sol\":1673:1690  Actor(name, role) */\n      mload(0x40)\n      dup1\n      0x40\n      add\n      0x40\n      mstore\n      dup1\n        /* \"contracts/Users.sol\":1679:1683  name */\n      dup7\n        /* \"contracts/Users.sol\":1673:1690  Actor(name, role) */\n      dup2\n      mstore\n      0x20\n      add\n        /* \"contracts/Users.sol\":1685:1689  role */\n      dup6\n        /* \"contracts/Users.sol\":1673:1690  Actor(name, role) */\n      0x03\n      dup2\n      gt\n      iszero\n      tag_95\n      jumpi\n      mstore(0x00, 0x4e487b7100000000000000000000000000000000000000000000000000000000)\n      mstore(0x04, 0x21)\n      revert(0x00, 0x24)\n    tag_95:\n      dup2\n      mstore\n      pop\n        /* \"contracts/Users.sol\":1660:1666  actors */\n      0x02\n        /* \"contracts/Users.sol\":1660:1670  actors[id] */\n      0x00\n        /* \"contracts/Users.sol\":1667:1669  id */\n      dup9\n        /* \"contracts/Users.sol\":1660:1670  actors[id] */\n      0xffffffffffffffffffffffffffffffffffffffff\n      and\n      0xffffffffffffffffffffffffffffffffffffffff\n      and\n      dup2\n      mstore\n      0x20\n      add\n      swap1\n      dup2\n      mstore\n      0x20\n      add\n      0x00\n      keccak256\n        /* \"contracts/Users.sol\":1660:1690  actors[id] = Actor(name, role) */\n      0x00\n      dup3\n      add\n      mload\n      dup2\n      0x00\n      add\n      swap1\n      dup1\n      mload\n      swap1\n      0x20\n      add\n      swap1\n      tag_96\n      swap3\n      swap2\n      swap1\n      tag_97\n      jump\t// in\n    tag_96:\n      pop\n      0x20\n      dup3\n      add\n      mload\n      dup2\n      0x01\n      add\n      exp(0x0100, 0x00)\n      dup2\n      sload\n      dup2\n      0xff\n      mul\n      not\n      and\n      swap1\n      dup4\n      0x03\n      dup2\n      gt\n      iszero\n      tag_98\n      jumpi\n      mstore(0x00, 0x4e487b7100000000000000000000000000000000000000000000000000000000)\n      mstore(0x04, 0x21)\n      revert(0x00, 0x24)\n    tag_98:\n      mul\n      or\n      swap1\n      sstore\n      pop\n      swap1\n      pop\n      pop\n        /* \"contracts/Users.sol\":1700:1705  users */\n      0x03\n        /* \"contracts/Users.sol\":1711:1713  id */\n      dup7\n        /* \"contracts/Users.sol\":1700:1714  users.push(id) */\n      swap1\n      dup1\n      0x01\n      dup2\n      sload\n      add\n      dup1\n      dup3\n      sstore\n      dup1\n      swap2\n      pop\n      pop\n      0x01\n      swap1\n      sub\n      swap1\n      0x00\n      mstore\n      keccak256(0x00, 0x20)\n      add\n      0x00\n      swap1\n      swap2\n      swap1\n      swap2\n      swap1\n      swap2\n      0x0100\n      exp\n      dup2\n      sload\n      dup2\n      0xffffffffffffffffffffffffffffffffffffffff\n      mul\n      not\n      and\n      swap1\n      dup4\n      0xffffffffffffffffffffffffffffffffffffffff\n      and\n      mul\n      or\n      swap1\n      sstore\n      pop\n        /* \"contracts/Users.sol\":1724:1742  addToWhitelist(id) */\n      tag_100\n        /* \"contracts/Users.sol\":1739:1741  id */\n      dup7\n        /* \"contracts/Users.sol\":1724:1738  addToWhitelist */\n      tag_41\n        /* \"contracts/Users.sol\":1724:1742  addToWhitelist(id) */\n      jump\t// in\n    tag_100:\n        /* \"contracts/Users.sol\":742:1749  function addUser(address id, string memory name, Role role) public {... */\n      pop\n      pop\n      pop\n      pop\n      pop\n      pop\n      jump\t// out\n        /* \"contracts/WhiteList.sol\":890:1006  function removeFromWhitelist(address _beneficiary) public onlyOwner {\r... */\n    tag_26:\n        /* \"contracts/Owner.sol\":716:721  owner */\n      0x00\n      dup1\n      sload\n      swap1\n      0x0100\n      exp\n      swap1\n      div\n      0xffffffffffffffffffffffffffffffffffffffff\n      and\n        /* \"contracts/Owner.sol\":702:721  msg.sender == owner */\n      0xffffffffffffffffffffffffffffffffffffffff\n      and\n        /* \"contracts/Owner.sol\":702:712  msg.sender */\n      caller\n        /* \"contracts/Owner.sol\":702:721  msg.sender == owner */\n      0xffffffffffffffffffffffffffffffffffffffff\n      and\n      eq\n        /* \"contracts/Owner.sol\":694:750  require(msg.sender == owner, \"Not authorized operation\") */\n      tag_102\n      jumpi\n      mload(0x40)\n      0x08c379a000000000000000000000000000000000000000000000000000000000\n      dup2\n      mstore\n      0x04\n      add\n      tag_103\n      swap1\n      tag_104\n      jump\t// in\n    tag_103:\n      mload(0x40)\n      dup1\n      swap2\n      sub\n      swap1\n      revert\n    tag_102:\n        /* \"contracts/WhiteList.sol\":993:998  false */\n      0x00\n        /* \"contracts/WhiteList.sol\":967:976  whitelist */\n      0x01\n        /* \"contracts/WhiteList.sol\":967:990  whitelist[_beneficiary] */\n      0x00\n        /* \"contracts/WhiteList.sol\":977:989  _beneficiary */\n      dup4\n        /* \"contracts/WhiteList.sol\":967:990  whitelist[_beneficiary] */\n      0xffffffffffffffffffffffffffffffffffffffff\n      and\n      0xffffffffffffffffffffffffffffffffffffffff\n      and\n      dup2\n      mstore\n      0x20\n      add\n      swap1\n      dup2\n      mstore\n      0x20\n      add\n      0x00\n      keccak256\n      0x00\n        /* \"contracts/WhiteList.sol\":967:998  whitelist[_beneficiary] = false */\n      0x0100\n      exp\n      dup2\n      sload\n      dup2\n      0xff\n      mul\n      not\n      and\n      swap1\n      dup4\n      iszero\n      iszero\n      mul\n      or\n      swap1\n      sstore\n      pop\n        /* \"contracts/WhiteList.sol\":890:1006  function removeFromWhitelist(address _beneficiary) public onlyOwner {\r... */\n      pop\n      jump\t// out\n        /* \"contracts/Owner.sol\":275:295  address public owner */\n    tag_28:\n      0x00\n      dup1\n      sload\n      swap1\n      0x0100\n      exp\n      swap1\n      div\n      0xffffffffffffffffffffffffffffffffffffffff\n      and\n      dup2\n      jump\t// out\n        /* \"contracts/WhiteList.sol\":189:230  mapping(address => bool) public whitelist */\n    tag_32:\n      mstore(0x20, 0x01)\n      dup1\n      0x00\n      mstore\n      keccak256(0x00, 0x40)\n      0x00\n      swap2\n      pop\n      sload\n      swap1\n      0x0100\n      exp\n      swap1\n      div\n      0xff\n      and\n      dup2\n      jump\t// out\n        /* \"contracts/Users.sol\":1804:1892  function getUsersCount() public view returns (uint) {... */\n    tag_36:\n        /* \"contracts/Users.sol\":1850:1854  uint */\n      0x00\n        /* \"contracts/Users.sol\":1873:1878  users */\n      0x03\n        /* \"contracts/Users.sol\":1873:1885  users.length */\n      dup1\n      sload\n      swap1\n      pop\n        /* \"contracts/Users.sol\":1866:1885  return users.length */\n      swap1\n      pop\n        /* \"contracts/Users.sol\":1804:1892  function getUsersCount() public view returns (uint) {... */\n      swap1\n      jump\t// out\n        /* \"contracts/WhiteList.sol\":624:739  function addToWhitelist(address _beneficiaries) public  {\r... */\n    tag_41:\n        /* \"contracts/WhiteList.sol\":725:729  true */\n      0x01\n        /* \"contracts/WhiteList.sol\":697:706  whitelist */\n      dup1\n        /* \"contracts/WhiteList.sol\":697:722  whitelist[_beneficiaries] */\n      0x00\n        /* \"contracts/WhiteList.sol\":707:721  _beneficiaries */\n      dup4\n        /* \"contracts/WhiteList.sol\":697:722  whitelist[_beneficiaries] */\n      0xffffffffffffffffffffffffffffffffffffffff\n      and\n      0xffffffffffffffffffffffffffffffffffffffff\n      and\n      dup2\n      mstore\n      0x20\n      add\n      swap1\n      dup2\n      mstore\n      0x20\n      add\n      0x00\n      keccak256\n      0x00\n        /* \"contracts/WhiteList.sol\":697:729  whitelist[_beneficiaries] = true */\n      0x0100\n      exp\n      dup2\n      sload\n      dup2\n      0xff\n      mul\n      not\n      and\n      swap1\n      dup4\n      iszero\n      iszero\n      mul\n      or\n      swap1\n      sstore\n      pop\n        /* \"contracts/WhiteList.sol\":624:739  function addToWhitelist(address _beneficiaries) public  {\r... */\n      pop\n      jump\t// out\n        /* \"contracts/Users.sol\":549:588  mapping(address => Actor) public actors */\n    tag_44:\n      mstore(0x20, 0x02)\n      dup1\n      0x00\n      mstore\n      keccak256(0x00, 0x40)\n      0x00\n      swap2\n      pop\n      swap1\n      pop\n      dup1\n      0x00\n      add\n      dup1\n      sload\n      tag_108\n      swap1\n      tag_55\n      jump\t// in\n    tag_108:\n      dup1\n      0x1f\n      add\n      0x20\n      dup1\n      swap2\n      div\n      mul\n      0x20\n      add\n      mload(0x40)\n      swap1\n      dup2\n      add\n      0x40\n      mstore\n      dup1\n      swap3\n      swap2\n      swap1\n      dup2\n      dup2\n      mstore\n      0x20\n      add\n      dup3\n      dup1\n      sload\n      tag_109\n      swap1\n      tag_55\n      jump\t// in\n    tag_109:\n      dup1\n      iszero\n      tag_110\n      jumpi\n      dup1\n      0x1f\n      lt\n      tag_111\n      jumpi\n      0x0100\n      dup1\n      dup4\n      sload\n      div\n      mul\n      dup4\n      mstore\n      swap2\n      0x20\n      add\n      swap2\n      jump(tag_110)\n    tag_111:\n      dup3\n      add\n      swap2\n      swap1\n      0x00\n      mstore\n      keccak256(0x00, 0x20)\n      swap1\n    tag_112:\n      dup2\n      sload\n      dup2\n      mstore\n      swap1\n      0x01\n      add\n      swap1\n      0x20\n      add\n      dup1\n      dup4\n      gt\n      tag_112\n      jumpi\n      dup3\n      swap1\n      sub\n      0x1f\n      and\n      dup3\n      add\n      swap2\n    tag_110:\n      pop\n      pop\n      pop\n      pop\n      pop\n      swap1\n      dup1\n      0x01\n      add\n      0x00\n      swap1\n      sload\n      swap1\n      0x0100\n      exp\n      swap1\n      div\n      0xff\n      and\n      swap1\n      pop\n      dup3\n      jump\t// out\n        /* \"contracts/Owner.sol\":940:1157  function transferOwnership(address newOwner) public onlyOwner {... */\n    tag_49:\n        /* \"contracts/Owner.sol\":716:721  owner */\n      0x00\n      dup1\n      sload\n      swap1\n      0x0100\n      exp\n      swap1\n      div\n      0xffffffffffffffffffffffffffffffffffffffff\n      and\n        /* \"contracts/Owner.sol\":702:721  msg.sender == owner */\n      0xffffffffffffffffffffffffffffffffffffffff\n      and\n        /* \"contracts/Owner.sol\":702:712  msg.sender */\n      caller\n        /* \"contracts/Owner.sol\":702:721  msg.sender == owner */\n      0xffffffffffffffffffffffffffffffffffffffff\n      and\n      eq\n        /* \"contracts/Owner.sol\":694:750  require(msg.sender == owner, \"Not authorized operation\") */\n      tag_114\n      jumpi\n      mload(0x40)\n      0x08c379a000000000000000000000000000000000000000000000000000000000\n      dup2\n      mstore\n      0x04\n      add\n      tag_115\n      swap1\n      tag_104\n      jump\t// in\n    tag_115:\n      mload(0x40)\n      dup1\n      swap2\n      sub\n      swap1\n      revert\n    tag_114:\n        /* \"contracts/Owner.sol\":1040:1041  0 */\n      0x00\n        /* \"contracts/Owner.sol\":1020:1042  newOwner != address(0) */\n      0xffffffffffffffffffffffffffffffffffffffff\n      and\n        /* \"contracts/Owner.sol\":1020:1028  newOwner */\n      dup2\n        /* \"contracts/Owner.sol\":1020:1042  newOwner != address(0) */\n      0xffffffffffffffffffffffffffffffffffffffff\n      and\n      eq\n      iszero\n        /* \"contracts/Owner.sol\":1012:1072  require(newOwner != address(0), \"Address shouldn't be zero\") */\n      tag_117\n      jumpi\n      mload(0x40)\n      0x08c379a000000000000000000000000000000000000000000000000000000000\n      dup2\n      mstore\n      0x04\n      add\n      tag_118\n      swap1\n      tag_119\n      jump\t// in\n    tag_118:\n      mload(0x40)\n      dup1\n      swap2\n      sub\n      swap1\n      revert\n    tag_117:\n        /* \"contracts/Owner.sol\":1115:1123  newOwner */\n      dup1\n        /* \"contracts/Owner.sol\":1087:1124  OwnershipTransferred(owner, newOwner) */\n      0xffffffffffffffffffffffffffffffffffffffff\n      and\n        /* \"contracts/Owner.sol\":1108:1113  owner */\n      0x00\n      dup1\n      sload\n      swap1\n      0x0100\n      exp\n      swap1\n      div\n      0xffffffffffffffffffffffffffffffffffffffff\n      and\n        /* \"contracts/Owner.sol\":1087:1124  OwnershipTransferred(owner, newOwner) */\n      0xffffffffffffffffffffffffffffffffffffffff\n      and\n      0x8be0079c531659141344cd1fd0a4f28419497f9722a3daafe3b4186f6b6457e0\n      mload(0x40)\n      mload(0x40)\n      dup1\n      swap2\n      sub\n      swap1\n      log3\n        /* \"contracts/Owner.sol\":1142:1150  newOwner */\n      dup1\n        /* \"contracts/Owner.sol\":1134:1139  owner */\n      0x00\n      dup1\n        /* \"contracts/Owner.sol\":1134:1150  owner = newOwner */\n      0x0100\n      exp\n      dup2\n      sload\n      dup2\n      0xffffffffffffffffffffffffffffffffffffffff\n      mul\n      not\n      and\n      swap1\n      dup4\n      0xffffffffffffffffffffffffffffffffffffffff\n      and\n      mul\n      or\n      swap1\n      sstore\n      pop\n        /* \"contracts/Owner.sol\":940:1157  function transferOwnership(address newOwner) public onlyOwner {... */\n      pop\n      jump\t// out\n    tag_97:\n      dup3\n      dup1\n      sload\n      tag_120\n      swap1\n      tag_55\n      jump\t// in\n    tag_120:\n      swap1\n      0x00\n      mstore\n      keccak256(0x00, 0x20)\n      swap1\n      0x1f\n      add\n      0x20\n      swap1\n      div\n      dup2\n      add\n      swap3\n      dup3\n      tag_122\n      jumpi\n      0x00\n      dup6\n      sstore\n      jump(tag_121)\n    tag_122:\n      dup3\n      0x1f\n      lt\n      tag_123\n      jumpi\n      dup1\n      mload\n      not(0xff)\n      and\n      dup4\n      dup1\n      add\n      or\n      dup6\n      sstore\n      jump(tag_121)\n    tag_123:\n      dup3\n      dup1\n      add\n      0x01\n      add\n      dup6\n      sstore\n      dup3\n      iszero\n      tag_121\n      jumpi\n      swap2\n      dup3\n      add\n    tag_124:\n      dup3\n      dup2\n      gt\n      iszero\n      tag_125\n      jumpi\n      dup3\n      mload\n      dup3\n      sstore\n      swap2\n      0x20\n      add\n      swap2\n      swap1\n      0x01\n      add\n      swap1\n      jump(tag_124)\n    tag_125:\n    tag_121:\n      pop\n      swap1\n      pop\n      tag_126\n      swap2\n      swap1\n      tag_127\n      jump\t// in\n    tag_126:\n      pop\n      swap1\n      jump\t// out\n    tag_127:\n    tag_128:\n      dup1\n      dup3\n      gt\n      iszero\n      tag_129\n      jumpi\n      0x00\n      dup2\n      0x00\n      swap1\n      sstore\n      pop\n      0x01\n      add\n      jump(tag_128)\n    tag_129:\n      pop\n      swap1\n      jump\t// out\n        /* \"#utility.yul\":7:351   */\n    tag_131:\n      0x00\n        /* \"#utility.yul\":110:175   */\n      tag_133\n        /* \"#utility.yul\":125:174   */\n      tag_134\n        /* \"#utility.yul\":167:173   */\n      dup5\n        /* \"#utility.yul\":125:174   */\n      tag_135\n      jump\t// in\n    tag_134:\n        /* \"#utility.yul\":110:175   */\n      tag_136\n      jump\t// in\n    tag_133:\n        /* \"#utility.yul\":101:175   */\n      swap1\n      pop\n        /* \"#utility.yul\":198:204   */\n      dup3\n        /* \"#utility.yul\":191:196   */\n      dup2\n        /* \"#utility.yul\":184:205   */\n      mstore\n        /* \"#utility.yul\":236:240   */\n      0x20\n        /* \"#utility.yul\":229:234   */\n      dup2\n        /* \"#utility.yul\":225:241   */\n      add\n        /* \"#utility.yul\":274:277   */\n      dup5\n        /* \"#utility.yul\":265:271   */\n      dup5\n        /* \"#utility.yul\":260:263   */\n      dup5\n        /* \"#utility.yul\":256:272   */\n      add\n        /* \"#utility.yul\":253:278   */\n      gt\n        /* \"#utility.yul\":250:252   */\n      iszero\n      tag_137\n      jumpi\n        /* \"#utility.yul\":291:292   */\n      0x00\n        /* \"#utility.yul\":288:289   */\n      dup1\n        /* \"#utility.yul\":281:293   */\n      revert\n        /* \"#utility.yul\":250:252   */\n    tag_137:\n        /* \"#utility.yul\":304:345   */\n      tag_138\n        /* \"#utility.yul\":338:344   */\n      dup5\n        /* \"#utility.yul\":333:336   */\n      dup3\n        /* \"#utility.yul\":328:331   */\n      dup6\n        /* \"#utility.yul\":304:345   */\n      tag_139\n      jump\t// in\n    tag_138:\n        /* \"#utility.yul\":91:351   */\n      pop\n      swap4\n      swap3\n      pop\n      pop\n      pop\n      jump\t// out\n        /* \"#utility.yul\":357:496   */\n    tag_140:\n      0x00\n        /* \"#utility.yul\":441:447   */\n      dup2\n        /* \"#utility.yul\":428:448   */\n      calldataload\n        /* \"#utility.yul\":419:448   */\n      swap1\n      pop\n        /* \"#utility.yul\":457:490   */\n      tag_142\n        /* \"#utility.yul\":484:489   */\n      dup2\n        /* \"#utility.yul\":457:490   */\n      tag_143\n      jump\t// in\n    tag_142:\n        /* \"#utility.yul\":409:496   */\n      swap3\n      swap2\n      pop\n      pop\n      jump\t// out\n        /* \"#utility.yul\":502:657   */\n    tag_144:\n      0x00\n        /* \"#utility.yul\":594:600   */\n      dup2\n        /* \"#utility.yul\":581:601   */\n      calldataload\n        /* \"#utility.yul\":572:601   */\n      swap1\n      pop\n        /* \"#utility.yul\":610:651   */\n      tag_146\n        /* \"#utility.yul\":645:650   */\n      dup2\n        /* \"#utility.yul\":610:651   */\n      tag_147\n      jump\t// in\n    tag_146:\n        /* \"#utility.yul\":562:657   */\n      swap3\n      swap2\n      pop\n      pop\n      jump\t// out\n        /* \"#utility.yul\":677:950   */\n    tag_148:\n      0x00\n        /* \"#utility.yul\":782:785   */\n      dup3\n        /* \"#utility.yul\":775:779   */\n      0x1f\n        /* \"#utility.yul\":767:773   */\n      dup4\n        /* \"#utility.yul\":763:780   */\n      add\n        /* \"#utility.yul\":759:786   */\n      slt\n        /* \"#utility.yul\":749:751   */\n      tag_150\n      jumpi\n        /* \"#utility.yul\":800:801   */\n      0x00\n        /* \"#utility.yul\":797:798   */\n      dup1\n        /* \"#utility.yul\":790:802   */\n      revert\n        /* \"#utility.yul\":749:751   */\n    tag_150:\n        /* \"#utility.yul\":840:846   */\n      dup2\n        /* \"#utility.yul\":827:847   */\n      calldataload\n        /* \"#utility.yul\":865:944   */\n      tag_151\n        /* \"#utility.yul\":940:943   */\n      dup5\n        /* \"#utility.yul\":932:938   */\n      dup3\n        /* \"#utility.yul\":925:929   */\n      0x20\n        /* \"#utility.yul\":917:923   */\n      dup7\n        /* \"#utility.yul\":913:930   */\n      add\n        /* \"#utility.yul\":865:944   */\n      tag_131\n      jump\t// in\n    tag_151:\n        /* \"#utility.yul\":856:944   */\n      swap2\n      pop\n        /* \"#utility.yul\":739:950   */\n      pop\n      swap3\n      swap2\n      pop\n      pop\n      jump\t// out\n        /* \"#utility.yul\":956:1095   */\n    tag_152:\n      0x00\n        /* \"#utility.yul\":1040:1046   */\n      dup2\n        /* \"#utility.yul\":1027:1047   */\n      calldataload\n        /* \"#utility.yul\":1018:1047   */\n      swap1\n      pop\n        /* \"#utility.yul\":1056:1089   */\n      tag_154\n        /* \"#utility.yul\":1083:1088   */\n      dup2\n        /* \"#utility.yul\":1056:1089   */\n      tag_155\n      jump\t// in\n    tag_154:\n        /* \"#utility.yul\":1008:1095   */\n      swap3\n      swap2\n      pop\n      pop\n      jump\t// out\n        /* \"#utility.yul\":1101:1363   */\n    tag_25:\n      0x00\n        /* \"#utility.yul\":1209:1211   */\n      0x20\n        /* \"#utility.yul\":1197:1206   */\n      dup3\n        /* \"#utility.yul\":1188:1195   */\n      dup5\n        /* \"#utility.yul\":1184:1207   */\n      sub\n        /* \"#utility.yul\":1180:1212   */\n      slt\n        /* \"#utility.yul\":1177:1179   */\n      iszero\n      tag_157\n      jumpi\n        /* \"#utility.yul\":1225:1226   */\n      0x00\n        /* \"#utility.yul\":1222:1223   */\n      dup1\n        /* \"#utility.yul\":1215:1227   */\n      revert\n        /* \"#utility.yul\":1177:1179   */\n    tag_157:\n        /* \"#utility.yul\":1268:1269   */\n      0x00\n        /* \"#utility.yul\":1293:1346   */\n      tag_158\n        /* \"#utility.yul\":1338:1345   */\n      dup5\n        /* \"#utility.yul\":1329:1335   */\n      dup3\n        /* \"#utility.yul\":1318:1327   */\n      dup6\n        /* \"#utility.yul\":1314:1336   */\n      add\n        /* \"#utility.yul\":1293:1346   */\n      tag_140\n      jump\t// in\n    tag_158:\n        /* \"#utility.yul\":1283:1346   */\n      swap2\n      pop\n        /* \"#utility.yul\":1239:1356   */\n      pop\n        /* \"#utility.yul\":1167:1363   */\n      swap3\n      swap2\n      pop\n      pop\n      jump\t// out\n        /* \"#utility.yul\":1369:2050   */\n    tag_21:\n      0x00\n      dup1\n      0x00\n        /* \"#utility.yul\":1529:1531   */\n      0x60\n        /* \"#utility.yul\":1517:1526   */\n      dup5\n        /* \"#utility.yul\":1508:1515   */\n      dup7\n        /* \"#utility.yul\":1504:1527   */\n      sub\n        /* \"#utility.yul\":1500:1532   */\n      slt\n        /* \"#utility.yul\":1497:1499   */\n      iszero\n      tag_160\n      jumpi\n        /* \"#utility.yul\":1545:1546   */\n      0x00\n        /* \"#utility.yul\":1542:1543   */\n      dup1\n        /* \"#utility.yul\":1535:1547   */\n      revert\n        /* \"#utility.yul\":1497:1499   */\n    tag_160:\n        /* \"#utility.yul\":1588:1589   */\n      0x00\n        /* \"#utility.yul\":1613:1666   */\n      tag_161\n        /* \"#utility.yul\":1658:1665   */\n      dup7\n        /* \"#utility.yul\":1649:1655   */\n      dup3\n        /* \"#utility.yul\":1638:1647   */\n      dup8\n        /* \"#utility.yul\":1634:1656   */\n      add\n        /* \"#utility.yul\":1613:1666   */\n      tag_140\n      jump\t// in\n    tag_161:\n        /* \"#utility.yul\":1603:1666   */\n      swap4\n      pop\n        /* \"#utility.yul\":1559:1676   */\n      pop\n        /* \"#utility.yul\":1743:1745   */\n      0x20\n        /* \"#utility.yul\":1732:1741   */\n      dup5\n        /* \"#utility.yul\":1728:1746   */\n      add\n        /* \"#utility.yul\":1715:1747   */\n      calldataload\n        /* \"#utility.yul\":1774:1792   */\n      0xffffffffffffffff\n        /* \"#utility.yul\":1766:1772   */\n      dup2\n        /* \"#utility.yul\":1763:1793   */\n      gt\n        /* \"#utility.yul\":1760:1762   */\n      iszero\n      tag_162\n      jumpi\n        /* \"#utility.yul\":1806:1807   */\n      0x00\n        /* \"#utility.yul\":1803:1804   */\n      dup1\n        /* \"#utility.yul\":1796:1808   */\n      revert\n        /* \"#utility.yul\":1760:1762   */\n    tag_162:\n        /* \"#utility.yul\":1834:1897   */\n      tag_163\n        /* \"#utility.yul\":1889:1896   */\n      dup7\n        /* \"#utility.yul\":1880:1886   */\n      dup3\n        /* \"#utility.yul\":1869:1878   */\n      dup8\n        /* \"#utility.yul\":1865:1887   */\n      add\n        /* \"#utility.yul\":1834:1897   */\n      tag_148\n      jump\t// in\n    tag_163:\n        /* \"#utility.yul\":1824:1897   */\n      swap3\n      pop\n        /* \"#utility.yul\":1686:1907   */\n      pop\n        /* \"#utility.yul\":1946:1948   */\n      0x40\n        /* \"#utility.yul\":1972:2033   */\n      tag_164\n        /* \"#utility.yul\":2025:2032   */\n      dup7\n        /* \"#utility.yul\":2016:2022   */\n      dup3\n        /* \"#utility.yul\":2005:2014   */\n      dup8\n        /* \"#utility.yul\":2001:2023   */\n      add\n        /* \"#utility.yul\":1972:2033   */\n      tag_144\n      jump\t// in\n    tag_164:\n        /* \"#utility.yul\":1962:2033   */\n      swap2\n      pop\n        /* \"#utility.yul\":1917:2043   */\n      pop\n        /* \"#utility.yul\":1487:2050   */\n      swap3\n      pop\n      swap3\n      pop\n      swap3\n      jump\t// out\n        /* \"#utility.yul\":2056:2318   */\n    tag_15:\n      0x00\n        /* \"#utility.yul\":2164:2166   */\n      0x20\n        /* \"#utility.yul\":2152:2161   */\n      dup3\n        /* \"#utility.yul\":2143:2150   */\n      dup5\n        /* \"#utility.yul\":2139:2162   */\n      sub\n        /* \"#utility.yul\":2135:2167   */\n      slt\n        /* \"#utility.yul\":2132:2134   */\n      iszero\n      tag_166\n      jumpi\n        /* \"#utility.yul\":2180:2181   */\n      0x00\n        /* \"#utility.yul\":2177:2178   */\n      dup1\n        /* \"#utility.yul\":2170:2182   */\n      revert\n        /* \"#utility.yul\":2132:2134   */\n    tag_166:\n        /* \"#utility.yul\":2223:2224   */\n      0x00\n        /* \"#utility.yul\":2248:2301   */\n      tag_167\n        /* \"#utility.yul\":2293:2300   */\n      dup5\n        /* \"#utility.yul\":2284:2290   */\n      dup3\n        /* \"#utility.yul\":2273:2282   */\n      dup6\n        /* \"#utility.yul\":2269:2291   */\n      add\n        /* \"#utility.yul\":2248:2301   */\n      tag_152\n      jump\t// in\n    tag_167:\n        /* \"#utility.yul\":2238:2301   */\n      swap2\n      pop\n        /* \"#utility.yul\":2194:2311   */\n      pop\n        /* \"#utility.yul\":2122:2318   */\n      swap3\n      swap2\n      pop\n      pop\n      jump\t// out\n        /* \"#utility.yul\":2324:2442   */\n    tag_168:\n        /* \"#utility.yul\":2411:2435   */\n      tag_170\n        /* \"#utility.yul\":2429:2434   */\n      dup2\n        /* \"#utility.yul\":2411:2435   */\n      tag_171\n      jump\t// in\n    tag_170:\n        /* \"#utility.yul\":2406:2409   */\n      dup3\n        /* \"#utility.yul\":2399:2436   */\n      mstore\n        /* \"#utility.yul\":2389:2442   */\n      pop\n      pop\n      jump\t// out\n        /* \"#utility.yul\":2448:2557   */\n    tag_172:\n        /* \"#utility.yul\":2529:2550   */\n      tag_174\n        /* \"#utility.yul\":2544:2549   */\n      dup2\n        /* \"#utility.yul\":2529:2550   */\n      tag_175\n      jump\t// in\n    tag_174:\n        /* \"#utility.yul\":2524:2527   */\n      dup3\n        /* \"#utility.yul\":2517:2551   */\n      mstore\n        /* \"#utility.yul\":2507:2557   */\n      pop\n      pop\n      jump\t// out\n        /* \"#utility.yul\":2563:2706   */\n    tag_176:\n        /* \"#utility.yul\":2656:2699   */\n      tag_178\n        /* \"#utility.yul\":2693:2698   */\n      dup2\n        /* \"#utility.yul\":2656:2699   */\n      tag_179\n      jump\t// in\n    tag_178:\n        /* \"#utility.yul\":2651:2654   */\n      dup3\n        /* \"#utility.yul\":2644:2700   */\n      mstore\n        /* \"#utility.yul\":2634:2706   */\n      pop\n      pop\n      jump\t// out\n        /* \"#utility.yul\":2712:3076   */\n    tag_180:\n      0x00\n        /* \"#utility.yul\":2828:2867   */\n      tag_182\n        /* \"#utility.yul\":2861:2866   */\n      dup3\n        /* \"#utility.yul\":2828:2867   */\n      tag_183\n      jump\t// in\n    tag_182:\n        /* \"#utility.yul\":2883:2954   */\n      tag_184\n        /* \"#utility.yul\":2947:2953   */\n      dup2\n        /* \"#utility.yul\":2942:2945   */\n      dup6\n        /* \"#utility.yul\":2883:2954   */\n      tag_185\n      jump\t// in\n    tag_184:\n        /* \"#utility.yul\":2876:2954   */\n      swap4\n      pop\n        /* \"#utility.yul\":2963:3015   */\n      tag_186\n        /* \"#utility.yul\":3008:3014   */\n      dup2\n        /* \"#utility.yul\":3003:3006   */\n      dup6\n        /* \"#utility.yul\":2996:3000   */\n      0x20\n        /* \"#utility.yul\":2989:2994   */\n      dup7\n        /* \"#utility.yul\":2985:3001   */\n      add\n        /* \"#utility.yul\":2963:3015   */\n      tag_187\n      jump\t// in\n    tag_186:\n        /* \"#utility.yul\":3040:3069   */\n      tag_188\n        /* \"#utility.yul\":3062:3068   */\n      dup2\n        /* \"#utility.yul\":3040:3069   */\n      tag_189\n      jump\t// in\n    tag_188:\n        /* \"#utility.yul\":3035:3038   */\n      dup5\n        /* \"#utility.yul\":3031:3070   */\n      add\n        /* \"#utility.yul\":3024:3070   */\n      swap2\n      pop\n        /* \"#utility.yul\":2804:3076   */\n      pop\n      swap3\n      swap2\n      pop\n      pop\n      jump\t// out\n        /* \"#utility.yul\":3106:3908   */\n    tag_190:\n      0x00\n        /* \"#utility.yul\":3228:3233   */\n      dup2\n        /* \"#utility.yul\":3222:3234   */\n      sload\n        /* \"#utility.yul\":3257:3293   */\n      tag_192\n        /* \"#utility.yul\":3283:3292   */\n      dup2\n        /* \"#utility.yul\":3257:3293   */\n      tag_55\n      jump\t// in\n    tag_192:\n        /* \"#utility.yul\":3309:3380   */\n      tag_193\n        /* \"#utility.yul\":3373:3379   */\n      dup2\n        /* \"#utility.yul\":3368:3371   */\n      dup7\n        /* \"#utility.yul\":3309:3380   */\n      tag_185\n      jump\t// in\n    tag_193:\n        /* \"#utility.yul\":3302:3380   */\n      swap5\n      pop\n        /* \"#utility.yul\":3411:3412   */\n      0x01\n        /* \"#utility.yul\":3400:3409   */\n      dup3\n        /* \"#utility.yul\":3396:3413   */\n      and\n        /* \"#utility.yul\":3427:3428   */\n      0x00\n        /* \"#utility.yul\":3422:3557   */\n      dup2\n      eq\n      tag_195\n      jumpi\n        /* \"#utility.yul\":3571:3572   */\n      0x01\n        /* \"#utility.yul\":3566:3902   */\n      dup2\n      eq\n      tag_196\n      jumpi\n        /* \"#utility.yul\":3389:3902   */\n      jump(tag_194)\n        /* \"#utility.yul\":3422:3557   */\n    tag_195:\n        /* \"#utility.yul\":3506:3510   */\n      0xff\n        /* \"#utility.yul\":3502:3511   */\n      not\n        /* \"#utility.yul\":3491:3500   */\n      dup4\n        /* \"#utility.yul\":3487:3512   */\n      and\n        /* \"#utility.yul\":3482:3485   */\n      dup7\n        /* \"#utility.yul\":3475:3513   */\n      mstore\n        /* \"#utility.yul\":3542:3546   */\n      0x20\n        /* \"#utility.yul\":3537:3540   */\n      dup7\n        /* \"#utility.yul\":3533:3547   */\n      add\n        /* \"#utility.yul\":3526:3547   */\n      swap4\n      pop\n        /* \"#utility.yul\":3422:3557   */\n      jump(tag_194)\n        /* \"#utility.yul\":3566:3902   */\n    tag_196:\n        /* \"#utility.yul\":3633:3671   */\n      tag_197\n        /* \"#utility.yul\":3665:3670   */\n      dup6\n        /* \"#utility.yul\":3633:3671   */\n      tag_198\n      jump\t// in\n    tag_197:\n        /* \"#utility.yul\":3693:3694   */\n      0x00\n        /* \"#utility.yul\":3707:3861   */\n    tag_199:\n        /* \"#utility.yul\":3721:3727   */\n      dup4\n        /* \"#utility.yul\":3718:3719   */\n      dup2\n        /* \"#utility.yul\":3715:3728   */\n      lt\n        /* \"#utility.yul\":3707:3861   */\n      iszero\n      tag_201\n      jumpi\n        /* \"#utility.yul\":3795:3802   */\n      dup2\n        /* \"#utility.yul\":3789:3803   */\n      sload\n        /* \"#utility.yul\":3785:3786   */\n      dup2\n        /* \"#utility.yul\":3780:3783   */\n      dup10\n        /* \"#utility.yul\":3776:3787   */\n      add\n        /* \"#utility.yul\":3769:3804   */\n      mstore\n        /* \"#utility.yul\":3845:3846   */\n      0x01\n        /* \"#utility.yul\":3836:3843   */\n      dup3\n        /* \"#utility.yul\":3832:3847   */\n      add\n        /* \"#utility.yul\":3821:3847   */\n      swap2\n      pop\n        /* \"#utility.yul\":3743:3747   */\n      0x20\n        /* \"#utility.yul\":3740:3741   */\n      dup2\n        /* \"#utility.yul\":3736:3748   */\n      add\n        /* \"#utility.yul\":3731:3748   */\n      swap1\n      pop\n        /* \"#utility.yul\":3707:3861   */\n      jump(tag_199)\n    tag_201:\n        /* \"#utility.yul\":3890:3891   */\n      dup1\n        /* \"#utility.yul\":3885:3888   */\n      dup9\n        /* \"#utility.yul\":3881:3892   */\n      add\n        /* \"#utility.yul\":3874:3892   */\n      swap6\n      pop\n        /* \"#utility.yul\":3573:3902   */\n      pop\n      pop\n        /* \"#utility.yul\":3389:3902   */\n    tag_194:\n      pop\n        /* \"#utility.yul\":3195:3908   */\n      pop\n      pop\n      swap3\n      swap2\n      pop\n      pop\n      jump\t// out\n        /* \"#utility.yul\":3914:4237   */\n    tag_202:\n      0x00\n        /* \"#utility.yul\":4077:4144   */\n      tag_204\n        /* \"#utility.yul\":4141:4143   */\n      0x19\n        /* \"#utility.yul\":4136:4139   */\n      dup4\n        /* \"#utility.yul\":4077:4144   */\n      tag_185\n      jump\t// in\n    tag_204:\n        /* \"#utility.yul\":4070:4144   */\n      swap2\n      pop\n        /* \"#utility.yul\":4174:4201   */\n      0x416464726573732073686f756c646e2774206265207a65726f00000000000000\n        /* \"#utility.yul\":4170:4171   */\n      0x00\n        /* \"#utility.yul\":4165:4168   */\n      dup4\n        /* \"#utility.yul\":4161:4172   */\n      add\n        /* \"#utility.yul\":4154:4202   */\n      mstore\n        /* \"#utility.yul\":4228:4230   */\n      0x20\n        /* \"#utility.yul\":4223:4226   */\n      dup3\n        /* \"#utility.yul\":4219:4231   */\n      add\n        /* \"#utility.yul\":4212:4231   */\n      swap1\n      pop\n        /* \"#utility.yul\":4060:4237   */\n      swap2\n      swap1\n      pop\n      jump\t// out\n        /* \"#utility.yul\":4243:4620   */\n    tag_205:\n      0x00\n        /* \"#utility.yul\":4406:4473   */\n      tag_207\n        /* \"#utility.yul\":4470:4472   */\n      0x2d\n        /* \"#utility.yul\":4465:4468   */\n      dup4\n        /* \"#utility.yul\":4406:4473   */\n      tag_185\n      jump\t// in\n    tag_207:\n        /* \"#utility.yul\":4399:4473   */\n      swap2\n      pop\n        /* \"#utility.yul\":4503:4537   */\n      0x43616e6e6f7420616464206d616e756661637475726572206f7220737570706c\n        /* \"#utility.yul\":4499:4500   */\n      0x00\n        /* \"#utility.yul\":4494:4497   */\n      dup4\n        /* \"#utility.yul\":4490:4501   */\n      add\n        /* \"#utility.yul\":4483:4538   */\n      mstore\n        /* \"#utility.yul\":4569:4584   */\n      0x696572206f722076656e646f7200000000000000000000000000000000000000\n        /* \"#utility.yul\":4564:4566   */\n      0x20\n        /* \"#utility.yul\":4559:4562   */\n      dup4\n        /* \"#utility.yul\":4555:4567   */\n      add\n        /* \"#utility.yul\":4548:4585   */\n      mstore\n        /* \"#utility.yul\":4611:4613   */\n      0x40\n        /* \"#utility.yul\":4606:4609   */\n      dup3\n        /* \"#utility.yul\":4602:4614   */\n      add\n        /* \"#utility.yul\":4595:4614   */\n      swap1\n      pop\n        /* \"#utility.yul\":4389:4620   */\n      swap2\n      swap1\n      pop\n      jump\t// out\n        /* \"#utility.yul\":4626:5005   */\n    tag_208:\n      0x00\n        /* \"#utility.yul\":4789:4856   */\n      tag_210\n        /* \"#utility.yul\":4853:4855   */\n      0x2f\n        /* \"#utility.yul\":4848:4851   */\n      dup4\n        /* \"#utility.yul\":4789:4856   */\n      tag_185\n      jump\t// in\n    tag_210:\n        /* \"#utility.yul\":4782:4856   */\n      swap2\n      pop\n        /* \"#utility.yul\":4886:4920   */\n      0x43616e6e6f7420616464206d616e756661637475726572206f7220637573746f\n        /* \"#utility.yul\":4882:4883   */\n      0x00\n        /* \"#utility.yul\":4877:4880   */\n      dup4\n        /* \"#utility.yul\":4873:4884   */\n      add\n        /* \"#utility.yul\":4866:4921   */\n      mstore\n        /* \"#utility.yul\":4952:4969   */\n      0x6d6572206f7220737570706c6965720000000000000000000000000000000000\n        /* \"#utility.yul\":4947:4949   */\n      0x20\n        /* \"#utility.yul\":4942:4945   */\n      dup4\n        /* \"#utility.yul\":4938:4950   */\n      add\n        /* \"#utility.yul\":4931:4970   */\n      mstore\n        /* \"#utility.yul\":4996:4998   */\n      0x40\n        /* \"#utility.yul\":4991:4994   */\n      dup3\n        /* \"#utility.yul\":4987:4999   */\n      add\n        /* \"#utility.yul\":4980:4999   */\n      swap1\n      pop\n        /* \"#utility.yul\":4772:5005   */\n      swap2\n      swap1\n      pop\n      jump\t// out\n        /* \"#utility.yul\":5011:5328   */\n    tag_211:\n      0x00\n        /* \"#utility.yul\":5174:5241   */\n      tag_213\n        /* \"#utility.yul\":5238:5240   */\n      0x13\n        /* \"#utility.yul\":5233:5236   */\n      dup4\n        /* \"#utility.yul\":5174:5241   */\n      tag_185\n      jump\t// in\n    tag_213:\n        /* \"#utility.yul\":5167:5241   */\n      swap2\n      pop\n        /* \"#utility.yul\":5271:5292   */\n      0x43616e6e6f742061646420616e206163746f7200000000000000000000000000\n        /* \"#utility.yul\":5267:5268   */\n      0x00\n        /* \"#utility.yul\":5262:5265   */\n      dup4\n        /* \"#utility.yul\":5258:5269   */\n      add\n        /* \"#utility.yul\":5251:5293   */\n      mstore\n        /* \"#utility.yul\":5319:5321   */\n      0x20\n        /* \"#utility.yul\":5314:5317   */\n      dup3\n        /* \"#utility.yul\":5310:5322   */\n      add\n        /* \"#utility.yul\":5303:5322   */\n      swap1\n      pop\n        /* \"#utility.yul\":5157:5328   */\n      swap2\n      swap1\n      pop\n      jump\t// out\n        /* \"#utility.yul\":5334:5656   */\n    tag_214:\n      0x00\n        /* \"#utility.yul\":5497:5564   */\n      tag_216\n        /* \"#utility.yul\":5561:5563   */\n      0x18\n        /* \"#utility.yul\":5556:5559   */\n      dup4\n        /* \"#utility.yul\":5497:5564   */\n      tag_185\n      jump\t// in\n    tag_216:\n        /* \"#utility.yul\":5490:5564   */\n      swap2\n      pop\n        /* \"#utility.yul\":5594:5620   */\n      0x4e6f7420617574686f72697a6564206f7065726174696f6e0000000000000000\n        /* \"#utility.yul\":5590:5591   */\n      0x00\n        /* \"#utility.yul\":5585:5588   */\n      dup4\n        /* \"#utility.yul\":5581:5592   */\n      add\n        /* \"#utility.yul\":5574:5621   */\n      mstore\n        /* \"#utility.yul\":5647:5649   */\n      0x20\n        /* \"#utility.yul\":5642:5645   */\n      dup3\n        /* \"#utility.yul\":5638:5650   */\n      add\n        /* \"#utility.yul\":5631:5650   */\n      swap1\n      pop\n        /* \"#utility.yul\":5480:5656   */\n      swap2\n      swap1\n      pop\n      jump\t// out\n        /* \"#utility.yul\":5662:6041   */\n    tag_217:\n      0x00\n        /* \"#utility.yul\":5825:5892   */\n      tag_219\n        /* \"#utility.yul\":5889:5891   */\n      0x2f\n        /* \"#utility.yul\":5884:5887   */\n      dup4\n        /* \"#utility.yul\":5825:5892   */\n      tag_185\n      jump\t// in\n    tag_219:\n        /* \"#utility.yul\":5818:5892   */\n      swap2\n      pop\n        /* \"#utility.yul\":5922:5956   */\n      0x43616e6e6f7420616464206d616e756661637475726572206f7220737570706c\n        /* \"#utility.yul\":5918:5919   */\n      0x00\n        /* \"#utility.yul\":5913:5916   */\n      dup4\n        /* \"#utility.yul\":5909:5920   */\n      add\n        /* \"#utility.yul\":5902:5957   */\n      mstore\n        /* \"#utility.yul\":5988:6005   */\n      0x696572206f7220637573746f6d65720000000000000000000000000000000000\n        /* \"#utility.yul\":5983:5985   */\n      0x20\n        /* \"#utility.yul\":5978:5981   */\n      dup4\n        /* \"#utility.yul\":5974:5986   */\n      add\n        /* \"#utility.yul\":5967:6006   */\n      mstore\n        /* \"#utility.yul\":6032:6034   */\n      0x40\n        /* \"#utility.yul\":6027:6030   */\n      dup3\n        /* \"#utility.yul\":6023:6035   */\n      add\n        /* \"#utility.yul\":6016:6035   */\n      swap1\n      pop\n        /* \"#utility.yul\":5808:6041   */\n      swap2\n      swap1\n      pop\n      jump\t// out\n        /* \"#utility.yul\":6047:6165   */\n    tag_220:\n        /* \"#utility.yul\":6134:6158   */\n      tag_222\n        /* \"#utility.yul\":6152:6157   */\n      dup2\n        /* \"#utility.yul\":6134:6158   */\n      tag_223\n      jump\t// in\n    tag_222:\n        /* \"#utility.yul\":6129:6132   */\n      dup3\n        /* \"#utility.yul\":6122:6159   */\n      mstore\n        /* \"#utility.yul\":6112:6165   */\n      pop\n      pop\n      jump\t// out\n        /* \"#utility.yul\":6171:6393   */\n    tag_18:\n      0x00\n        /* \"#utility.yul\":6302:6304   */\n      0x20\n        /* \"#utility.yul\":6291:6300   */\n      dup3\n        /* \"#utility.yul\":6287:6305   */\n      add\n        /* \"#utility.yul\":6279:6305   */\n      swap1\n      pop\n        /* \"#utility.yul\":6315:6386   */\n      tag_225\n        /* \"#utility.yul\":6383:6384   */\n      0x00\n        /* \"#utility.yul\":6372:6381   */\n      dup4\n        /* \"#utility.yul\":6368:6385   */\n      add\n        /* \"#utility.yul\":6359:6365   */\n      dup5\n        /* \"#utility.yul\":6315:6386   */\n      tag_168\n      jump\t// in\n    tag_225:\n        /* \"#utility.yul\":6269:6393   */\n      swap3\n      swap2\n      pop\n      pop\n      jump\t// out\n        /* \"#utility.yul\":6399:6938   */\n    tag_63:\n      0x00\n        /* \"#utility.yul\":6609:6611   */\n      0x60\n        /* \"#utility.yul\":6598:6607   */\n      dup3\n        /* \"#utility.yul\":6594:6612   */\n      add\n        /* \"#utility.yul\":6586:6612   */\n      swap1\n      pop\n        /* \"#utility.yul\":6622:6693   */\n      tag_227\n        /* \"#utility.yul\":6690:6691   */\n      0x00\n        /* \"#utility.yul\":6679:6688   */\n      dup4\n        /* \"#utility.yul\":6675:6692   */\n      add\n        /* \"#utility.yul\":6666:6672   */\n      dup7\n        /* \"#utility.yul\":6622:6693   */\n      tag_168\n      jump\t// in\n    tag_227:\n        /* \"#utility.yul\":6740:6749   */\n      dup2\n        /* \"#utility.yul\":6734:6738   */\n      dup2\n        /* \"#utility.yul\":6730:6750   */\n      sub\n        /* \"#utility.yul\":6725:6727   */\n      0x20\n        /* \"#utility.yul\":6714:6723   */\n      dup4\n        /* \"#utility.yul\":6710:6728   */\n      add\n        /* \"#utility.yul\":6703:6751   */\n      mstore\n        /* \"#utility.yul\":6768:6843   */\n      tag_228\n        /* \"#utility.yul\":6838:6842   */\n      dup2\n        /* \"#utility.yul\":6829:6835   */\n      dup6\n        /* \"#utility.yul\":6768:6843   */\n      tag_190\n      jump\t// in\n    tag_228:\n        /* \"#utility.yul\":6760:6843   */\n      swap1\n      pop\n        /* \"#utility.yul\":6853:6931   */\n      tag_229\n        /* \"#utility.yul\":6927:6929   */\n      0x40\n        /* \"#utility.yul\":6916:6925   */\n      dup4\n        /* \"#utility.yul\":6912:6930   */\n      add\n        /* \"#utility.yul\":6903:6909   */\n      dup5\n        /* \"#utility.yul\":6853:6931   */\n      tag_176\n      jump\t// in\n    tag_229:\n        /* \"#utility.yul\":6576:6938   */\n      swap5\n      swap4\n      pop\n      pop\n      pop\n      pop\n      jump\t// out\n        /* \"#utility.yul\":6944:7154   */\n    tag_34:\n      0x00\n        /* \"#utility.yul\":7069:7071   */\n      0x20\n        /* \"#utility.yul\":7058:7067   */\n      dup3\n        /* \"#utility.yul\":7054:7072   */\n      add\n        /* \"#utility.yul\":7046:7072   */\n      swap1\n      pop\n        /* \"#utility.yul\":7082:7147   */\n      tag_231\n        /* \"#utility.yul\":7144:7145   */\n      0x00\n        /* \"#utility.yul\":7133:7142   */\n      dup4\n        /* \"#utility.yul\":7129:7146   */\n      add\n        /* \"#utility.yul\":7120:7126   */\n      dup5\n        /* \"#utility.yul\":7082:7147   */\n      tag_172\n      jump\t// in\n    tag_231:\n        /* \"#utility.yul\":7036:7154   */\n      swap3\n      swap2\n      pop\n      pop\n      jump\t// out\n        /* \"#utility.yul\":7160:7595   */\n    tag_46:\n      0x00\n        /* \"#utility.yul\":7345:7347   */\n      0x40\n        /* \"#utility.yul\":7334:7343   */\n      dup3\n        /* \"#utility.yul\":7330:7348   */\n      add\n        /* \"#utility.yul\":7322:7348   */\n      swap1\n      pop\n        /* \"#utility.yul\":7394:7403   */\n      dup2\n        /* \"#utility.yul\":7388:7392   */\n      dup2\n        /* \"#utility.yul\":7384:7404   */\n      sub\n        /* \"#utility.yul\":7380:7381   */\n      0x00\n        /* \"#utility.yul\":7369:7378   */\n      dup4\n        /* \"#utility.yul\":7365:7382   */\n      add\n        /* \"#utility.yul\":7358:7405   */\n      mstore\n        /* \"#utility.yul\":7422:7500   */\n      tag_233\n        /* \"#utility.yul\":7495:7499   */\n      dup2\n        /* \"#utility.yul\":7486:7492   */\n      dup6\n        /* \"#utility.yul\":7422:7500   */\n      tag_180\n      jump\t// in\n    tag_233:\n        /* \"#utility.yul\":7414:7500   */\n      swap1\n      pop\n        /* \"#utility.yul\":7510:7588   */\n      tag_234\n        /* \"#utility.yul\":7584:7586   */\n      0x20\n        /* \"#utility.yul\":7573:7582   */\n      dup4\n        /* \"#utility.yul\":7569:7587   */\n      add\n        /* \"#utility.yul\":7560:7566   */\n      dup5\n        /* \"#utility.yul\":7510:7588   */\n      tag_176\n      jump\t// in\n    tag_234:\n        /* \"#utility.yul\":7312:7595   */\n      swap4\n      swap3\n      pop\n      pop\n      pop\n      jump\t// out\n        /* \"#utility.yul\":7601:8020   */\n    tag_119:\n      0x00\n        /* \"#utility.yul\":7805:7807   */\n      0x20\n        /* \"#utility.yul\":7794:7803   */\n      dup3\n        /* \"#utility.yul\":7790:7808   */\n      add\n        /* \"#utility.yul\":7782:7808   */\n      swap1\n      pop\n        /* \"#utility.yul\":7854:7863   */\n      dup2\n        /* \"#utility.yul\":7848:7852   */\n      dup2\n        /* \"#utility.yul\":7844:7864   */\n      sub\n        /* \"#utility.yul\":7840:7841   */\n      0x00\n        /* \"#utility.yul\":7829:7838   */\n      dup4\n        /* \"#utility.yul\":7825:7842   */\n      add\n        /* \"#utility.yul\":7818:7865   */\n      mstore\n        /* \"#utility.yul\":7882:8013   */\n      tag_236\n        /* \"#utility.yul\":8008:8012   */\n      dup2\n        /* \"#utility.yul\":7882:8013   */\n      tag_202\n      jump\t// in\n    tag_236:\n        /* \"#utility.yul\":7874:8013   */\n      swap1\n      pop\n        /* \"#utility.yul\":7772:8020   */\n      swap2\n      swap1\n      pop\n      jump\t// out\n        /* \"#utility.yul\":8026:8445   */\n    tag_89:\n      0x00\n        /* \"#utility.yul\":8230:8232   */\n      0x20\n        /* \"#utility.yul\":8219:8228   */\n      dup3\n        /* \"#utility.yul\":8215:8233   */\n      add\n        /* \"#utility.yul\":8207:8233   */\n      swap1\n      pop\n        /* \"#utility.yul\":8279:8288   */\n      dup2\n        /* \"#utility.yul\":8273:8277   */\n      dup2\n        /* \"#utility.yul\":8269:8289   */\n      sub\n        /* \"#utility.yul\":8265:8266   */\n      0x00\n        /* \"#utility.yul\":8254:8263   */\n      dup4\n        /* \"#utility.yul\":8250:8267   */\n      add\n        /* \"#utility.yul\":8243:8290   */\n      mstore\n        /* \"#utility.yul\":8307:8438   */\n      tag_238\n        /* \"#utility.yul\":8433:8437   */\n      dup2\n        /* \"#utility.yul\":8307:8438   */\n      tag_205\n      jump\t// in\n    tag_238:\n        /* \"#utility.yul\":8299:8438   */\n      swap1\n      pop\n        /* \"#utility.yul\":8197:8445   */\n      swap2\n      swap1\n      pop\n      jump\t// out\n        /* \"#utility.yul\":8451:8870   */\n    tag_73:\n      0x00\n        /* \"#utility.yul\":8655:8657   */\n      0x20\n        /* \"#utility.yul\":8644:8653   */\n      dup3\n        /* \"#utility.yul\":8640:8658   */\n      add\n        /* \"#utility.yul\":8632:8658   */\n      swap1\n      pop\n        /* \"#utility.yul\":8704:8713   */\n      dup2\n        /* \"#utility.yul\":8698:8702   */\n      dup2\n        /* \"#utility.yul\":8694:8714   */\n      sub\n        /* \"#utility.yul\":8690:8691   */\n      0x00\n        /* \"#utility.yul\":8679:8688   */\n      dup4\n        /* \"#utility.yul\":8675:8692   */\n      add\n        /* \"#utility.yul\":8668:8715   */\n      mstore\n        /* \"#utility.yul\":8732:8863   */\n      tag_240\n        /* \"#utility.yul\":8858:8862   */\n      dup2\n        /* \"#utility.yul\":8732:8863   */\n      tag_208\n      jump\t// in\n    tag_240:\n        /* \"#utility.yul\":8724:8863   */\n      swap1\n      pop\n        /* \"#utility.yul\":8622:8870   */\n      swap2\n      swap1\n      pop\n      jump\t// out\n        /* \"#utility.yul\":8876:9295   */\n    tag_94:\n      0x00\n        /* \"#utility.yul\":9080:9082   */\n      0x20\n        /* \"#utility.yul\":9069:9078   */\n      dup3\n        /* \"#utility.yul\":9065:9083   */\n      add\n        /* \"#utility.yul\":9057:9083   */\n      swap1\n      pop\n        /* \"#utility.yul\":9129:9138   */\n      dup2\n        /* \"#utility.yul\":9123:9127   */\n      dup2\n        /* \"#utility.yul\":9119:9139   */\n      sub\n        /* \"#utility.yul\":9115:9116   */\n      0x00\n        /* \"#utility.yul\":9104:9113   */\n      dup4\n        /* \"#utility.yul\":9100:9117   */\n      add\n        /* \"#utility.yul\":9093:9140   */\n      mstore\n        /* \"#utility.yul\":9157:9288   */\n      tag_242\n        /* \"#utility.yul\":9283:9287   */\n      dup2\n        /* \"#utility.yul\":9157:9288   */\n      tag_211\n      jump\t// in\n    tag_242:\n        /* \"#utility.yul\":9149:9288   */\n      swap1\n      pop\n        /* \"#utility.yul\":9047:9295   */\n      swap2\n      swap1\n      pop\n      jump\t// out\n        /* \"#utility.yul\":9301:9720   */\n    tag_104:\n      0x00\n        /* \"#utility.yul\":9505:9507   */\n      0x20\n        /* \"#utility.yul\":9494:9503   */\n      dup3\n        /* \"#utility.yul\":9490:9508   */\n      add\n        /* \"#utility.yul\":9482:9508   */\n      swap1\n      pop\n        /* \"#utility.yul\":9554:9563   */\n      dup2\n        /* \"#utility.yul\":9548:9552   */\n      dup2\n        /* \"#utility.yul\":9544:9564   */\n      sub\n        /* \"#utility.yul\":9540:9541   */\n      0x00\n        /* \"#utility.yul\":9529:9538   */\n      dup4\n        /* \"#utility.yul\":9525:9542   */\n      add\n        /* \"#utility.yul\":9518:9565   */\n      mstore\n        /* \"#utility.yul\":9582:9713   */\n      tag_244\n        /* \"#utility.yul\":9708:9712   */\n      dup2\n        /* \"#utility.yul\":9582:9713   */\n      tag_214\n      jump\t// in\n    tag_244:\n        /* \"#utility.yul\":9574:9713   */\n      swap1\n      pop\n        /* \"#utility.yul\":9472:9720   */\n      swap2\n      swap1\n      pop\n      jump\t// out\n        /* \"#utility.yul\":9726:10145   */\n    tag_81:\n      0x00\n        /* \"#utility.yul\":9930:9932   */\n      0x20\n        /* \"#utility.yul\":9919:9928   */\n      dup3\n        /* \"#utility.yul\":9915:9933   */\n      add\n        /* \"#utility.yul\":9907:9933   */\n      swap1\n      pop\n        /* \"#utility.yul\":9979:9988   */\n      dup2\n        /* \"#utility.yul\":9973:9977   */\n      dup2\n        /* \"#utility.yul\":9969:9989   */\n      sub\n        /* \"#utility.yul\":9965:9966   */\n      0x00\n        /* \"#utility.yul\":9954:9963   */\n      dup4\n        /* \"#utility.yul\":9950:9967   */\n      add\n        /* \"#utility.yul\":9943:9990   */\n      mstore\n        /* \"#utility.yul\":10007:10138   */\n      tag_246\n        /* \"#utility.yul\":10133:10137   */\n      dup2\n        /* \"#utility.yul\":10007:10138   */\n      tag_217\n      jump\t// in\n    tag_246:\n        /* \"#utility.yul\":9999:10138   */\n      swap1\n      pop\n        /* \"#utility.yul\":9897:10145   */\n      swap2\n      swap1\n      pop\n      jump\t// out\n        /* \"#utility.yul\":10151:10373   */\n    tag_38:\n      0x00\n        /* \"#utility.yul\":10282:10284   */\n      0x20\n        /* \"#utility.yul\":10271:10280   */\n      dup3\n        /* \"#utility.yul\":10267:10285   */\n      add\n        /* \"#utility.yul\":10259:10285   */\n      swap1\n      pop\n        /* \"#utility.yul\":10295:10366   */\n      tag_248\n        /* \"#utility.yul\":10363:10364   */\n      0x00\n        /* \"#utility.yul\":10352:10361   */\n      dup4\n        /* \"#utility.yul\":10348:10365   */\n      add\n        /* \"#utility.yul\":10339:10345   */\n      dup5\n        /* \"#utility.yul\":10295:10366   */\n      tag_220\n      jump\t// in\n    tag_248:\n        /* \"#utility.yul\":10249:10373   */\n      swap3\n      swap2\n      pop\n      pop\n      jump\t// out\n        /* \"#utility.yul\":10379:10662   */\n    tag_136:\n      0x00\n        /* \"#utility.yul\":10445:10447   */\n      0x40\n        /* \"#utility.yul\":10439:10448   */\n      mload\n        /* \"#utility.yul\":10429:10448   */\n      swap1\n      pop\n        /* \"#utility.yul\":10487:10491   */\n      dup2\n        /* \"#utility.yul\":10479:10485   */\n      dup2\n        /* \"#utility.yul\":10475:10492   */\n      add\n        /* \"#utility.yul\":10594:10600   */\n      dup2\n        /* \"#utility.yul\":10582:10592   */\n      dup2\n        /* \"#utility.yul\":10579:10601   */\n      lt\n        /* \"#utility.yul\":10558:10576   */\n      0xffffffffffffffff\n        /* \"#utility.yul\":10546:10556   */\n      dup3\n        /* \"#utility.yul\":10543:10577   */\n      gt\n        /* \"#utility.yul\":10540:10602   */\n      or\n        /* \"#utility.yul\":10537:10539   */\n      iszero\n      tag_250\n      jumpi\n        /* \"#utility.yul\":10605:10623   */\n      tag_251\n      tag_252\n      jump\t// in\n    tag_251:\n        /* \"#utility.yul\":10537:10539   */\n    tag_250:\n        /* \"#utility.yul\":10645:10655   */\n      dup1\n        /* \"#utility.yul\":10641:10643   */\n      0x40\n        /* \"#utility.yul\":10634:10656   */\n      mstore\n        /* \"#utility.yul\":10419:10662   */\n      pop\n      swap2\n      swap1\n      pop\n      jump\t// out\n        /* \"#utility.yul\":10668:11000   */\n    tag_135:\n      0x00\n        /* \"#utility.yul\":10820:10838   */\n      0xffffffffffffffff\n        /* \"#utility.yul\":10812:10818   */\n      dup3\n        /* \"#utility.yul\":10809:10839   */\n      gt\n        /* \"#utility.yul\":10806:10808   */\n      iszero\n      tag_254\n      jumpi\n        /* \"#utility.yul\":10842:10860   */\n      tag_255\n      tag_252\n      jump\t// in\n    tag_255:\n        /* \"#utility.yul\":10806:10808   */\n    tag_254:\n        /* \"#utility.yul\":10927:10931   */\n      0x1f\n        /* \"#utility.yul\":10923:10932   */\n      not\n        /* \"#utility.yul\":10916:10920   */\n      0x1f\n        /* \"#utility.yul\":10908:10914   */\n      dup4\n        /* \"#utility.yul\":10904:10921   */\n      add\n        /* \"#utility.yul\":10900:10933   */\n      and\n        /* \"#utility.yul\":10892:10933   */\n      swap1\n      pop\n        /* \"#utility.yul\":10988:10992   */\n      0x20\n        /* \"#utility.yul\":10982:10986   */\n      dup2\n        /* \"#utility.yul\":10978:10993   */\n      add\n        /* \"#utility.yul\":10970:10993   */\n      swap1\n      pop\n        /* \"#utility.yul\":10735:11000   */\n      swap2\n      swap1\n      pop\n      jump\t// out\n        /* \"#utility.yul\":11006:11147   */\n    tag_198:\n      0x00\n        /* \"#utility.yul\":11078:11081   */\n      dup2\n        /* \"#utility.yul\":11070:11081   */\n      swap1\n      pop\n        /* \"#utility.yul\":11101:11104   */\n      dup2\n        /* \"#utility.yul\":11098:11099   */\n      0x00\n        /* \"#utility.yul\":11091:11105   */\n      mstore\n        /* \"#utility.yul\":11135:11139   */\n      0x20\n        /* \"#utility.yul\":11132:11133   */\n      0x00\n        /* \"#utility.yul\":11122:11140   */\n      keccak256\n        /* \"#utility.yul\":11114:11140   */\n      swap1\n      pop\n        /* \"#utility.yul\":11060:11147   */\n      swap2\n      swap1\n      pop\n      jump\t// out\n        /* \"#utility.yul\":11153:11252   */\n    tag_183:\n      0x00\n        /* \"#utility.yul\":11239:11244   */\n      dup2\n        /* \"#utility.yul\":11233:11245   */\n      mload\n        /* \"#utility.yul\":11223:11245   */\n      swap1\n      pop\n        /* \"#utility.yul\":11212:11252   */\n      swap2\n      swap1\n      pop\n      jump\t// out\n        /* \"#utility.yul\":11258:11427   */\n    tag_185:\n      0x00\n        /* \"#utility.yul\":11376:11382   */\n      dup3\n        /* \"#utility.yul\":11371:11374   */\n      dup3\n        /* \"#utility.yul\":11364:11383   */\n      mstore\n        /* \"#utility.yul\":11416:11420   */\n      0x20\n        /* \"#utility.yul\":11411:11414   */\n      dup3\n        /* \"#utility.yul\":11407:11421   */\n      add\n        /* \"#utility.yul\":11392:11421   */\n      swap1\n      pop\n        /* \"#utility.yul\":11354:11427   */\n      swap3\n      swap2\n      pop\n      pop\n      jump\t// out\n        /* \"#utility.yul\":11433:11529   */\n    tag_171:\n      0x00\n        /* \"#utility.yul\":11499:11523   */\n      tag_260\n        /* \"#utility.yul\":11517:11522   */\n      dup3\n        /* \"#utility.yul\":11499:11523   */\n      tag_261\n      jump\t// in\n    tag_260:\n        /* \"#utility.yul\":11488:11523   */\n      swap1\n      pop\n        /* \"#utility.yul\":11478:11529   */\n      swap2\n      swap1\n      pop\n      jump\t// out\n        /* \"#utility.yul\":11535:11625   */\n    tag_175:\n      0x00\n        /* \"#utility.yul\":11612:11617   */\n      dup2\n        /* \"#utility.yul\":11605:11618   */\n      iszero\n        /* \"#utility.yul\":11598:11619   */\n      iszero\n        /* \"#utility.yul\":11587:11619   */\n      swap1\n      pop\n        /* \"#utility.yul\":11577:11625   */\n      swap2\n      swap1\n      pop\n      jump\t// out\n        /* \"#utility.yul\":11631:11758   */\n    tag_263:\n      0x00\n        /* \"#utility.yul\":11705:11710   */\n      dup2\n        /* \"#utility.yul\":11694:11710   */\n      swap1\n      pop\n        /* \"#utility.yul\":11711:11752   */\n      tag_265\n        /* \"#utility.yul\":11746:11751   */\n      dup3\n        /* \"#utility.yul\":11711:11752   */\n      tag_266\n      jump\t// in\n    tag_265:\n        /* \"#utility.yul\":11684:11758   */\n      swap2\n      swap1\n      pop\n      jump\t// out\n        /* \"#utility.yul\":11764:11890   */\n    tag_261:\n      0x00\n        /* \"#utility.yul\":11841:11883   */\n      0xffffffffffffffffffffffffffffffffffffffff\n        /* \"#utility.yul\":11834:11839   */\n      dup3\n        /* \"#utility.yul\":11830:11884   */\n      and\n        /* \"#utility.yul\":11819:11884   */\n      swap1\n      pop\n        /* \"#utility.yul\":11809:11890   */\n      swap2\n      swap1\n      pop\n      jump\t// out\n        /* \"#utility.yul\":11896:11973   */\n    tag_223:\n      0x00\n        /* \"#utility.yul\":11962:11967   */\n      dup2\n        /* \"#utility.yul\":11951:11967   */\n      swap1\n      pop\n        /* \"#utility.yul\":11941:11973   */\n      swap2\n      swap1\n      pop\n      jump\t// out\n        /* \"#utility.yul\":11979:12106   */\n    tag_179:\n      0x00\n        /* \"#utility.yul\":12068:12100   */\n      tag_270\n        /* \"#utility.yul\":12094:12099   */\n      dup3\n        /* \"#utility.yul\":12068:12100   */\n      tag_263\n      jump\t// in\n    tag_270:\n        /* \"#utility.yul\":12055:12100   */\n      swap1\n      pop\n        /* \"#utility.yul\":12045:12106   */\n      swap2\n      swap1\n      pop\n      jump\t// out\n        /* \"#utility.yul\":12112:12266   */\n    tag_139:\n        /* \"#utility.yul\":12196:12202   */\n      dup3\n        /* \"#utility.yul\":12191:12194   */\n      dup2\n        /* \"#utility.yul\":12186:12189   */\n      dup4\n        /* \"#utility.yul\":12173:12203   */\n      calldatacopy\n        /* \"#utility.yul\":12258:12259   */\n      0x00\n        /* \"#utility.yul\":12249:12255   */\n      dup4\n        /* \"#utility.yul\":12244:12247   */\n      dup4\n        /* \"#utility.yul\":12240:12256   */\n      add\n        /* \"#utility.yul\":12233:12260   */\n      mstore\n        /* \"#utility.yul\":12163:12266   */\n      pop\n      pop\n      pop\n      jump\t// out\n        /* \"#utility.yul\":12272:12579   */\n    tag_187:\n        /* \"#utility.yul\":12340:12341   */\n      0x00\n        /* \"#utility.yul\":12350:12463   */\n    tag_273:\n        /* \"#utility.yul\":12364:12370   */\n      dup4\n        /* \"#utility.yul\":12361:12362   */\n      dup2\n        /* \"#utility.yul\":12358:12371   */\n      lt\n        /* \"#utility.yul\":12350:12463   */\n      iszero\n      tag_275\n      jumpi\n        /* \"#utility.yul\":12449:12450   */\n      dup1\n        /* \"#utility.yul\":12444:12447   */\n      dup3\n        /* \"#utility.yul\":12440:12451   */\n      add\n        /* \"#utility.yul\":12434:12452   */\n      mload\n        /* \"#utility.yul\":12430:12431   */\n      dup2\n        /* \"#utility.yul\":12425:12428   */\n      dup5\n        /* \"#utility.yul\":12421:12432   */\n      add\n        /* \"#utility.yul\":12414:12453   */\n      mstore\n        /* \"#utility.yul\":12386:12388   */\n      0x20\n        /* \"#utility.yul\":12383:12384   */\n      dup2\n        /* \"#utility.yul\":12379:12389   */\n      add\n        /* \"#utility.yul\":12374:12389   */\n      swap1\n      pop\n        /* \"#utility.yul\":12350:12463   */\n      jump(tag_273)\n    tag_275:\n        /* \"#utility.yul\":12481:12487   */\n      dup4\n        /* \"#utility.yul\":12478:12479   */\n      dup2\n        /* \"#utility.yul\":12475:12488   */\n      gt\n        /* \"#utility.yul\":12472:12474   */\n      iszero\n      tag_276\n      jumpi\n        /* \"#utility.yul\":12561:12562   */\n      0x00\n        /* \"#utility.yul\":12552:12558   */\n      dup5\n        /* \"#utility.yul\":12547:12550   */\n      dup5\n        /* \"#utility.yul\":12543:12559   */\n      add\n        /* \"#utility.yul\":12536:12563   */\n      mstore\n        /* \"#utility.yul\":12472:12474   */\n    tag_276:\n        /* \"#utility.yul\":12321:12579   */\n      pop\n      pop\n      pop\n      pop\n      jump\t// out\n        /* \"#utility.yul\":12585:12905   */\n    tag_55:\n      0x00\n        /* \"#utility.yul\":12666:12667   */\n      0x02\n        /* \"#utility.yul\":12660:12664   */\n      dup3\n        /* \"#utility.yul\":12656:12668   */\n      div\n        /* \"#utility.yul\":12646:12668   */\n      swap1\n      pop\n        /* \"#utility.yul\":12713:12714   */\n      0x01\n        /* \"#utility.yul\":12707:12711   */\n      dup3\n        /* \"#utility.yul\":12703:12715   */\n      and\n        /* \"#utility.yul\":12734:12752   */\n      dup1\n        /* \"#utility.yul\":12724:12726   */\n      tag_278\n      jumpi\n        /* \"#utility.yul\":12790:12794   */\n      0x7f\n        /* \"#utility.yul\":12782:12788   */\n      dup3\n        /* \"#utility.yul\":12778:12795   */\n      and\n        /* \"#utility.yul\":12768:12795   */\n      swap2\n      pop\n        /* \"#utility.yul\":12724:12726   */\n    tag_278:\n        /* \"#utility.yul\":12852:12854   */\n      0x20\n        /* \"#utility.yul\":12844:12850   */\n      dup3\n        /* \"#utility.yul\":12841:12855   */\n      lt\n        /* \"#utility.yul\":12821:12839   */\n      dup2\n        /* \"#utility.yul\":12818:12856   */\n      eq\n        /* \"#utility.yul\":12815:12817   */\n      iszero\n      tag_279\n      jumpi\n        /* \"#utility.yul\":12871:12889   */\n      tag_280\n      tag_281\n      jump\t// in\n    tag_280:\n        /* \"#utility.yul\":12815:12817   */\n    tag_279:\n        /* \"#utility.yul\":12636:12905   */\n      pop\n      swap2\n      swap1\n      pop\n      jump\t// out\n        /* \"#utility.yul\":12911:13091   */\n    tag_282:\n        /* \"#utility.yul\":12959:13036   */\n      0x4e487b7100000000000000000000000000000000000000000000000000000000\n        /* \"#utility.yul\":12956:12957   */\n      0x00\n        /* \"#utility.yul\":12949:13037   */\n      mstore\n        /* \"#utility.yul\":13056:13060   */\n      0x21\n        /* \"#utility.yul\":13053:13054   */\n      0x04\n        /* \"#utility.yul\":13046:13061   */\n      mstore\n        /* \"#utility.yul\":13080:13084   */\n      0x24\n        /* \"#utility.yul\":13077:13078   */\n      0x00\n        /* \"#utility.yul\":13070:13085   */\n      revert\n        /* \"#utility.yul\":13097:13277   */\n    tag_281:\n        /* \"#utility.yul\":13145:13222   */\n      0x4e487b7100000000000000000000000000000000000000000000000000000000\n        /* \"#utility.yul\":13142:13143   */\n      0x00\n        /* \"#utility.yul\":13135:13223   */\n      mstore\n        /* \"#utility.yul\":13242:13246   */\n      0x22\n        /* \"#utility.yul\":13239:13240   */\n      0x04\n        /* \"#utility.yul\":13232:13247   */\n      mstore\n        /* \"#utility.yul\":13266:13270   */\n      0x24\n        /* \"#utility.yul\":13263:13264   */\n      0x00\n        /* \"#utility.yul\":13256:13271   */\n      revert\n        /* \"#utility.yul\":13283:13463   */\n    tag_252:\n        /* \"#utility.yul\":13331:13408   */\n      0x4e487b7100000000000000000000000000000000000000000000000000000000\n        /* \"#utility.yul\":13328:13329   */\n      0x00\n        /* \"#utility.yul\":13321:13409   */\n      mstore\n        /* \"#utility.yul\":13428:13432   */\n      0x41\n        /* \"#utility.yul\":13425:13426   */\n      0x04\n        /* \"#utility.yul\":13418:13433   */\n      mstore\n        /* \"#utility.yul\":13452:13456   */\n      0x24\n        /* \"#utility.yul\":13449:13450   */\n      0x00\n        /* \"#utility.yul\":13442:13457   */\n      revert\n        /* \"#utility.yul\":13469:13571   */\n    tag_189:\n      0x00\n        /* \"#utility.yul\":13561:13563   */\n      0x1f\n        /* \"#utility.yul\":13557:13564   */\n      not\n        /* \"#utility.yul\":13552:13554   */\n      0x1f\n        /* \"#utility.yul\":13545:13550   */\n      dup4\n        /* \"#utility.yul\":13541:13555   */\n      add\n        /* \"#utility.yul\":13537:13565   */\n      and\n        /* \"#utility.yul\":13527:13565   */\n      swap1\n      pop\n        /* \"#utility.yul\":13517:13571   */\n      swap2\n      swap1\n      pop\n      jump\t// out\n        /* \"#utility.yul\":13577:13690   */\n    tag_266:\n        /* \"#utility.yul\":13658:13659   */\n      0x04\n        /* \"#utility.yul\":13651:13656   */\n      dup2\n        /* \"#utility.yul\":13648:13660   */\n      lt\n        /* \"#utility.yul\":13638:13640   */\n      tag_288\n      jumpi\n        /* \"#utility.yul\":13664:13682   */\n      tag_289\n      tag_282\n      jump\t// in\n    tag_289:\n        /* \"#utility.yul\":13638:13640   */\n    tag_288:\n        /* \"#utility.yul\":13628:13690   */\n      pop\n      jump\t// out\n        /* \"#utility.yul\":13696:13818   */\n    tag_143:\n        /* \"#utility.yul\":13769:13793   */\n      tag_291\n        /* \"#utility.yul\":13787:13792   */\n      dup2\n        /* \"#utility.yul\":13769:13793   */\n      tag_171\n      jump\t// in\n    tag_291:\n        /* \"#utility.yul\":13762:13767   */\n      dup2\n        /* \"#utility.yul\":13759:13794   */\n      eq\n        /* \"#utility.yul\":13749:13751   */\n      tag_292\n      jumpi\n        /* \"#utility.yul\":13808:13809   */\n      0x00\n        /* \"#utility.yul\":13805:13806   */\n      dup1\n        /* \"#utility.yul\":13798:13810   */\n      revert\n        /* \"#utility.yul\":13749:13751   */\n    tag_292:\n        /* \"#utility.yul\":13739:13818   */\n      pop\n      jump\t// out\n        /* \"#utility.yul\":13824:13931   */\n    tag_147:\n        /* \"#utility.yul\":13905:13906   */\n      0x04\n        /* \"#utility.yul\":13898:13903   */\n      dup2\n        /* \"#utility.yul\":13895:13907   */\n      lt\n        /* \"#utility.yul\":13885:13887   */\n      tag_294\n      jumpi\n        /* \"#utility.yul\":13921:13922   */\n      0x00\n        /* \"#utility.yul\":13918:13919   */\n      dup1\n        /* \"#utility.yul\":13911:13923   */\n      revert\n        /* \"#utility.yul\":13885:13887   */\n    tag_294:\n        /* \"#utility.yul\":13875:13931   */\n      pop\n      jump\t// out\n        /* \"#utility.yul\":13937:14059   */\n    tag_155:\n        /* \"#utility.yul\":14010:14034   */\n      tag_296\n        /* \"#utility.yul\":14028:14033   */\n      dup2\n        /* \"#utility.yul\":14010:14034   */\n      tag_223\n      jump\t// in\n    tag_296:\n        /* \"#utility.yul\":14003:14008   */\n      dup2\n        /* \"#utility.yul\":14000:14035   */\n      eq\n        /* \"#utility.yul\":13990:13992   */\n      tag_297\n      jumpi\n        /* \"#utility.yul\":14049:14050   */\n      0x00\n        /* \"#utility.yul\":14046:14047   */\n      dup1\n        /* \"#utility.yul\":14039:14051   */\n      revert\n        /* \"#utility.yul\":13990:13992   */\n    tag_297:\n        /* \"#utility.yul\":13980:14059   */\n      pop\n      jump\t// out\n\n    auxdata: 0xa2646970667358221220ab9f34e0cd58a6d93abffde506eee83e08e463a9f2fabadc53b64343751a038664736f6c63430008000033\n}\n",
				"bytecode": {
					"linkReferences": {},
					"object": "608060405234801561001057600080fd5b50336000806101000a81548173ffffffffffffffffffffffffffffffffffffffff021916908373ffffffffffffffffffffffffffffffffffffffff16021790555061188c806100606000396000f3fe608060405234801561001057600080fd5b50600436106100935760003560e01c80639b19251a116100665780639b19251a1461011e578063a4a1e2631461014e578063e43252d71461016c578063eaa66a3c14610188578063f2fde38b146101b957610093565b8063365b98b21461009857806340d26854146100c85780638ab1d681146100e45780638da5cb5b14610100575b600080fd5b6100b260048036038101906100ad9190611164565b6101d5565b6040516100bf9190611474565b60405180910390f35b6100e260048036038101906100dd91906110fd565b610214565b005b6100fe60048036038101906100f991906110d4565b610b82565b005b610108610c6b565b6040516101159190611474565b60405180910390f35b610138600480360381019061013391906110d4565b610c8f565b60405161014591906114cd565b60405180910390f35b610156610caf565b60405161016391906115d8565b60405180910390f35b610186600480360381019061018191906110d4565b610cbc565b005b6101a2600480360381019061019d91906110d4565b610d16565b6040516101b09291906114e8565b60405180910390f35b6101d360048036038101906101ce91906110d4565b610dcf565b005b600381815481106101e557600080fd5b906000526020600020016000915054906101000a900473ffffffffffffffffffffffffffffffffffffffff1681565b60006040518060400160405280848152602001836003811115610260577f4e487b7100000000000000000000000000000000000000000000000000000000600052602160045260246000fd5b81525090506000600260003373ffffffffffffffffffffffffffffffffffffffff1673ffffffffffffffffffffffffffffffffffffffff1681526020019081526020016000206040518060400160405290816000820180546102c190611734565b80601f01602080910402602001604051908101604052809291908181526020018280546102ed90611734565b801561033a5780601f1061030f5761010080835404028352916020019161033a565b820191906000526020600020905b81548152906001019060200180831161031d57829003601f168201915b505050505081526020016001820160009054906101000a900460ff16600381111561038e577f4e487b7100000000000000000000000000000000000000000000000000000000600052602160045260246000fd5b60038111156103c6577f4e487b7100000000000000000000000000000000000000000000000000000000600052602160045260246000fd5b8152505090507ffcf56e8b77543617e075beddc33f51b3921b2dc365ae569ce204aab0c333fd5333600260003373ffffffffffffffffffffffffffffffffffffffff1673ffffffffffffffffffffffffffffffffffffffff168152602001908152602001600020600001600260003373ffffffffffffffffffffffffffffffffffffffff1673ffffffffffffffffffffffffffffffffffffffff16815260200190815260200160002060010160009054906101000a900460ff1660405161048f9392919061148f565b60405180910390a17ffcf56e8b77543617e075beddc33f51b3921b2dc365ae569ce204aab0c333fd5333600260003373ffffffffffffffffffffffffffffffffffffffff1673ffffffffffffffffffffffffffffffffffffffff168152602001908152602001600020600001600260003373ffffffffffffffffffffffffffffffffffffffff1673ffffffffffffffffffffffffffffffffffffffff16815260200190815260200160002060010160009054906101000a900460ff1660405161055a9392919061148f565b60405180910390a160008160200151905060008054906101000a900473ffffffffffffffffffffffffffffffffffffffff1673ffffffffffffffffffffffffffffffffffffffff163373ffffffffffffffffffffffffffffffffffffffff1614610a0c57600060038111156105f8577f4e487b7100000000000000000000000000000000000000000000000000000000600052602160045260246000fd5b816003811115610631577f4e487b7100000000000000000000000000000000000000000000000000000000600052602160045260246000fd5b1480156106af575060016003811115610673577f4e487b7100000000000000000000000000000000000000000000000000000000600052602160045260246000fd5b8460038111156106ac577f4e487b7100000000000000000000000000000000000000000000000000000000600052602160045260246000fd5b14155b156106ef576040517f08c379a00000000000000000000000000000000000000000000000000000000081526004016106e690611558565b60405180910390fd5b60016003811115610729577f4e487b7100000000000000000000000000000000000000000000000000000000600052602160045260246000fd5b816003811115610762577f4e487b7100000000000000000000000000000000000000000000000000000000600052602160045260246000fd5b1480156107e45750600260038111156107a4577f4e487b7100000000000000000000000000000000000000000000000000000000600052602160045260246000fd5b836020015160038111156107e1577f4e487b7100000000000000000000000000000000000000000000000000000000600052602160045260246000fd5b14155b15610824576040517f08c379a000000000000000000000000000000000000000000000000000000000815260040161081b906115b8565b60405180910390fd5b6002600381111561085e577f4e487b7100000000000000000000000000000000000000000000000000000000600052602160045260246000fd5b816003811115610897577f4e487b7100000000000000000000000000000000000000000000000000000000600052602160045260246000fd5b14801561091857506003808111156108d8577f4e487b7100000000000000000000000000000000000000000000000000000000600052602160045260246000fd5b83602001516003811115610915577f4e487b7100000000000000000000000000000000000000000000000000000000600052602160045260246000fd5b14155b15610958576040517f08c379a000000000000000000000000000000000000000000000000000000000815260040161094f90611538565b60405180910390fd5b600380811115610991577f4e487b7100000000000000000000000000000000000000000000000000000000600052602160045260246000fd5b8160038111156109ca577f4e487b7100000000000000000000000000000000000000000000000000000000600052602160045260246000fd5b1415610a0b576040517f08c379a0000000000000000000000000000000000000000000000000000000008152600401610a0290611578565b60405180910390fd5b5b6040518060400160405280868152602001856003811115610a56577f4e487b7100000000000000000000000000000000000000000000000000000000600052602160045260246000fd5b815250600260008873ffffffffffffffffffffffffffffffffffffffff1673ffffffffffffffffffffffffffffffffffffffff1681526020019081526020016000206000820151816000019080519060200190610ab4929190610f8a565b5060208201518160010160006101000a81548160ff02191690836003811115610b06577f4e487b7100000000000000000000000000000000000000000000000000000000600052602160045260246000fd5b02179055509050506003869080600181540180825580915050600190039060005260206000200160009091909190916101000a81548173ffffffffffffffffffffffffffffffffffffffff021916908373ffffffffffffffffffffffffffffffffffffffff160217905550610b7a86610cbc565b505050505050565b60008054906101000a900473ffffffffffffffffffffffffffffffffffffffff1673ffffffffffffffffffffffffffffffffffffffff163373ffffffffffffffffffffffffffffffffffffffff1614610c10576040517f08c379a0000000000000000000000000000000000000000000000000000000008152600401610c0790611598565b60405180910390fd5b6000600160008373ffffffffffffffffffffffffffffffffffffffff1673ffffffffffffffffffffffffffffffffffffffff16815260200190815260200160002060006101000a81548160ff02191690831515021790555050565b60008054906101000a900473ffffffffffffffffffffffffffffffffffffffff1681565b60016020528060005260406000206000915054906101000a900460ff1681565b6000600380549050905090565b60018060008373ffffffffffffffffffffffffffffffffffffffff1673ffffffffffffffffffffffffffffffffffffffff16815260200190815260200160002060006101000a81548160ff02191690831515021790555050565b6002602052806000526040600020600091509050806000018054610d3990611734565b80601f0160208091040260200160405190810160405280929190818152602001828054610d6590611734565b8015610db25780601f10610d8757610100808354040283529160200191610db2565b820191906000526020600020905b815481529060010190602001808311610d9557829003601f168201915b5050505050908060010160009054906101000a900460ff16905082565b60008054906101000a900473ffffffffffffffffffffffffffffffffffffffff1673ffffffffffffffffffffffffffffffffffffffff163373ffffffffffffffffffffffffffffffffffffffff1614610e5d576040517f08c379a0000000000000000000000000000000000000000000000000000000008152600401610e5490611598565b60405180910390fd5b600073ffffffffffffffffffffffffffffffffffffffff168173ffffffffffffffffffffffffffffffffffffffff161415610ecd576040517f08c379a0000000000000000000000000000000000000000000000000000000008152600401610ec490611518565b60405180910390fd5b8073ffffffffffffffffffffffffffffffffffffffff1660008054906101000a900473ffffffffffffffffffffffffffffffffffffffff1673ffffffffffffffffffffffffffffffffffffffff167f8be0079c531659141344cd1fd0a4f28419497f9722a3daafe3b4186f6b6457e060405160405180910390a3806000806101000a81548173ffffffffffffffffffffffffffffffffffffffff021916908373ffffffffffffffffffffffffffffffffffffffff16021790555050565b828054610f9690611734565b90600052602060002090601f016020900481019282610fb85760008555610fff565b82601f10610fd157805160ff1916838001178555610fff565b82800160010185558215610fff579182015b82811115610ffe578251825591602001919060010190610fe3565b5b50905061100c9190611010565b5090565b5b80821115611029576000816000905550600101611011565b5090565b600061104061103b84611624565b6115f3565b90508281526020810184848401111561105857600080fd5b6110638482856116f2565b509392505050565b60008135905061107a81611818565b92915050565b60008135905061108f8161182f565b92915050565b600082601f8301126110a657600080fd5b81356110b684826020860161102d565b91505092915050565b6000813590506110ce8161183f565b92915050565b6000602082840312156110e657600080fd5b60006110f48482850161106b565b91505092915050565b60008060006060848603121561111257600080fd5b60006111208682870161106b565b935050602084013567ffffffffffffffff81111561113d57600080fd5b61114986828701611095565b925050604061115a86828701611080565b9150509250925092565b60006020828403121561117657600080fd5b6000611184848285016110bf565b91505092915050565b61119681611685565b82525050565b6111a581611697565b82525050565b6111b4816116e0565b82525050565b60006111c582611669565b6111cf8185611674565b93506111df818560208601611701565b6111e8816117f3565b840191505092915050565b6000815461120081611734565b61120a8186611674565b9450600182166000811461122557600181146112375761126a565b60ff198316865260208601935061126a565b61124085611654565b60005b8381101561126257815481890152600182019150602081019050611243565b808801955050505b50505092915050565b6000611280601983611674565b91507f416464726573732073686f756c646e2774206265207a65726f000000000000006000830152602082019050919050565b60006112c0602d83611674565b91507f43616e6e6f7420616464206d616e756661637475726572206f7220737570706c60008301527f696572206f722076656e646f72000000000000000000000000000000000000006020830152604082019050919050565b6000611326602f83611674565b91507f43616e6e6f7420616464206d616e756661637475726572206f7220637573746f60008301527f6d6572206f7220737570706c69657200000000000000000000000000000000006020830152604082019050919050565b600061138c601383611674565b91507f43616e6e6f742061646420616e206163746f72000000000000000000000000006000830152602082019050919050565b60006113cc601883611674565b91507f4e6f7420617574686f72697a6564206f7065726174696f6e00000000000000006000830152602082019050919050565b600061140c602f83611674565b91507f43616e6e6f7420616464206d616e756661637475726572206f7220737570706c60008301527f696572206f7220637573746f6d657200000000000000000000000000000000006020830152604082019050919050565b61146e816116d6565b82525050565b6000602082019050611489600083018461118d565b92915050565b60006060820190506114a4600083018661118d565b81810360208301526114b681856111f3565b90506114c560408301846111ab565b949350505050565b60006020820190506114e2600083018461119c565b92915050565b6000604082019050818103600083015261150281856111ba565b905061151160208301846111ab565b9392505050565b6000602082019050818103600083015261153181611273565b9050919050565b60006020820190508181036000830152611551816112b3565b9050919050565b6000602082019050818103600083015261157181611319565b9050919050565b600060208201905081810360008301526115918161137f565b9050919050565b600060208201905081810360008301526115b1816113bf565b9050919050565b600060208201905081810360008301526115d1816113ff565b9050919050565b60006020820190506115ed6000830184611465565b92915050565b6000604051905081810181811067ffffffffffffffff8211171561161a576116196117c4565b5b8060405250919050565b600067ffffffffffffffff82111561163f5761163e6117c4565b5b601f19601f8301169050602081019050919050565b60008190508160005260206000209050919050565b600081519050919050565b600082825260208201905092915050565b6000611690826116b6565b9050919050565b60008115159050919050565b60008190506116b182611804565b919050565b600073ffffffffffffffffffffffffffffffffffffffff82169050919050565b6000819050919050565b60006116eb826116a3565b9050919050565b82818337600083830152505050565b60005b8381101561171f578082015181840152602081019050611704565b8381111561172e576000848401525b50505050565b6000600282049050600182168061174c57607f821691505b602082108114156117605761175f611795565b5b50919050565b7f4e487b7100000000000000000000000000000000000000000000000000000000600052602160045260246000fd5b7f4e487b7100000000000000000000000000000000000000000000000000000000600052602260045260246000fd5b7f4e487b7100000000000000000000000000000000000000000000000000000000600052604160045260246000fd5b6000601f19601f8301169050919050565b6004811061181557611814611766565b5b50565b61182181611685565b811461182c57600080fd5b50565b6004811061183c57600080fd5b50565b611848816116d6565b811461185357600080fd5b5056fea2646970667358221220ab9f34e0cd58a6d93abffde506eee83e08e463a9f2fabadc53b64343751a038664736f6c63430008000033",
					"opcodes": "PUSH1 0x80 PUSH1 0x40 MSTORE CALLVALUE DUP1 ISZERO PUSH2 0x10 JUMPI PUSH1 0x0 DUP1 REVERT JUMPDEST POP CALLER PUSH1 0x0 DUP1 PUSH2 0x100 EXP DUP2 SLOAD DUP2 PUSH20 0xFFFFFFFFFFFFFFFFFFFFFFFFFFFFFFFFFFFFFFFF MUL NOT AND SWAP1 DUP4 PUSH20 0xFFFFFFFFFFFFFFFFFFFFFFFFFFFFFFFFFFFFFFFF AND MUL OR SWAP1 SSTORE POP PUSH2 0x188C DUP1 PUSH2 0x60 PUSH1 0x0 CODECOPY PUSH1 0x0 RETURN INVALID PUSH1 0x80 PUSH1 0x40 MSTORE CALLVALUE DUP1 ISZERO PUSH2 0x10 JUMPI PUSH1 0x0 DUP1 REVERT JUMPDEST POP PUSH1 0x4 CALLDATASIZE LT PUSH2 0x93 JUMPI PUSH1 0x0 CALLDATALOAD PUSH1 0xE0 SHR DUP1 PUSH4 0x9B19251A GT PUSH2 0x66 JUMPI DUP1 PUSH4 0x9B19251A EQ PUSH2 0x11E JUMPI DUP1 PUSH4 0xA4A1E263 EQ PUSH2 0x14E JUMPI DUP1 PUSH4 0xE43252D7 EQ PUSH2 0x16C JUMPI DUP1 PUSH4 0xEAA66A3C EQ PUSH2 0x188 JUMPI DUP1 PUSH4 0xF2FDE38B EQ PUSH2 0x1B9 JUMPI PUSH2 0x93 JUMP JUMPDEST DUP1 PUSH4 0x365B98B2 EQ PUSH2 0x98 JUMPI DUP1 PUSH4 0x40D26854 EQ PUSH2 0xC8 JUMPI DUP1 PUSH4 0x8AB1D681 EQ PUSH2 0xE4 JUMPI DUP1 PUSH4 0x8DA5CB5B EQ PUSH2 0x100 JUMPI JUMPDEST PUSH1 0x0 DUP1 REVERT JUMPDEST PUSH2 0xB2 PUSH1 0x4 DUP1 CALLDATASIZE SUB DUP2 ADD SWAP1 PUSH2 0xAD SWAP2 SWAP1 PUSH2 0x1164 JUMP JUMPDEST PUSH2 0x1D5 JUMP JUMPDEST PUSH1 0x40 MLOAD PUSH2 0xBF SWAP2 SWAP1 PUSH2 0x1474 JUMP JUMPDEST PUSH1 0x40 MLOAD DUP1 SWAP2 SUB SWAP1 RETURN JUMPDEST PUSH2 0xE2 PUSH1 0x4 DUP1 CALLDATASIZE SUB DUP2 ADD SWAP1 PUSH2 0xDD SWAP2 SWAP1 PUSH2 0x10FD JUMP JUMPDEST PUSH2 0x214 JUMP JUMPDEST STOP JUMPDEST PUSH2 0xFE PUSH1 0x4 DUP1 CALLDATASIZE SUB DUP2 ADD SWAP1 PUSH2 0xF9 SWAP2 SWAP1 PUSH2 0x10D4 JUMP JUMPDEST PUSH2 0xB82 JUMP JUMPDEST STOP JUMPDEST PUSH2 0x108 PUSH2 0xC6B JUMP JUMPDEST PUSH1 0x40 MLOAD PUSH2 0x115 SWAP2 SWAP1 PUSH2 0x1474 JUMP JUMPDEST PUSH1 0x40 MLOAD DUP1 SWAP2 SUB SWAP1 RETURN JUMPDEST PUSH2 0x138 PUSH1 0x4 DUP1 CALLDATASIZE SUB DUP2 ADD SWAP1 PUSH2 0x133 SWAP2 SWAP1 PUSH2 0x10D4 JUMP JUMPDEST PUSH2 0xC8F JUMP JUMPDEST PUSH1 0x40 MLOAD PUSH2 0x145 SWAP2 SWAP1 PUSH2 0x14CD JUMP JUMPDEST PUSH1 0x40 MLOAD DUP1 SWAP2 SUB SWAP1 RETURN JUMPDEST PUSH2 0x156 PUSH2 0xCAF JUMP JUMPDEST PUSH1 0x40 MLOAD PUSH2 0x163 SWAP2 SWAP1 PUSH2 0x15D8 JUMP JUMPDEST PUSH1 0x40 MLOAD DUP1 SWAP2 SUB SWAP1 RETURN JUMPDEST PUSH2 0x186 PUSH1 0x4 DUP1 CALLDATASIZE SUB DUP2 ADD SWAP1 PUSH2 0x181 SWAP2 SWAP1 PUSH2 0x10D4 JUMP JUMPDEST PUSH2 0xCBC JUMP JUMPDEST STOP JUMPDEST PUSH2 0x1A2 PUSH1 0x4 DUP1 CALLDATASIZE SUB DUP2 ADD SWAP1 PUSH2 0x19D SWAP2 SWAP1 PUSH2 0x10D4 JUMP JUMPDEST PUSH2 0xD16 JUMP JUMPDEST PUSH1 0x40 MLOAD PUSH2 0x1B0 SWAP3 SWAP2 SWAP1 PUSH2 0x14E8 JUMP JUMPDEST PUSH1 0x40 MLOAD DUP1 SWAP2 SUB SWAP1 RETURN JUMPDEST PUSH2 0x1D3 PUSH1 0x4 DUP1 CALLDATASIZE SUB DUP2 ADD SWAP1 PUSH2 0x1CE SWAP2 SWAP1 PUSH2 0x10D4 JUMP JUMPDEST PUSH2 0xDCF JUMP JUMPDEST STOP JUMPDEST PUSH1 0x3 DUP2 DUP2 SLOAD DUP2 LT PUSH2 0x1E5 JUMPI PUSH1 0x0 DUP1 REVERT JUMPDEST SWAP1 PUSH1 0x0 MSTORE PUSH1 0x20 PUSH1 0x0 KECCAK256 ADD PUSH1 0x0 SWAP2 POP SLOAD SWAP1 PUSH2 0x100 EXP SWAP1 DIV PUSH20 0xFFFFFFFFFFFFFFFFFFFFFFFFFFFFFFFFFFFFFFFF AND DUP2 JUMP JUMPDEST PUSH1 0x0 PUSH1 0x40 MLOAD DUP1 PUSH1 0x40 ADD PUSH1 0x40 MSTORE DUP1 DUP5 DUP2 MSTORE PUSH1 0x20 ADD DUP4 PUSH1 0x3 DUP2 GT ISZERO PUSH2 0x260 JUMPI PUSH32 0x4E487B7100000000000000000000000000000000000000000000000000000000 PUSH1 0x0 MSTORE PUSH1 0x21 PUSH1 0x4 MSTORE PUSH1 0x24 PUSH1 0x0 REVERT JUMPDEST DUP2 MSTORE POP SWAP1 POP PUSH1 0x0 PUSH1 0x2 PUSH1 0x0 CALLER PUSH20 0xFFFFFFFFFFFFFFFFFFFFFFFFFFFFFFFFFFFFFFFF AND PUSH20 0xFFFFFFFFFFFFFFFFFFFFFFFFFFFFFFFFFFFFFFFF AND DUP2 MSTORE PUSH1 0x20 ADD SWAP1 DUP2 MSTORE PUSH1 0x20 ADD PUSH1 0x0 KECCAK256 PUSH1 0x40 MLOAD DUP1 PUSH1 0x40 ADD PUSH1 0x40 MSTORE SWAP1 DUP2 PUSH1 0x0 DUP3 ADD DUP1 SLOAD PUSH2 0x2C1 SWAP1 PUSH2 0x1734 JUMP JUMPDEST DUP1 PUSH1 0x1F ADD PUSH1 0x20 DUP1 SWAP2 DIV MUL PUSH1 0x20 ADD PUSH1 0x40 MLOAD SWAP1 DUP2 ADD PUSH1 0x40 MSTORE DUP1 SWAP3 SWAP2 SWAP1 DUP2 DUP2 MSTORE PUSH1 0x20 ADD DUP3 DUP1 SLOAD PUSH2 0x2ED SWAP1 PUSH2 0x1734 JUMP JUMPDEST DUP1 ISZERO PUSH2 0x33A JUMPI DUP1 PUSH1 0x1F LT PUSH2 0x30F JUMPI PUSH2 0x100 DUP1 DUP4 SLOAD DIV MUL DUP4 MSTORE SWAP2 PUSH1 0x20 ADD SWAP2 PUSH2 0x33A JUMP JUMPDEST DUP3 ADD SWAP2 SWAP1 PUSH1 0x0 MSTORE PUSH1 0x20 PUSH1 0x0 KECCAK256 SWAP1 JUMPDEST DUP2 SLOAD DUP2 MSTORE SWAP1 PUSH1 0x1 ADD SWAP1 PUSH1 0x20 ADD DUP1 DUP4 GT PUSH2 0x31D JUMPI DUP3 SWAP1 SUB PUSH1 0x1F AND DUP3 ADD SWAP2 JUMPDEST POP POP POP POP POP DUP2 MSTORE PUSH1 0x20 ADD PUSH1 0x1 DUP3 ADD PUSH1 0x0 SWAP1 SLOAD SWAP1 PUSH2 0x100 EXP SWAP1 DIV PUSH1 0xFF AND PUSH1 0x3 DUP2 GT ISZERO PUSH2 0x38E JUMPI PUSH32 0x4E487B7100000000000000000000000000000000000000000000000000000000 PUSH1 0x0 MSTORE PUSH1 0x21 PUSH1 0x4 MSTORE PUSH1 0x24 PUSH1 0x0 REVERT JUMPDEST PUSH1 0x3 DUP2 GT ISZERO PUSH2 0x3C6 JUMPI PUSH32 0x4E487B7100000000000000000000000000000000000000000000000000000000 PUSH1 0x0 MSTORE PUSH1 0x21 PUSH1 0x4 MSTORE PUSH1 0x24 PUSH1 0x0 REVERT JUMPDEST DUP2 MSTORE POP POP SWAP1 POP PUSH32 0xFCF56E8B77543617E075BEDDC33F51B3921B2DC365AE569CE204AAB0C333FD53 CALLER PUSH1 0x2 PUSH1 0x0 CALLER PUSH20 0xFFFFFFFFFFFFFFFFFFFFFFFFFFFFFFFFFFFFFFFF AND PUSH20 0xFFFFFFFFFFFFFFFFFFFFFFFFFFFFFFFFFFFFFFFF AND DUP2 MSTORE PUSH1 0x20 ADD SWAP1 DUP2 MSTORE PUSH1 0x20 ADD PUSH1 0x0 KECCAK256 PUSH1 0x0 ADD PUSH1 0x2 PUSH1 0x0 CALLER PUSH20 0xFFFFFFFFFFFFFFFFFFFFFFFFFFFFFFFFFFFFFFFF AND PUSH20 0xFFFFFFFFFFFFFFFFFFFFFFFFFFFFFFFFFFFFFFFF AND DUP2 MSTORE PUSH1 0x20 ADD SWAP1 DUP2 MSTORE PUSH1 0x20 ADD PUSH1 0x0 KECCAK256 PUSH1 0x1 ADD PUSH1 0x0 SWAP1 SLOAD SWAP1 PUSH2 0x100 EXP SWAP1 DIV PUSH1 0xFF AND PUSH1 0x40 MLOAD PUSH2 0x48F SWAP4 SWAP3 SWAP2 SWAP1 PUSH2 0x148F JUMP JUMPDEST PUSH1 0x40 MLOAD DUP1 SWAP2 SUB SWAP1 LOG1 PUSH32 0xFCF56E8B77543617E075BEDDC33F51B3921B2DC365AE569CE204AAB0C333FD53 CALLER PUSH1 0x2 PUSH1 0x0 CALLER PUSH20 0xFFFFFFFFFFFFFFFFFFFFFFFFFFFFFFFFFFFFFFFF AND PUSH20 0xFFFFFFFFFFFFFFFFFFFFFFFFFFFFFFFFFFFFFFFF AND DUP2 MSTORE PUSH1 0x20 ADD SWAP1 DUP2 MSTORE PUSH1 0x20 ADD PUSH1 0x0 KECCAK256 PUSH1 0x0 ADD PUSH1 0x2 PUSH1 0x0 CALLER PUSH20 0xFFFFFFFFFFFFFFFFFFFFFFFFFFFFFFFFFFFFFFFF AND PUSH20 0xFFFFFFFFFFFFFFFFFFFFFFFFFFFFFFFFFFFFFFFF AND DUP2 MSTORE PUSH1 0x20 ADD SWAP1 DUP2 MSTORE PUSH1 0x20 ADD PUSH1 0x0 KECCAK256 PUSH1 0x1 ADD PUSH1 0x0 SWAP1 SLOAD SWAP1 PUSH2 0x100 EXP SWAP1 DIV PUSH1 0xFF AND PUSH1 0x40 MLOAD PUSH2 0x55A SWAP4 SWAP3 SWAP2 SWAP1 PUSH2 0x148F JUMP JUMPDEST PUSH1 0x40 MLOAD DUP1 SWAP2 SUB SWAP1 LOG1 PUSH1 0x0 DUP2 PUSH1 0x20 ADD MLOAD SWAP1 POP PUSH1 0x0 DUP1 SLOAD SWAP1 PUSH2 0x100 EXP SWAP1 DIV PUSH20 0xFFFFFFFFFFFFFFFFFFFFFFFFFFFFFFFFFFFFFFFF AND PUSH20 0xFFFFFFFFFFFFFFFFFFFFFFFFFFFFFFFFFFFFFFFF AND CALLER PUSH20 0xFFFFFFFFFFFFFFFFFFFFFFFFFFFFFFFFFFFFFFFF AND EQ PUSH2 0xA0C JUMPI PUSH1 0x0 PUSH1 0x3 DUP2 GT ISZERO PUSH2 0x5F8 JUMPI PUSH32 0x4E487B7100000000000000000000000000000000000000000000000000000000 PUSH1 0x0 MSTORE PUSH1 0x21 PUSH1 0x4 MSTORE PUSH1 0x24 PUSH1 0x0 REVERT JUMPDEST DUP2 PUSH1 0x3 DUP2 GT ISZERO PUSH2 0x631 JUMPI PUSH32 0x4E487B7100000000000000000000000000000000000000000000000000000000 PUSH1 0x0 MSTORE PUSH1 0x21 PUSH1 0x4 MSTORE PUSH1 0x24 PUSH1 0x0 REVERT JUMPDEST EQ DUP1 ISZERO PUSH2 0x6AF JUMPI POP PUSH1 0x1 PUSH1 0x3 DUP2 GT ISZERO PUSH2 0x673 JUMPI PUSH32 0x4E487B7100000000000000000000000000000000000000000000000000000000 PUSH1 0x0 MSTORE PUSH1 0x21 PUSH1 0x4 MSTORE PUSH1 0x24 PUSH1 0x0 REVERT JUMPDEST DUP5 PUSH1 0x3 DUP2 GT ISZERO PUSH2 0x6AC JUMPI PUSH32 0x4E487B7100000000000000000000000000000000000000000000000000000000 PUSH1 0x0 MSTORE PUSH1 0x21 PUSH1 0x4 MSTORE PUSH1 0x24 PUSH1 0x0 REVERT JUMPDEST EQ ISZERO JUMPDEST ISZERO PUSH2 0x6EF JUMPI PUSH1 0x40 MLOAD PUSH32 0x8C379A000000000000000000000000000000000000000000000000000000000 DUP2 MSTORE PUSH1 0x4 ADD PUSH2 0x6E6 SWAP1 PUSH2 0x1558 JUMP JUMPDEST PUSH1 0x40 MLOAD DUP1 SWAP2 SUB SWAP1 REVERT JUMPDEST PUSH1 0x1 PUSH1 0x3 DUP2 GT ISZERO PUSH2 0x729 JUMPI PUSH32 0x4E487B7100000000000000000000000000000000000000000000000000000000 PUSH1 0x0 MSTORE PUSH1 0x21 PUSH1 0x4 MSTORE PUSH1 0x24 PUSH1 0x0 REVERT JUMPDEST DUP2 PUSH1 0x3 DUP2 GT ISZERO PUSH2 0x762 JUMPI PUSH32 0x4E487B7100000000000000000000000000000000000000000000000000000000 PUSH1 0x0 MSTORE PUSH1 0x21 PUSH1 0x4 MSTORE PUSH1 0x24 PUSH1 0x0 REVERT JUMPDEST EQ DUP1 ISZERO PUSH2 0x7E4 JUMPI POP PUSH1 0x2 PUSH1 0x3 DUP2 GT ISZERO PUSH2 0x7A4 JUMPI PUSH32 0x4E487B7100000000000000000000000000000000000000000000000000000000 PUSH1 0x0 MSTORE PUSH1 0x21 PUSH1 0x4 MSTORE PUSH1 0x24 PUSH1 0x0 REVERT JUMPDEST DUP4 PUSH1 0x20 ADD MLOAD PUSH1 0x3 DUP2 GT ISZERO PUSH2 0x7E1 JUMPI PUSH32 0x4E487B7100000000000000000000000000000000000000000000000000000000 PUSH1 0x0 MSTORE PUSH1 0x21 PUSH1 0x4 MSTORE PUSH1 0x24 PUSH1 0x0 REVERT JUMPDEST EQ ISZERO JUMPDEST ISZERO PUSH2 0x824 JUMPI PUSH1 0x40 MLOAD PUSH32 0x8C379A000000000000000000000000000000000000000000000000000000000 DUP2 MSTORE PUSH1 0x4 ADD PUSH2 0x81B SWAP1 PUSH2 0x15B8 JUMP JUMPDEST PUSH1 0x40 MLOAD DUP1 SWAP2 SUB SWAP1 REVERT JUMPDEST PUSH1 0x2 PUSH1 0x3 DUP2 GT ISZERO PUSH2 0x85E JUMPI PUSH32 0x4E487B7100000000000000000000000000000000000000000000000000000000 PUSH1 0x0 MSTORE PUSH1 0x21 PUSH1 0x4 MSTORE PUSH1 0x24 PUSH1 0x0 REVERT JUMPDEST DUP2 PUSH1 0x3 DUP2 GT ISZERO PUSH2 0x897 JUMPI PUSH32 0x4E487B7100000000000000000000000000000000000000000000000000000000 PUSH1 0x0 MSTORE PUSH1 0x21 PUSH1 0x4 MSTORE PUSH1 0x24 PUSH1 0x0 REVERT JUMPDEST EQ DUP1 ISZERO PUSH2 0x918 JUMPI POP PUSH1 0x3 DUP1 DUP2 GT ISZERO PUSH2 0x8D8 JUMPI PUSH32 0x4E487B7100000000000000000000000000000000000000000000000000000000 PUSH1 0x0 MSTORE PUSH1 0x21 PUSH1 0x4 MSTORE PUSH1 0x24 PUSH1 0x0 REVERT JUMPDEST DUP4 PUSH1 0x20 ADD MLOAD PUSH1 0x3 DUP2 GT ISZERO PUSH2 0x915 JUMPI PUSH32 0x4E487B7100000000000000000000000000000000000000000000000000000000 PUSH1 0x0 MSTORE PUSH1 0x21 PUSH1 0x4 MSTORE PUSH1 0x24 PUSH1 0x0 REVERT JUMPDEST EQ ISZERO JUMPDEST ISZERO PUSH2 0x958 JUMPI PUSH1 0x40 MLOAD PUSH32 0x8C379A000000000000000000000000000000000000000000000000000000000 DUP2 MSTORE PUSH1 0x4 ADD PUSH2 0x94F SWAP1 PUSH2 0x1538 JUMP JUMPDEST PUSH1 0x40 MLOAD DUP1 SWAP2 SUB SWAP1 REVERT JUMPDEST PUSH1 0x3 DUP1 DUP2 GT ISZERO PUSH2 0x991 JUMPI PUSH32 0x4E487B7100000000000000000000000000000000000000000000000000000000 PUSH1 0x0 MSTORE PUSH1 0x21 PUSH1 0x4 MSTORE PUSH1 0x24 PUSH1 0x0 REVERT JUMPDEST DUP2 PUSH1 0x3 DUP2 GT ISZERO PUSH2 0x9CA JUMPI PUSH32 0x4E487B7100000000000000000000000000000000000000000000000000000000 PUSH1 0x0 MSTORE PUSH1 0x21 PUSH1 0x4 MSTORE PUSH1 0x24 PUSH1 0x0 REVERT JUMPDEST EQ ISZERO PUSH2 0xA0B JUMPI PUSH1 0x40 MLOAD PUSH32 0x8C379A000000000000000000000000000000000000000000000000000000000 DUP2 MSTORE PUSH1 0x4 ADD PUSH2 0xA02 SWAP1 PUSH2 0x1578 JUMP JUMPDEST PUSH1 0x40 MLOAD DUP1 SWAP2 SUB SWAP1 REVERT JUMPDEST JUMPDEST PUSH1 0x40 MLOAD DUP1 PUSH1 0x40 ADD PUSH1 0x40 MSTORE DUP1 DUP7 DUP2 MSTORE PUSH1 0x20 ADD DUP6 PUSH1 0x3 DUP2 GT ISZERO PUSH2 0xA56 JUMPI PUSH32 0x4E487B7100000000000000000000000000000000000000000000000000000000 PUSH1 0x0 MSTORE PUSH1 0x21 PUSH1 0x4 MSTORE PUSH1 0x24 PUSH1 0x0 REVERT JUMPDEST DUP2 MSTORE POP PUSH1 0x2 PUSH1 0x0 DUP9 PUSH20 0xFFFFFFFFFFFFFFFFFFFFFFFFFFFFFFFFFFFFFFFF AND PUSH20 0xFFFFFFFFFFFFFFFFFFFFFFFFFFFFFFFFFFFFFFFF AND DUP2 MSTORE PUSH1 0x20 ADD SWAP1 DUP2 MSTORE PUSH1 0x20 ADD PUSH1 0x0 KECCAK256 PUSH1 0x0 DUP3 ADD MLOAD DUP2 PUSH1 0x0 ADD SWAP1 DUP1 MLOAD SWAP1 PUSH1 0x20 ADD SWAP1 PUSH2 0xAB4 SWAP3 SWAP2 SWAP1 PUSH2 0xF8A JUMP JUMPDEST POP PUSH1 0x20 DUP3 ADD MLOAD DUP2 PUSH1 0x1 ADD PUSH1 0x0 PUSH2 0x100 EXP DUP2 SLOAD DUP2 PUSH1 0xFF MUL NOT AND SWAP1 DUP4 PUSH1 0x3 DUP2 GT ISZERO PUSH2 0xB06 JUMPI PUSH32 0x4E487B7100000000000000000000000000000000000000000000000000000000 PUSH1 0x0 MSTORE PUSH1 0x21 PUSH1 0x4 MSTORE PUSH1 0x24 PUSH1 0x0 REVERT JUMPDEST MUL OR SWAP1 SSTORE POP SWAP1 POP POP PUSH1 0x3 DUP7 SWAP1 DUP1 PUSH1 0x1 DUP2 SLOAD ADD DUP1 DUP3 SSTORE DUP1 SWAP2 POP POP PUSH1 0x1 SWAP1 SUB SWAP1 PUSH1 0x0 MSTORE PUSH1 0x20 PUSH1 0x0 KECCAK256 ADD PUSH1 0x0 SWAP1 SWAP2 SWAP1 SWAP2 SWAP1 SWAP2 PUSH2 0x100 EXP DUP2 SLOAD DUP2 PUSH20 0xFFFFFFFFFFFFFFFFFFFFFFFFFFFFFFFFFFFFFFFF MUL NOT AND SWAP1 DUP4 PUSH20 0xFFFFFFFFFFFFFFFFFFFFFFFFFFFFFFFFFFFFFFFF AND MUL OR SWAP1 SSTORE POP PUSH2 0xB7A DUP7 PUSH2 0xCBC JUMP JUMPDEST POP POP POP POP POP POP JUMP JUMPDEST PUSH1 0x0 DUP1 SLOAD SWAP1 PUSH2 0x100 EXP SWAP1 DIV PUSH20 0xFFFFFFFFFFFFFFFFFFFFFFFFFFFFFFFFFFFFFFFF AND PUSH20 0xFFFFFFFFFFFFFFFFFFFFFFFFFFFFFFFFFFFFFFFF AND CALLER PUSH20 0xFFFFFFFFFFFFFFFFFFFFFFFFFFFFFFFFFFFFFFFF AND EQ PUSH2 0xC10 JUMPI PUSH1 0x40 MLOAD PUSH32 0x8C379A000000000000000000000000000000000000000000000000000000000 DUP2 MSTORE PUSH1 0x4 ADD PUSH2 0xC07 SWAP1 PUSH2 0x1598 JUMP JUMPDEST PUSH1 0x40 MLOAD DUP1 SWAP2 SUB SWAP1 REVERT JUMPDEST PUSH1 0x0 PUSH1 0x1 PUSH1 0x0 DUP4 PUSH20 0xFFFFFFFFFFFFFFFFFFFFFFFFFFFFFFFFFFFFFFFF AND PUSH20 0xFFFFFFFFFFFFFFFFFFFFFFFFFFFFFFFFFFFFFFFF AND DUP2 MSTORE PUSH1 0x20 ADD SWAP1 DUP2 MSTORE PUSH1 0x20 ADD PUSH1 0x0 KECCAK256 PUSH1 0x0 PUSH2 0x100 EXP DUP2 SLOAD DUP2 PUSH1 0xFF MUL NOT AND SWAP1 DUP4 ISZERO ISZERO MUL OR SWAP1 SSTORE POP POP JUMP JUMPDEST PUSH1 0x0 DUP1 SLOAD SWAP1 PUSH2 0x100 EXP SWAP1 DIV PUSH20 0xFFFFFFFFFFFFFFFFFFFFFFFFFFFFFFFFFFFFFFFF AND DUP2 JUMP JUMPDEST PUSH1 0x1 PUSH1 0x20 MSTORE DUP1 PUSH1 0x0 MSTORE PUSH1 0x40 PUSH1 0x0 KECCAK256 PUSH1 0x0 SWAP2 POP SLOAD SWAP1 PUSH2 0x100 EXP SWAP1 DIV PUSH1 0xFF AND DUP2 JUMP JUMPDEST PUSH1 0x0 PUSH1 0x3 DUP1 SLOAD SWAP1 POP SWAP1 POP SWAP1 JUMP JUMPDEST PUSH1 0x1 DUP1 PUSH1 0x0 DUP4 PUSH20 0xFFFFFFFFFFFFFFFFFFFFFFFFFFFFFFFFFFFFFFFF AND PUSH20 0xFFFFFFFFFFFFFFFFFFFFFFFFFFFFFFFFFFFFFFFF AND DUP2 MSTORE PUSH1 0x20 ADD SWAP1 DUP2 MSTORE PUSH1 0x20 ADD PUSH1 0x0 KECCAK256 PUSH1 0x0 PUSH2 0x100 EXP DUP2 SLOAD DUP2 PUSH1 0xFF MUL NOT AND SWAP1 DUP4 ISZERO ISZERO MUL OR SWAP1 SSTORE POP POP JUMP JUMPDEST PUSH1 0x2 PUSH1 0x20 MSTORE DUP1 PUSH1 0x0 MSTORE PUSH1 0x40 PUSH1 0x0 KECCAK256 PUSH1 0x0 SWAP2 POP SWAP1 POP DUP1 PUSH1 0x0 ADD DUP1 SLOAD PUSH2 0xD39 SWAP1 PUSH2 0x1734 JUMP JUMPDEST DUP1 PUSH1 0x1F ADD PUSH1 0x20 DUP1 SWAP2 DIV MUL PUSH1 0x20 ADD PUSH1 0x40 MLOAD SWAP1 DUP2 ADD PUSH1 0x40 MSTORE DUP1 SWAP3 SWAP2 SWAP1 DUP2 DUP2 MSTORE PUSH1 0x20 ADD DUP3 DUP1 SLOAD PUSH2 0xD65 SWAP1 PUSH2 0x1734 JUMP JUMPDEST DUP1 ISZERO PUSH2 0xDB2 JUMPI DUP1 PUSH1 0x1F LT PUSH2 0xD87 JUMPI PUSH2 0x100 DUP1 DUP4 SLOAD DIV MUL DUP4 MSTORE SWAP2 PUSH1 0x20 ADD SWAP2 PUSH2 0xDB2 JUMP JUMPDEST DUP3 ADD SWAP2 SWAP1 PUSH1 0x0 MSTORE PUSH1 0x20 PUSH1 0x0 KECCAK256 SWAP1 JUMPDEST DUP2 SLOAD DUP2 MSTORE SWAP1 PUSH1 0x1 ADD SWAP1 PUSH1 0x20 ADD DUP1 DUP4 GT PUSH2 0xD95 JUMPI DUP3 SWAP1 SUB PUSH1 0x1F AND DUP3 ADD SWAP2 JUMPDEST POP POP POP POP POP SWAP1 DUP1 PUSH1 0x1 ADD PUSH1 0x0 SWAP1 SLOAD SWAP1 PUSH2 0x100 EXP SWAP1 DIV PUSH1 0xFF AND SWAP1 POP DUP3 JUMP JUMPDEST PUSH1 0x0 DUP1 SLOAD SWAP1 PUSH2 0x100 EXP SWAP1 DIV PUSH20 0xFFFFFFFFFFFFFFFFFFFFFFFFFFFFFFFFFFFFFFFF AND PUSH20 0xFFFFFFFFFFFFFFFFFFFFFFFFFFFFFFFFFFFFFFFF AND CALLER PUSH20 0xFFFFFFFFFFFFFFFFFFFFFFFFFFFFFFFFFFFFFFFF AND EQ PUSH2 0xE5D JUMPI PUSH1 0x40 MLOAD PUSH32 0x8C379A000000000000000000000000000000000000000000000000000000000 DUP2 MSTORE PUSH1 0x4 ADD PUSH2 0xE54 SWAP1 PUSH2 0x1598 JUMP JUMPDEST PUSH1 0x40 MLOAD DUP1 SWAP2 SUB SWAP1 REVERT JUMPDEST PUSH1 0x0 PUSH20 0xFFFFFFFFFFFFFFFFFFFFFFFFFFFFFFFFFFFFFFFF AND DUP2 PUSH20 0xFFFFFFFFFFFFFFFFFFFFFFFFFFFFFFFFFFFFFFFF AND EQ ISZERO PUSH2 0xECD JUMPI PUSH1 0x40 MLOAD PUSH32 0x8C379A000000000000000000000000000000000000000000000000000000000 DUP2 MSTORE PUSH1 0x4 ADD PUSH2 0xEC4 SWAP1 PUSH2 0x1518 JUMP JUMPDEST PUSH1 0x40 MLOAD DUP1 SWAP2 SUB SWAP1 REVERT JUMPDEST DUP1 PUSH20 0xFFFFFFFFFFFFFFFFFFFFFFFFFFFFFFFFFFFFFFFF AND PUSH1 0x0 DUP1 SLOAD SWAP1 PUSH2 0x100 EXP SWAP1 DIV PUSH20 0xFFFFFFFFFFFFFFFFFFFFFFFFFFFFFFFFFFFFFFFF AND PUSH20 0xFFFFFFFFFFFFFFFFFFFFFFFFFFFFFFFFFFFFFFFF AND PUSH32 0x8BE0079C531659141344CD1FD0A4F28419497F9722A3DAAFE3B4186F6B6457E0 PUSH1 0x40 MLOAD PUSH1 0x40 MLOAD DUP1 SWAP2 SUB SWAP1 LOG3 DUP1 PUSH1 0x0 DUP1 PUSH2 0x100 EXP DUP2 SLOAD DUP2 PUSH20 0xFFFFFFFFFFFFFFFFFFFFFFFFFFFFFFFFFFFFFFFF MUL NOT AND SWAP1 DUP4 PUSH20 0xFFFFFFFFFFFFFFFFFFFFFFFFFFFFFFFFFFFFFFFF AND MUL OR SWAP1 SSTORE POP POP JUMP JUMPDEST DUP3 DUP1 SLOAD PUSH2 0xF96 SWAP1 PUSH2 0x1734 JUMP JUMPDEST SWAP1 PUSH1 0x0 MSTORE PUSH1 0x20 PUSH1 0x0 KECCAK256 SWAP1 PUSH1 0x1F ADD PUSH1 0x20 SWAP1 DIV DUP2 ADD SWAP3 DUP3 PUSH2 0xFB8 JUMPI PUSH1 0x0 DUP6 SSTORE PUSH2 0xFFF JUMP JUMPDEST DUP3 PUSH1 0x1F LT PUSH2 0xFD1 JUMPI DUP1 MLOAD PUSH1 0xFF NOT AND DUP4 DUP1 ADD OR DUP6 SSTORE PUSH2 0xFFF JUMP JUMPDEST DUP3 DUP1 ADD PUSH1 0x1 ADD DUP6 SSTORE DUP3 ISZERO PUSH2 0xFFF JUMPI SWAP2 DUP3 ADD JUMPDEST DUP3 DUP2 GT ISZERO PUSH2 0xFFE JUMPI DUP3 MLOAD DUP3 SSTORE SWAP2 PUSH1 0x20 ADD SWAP2 SWAP1 PUSH1 0x1 ADD SWAP1 PUSH2 0xFE3 JUMP JUMPDEST JUMPDEST POP SWAP1 POP PUSH2 0x100C SWAP2 SWAP1 PUSH2 0x1010 JUMP JUMPDEST POP SWAP1 JUMP JUMPDEST JUMPDEST DUP1 DUP3 GT ISZERO PUSH2 0x1029 JUMPI PUSH1 0x0 DUP2 PUSH1 0x0 SWAP1 SSTORE POP PUSH1 0x1 ADD PUSH2 0x1011 JUMP JUMPDEST POP SWAP1 JUMP JUMPDEST PUSH1 0x0 PUSH2 0x1040 PUSH2 0x103B DUP5 PUSH2 0x1624 JUMP JUMPDEST PUSH2 0x15F3 JUMP JUMPDEST SWAP1 POP DUP3 DUP2 MSTORE PUSH1 0x20 DUP2 ADD DUP5 DUP5 DUP5 ADD GT ISZERO PUSH2 0x1058 JUMPI PUSH1 0x0 DUP1 REVERT JUMPDEST PUSH2 0x1063 DUP5 DUP3 DUP6 PUSH2 0x16F2 JUMP JUMPDEST POP SWAP4 SWAP3 POP POP POP JUMP JUMPDEST PUSH1 0x0 DUP2 CALLDATALOAD SWAP1 POP PUSH2 0x107A DUP2 PUSH2 0x1818 JUMP JUMPDEST SWAP3 SWAP2 POP POP JUMP JUMPDEST PUSH1 0x0 DUP2 CALLDATALOAD SWAP1 POP PUSH2 0x108F DUP2 PUSH2 0x182F JUMP JUMPDEST SWAP3 SWAP2 POP POP JUMP JUMPDEST PUSH1 0x0 DUP3 PUSH1 0x1F DUP4 ADD SLT PUSH2 0x10A6 JUMPI PUSH1 0x0 DUP1 REVERT JUMPDEST DUP2 CALLDATALOAD PUSH2 0x10B6 DUP5 DUP3 PUSH1 0x20 DUP7 ADD PUSH2 0x102D JUMP JUMPDEST SWAP2 POP POP SWAP3 SWAP2 POP POP JUMP JUMPDEST PUSH1 0x0 DUP2 CALLDATALOAD SWAP1 POP PUSH2 0x10CE DUP2 PUSH2 0x183F JUMP JUMPDEST SWAP3 SWAP2 POP POP JUMP JUMPDEST PUSH1 0x0 PUSH1 0x20 DUP3 DUP5 SUB SLT ISZERO PUSH2 0x10E6 JUMPI PUSH1 0x0 DUP1 REVERT JUMPDEST PUSH1 0x0 PUSH2 0x10F4 DUP5 DUP3 DUP6 ADD PUSH2 0x106B JUMP JUMPDEST SWAP2 POP POP SWAP3 SWAP2 POP POP JUMP JUMPDEST PUSH1 0x0 DUP1 PUSH1 0x0 PUSH1 0x60 DUP5 DUP7 SUB SLT ISZERO PUSH2 0x1112 JUMPI PUSH1 0x0 DUP1 REVERT JUMPDEST PUSH1 0x0 PUSH2 0x1120 DUP7 DUP3 DUP8 ADD PUSH2 0x106B JUMP JUMPDEST SWAP4 POP POP PUSH1 0x20 DUP5 ADD CALLDATALOAD PUSH8 0xFFFFFFFFFFFFFFFF DUP2 GT ISZERO PUSH2 0x113D JUMPI PUSH1 0x0 DUP1 REVERT JUMPDEST PUSH2 0x1149 DUP7 DUP3 DUP8 ADD PUSH2 0x1095 JUMP JUMPDEST SWAP3 POP POP PUSH1 0x40 PUSH2 0x115A DUP7 DUP3 DUP8 ADD PUSH2 0x1080 JUMP JUMPDEST SWAP2 POP POP SWAP3 POP SWAP3 POP SWAP3 JUMP JUMPDEST PUSH1 0x0 PUSH1 0x20 DUP3 DUP5 SUB SLT ISZERO PUSH2 0x1176 JUMPI PUSH1 0x0 DUP1 REVERT JUMPDEST PUSH1 0x0 PUSH2 0x1184 DUP5 DUP3 DUP6 ADD PUSH2 0x10BF JUMP JUMPDEST SWAP2 POP POP SWAP3 SWAP2 POP POP JUMP JUMPDEST PUSH2 0x1196 DUP2 PUSH2 0x1685 JUMP JUMPDEST DUP3 MSTORE POP POP JUMP JUMPDEST PUSH2 0x11A5 DUP2 PUSH2 0x1697 JUMP JUMPDEST DUP3 MSTORE POP POP JUMP JUMPDEST PUSH2 0x11B4 DUP2 PUSH2 0x16E0 JUMP JUMPDEST DUP3 MSTORE POP POP JUMP JUMPDEST PUSH1 0x0 PUSH2 0x11C5 DUP3 PUSH2 0x1669 JUMP JUMPDEST PUSH2 0x11CF DUP2 DUP6 PUSH2 0x1674 JUMP JUMPDEST SWAP4 POP PUSH2 0x11DF DUP2 DUP6 PUSH1 0x20 DUP7 ADD PUSH2 0x1701 JUMP JUMPDEST PUSH2 0x11E8 DUP2 PUSH2 0x17F3 JUMP JUMPDEST DUP5 ADD SWAP2 POP POP SWAP3 SWAP2 POP POP JUMP JUMPDEST PUSH1 0x0 DUP2 SLOAD PUSH2 0x1200 DUP2 PUSH2 0x1734 JUMP JUMPDEST PUSH2 0x120A DUP2 DUP7 PUSH2 0x1674 JUMP JUMPDEST SWAP5 POP PUSH1 0x1 DUP3 AND PUSH1 0x0 DUP2 EQ PUSH2 0x1225 JUMPI PUSH1 0x1 DUP2 EQ PUSH2 0x1237 JUMPI PUSH2 0x126A JUMP JUMPDEST PUSH1 0xFF NOT DUP4 AND DUP7 MSTORE PUSH1 0x20 DUP7 ADD SWAP4 POP PUSH2 0x126A JUMP JUMPDEST PUSH2 0x1240 DUP6 PUSH2 0x1654 JUMP JUMPDEST PUSH1 0x0 JUMPDEST DUP4 DUP2 LT ISZERO PUSH2 0x1262 JUMPI DUP2 SLOAD DUP2 DUP10 ADD MSTORE PUSH1 0x1 DUP3 ADD SWAP2 POP PUSH1 0x20 DUP2 ADD SWAP1 POP PUSH2 0x1243 JUMP JUMPDEST DUP1 DUP9 ADD SWAP6 POP POP POP JUMPDEST POP POP POP SWAP3 SWAP2 POP POP JUMP JUMPDEST PUSH1 0x0 PUSH2 0x1280 PUSH1 0x19 DUP4 PUSH2 0x1674 JUMP JUMPDEST SWAP2 POP PUSH32 0x416464726573732073686F756C646E2774206265207A65726F00000000000000 PUSH1 0x0 DUP4 ADD MSTORE PUSH1 0x20 DUP3 ADD SWAP1 POP SWAP2 SWAP1 POP JUMP JUMPDEST PUSH1 0x0 PUSH2 0x12C0 PUSH1 0x2D DUP4 PUSH2 0x1674 JUMP JUMPDEST SWAP2 POP PUSH32 0x43616E6E6F7420616464206D616E756661637475726572206F7220737570706C PUSH1 0x0 DUP4 ADD MSTORE PUSH32 0x696572206F722076656E646F7200000000000000000000000000000000000000 PUSH1 0x20 DUP4 ADD MSTORE PUSH1 0x40 DUP3 ADD SWAP1 POP SWAP2 SWAP1 POP JUMP JUMPDEST PUSH1 0x0 PUSH2 0x1326 PUSH1 0x2F DUP4 PUSH2 0x1674 JUMP JUMPDEST SWAP2 POP PUSH32 0x43616E6E6F7420616464206D616E756661637475726572206F7220637573746F PUSH1 0x0 DUP4 ADD MSTORE PUSH32 0x6D6572206F7220737570706C6965720000000000000000000000000000000000 PUSH1 0x20 DUP4 ADD MSTORE PUSH1 0x40 DUP3 ADD SWAP1 POP SWAP2 SWAP1 POP JUMP JUMPDEST PUSH1 0x0 PUSH2 0x138C PUSH1 0x13 DUP4 PUSH2 0x1674 JUMP JUMPDEST SWAP2 POP PUSH32 0x43616E6E6F742061646420616E206163746F7200000000000000000000000000 PUSH1 0x0 DUP4 ADD MSTORE PUSH1 0x20 DUP3 ADD SWAP1 POP SWAP2 SWAP1 POP JUMP JUMPDEST PUSH1 0x0 PUSH2 0x13CC PUSH1 0x18 DUP4 PUSH2 0x1674 JUMP JUMPDEST SWAP2 POP PUSH32 0x4E6F7420617574686F72697A6564206F7065726174696F6E0000000000000000 PUSH1 0x0 DUP4 ADD MSTORE PUSH1 0x20 DUP3 ADD SWAP1 POP SWAP2 SWAP1 POP JUMP JUMPDEST PUSH1 0x0 PUSH2 0x140C PUSH1 0x2F DUP4 PUSH2 0x1674 JUMP JUMPDEST SWAP2 POP PUSH32 0x43616E6E6F7420616464206D616E756661637475726572206F7220737570706C PUSH1 0x0 DUP4 ADD MSTORE PUSH32 0x696572206F7220637573746F6D65720000000000000000000000000000000000 PUSH1 0x20 DUP4 ADD MSTORE PUSH1 0x40 DUP3 ADD SWAP1 POP SWAP2 SWAP1 POP JUMP JUMPDEST PUSH2 0x146E DUP2 PUSH2 0x16D6 JUMP JUMPDEST DUP3 MSTORE POP POP JUMP JUMPDEST PUSH1 0x0 PUSH1 0x20 DUP3 ADD SWAP1 POP PUSH2 0x1489 PUSH1 0x0 DUP4 ADD DUP5 PUSH2 0x118D JUMP JUMPDEST SWAP3 SWAP2 POP POP JUMP JUMPDEST PUSH1 0x0 PUSH1 0x60 DUP3 ADD SWAP1 POP PUSH2 0x14A4 PUSH1 0x0 DUP4 ADD DUP7 PUSH2 0x118D JUMP JUMPDEST DUP2 DUP2 SUB PUSH1 0x20 DUP4 ADD MSTORE PUSH2 0x14B6 DUP2 DUP6 PUSH2 0x11F3 JUMP JUMPDEST SWAP1 POP PUSH2 0x14C5 PUSH1 0x40 DUP4 ADD DUP5 PUSH2 0x11AB JUMP JUMPDEST SWAP5 SWAP4 POP POP POP POP JUMP JUMPDEST PUSH1 0x0 PUSH1 0x20 DUP3 ADD SWAP1 POP PUSH2 0x14E2 PUSH1 0x0 DUP4 ADD DUP5 PUSH2 0x119C JUMP JUMPDEST SWAP3 SWAP2 POP POP JUMP JUMPDEST PUSH1 0x0 PUSH1 0x40 DUP3 ADD SWAP1 POP DUP2 DUP2 SUB PUSH1 0x0 DUP4 ADD MSTORE PUSH2 0x1502 DUP2 DUP6 PUSH2 0x11BA JUMP JUMPDEST SWAP1 POP PUSH2 0x1511 PUSH1 0x20 DUP4 ADD DUP5 PUSH2 0x11AB JUMP JUMPDEST SWAP4 SWAP3 POP POP POP JUMP JUMPDEST PUSH1 0x0 PUSH1 0x20 DUP3 ADD SWAP1 POP DUP2 DUP2 SUB PUSH1 0x0 DUP4 ADD MSTORE PUSH2 0x1531 DUP2 PUSH2 0x1273 JUMP JUMPDEST SWAP1 POP SWAP2 SWAP1 POP JUMP JUMPDEST PUSH1 0x0 PUSH1 0x20 DUP3 ADD SWAP1 POP DUP2 DUP2 SUB PUSH1 0x0 DUP4 ADD MSTORE PUSH2 0x1551 DUP2 PUSH2 0x12B3 JUMP JUMPDEST SWAP1 POP SWAP2 SWAP1 POP JUMP JUMPDEST PUSH1 0x0 PUSH1 0x20 DUP3 ADD SWAP1 POP DUP2 DUP2 SUB PUSH1 0x0 DUP4 ADD MSTORE PUSH2 0x1571 DUP2 PUSH2 0x1319 JUMP JUMPDEST SWAP1 POP SWAP2 SWAP1 POP JUMP JUMPDEST PUSH1 0x0 PUSH1 0x20 DUP3 ADD SWAP1 POP DUP2 DUP2 SUB PUSH1 0x0 DUP4 ADD MSTORE PUSH2 0x1591 DUP2 PUSH2 0x137F JUMP JUMPDEST SWAP1 POP SWAP2 SWAP1 POP JUMP JUMPDEST PUSH1 0x0 PUSH1 0x20 DUP3 ADD SWAP1 POP DUP2 DUP2 SUB PUSH1 0x0 DUP4 ADD MSTORE PUSH2 0x15B1 DUP2 PUSH2 0x13BF JUMP JUMPDEST SWAP1 POP SWAP2 SWAP1 POP JUMP JUMPDEST PUSH1 0x0 PUSH1 0x20 DUP3 ADD SWAP1 POP DUP2 DUP2 SUB PUSH1 0x0 DUP4 ADD MSTORE PUSH2 0x15D1 DUP2 PUSH2 0x13FF JUMP JUMPDEST SWAP1 POP SWAP2 SWAP1 POP JUMP JUMPDEST PUSH1 0x0 PUSH1 0x20 DUP3 ADD SWAP1 POP PUSH2 0x15ED PUSH1 0x0 DUP4 ADD DUP5 PUSH2 0x1465 JUMP JUMPDEST SWAP3 SWAP2 POP POP JUMP JUMPDEST PUSH1 0x0 PUSH1 0x40 MLOAD SWAP1 POP DUP2 DUP2 ADD DUP2 DUP2 LT PUSH8 0xFFFFFFFFFFFFFFFF DUP3 GT OR ISZERO PUSH2 0x161A JUMPI PUSH2 0x1619 PUSH2 0x17C4 JUMP JUMPDEST JUMPDEST DUP1 PUSH1 0x40 MSTORE POP SWAP2 SWAP1 POP JUMP JUMPDEST PUSH1 0x0 PUSH8 0xFFFFFFFFFFFFFFFF DUP3 GT ISZERO PUSH2 0x163F JUMPI PUSH2 0x163E PUSH2 0x17C4 JUMP JUMPDEST JUMPDEST PUSH1 0x1F NOT PUSH1 0x1F DUP4 ADD AND SWAP1 POP PUSH1 0x20 DUP2 ADD SWAP1 POP SWAP2 SWAP1 POP JUMP JUMPDEST PUSH1 0x0 DUP2 SWAP1 POP DUP2 PUSH1 0x0 MSTORE PUSH1 0x20 PUSH1 0x0 KECCAK256 SWAP1 POP SWAP2 SWAP1 POP JUMP JUMPDEST PUSH1 0x0 DUP2 MLOAD SWAP1 POP SWAP2 SWAP1 POP JUMP JUMPDEST PUSH1 0x0 DUP3 DUP3 MSTORE PUSH1 0x20 DUP3 ADD SWAP1 POP SWAP3 SWAP2 POP POP JUMP JUMPDEST PUSH1 0x0 PUSH2 0x1690 DUP3 PUSH2 0x16B6 JUMP JUMPDEST SWAP1 POP SWAP2 SWAP1 POP JUMP JUMPDEST PUSH1 0x0 DUP2 ISZERO ISZERO SWAP1 POP SWAP2 SWAP1 POP JUMP JUMPDEST PUSH1 0x0 DUP2 SWAP1 POP PUSH2 0x16B1 DUP3 PUSH2 0x1804 JUMP JUMPDEST SWAP2 SWAP1 POP JUMP JUMPDEST PUSH1 0x0 PUSH20 0xFFFFFFFFFFFFFFFFFFFFFFFFFFFFFFFFFFFFFFFF DUP3 AND SWAP1 POP SWAP2 SWAP1 POP JUMP JUMPDEST PUSH1 0x0 DUP2 SWAP1 POP SWAP2 SWAP1 POP JUMP JUMPDEST PUSH1 0x0 PUSH2 0x16EB DUP3 PUSH2 0x16A3 JUMP JUMPDEST SWAP1 POP SWAP2 SWAP1 POP JUMP JUMPDEST DUP3 DUP2 DUP4 CALLDATACOPY PUSH1 0x0 DUP4 DUP4 ADD MSTORE POP POP POP JUMP JUMPDEST PUSH1 0x0 JUMPDEST DUP4 DUP2 LT ISZERO PUSH2 0x171F JUMPI DUP1 DUP3 ADD MLOAD DUP2 DUP5 ADD MSTORE PUSH1 0x20 DUP2 ADD SWAP1 POP PUSH2 0x1704 JUMP JUMPDEST DUP4 DUP2 GT ISZERO PUSH2 0x172E JUMPI PUSH1 0x0 DUP5 DUP5 ADD MSTORE JUMPDEST POP POP POP POP JUMP JUMPDEST PUSH1 0x0 PUSH1 0x2 DUP3 DIV SWAP1 POP PUSH1 0x1 DUP3 AND DUP1 PUSH2 0x174C JUMPI PUSH1 0x7F DUP3 AND SWAP2 POP JUMPDEST PUSH1 0x20 DUP3 LT DUP2 EQ ISZERO PUSH2 0x1760 JUMPI PUSH2 0x175F PUSH2 0x1795 JUMP JUMPDEST JUMPDEST POP SWAP2 SWAP1 POP JUMP JUMPDEST PUSH32 0x4E487B7100000000000000000000000000000000000000000000000000000000 PUSH1 0x0 MSTORE PUSH1 0x21 PUSH1 0x4 MSTORE PUSH1 0x24 PUSH1 0x0 REVERT JUMPDEST PUSH32 0x4E487B7100000000000000000000000000000000000000000000000000000000 PUSH1 0x0 MSTORE PUSH1 0x22 PUSH1 0x4 MSTORE PUSH1 0x24 PUSH1 0x0 REVERT JUMPDEST PUSH32 0x4E487B7100000000000000000000000000000000000000000000000000000000 PUSH1 0x0 MSTORE PUSH1 0x41 PUSH1 0x4 MSTORE PUSH1 0x24 PUSH1 0x0 REVERT JUMPDEST PUSH1 0x0 PUSH1 0x1F NOT PUSH1 0x1F DUP4 ADD AND SWAP1 POP SWAP2 SWAP1 POP JUMP JUMPDEST PUSH1 0x4 DUP2 LT PUSH2 0x1815 JUMPI PUSH2 0x1814 PUSH2 0x1766 JUMP JUMPDEST JUMPDEST POP JUMP JUMPDEST PUSH2 0x1821 DUP2 PUSH2 0x1685 JUMP JUMPDEST DUP2 EQ PUSH2 0x182C JUMPI PUSH1 0x0 DUP1 REVERT JUMPDEST POP JUMP JUMPDEST PUSH1 0x4 DUP2 LT PUSH2 0x183C JUMPI PUSH1 0x0 DUP1 REVERT JUMPDEST POP JUMP JUMPDEST PUSH2 0x1848 DUP2 PUSH2 0x16D6 JUMP JUMPDEST DUP2 EQ PUSH2 0x1853 JUMPI PUSH1 0x0 DUP1 REVERT JUMPDEST POP JUMP INVALID LOG2 PUSH5 0x6970667358 0x22 SLT KECCAK256 0xAB SWAP16 CALLVALUE 0xE0 0xCD PC 0xA6 0xD9 GASPRICE 0xBF REVERT 0xE5 MOD 0xEE 0xE8 RETURNDATACOPY ADDMOD 0xE4 PUSH4 0xA9F2FABA 0xDC MSTORE8 0xB6 NUMBER NUMBER PUSH22 0x1A038664736F6C634300080000330000000000000000 "
				},
				"gasEstimates": {
					"creation": {
						"codeDepositCost": "1256800",
						"executionCost": "22174",
						"totalCost": "1278974"
					},
					"external": {
						"actors(address)": "infinite",
						"addToWhitelist(address)": "21456",
						"addUser(address,string,uint8)": "infinite",
						"getUsersCount()": "1167",
						"owner()": "1278",
						"removeFromWhitelist(address)": "22324",
						"transferOwnership(address)": "24693",
						"users(uint256)": "2357",
						"whitelist(address)": "1545"
					}
				},
				"methodIdentifiers": {
					"actors(address)": "eaa66a3c",
					"addToWhitelist(address)": "e43252d7",
					"addUser(address,string,uint8)": "40d26854",
					"getUsersCount()": "a4a1e263",
					"owner()": "8da5cb5b",
					"removeFromWhitelist(address)": "8ab1d681",
					"transferOwnership(address)": "f2fde38b",
					"users(uint256)": "365b98b2",
					"whitelist(address)": "9b19251a"
				}
			},
			"storageLayout": {
				"storage": [
					{
						"astId": 4,
						"contract": "contracts/Users.sol:Users",
						"label": "owner",
						"offset": 0,
						"slot": "0",
						"type": "t_address"
					},
					{
						"astId": 541,
						"contract": "contracts/Users.sol:Users",
						"label": "whitelist",
						"offset": 0,
						"slot": "1",
						"type": "t_mapping(t_address,t_bool)"
					},
					{
						"astId": 364,
						"contract": "contracts/Users.sol:Users",
						"label": "actors",
						"offset": 0,
						"slot": "2",
						"type": "t_mapping(t_address,t_struct(Actor)341_storage)"
					},
					{
						"astId": 376,
						"contract": "contracts/Users.sol:Users",
						"label": "users",
						"offset": 0,
						"slot": "3",
						"type": "t_array(t_address)dyn_storage"
					}
				],
				"types": {
					"t_address": {
						"encoding": "inplace",
						"label": "address",
						"numberOfBytes": "20"
					},
					"t_array(t_address)dyn_storage": {
						"base": "t_address",
						"encoding": "dynamic_array",
						"label": "address[]",
						"numberOfBytes": "32"
					},
					"t_bool": {
						"encoding": "inplace",
						"label": "bool",
						"numberOfBytes": "1"
					},
					"t_enum(Role)359": {
						"encoding": "inplace",
						"label": "enum Users.Role",
						"numberOfBytes": "1"
					},
					"t_mapping(t_address,t_bool)": {
						"encoding": "mapping",
						"key": "t_address",
						"label": "mapping(address => bool)",
						"numberOfBytes": "32",
						"value": "t_bool"
					},
					"t_mapping(t_address,t_struct(Actor)341_storage)": {
						"encoding": "mapping",
						"key": "t_address",
						"label": "mapping(address => struct Users.Actor)",
						"numberOfBytes": "32",
						"value": "t_struct(Actor)341_storage"
					},
					"t_string_storage": {
						"encoding": "bytes",
						"label": "string",
						"numberOfBytes": "32"
					},
					"t_struct(Actor)341_storage": {
						"encoding": "inplace",
						"label": "struct Users.Actor",
						"members": [
							{
								"astId": 337,
								"contract": "contracts/Users.sol:Users",
								"label": "name",
								"offset": 0,
								"slot": "0",
								"type": "t_string_storage"
							},
							{
								"astId": 340,
								"contract": "contracts/Users.sol:Users",
								"label": "roles",
								"offset": 0,
								"slot": "1",
								"type": "t_enum(Role)359"
							}
						],
						"numberOfBytes": "64"
					}
				}
			},
			"userdoc": {
				"kind": "user",
				"methods": {},
				"version": 1
			}
		}
	}
}