{
	"contracts/Products.sol": {
		"Product": {
			"abi": [
				{
					"anonymous": false,
					"inputs": [
						{
							"indexed": true,
							"internalType": "address",
							"name": "_beneficiary",
							"type": "address"
						}
					],
					"name": "AddedBeneficiary",
					"type": "event"
				},
				{
					"anonymous": false,
					"inputs": [
						{
							"indexed": true,
							"internalType": "address",
							"name": "previousOwner",
							"type": "address"
						},
						{
							"indexed": true,
							"internalType": "address",
							"name": "newOwner",
							"type": "address"
						}
					],
					"name": "OwnershipTransferred",
					"type": "event"
				},
				{
					"anonymous": false,
					"inputs": [
						{
							"indexed": false,
							"internalType": "address",
							"name": "id",
							"type": "address"
						},
						{
							"indexed": false,
							"internalType": "string",
							"name": "name",
							"type": "string"
						},
						{
							"indexed": false,
							"internalType": "enum Users.Role",
							"name": "role",
							"type": "uint8"
						}
					],
					"name": "actorCast",
					"type": "event"
				},
				{
					"inputs": [
						{
							"internalType": "address",
							"name": "",
							"type": "address"
						}
					],
					"name": "actors",
					"outputs": [
						{
							"internalType": "string",
							"name": "name",
							"type": "string"
						},
						{
							"internalType": "enum Users.Role",
							"name": "roles",
							"type": "uint8"
						}
					],
					"stateMutability": "view",
					"type": "function"
				},
				{
					"inputs": [
						{
							"internalType": "string",
							"name": "nameProduct",
							"type": "string"
						},
						{
							"internalType": "uint256",
							"name": "nbBatch",
							"type": "uint256"
						},
						{
							"internalType": "uint256",
							"name": "nbProductsPerBatch",
							"type": "uint256"
						}
					],
					"name": "addProduct",
					"outputs": [],
					"stateMutability": "nonpayable",
					"type": "function"
				},
				{
					"inputs": [
						{
							"internalType": "address",
							"name": "_beneficiaries",
							"type": "address"
						}
					],
					"name": "addToWhitelist",
					"outputs": [],
					"stateMutability": "nonpayable",
					"type": "function"
				},
				{
					"inputs": [
						{
							"internalType": "address",
							"name": "id",
							"type": "address"
						},
						{
							"internalType": "string",
							"name": "name",
							"type": "string"
						},
						{
							"internalType": "enum Users.Role",
							"name": "role",
							"type": "uint8"
						}
					],
					"name": "addUser",
					"outputs": [],
					"stateMutability": "nonpayable",
					"type": "function"
				},
				{
					"inputs": [],
					"name": "getUsersCount",
					"outputs": [
						{
							"internalType": "uint256",
							"name": "",
							"type": "uint256"
						}
					],
					"stateMutability": "view",
					"type": "function"
				},
				{
					"inputs": [],
					"name": "owner",
					"outputs": [
						{
							"internalType": "address",
							"name": "",
							"type": "address"
						}
					],
					"stateMutability": "view",
					"type": "function"
				},
				{
					"inputs": [
						{
							"internalType": "uint256",
							"name": "",
							"type": "uint256"
						}
					],
					"name": "products",
					"outputs": [
						{
							"internalType": "uint256",
							"name": "id",
							"type": "uint256"
						},
						{
							"internalType": "string",
							"name": "nameProduct",
							"type": "string"
						},
						{
							"internalType": "uint256",
							"name": "nbBatch",
							"type": "uint256"
						},
						{
							"internalType": "uint256",
							"name": "nbProductsPerBatch",
							"type": "uint256"
						},
						{
							"internalType": "address",
							"name": "lastOwner",
							"type": "address"
						},
						{
							"internalType": "uint256",
							"name": "buyingDate",
							"type": "uint256"
						}
					],
					"stateMutability": "view",
					"type": "function"
				},
				{
					"inputs": [
						{
							"internalType": "address",
							"name": "_beneficiary",
							"type": "address"
						}
					],
					"name": "removeFromWhitelist",
					"outputs": [],
					"stateMutability": "nonpayable",
					"type": "function"
				},
				{
					"inputs": [],
					"name": "seeAllProdducts",
					"outputs": [
						{
							"components": [
								{
									"internalType": "uint256",
									"name": "id",
									"type": "uint256"
								},
								{
									"internalType": "string",
									"name": "nameProduct",
									"type": "string"
								},
								{
									"internalType": "uint256",
									"name": "nbBatch",
									"type": "uint256"
								},
								{
									"internalType": "uint256",
									"name": "nbProductsPerBatch",
									"type": "uint256"
								},
								{
									"internalType": "address",
									"name": "lastOwner",
									"type": "address"
								},
								{
									"internalType": "uint256",
									"name": "buyingDate",
									"type": "uint256"
								}
							],
							"internalType": "struct Users.Products[]",
							"name": "productList",
							"type": "tuple[]"
						}
					],
					"stateMutability": "view",
					"type": "function"
				},
				{
					"inputs": [
						{
							"internalType": "address",
							"name": "newOwner",
							"type": "address"
						}
					],
					"name": "transferOwnership",
					"outputs": [],
					"stateMutability": "nonpayable",
					"type": "function"
				},
				{
					"inputs": [
						{
							"internalType": "uint256",
							"name": "_productId",
							"type": "uint256"
						},
						{
							"internalType": "address",
							"name": "_newOwner",
							"type": "address"
						}
					],
					"name": "transferProductOwnership",
					"outputs": [],
					"stateMutability": "nonpayable",
					"type": "function"
				},
				{
					"inputs": [
						{
							"internalType": "uint256",
							"name": "",
							"type": "uint256"
						}
					],
					"name": "users",
					"outputs": [
						{
							"internalType": "address",
							"name": "",
							"type": "address"
						}
					],
					"stateMutability": "view",
					"type": "function"
				},
				{
					"inputs": [
						{
							"internalType": "address",
							"name": "",
							"type": "address"
						}
					],
					"name": "whitelist",
					"outputs": [
						{
							"internalType": "bool",
							"name": "",
							"type": "bool"
						}
					],
					"stateMutability": "view",
					"type": "function"
				}
			],
			"devdoc": {
				"kind": "dev",
				"methods": {
					"addToWhitelist(address)": {
						"details": "Adds list of addresses to whitelist. Not overloaded due to limitations with truffle testing.",
						"params": {
							"_beneficiaries": "Addresses to be added to the whitelist"
						}
					},
					"removeFromWhitelist(address)": {
						"details": "Removes single address from whitelist.",
						"params": {
							"_beneficiary": "Address to be removed to the whitelist"
						}
					},
					"transferOwnership(address)": {
						"details": "Allows the current owner to transfer control of the contract to a newOwner.",
						"params": {
							"newOwner": "The address to transfer ownership to."
						}
					}
				},
				"version": 1
			},
			"evm": {
				"assembly": "    /* \"contracts/Products.sol\":134:2333  contract Product is Ownable, Users {... */\n  mstore(0x40, 0x80)\n  callvalue\n  dup1\n  iszero\n  tag_1\n  jumpi\n  0x00\n  dup1\n  revert\ntag_1:\n  pop\n    /* \"contracts/Owner.sol\":557:567  msg.sender */\n  caller\n    /* \"contracts/Owner.sol\":549:554  owner */\n  0x00\n  dup1\n    /* \"contracts/Owner.sol\":549:567  owner = msg.sender */\n  0x0100\n  exp\n  dup2\n  sload\n  dup2\n  0xffffffffffffffffffffffffffffffffffffffff\n  mul\n  not\n  and\n  swap1\n  dup4\n  0xffffffffffffffffffffffffffffffffffffffff\n  and\n  mul\n  or\n  swap1\n  sstore\n  pop\n    /* \"contracts/Products.sol\":134:2333  contract Product is Ownable, Users {... */\n  dataSize(sub_0)\n  dup1\n  dataOffset(sub_0)\n  0x00\n  codecopy\n  0x00\n  return\nstop\n\nsub_0: assembly {\n        /* \"contracts/Products.sol\":134:2333  contract Product is Ownable, Users {... */\n      mstore(0x40, 0x80)\n      callvalue\n      dup1\n      iszero\n      tag_1\n      jumpi\n      0x00\n      dup1\n      revert\n    tag_1:\n      pop\n      jumpi(tag_2, lt(calldatasize, 0x04))\n      shr(0xe0, calldataload(0x00))\n      dup1\n      0x8da5cb5b\n      gt\n      tag_16\n      jumpi\n      dup1\n      0xd38e8db7\n      gt\n      tag_17\n      jumpi\n      dup1\n      0xd38e8db7\n      eq\n      tag_12\n      jumpi\n      dup1\n      0xe43252d7\n      eq\n      tag_13\n      jumpi\n      dup1\n      0xeaa66a3c\n      eq\n      tag_14\n      jumpi\n      dup1\n      0xf2fde38b\n      eq\n      tag_15\n      jumpi\n      jump(tag_2)\n    tag_17:\n      dup1\n      0x8da5cb5b\n      eq\n      tag_9\n      jumpi\n      dup1\n      0x9b19251a\n      eq\n      tag_10\n      jumpi\n      dup1\n      0xa4a1e263\n      eq\n      tag_11\n      jumpi\n      jump(tag_2)\n    tag_16:\n      dup1\n      0x125b0b34\n      eq\n      tag_3\n      jumpi\n      dup1\n      0x365b98b2\n      eq\n      tag_4\n      jumpi\n      dup1\n      0x40d26854\n      eq\n      tag_5\n      jumpi\n      dup1\n      0x7acc0b20\n      eq\n      tag_6\n      jumpi\n      dup1\n      0x86b0e812\n      eq\n      tag_7\n      jumpi\n      dup1\n      0x8ab1d681\n      eq\n      tag_8\n      jumpi\n    tag_2:\n      0x00\n      dup1\n      revert\n        /* \"contracts/Products.sol\":209:752  function addProduct(string memory nameProduct, uint nbBatch, uint nbProductsPerBatch) public {... */\n    tag_3:\n      tag_18\n      0x04\n      dup1\n      calldatasize\n      sub\n      dup2\n      add\n      swap1\n      tag_19\n      swap2\n      swap1\n      tag_20\n      jump\t// in\n    tag_19:\n      tag_21\n      jump\t// in\n    tag_18:\n      stop\n        /* \"contracts/Users.sol\":683:705  address[] public users */\n    tag_4:\n      tag_22\n      0x04\n      dup1\n      calldatasize\n      sub\n      dup2\n      add\n      swap1\n      tag_23\n      swap2\n      swap1\n      tag_24\n      jump\t// in\n    tag_23:\n      tag_25\n      jump\t// in\n    tag_22:\n      mload(0x40)\n      tag_26\n      swap2\n      swap1\n      tag_27\n      jump\t// in\n    tag_26:\n      mload(0x40)\n      dup1\n      swap2\n      sub\n      swap1\n      return\n        /* \"contracts/Users.sol\":742:1749  function addUser(address id, string memory name, Role role) public {... */\n    tag_5:\n      tag_28\n      0x04\n      dup1\n      calldatasize\n      sub\n      dup2\n      add\n      swap1\n      tag_29\n      swap2\n      swap1\n      tag_30\n      jump\t// in\n    tag_29:\n      tag_31\n      jump\t// in\n    tag_28:\n      stop\n        /* \"contracts/Products.sol\":176:202  Products[] public products */\n    tag_6:\n      tag_32\n      0x04\n      dup1\n      calldatasize\n      sub\n      dup2\n      add\n      swap1\n      tag_33\n      swap2\n      swap1\n      tag_24\n      jump\t// in\n    tag_33:\n      tag_34\n      jump\t// in\n    tag_32:\n      mload(0x40)\n      tag_35\n      swap7\n      swap6\n      swap5\n      swap4\n      swap3\n      swap2\n      swap1\n      tag_36\n      jump\t// in\n    tag_35:\n      mload(0x40)\n      dup1\n      swap2\n      sub\n      swap1\n      return\n        /* \"contracts/Products.sol\":1076:2173  function transferProductOwnership(uint _productId, address _newOwner) public onlyWhitelisted {... */\n    tag_7:\n      tag_37\n      0x04\n      dup1\n      calldatasize\n      sub\n      dup2\n      add\n      swap1\n      tag_38\n      swap2\n      swap1\n      tag_39\n      jump\t// in\n    tag_38:\n      tag_40\n      jump\t// in\n    tag_37:\n      stop\n        /* \"contracts/WhiteList.sol\":890:1006  function removeFromWhitelist(address _beneficiary) public onlyOwner {\r... */\n    tag_8:\n      tag_41\n      0x04\n      dup1\n      calldatasize\n      sub\n      dup2\n      add\n      swap1\n      tag_42\n      swap2\n      swap1\n      tag_43\n      jump\t// in\n    tag_42:\n      tag_44\n      jump\t// in\n    tag_41:\n      stop\n        /* \"contracts/Owner.sol\":275:295  address public owner */\n    tag_9:\n      tag_45\n      tag_46\n      jump\t// in\n    tag_45:\n      mload(0x40)\n      tag_47\n      swap2\n      swap1\n      tag_27\n      jump\t// in\n    tag_47:\n      mload(0x40)\n      dup1\n      swap2\n      sub\n      swap1\n      return\n        /* \"contracts/WhiteList.sol\":189:230  mapping(address => bool) public whitelist */\n    tag_10:\n      tag_48\n      0x04\n      dup1\n      calldatasize\n      sub\n      dup2\n      add\n      swap1\n      tag_49\n      swap2\n      swap1\n      tag_43\n      jump\t// in\n    tag_49:\n      tag_50\n      jump\t// in\n    tag_48:\n      mload(0x40)\n      tag_51\n      swap2\n      swap1\n      tag_52\n      jump\t// in\n    tag_51:\n      mload(0x40)\n      dup1\n      swap2\n      sub\n      swap1\n      return\n        /* \"contracts/Users.sol\":1804:1892  function getUsersCount() public view returns (uint) {... */\n    tag_11:\n      tag_53\n      tag_54\n      jump\t// in\n    tag_53:\n      mload(0x40)\n      tag_55\n      swap2\n      swap1\n      tag_56\n      jump\t// in\n    tag_55:\n      mload(0x40)\n      dup1\n      swap2\n      sub\n      swap1\n      return\n        /* \"contracts/Products.sol\":2179:2325  function seeAllProdducts() public view returns( Products[] memory productList) {... */\n    tag_12:\n      tag_57\n      tag_58\n      jump\t// in\n    tag_57:\n      mload(0x40)\n      tag_59\n      swap2\n      swap1\n      tag_60\n      jump\t// in\n    tag_59:\n      mload(0x40)\n      dup1\n      swap2\n      sub\n      swap1\n      return\n        /* \"contracts/WhiteList.sol\":624:739  function addToWhitelist(address _beneficiaries) public  {\r... */\n    tag_13:\n      tag_61\n      0x04\n      dup1\n      calldatasize\n      sub\n      dup2\n      add\n      swap1\n      tag_62\n      swap2\n      swap1\n      tag_43\n      jump\t// in\n    tag_62:\n      tag_63\n      jump\t// in\n    tag_61:\n      stop\n        /* \"contracts/Users.sol\":549:588  mapping(address => Actor) public actors */\n    tag_14:\n      tag_64\n      0x04\n      dup1\n      calldatasize\n      sub\n      dup2\n      add\n      swap1\n      tag_65\n      swap2\n      swap1\n      tag_43\n      jump\t// in\n    tag_65:\n      tag_66\n      jump\t// in\n    tag_64:\n      mload(0x40)\n      tag_67\n      swap3\n      swap2\n      swap1\n      tag_68\n      jump\t// in\n    tag_67:\n      mload(0x40)\n      dup1\n      swap2\n      sub\n      swap1\n      return\n        /* \"contracts/Owner.sol\":940:1157  function transferOwnership(address newOwner) public onlyOwner {... */\n    tag_15:\n      tag_69\n      0x04\n      dup1\n      calldatasize\n      sub\n      dup2\n      add\n      swap1\n      tag_70\n      swap2\n      swap1\n      tag_43\n      jump\t// in\n    tag_70:\n      tag_71\n      jump\t// in\n    tag_69:\n      stop\n        /* \"contracts/Products.sol\":209:752  function addProduct(string memory nameProduct, uint nbBatch, uint nbProductsPerBatch) public {... */\n    tag_21:\n        /* \"contracts/Products.sol\":308:334  Actor storage currentActor */\n      0x00\n        /* \"contracts/Products.sol\":337:343  actors */\n      0x02\n        /* \"contracts/Products.sol\":337:355  actors[msg.sender] */\n      0x00\n        /* \"contracts/Products.sol\":344:354  msg.sender */\n      caller\n        /* \"contracts/Products.sol\":337:355  actors[msg.sender] */\n      0xffffffffffffffffffffffffffffffffffffffff\n      and\n      0xffffffffffffffffffffffffffffffffffffffff\n      and\n      dup2\n      mstore\n      0x20\n      add\n      swap1\n      dup2\n      mstore\n      0x20\n      add\n      0x00\n      keccak256\n        /* \"contracts/Products.sol\":308:355  Actor storage currentActor = actors[msg.sender] */\n      swap1\n      pop\n        /* \"contracts/Products.sol\":365:381  Role currentRole */\n      0x00\n        /* \"contracts/Products.sol\":384:396  currentActor */\n      dup2\n        /* \"contracts/Products.sol\":384:402  currentActor.roles */\n      0x01\n      add\n      0x00\n      swap1\n      sload\n      swap1\n      0x0100\n      exp\n      swap1\n      div\n      0xff\n      and\n        /* \"contracts/Products.sol\":365:402  Role currentRole = currentActor.roles */\n      swap1\n      pop\n        /* \"contracts/Products.sol\":435:452  Role.Manufacturer */\n      0x00\n        /* \"contracts/Products.sol\":420:452  currentRole == Role.Manufacturer */\n      0x03\n      dup2\n      gt\n      iszero\n      tag_73\n      jumpi\n      mstore(0x00, 0x4e487b7100000000000000000000000000000000000000000000000000000000)\n      mstore(0x04, 0x21)\n      revert(0x00, 0x24)\n    tag_73:\n        /* \"contracts/Products.sol\":420:431  currentRole */\n      dup2\n        /* \"contracts/Products.sol\":420:452  currentRole == Role.Manufacturer */\n      0x03\n      dup2\n      gt\n      iszero\n      tag_74\n      jumpi\n      mstore(0x00, 0x4e487b7100000000000000000000000000000000000000000000000000000000)\n      mstore(0x04, 0x21)\n      revert(0x00, 0x24)\n    tag_74:\n      eq\n        /* \"contracts/Products.sol\":412:481  require(currentRole == Role.Manufacturer, \"Not authorized operation\") */\n      tag_75\n      jumpi\n      mload(0x40)\n      0x08c379a000000000000000000000000000000000000000000000000000000000\n      dup2\n      mstore\n      0x04\n      add\n      tag_76\n      swap1\n      tag_77\n      jump\t// in\n    tag_76:\n      mload(0x40)\n      dup1\n      swap2\n      sub\n      swap1\n      revert\n    tag_75:\n        /* \"contracts/Products.sol\":500:536  isProductIdExists(products.length+1) */\n      tag_78\n        /* \"contracts/Products.sol\":534:535  1 */\n      0x01\n        /* \"contracts/Products.sol\":518:526  products */\n      0x04\n        /* \"contracts/Products.sol\":518:533  products.length */\n      dup1\n      sload\n      swap1\n      pop\n        /* \"contracts/Products.sol\":518:535  products.length+1 */\n      tag_79\n      swap2\n      swap1\n      tag_80\n      jump\t// in\n    tag_79:\n        /* \"contracts/Products.sol\":500:517  isProductIdExists */\n      tag_81\n        /* \"contracts/Products.sol\":500:536  isProductIdExists(products.length+1) */\n      jump\t// in\n    tag_78:\n        /* \"contracts/Products.sol\":499:536  !isProductIdExists(products.length+1) */\n      iszero\n        /* \"contracts/Products.sol\":491:566  require(!isProductIdExists(products.length+1), \"Product ID already exists\") */\n      tag_82\n      jumpi\n      mload(0x40)\n      0x08c379a000000000000000000000000000000000000000000000000000000000\n      dup2\n      mstore\n      0x04\n      add\n      tag_83\n      swap1\n      tag_84\n      jump\t// in\n    tag_83:\n      mload(0x40)\n      dup1\n      swap2\n      sub\n      swap1\n      revert\n    tag_82:\n        /* \"contracts/Products.sol\":632:640  products */\n      0x04\n        /* \"contracts/Products.sol\":646:744  Products(products.length+1, nameProduct, nbBatch, nbProductsPerBatch, msg.sender, block.timestamp) */\n      mload(0x40)\n      dup1\n      0xc0\n      add\n      0x40\n      mstore\n      dup1\n        /* \"contracts/Products.sol\":671:672  1 */\n      0x01\n        /* \"contracts/Products.sol\":655:663  products */\n      0x04\n        /* \"contracts/Products.sol\":655:670  products.length */\n      dup1\n      sload\n      swap1\n      pop\n        /* \"contracts/Products.sol\":655:672  products.length+1 */\n      tag_85\n      swap2\n      swap1\n      tag_80\n      jump\t// in\n    tag_85:\n        /* \"contracts/Products.sol\":646:744  Products(products.length+1, nameProduct, nbBatch, nbProductsPerBatch, msg.sender, block.timestamp) */\n      dup2\n      mstore\n      0x20\n      add\n        /* \"contracts/Products.sol\":674:685  nameProduct */\n      dup8\n        /* \"contracts/Products.sol\":646:744  Products(products.length+1, nameProduct, nbBatch, nbProductsPerBatch, msg.sender, block.timestamp) */\n      dup2\n      mstore\n      0x20\n      add\n        /* \"contracts/Products.sol\":687:694  nbBatch */\n      dup7\n        /* \"contracts/Products.sol\":646:744  Products(products.length+1, nameProduct, nbBatch, nbProductsPerBatch, msg.sender, block.timestamp) */\n      dup2\n      mstore\n      0x20\n      add\n        /* \"contracts/Products.sol\":696:714  nbProductsPerBatch */\n      dup6\n        /* \"contracts/Products.sol\":646:744  Products(products.length+1, nameProduct, nbBatch, nbProductsPerBatch, msg.sender, block.timestamp) */\n      dup2\n      mstore\n      0x20\n      add\n        /* \"contracts/Products.sol\":716:726  msg.sender */\n      caller\n        /* \"contracts/Products.sol\":646:744  Products(products.length+1, nameProduct, nbBatch, nbProductsPerBatch, msg.sender, block.timestamp) */\n      0xffffffffffffffffffffffffffffffffffffffff\n      and\n      dup2\n      mstore\n      0x20\n      add\n        /* \"contracts/Products.sol\":728:743  block.timestamp */\n      timestamp\n        /* \"contracts/Products.sol\":646:744  Products(products.length+1, nameProduct, nbBatch, nbProductsPerBatch, msg.sender, block.timestamp) */\n      dup2\n      mstore\n      pop\n        /* \"contracts/Products.sol\":632:745  products.push(Products(products.length+1, nameProduct, nbBatch, nbProductsPerBatch, msg.sender, block.timestamp)) */\n      swap1\n      dup1\n      0x01\n      dup2\n      sload\n      add\n      dup1\n      dup3\n      sstore\n      dup1\n      swap2\n      pop\n      pop\n      0x01\n      swap1\n      sub\n      swap1\n      0x00\n      mstore\n      keccak256(0x00, 0x20)\n      swap1\n      0x06\n      mul\n      add\n      0x00\n      swap1\n      swap2\n      swap1\n      swap2\n      swap1\n      swap2\n      pop\n      0x00\n      dup3\n      add\n      mload\n      dup2\n      0x00\n      add\n      sstore\n      0x20\n      dup3\n      add\n      mload\n      dup2\n      0x01\n      add\n      swap1\n      dup1\n      mload\n      swap1\n      0x20\n      add\n      swap1\n      tag_87\n      swap3\n      swap2\n      swap1\n      tag_88\n      jump\t// in\n    tag_87:\n      pop\n      0x40\n      dup3\n      add\n      mload\n      dup2\n      0x02\n      add\n      sstore\n      0x60\n      dup3\n      add\n      mload\n      dup2\n      0x03\n      add\n      sstore\n      0x80\n      dup3\n      add\n      mload\n      dup2\n      0x04\n      add\n      exp(0x0100, 0x00)\n      dup2\n      sload\n      dup2\n      0xffffffffffffffffffffffffffffffffffffffff\n      mul\n      not\n      and\n      swap1\n      dup4\n      0xffffffffffffffffffffffffffffffffffffffff\n      and\n      mul\n      or\n      swap1\n      sstore\n      pop\n      0xa0\n      dup3\n      add\n      mload\n      dup2\n      0x05\n      add\n      sstore\n      pop\n      pop\n        /* \"contracts/Products.sol\":209:752  function addProduct(string memory nameProduct, uint nbBatch, uint nbProductsPerBatch) public {... */\n      pop\n      pop\n      pop\n      pop\n      pop\n      jump\t// out\n        /* \"contracts/Users.sol\":683:705  address[] public users */\n    tag_25:\n      0x03\n      dup2\n      dup2\n      sload\n      dup2\n      lt\n      tag_89\n      jumpi\n      0x00\n      dup1\n      revert\n    tag_89:\n      swap1\n      0x00\n      mstore\n      keccak256(0x00, 0x20)\n      add\n      0x00\n      swap2\n      pop\n      sload\n      swap1\n      0x0100\n      exp\n      swap1\n      div\n      0xffffffffffffffffffffffffffffffffffffffff\n      and\n      dup2\n      jump\t// out\n        /* \"contracts/Users.sol\":742:1749  function addUser(address id, string memory name, Role role) public {... */\n    tag_31:\n        /* \"contracts/Users.sol\":819:839  Actor memory newUser */\n      0x00\n        /* \"contracts/Users.sol\":842:859  Actor(name, role) */\n      mload(0x40)\n      dup1\n      0x40\n      add\n      0x40\n      mstore\n      dup1\n        /* \"contracts/Users.sol\":848:852  name */\n      dup5\n        /* \"contracts/Users.sol\":842:859  Actor(name, role) */\n      dup2\n      mstore\n      0x20\n      add\n        /* \"contracts/Users.sol\":854:858  role */\n      dup4\n        /* \"contracts/Users.sol\":842:859  Actor(name, role) */\n      0x03\n      dup2\n      gt\n      iszero\n      tag_92\n      jumpi\n      mstore(0x00, 0x4e487b7100000000000000000000000000000000000000000000000000000000)\n      mstore(0x04, 0x21)\n      revert(0x00, 0x24)\n    tag_92:\n      dup2\n      mstore\n      pop\n        /* \"contracts/Users.sol\":819:859  Actor memory newUser = Actor(name, role) */\n      swap1\n      pop\n        /* \"contracts/Users.sol\":869:894  Actor memory currentActor */\n      0x00\n        /* \"contracts/Users.sol\":897:903  actors */\n      0x02\n        /* \"contracts/Users.sol\":897:915  actors[msg.sender] */\n      0x00\n        /* \"contracts/Users.sol\":904:914  msg.sender */\n      caller\n        /* \"contracts/Users.sol\":897:915  actors[msg.sender] */\n      0xffffffffffffffffffffffffffffffffffffffff\n      and\n      0xffffffffffffffffffffffffffffffffffffffff\n      and\n      dup2\n      mstore\n      0x20\n      add\n      swap1\n      dup2\n      mstore\n      0x20\n      add\n      0x00\n      keccak256\n        /* \"contracts/Users.sol\":869:915  Actor memory currentActor = actors[msg.sender] */\n      mload(0x40)\n      dup1\n      0x40\n      add\n      0x40\n      mstore\n      swap1\n      dup2\n      0x00\n      dup3\n      add\n      dup1\n      sload\n      tag_93\n      swap1\n      tag_94\n      jump\t// in\n    tag_93:\n      dup1\n      0x1f\n      add\n      0x20\n      dup1\n      swap2\n      div\n      mul\n      0x20\n      add\n      mload(0x40)\n      swap1\n      dup2\n      add\n      0x40\n      mstore\n      dup1\n      swap3\n      swap2\n      swap1\n      dup2\n      dup2\n      mstore\n      0x20\n      add\n      dup3\n      dup1\n      sload\n      tag_95\n      swap1\n      tag_94\n      jump\t// in\n    tag_95:\n      dup1\n      iszero\n      tag_96\n      jumpi\n      dup1\n      0x1f\n      lt\n      tag_97\n      jumpi\n      0x0100\n      dup1\n      dup4\n      sload\n      div\n      mul\n      dup4\n      mstore\n      swap2\n      0x20\n      add\n      swap2\n      jump(tag_96)\n    tag_97:\n      dup3\n      add\n      swap2\n      swap1\n      0x00\n      mstore\n      keccak256(0x00, 0x20)\n      swap1\n    tag_98:\n      dup2\n      sload\n      dup2\n      mstore\n      swap1\n      0x01\n      add\n      swap1\n      0x20\n      add\n      dup1\n      dup4\n      gt\n      tag_98\n      jumpi\n      dup3\n      swap1\n      sub\n      0x1f\n      and\n      dup3\n      add\n      swap2\n    tag_96:\n      pop\n      pop\n      pop\n      pop\n      pop\n      dup2\n      mstore\n      0x20\n      add\n      0x01\n      dup3\n      add\n      0x00\n      swap1\n      sload\n      swap1\n      0x0100\n      exp\n      swap1\n      div\n      0xff\n      and\n      0x03\n      dup2\n      gt\n      iszero\n      tag_99\n      jumpi\n      mstore(0x00, 0x4e487b7100000000000000000000000000000000000000000000000000000000)\n      mstore(0x04, 0x21)\n      revert(0x00, 0x24)\n    tag_99:\n      0x03\n      dup2\n      gt\n      iszero\n      tag_100\n      jumpi\n      mstore(0x00, 0x4e487b7100000000000000000000000000000000000000000000000000000000)\n      mstore(0x04, 0x21)\n      revert(0x00, 0x24)\n    tag_100:\n      dup2\n      mstore\n      pop\n      pop\n      swap1\n      pop\n        /* \"contracts/Users.sol\":930:1002  actorCast(msg.sender, actors[msg.sender].name, actors[msg.sender].roles) */\n      0xfcf56e8b77543617e075beddc33f51b3921b2dc365ae569ce204aab0c333fd53\n        /* \"contracts/Users.sol\":940:950  msg.sender */\n      caller\n        /* \"contracts/Users.sol\":952:958  actors */\n      0x02\n        /* \"contracts/Users.sol\":952:970  actors[msg.sender] */\n      0x00\n        /* \"contracts/Users.sol\":959:969  msg.sender */\n      caller\n        /* \"contracts/Users.sol\":952:970  actors[msg.sender] */\n      0xffffffffffffffffffffffffffffffffffffffff\n      and\n      0xffffffffffffffffffffffffffffffffffffffff\n      and\n      dup2\n      mstore\n      0x20\n      add\n      swap1\n      dup2\n      mstore\n      0x20\n      add\n      0x00\n      keccak256\n        /* \"contracts/Users.sol\":952:975  actors[msg.sender].name */\n      0x00\n      add\n        /* \"contracts/Users.sol\":977:983  actors */\n      0x02\n        /* \"contracts/Users.sol\":977:995  actors[msg.sender] */\n      0x00\n        /* \"contracts/Users.sol\":984:994  msg.sender */\n      caller\n        /* \"contracts/Users.sol\":977:995  actors[msg.sender] */\n      0xffffffffffffffffffffffffffffffffffffffff\n      and\n      0xffffffffffffffffffffffffffffffffffffffff\n      and\n      dup2\n      mstore\n      0x20\n      add\n      swap1\n      dup2\n      mstore\n      0x20\n      add\n      0x00\n      keccak256\n        /* \"contracts/Users.sol\":977:1001  actors[msg.sender].roles */\n      0x01\n      add\n      0x00\n      swap1\n      sload\n      swap1\n      0x0100\n      exp\n      swap1\n      div\n      0xff\n      and\n        /* \"contracts/Users.sol\":930:1002  actorCast(msg.sender, actors[msg.sender].name, actors[msg.sender].roles) */\n      mload(0x40)\n      tag_101\n      swap4\n      swap3\n      swap2\n      swap1\n      tag_102\n      jump\t// in\n    tag_101:\n      mload(0x40)\n      dup1\n      swap2\n      sub\n      swap1\n      log1\n        /* \"contracts/Users.sol\":1017:1089  actorCast(msg.sender, actors[msg.sender].name, actors[msg.sender].roles) */\n      0xfcf56e8b77543617e075beddc33f51b3921b2dc365ae569ce204aab0c333fd53\n        /* \"contracts/Users.sol\":1027:1037  msg.sender */\n      caller\n        /* \"contracts/Users.sol\":1039:1045  actors */\n      0x02\n        /* \"contracts/Users.sol\":1039:1057  actors[msg.sender] */\n      0x00\n        /* \"contracts/Users.sol\":1046:1056  msg.sender */\n      caller\n        /* \"contracts/Users.sol\":1039:1057  actors[msg.sender] */\n      0xffffffffffffffffffffffffffffffffffffffff\n      and\n      0xffffffffffffffffffffffffffffffffffffffff\n      and\n      dup2\n      mstore\n      0x20\n      add\n      swap1\n      dup2\n      mstore\n      0x20\n      add\n      0x00\n      keccak256\n        /* \"contracts/Users.sol\":1039:1062  actors[msg.sender].name */\n      0x00\n      add\n        /* \"contracts/Users.sol\":1064:1070  actors */\n      0x02\n        /* \"contracts/Users.sol\":1064:1082  actors[msg.sender] */\n      0x00\n        /* \"contracts/Users.sol\":1071:1081  msg.sender */\n      caller\n        /* \"contracts/Users.sol\":1064:1082  actors[msg.sender] */\n      0xffffffffffffffffffffffffffffffffffffffff\n      and\n      0xffffffffffffffffffffffffffffffffffffffff\n      and\n      dup2\n      mstore\n      0x20\n      add\n      swap1\n      dup2\n      mstore\n      0x20\n      add\n      0x00\n      keccak256\n        /* \"contracts/Users.sol\":1064:1088  actors[msg.sender].roles */\n      0x01\n      add\n      0x00\n      swap1\n      sload\n      swap1\n      0x0100\n      exp\n      swap1\n      div\n      0xff\n      and\n        /* \"contracts/Users.sol\":1017:1089  actorCast(msg.sender, actors[msg.sender].name, actors[msg.sender].roles) */\n      mload(0x40)\n      tag_103\n      swap4\n      swap3\n      swap2\n      swap1\n      tag_102\n      jump\t// in\n    tag_103:\n      mload(0x40)\n      dup1\n      swap2\n      sub\n      swap1\n      log1\n        /* \"contracts/Users.sol\":1100:1116  Role currentRole */\n      0x00\n        /* \"contracts/Users.sol\":1119:1131  currentActor */\n      dup2\n        /* \"contracts/Users.sol\":1119:1137  currentActor.roles */\n      0x20\n      add\n      mload\n        /* \"contracts/Users.sol\":1100:1137  Role currentRole = currentActor.roles */\n      swap1\n      pop\n        /* \"contracts/Users.sol\":1164:1169  owner */\n      0x00\n      dup1\n      sload\n      swap1\n      0x0100\n      exp\n      swap1\n      div\n      0xffffffffffffffffffffffffffffffffffffffff\n      and\n        /* \"contracts/Users.sol\":1150:1169  msg.sender != owner */\n      0xffffffffffffffffffffffffffffffffffffffff\n      and\n        /* \"contracts/Users.sol\":1150:1160  msg.sender */\n      caller\n        /* \"contracts/Users.sol\":1150:1169  msg.sender != owner */\n      0xffffffffffffffffffffffffffffffffffffffff\n      and\n      eq\n        /* \"contracts/Users.sol\":1147:1651  if(msg.sender != owner){... */\n      tag_104\n      jumpi\n        /* \"contracts/Users.sol\":1198:1215  Role.Manufacturer */\n      0x00\n        /* \"contracts/Users.sol\":1183:1215  currentRole == Role.Manufacturer */\n      0x03\n      dup2\n      gt\n      iszero\n      tag_105\n      jumpi\n      mstore(0x00, 0x4e487b7100000000000000000000000000000000000000000000000000000000)\n      mstore(0x04, 0x21)\n      revert(0x00, 0x24)\n    tag_105:\n        /* \"contracts/Users.sol\":1183:1194  currentRole */\n      dup2\n        /* \"contracts/Users.sol\":1183:1215  currentRole == Role.Manufacturer */\n      0x03\n      dup2\n      gt\n      iszero\n      tag_106\n      jumpi\n      mstore(0x00, 0x4e487b7100000000000000000000000000000000000000000000000000000000)\n      mstore(0x04, 0x21)\n      revert(0x00, 0x24)\n    tag_106:\n      eq\n        /* \"contracts/Users.sol\":1183:1240  currentRole == Role.Manufacturer && role != Role.Supplier */\n      dup1\n      iszero\n      tag_107\n      jumpi\n      pop\n        /* \"contracts/Users.sol\":1227:1240  Role.Supplier */\n      0x01\n        /* \"contracts/Users.sol\":1219:1240  role != Role.Supplier */\n      0x03\n      dup2\n      gt\n      iszero\n      tag_108\n      jumpi\n      mstore(0x00, 0x4e487b7100000000000000000000000000000000000000000000000000000000)\n      mstore(0x04, 0x21)\n      revert(0x00, 0x24)\n    tag_108:\n        /* \"contracts/Users.sol\":1219:1223  role */\n      dup5\n        /* \"contracts/Users.sol\":1219:1240  role != Role.Supplier */\n      0x03\n      dup2\n      gt\n      iszero\n      tag_109\n      jumpi\n      mstore(0x00, 0x4e487b7100000000000000000000000000000000000000000000000000000000)\n      mstore(0x04, 0x21)\n      revert(0x00, 0x24)\n    tag_109:\n      eq\n      iszero\n        /* \"contracts/Users.sol\":1183:1240  currentRole == Role.Manufacturer && role != Role.Supplier */\n    tag_107:\n        /* \"contracts/Users.sol\":1180:1301  if(currentRole == Role.Manufacturer && role != Role.Supplier){revert(\"Cannot add manufacturer or customer or supplier\");} */\n      iszero\n      tag_110\n      jumpi\n        /* \"contracts/Users.sol\":1242:1299  revert(\"Cannot add manufacturer or customer or supplier\") */\n      mload(0x40)\n      0x08c379a000000000000000000000000000000000000000000000000000000000\n      dup2\n      mstore\n      0x04\n      add\n      tag_111\n      swap1\n      tag_112\n      jump\t// in\n    tag_111:\n      mload(0x40)\n      dup1\n      swap2\n      sub\n      swap1\n      revert\n        /* \"contracts/Users.sol\":1180:1301  if(currentRole == Role.Manufacturer && role != Role.Supplier){revert(\"Cannot add manufacturer or customer or supplier\");} */\n    tag_110:\n        /* \"contracts/Users.sol\":1328:1341  Role.Supplier */\n      0x01\n        /* \"contracts/Users.sol\":1313:1341  currentRole == Role.Supplier */\n      0x03\n      dup2\n      gt\n      iszero\n      tag_113\n      jumpi\n      mstore(0x00, 0x4e487b7100000000000000000000000000000000000000000000000000000000)\n      mstore(0x04, 0x21)\n      revert(0x00, 0x24)\n    tag_113:\n        /* \"contracts/Users.sol\":1313:1324  currentRole */\n      dup2\n        /* \"contracts/Users.sol\":1313:1341  currentRole == Role.Supplier */\n      0x03\n      dup2\n      gt\n      iszero\n      tag_114\n      jumpi\n      mstore(0x00, 0x4e487b7100000000000000000000000000000000000000000000000000000000)\n      mstore(0x04, 0x21)\n      revert(0x00, 0x24)\n    tag_114:\n      eq\n        /* \"contracts/Users.sol\":1313:1373  currentRole == Role.Supplier && newUser.roles != Role.Vendor */\n      dup1\n      iszero\n      tag_115\n      jumpi\n      pop\n        /* \"contracts/Users.sol\":1362:1373  Role.Vendor */\n      0x02\n        /* \"contracts/Users.sol\":1345:1373  newUser.roles != Role.Vendor */\n      0x03\n      dup2\n      gt\n      iszero\n      tag_116\n      jumpi\n      mstore(0x00, 0x4e487b7100000000000000000000000000000000000000000000000000000000)\n      mstore(0x04, 0x21)\n      revert(0x00, 0x24)\n    tag_116:\n        /* \"contracts/Users.sol\":1345:1352  newUser */\n      dup4\n        /* \"contracts/Users.sol\":1345:1358  newUser.roles */\n      0x20\n      add\n      mload\n        /* \"contracts/Users.sol\":1345:1373  newUser.roles != Role.Vendor */\n      0x03\n      dup2\n      gt\n      iszero\n      tag_117\n      jumpi\n      mstore(0x00, 0x4e487b7100000000000000000000000000000000000000000000000000000000)\n      mstore(0x04, 0x21)\n      revert(0x00, 0x24)\n    tag_117:\n      eq\n      iszero\n        /* \"contracts/Users.sol\":1313:1373  currentRole == Role.Supplier && newUser.roles != Role.Vendor */\n    tag_115:\n        /* \"contracts/Users.sol\":1310:1435  if(currentRole == Role.Supplier && newUser.roles != Role.Vendor){revert( \"Cannot add manufacturer or supplier or customer\");} */\n      iszero\n      tag_118\n      jumpi\n        /* \"contracts/Users.sol\":1375:1433  revert( \"Cannot add manufacturer or supplier or customer\") */\n      mload(0x40)\n      0x08c379a000000000000000000000000000000000000000000000000000000000\n      dup2\n      mstore\n      0x04\n      add\n      tag_119\n      swap1\n      tag_120\n      jump\t// in\n    tag_119:\n      mload(0x40)\n      dup1\n      swap2\n      sub\n      swap1\n      revert\n        /* \"contracts/Users.sol\":1310:1435  if(currentRole == Role.Supplier && newUser.roles != Role.Vendor){revert( \"Cannot add manufacturer or supplier or customer\");} */\n    tag_118:\n        /* \"contracts/Users.sol\":1462:1473  Role.Vendor */\n      0x02\n        /* \"contracts/Users.sol\":1447:1473  currentRole == Role.Vendor */\n      0x03\n      dup2\n      gt\n      iszero\n      tag_121\n      jumpi\n      mstore(0x00, 0x4e487b7100000000000000000000000000000000000000000000000000000000)\n      mstore(0x04, 0x21)\n      revert(0x00, 0x24)\n    tag_121:\n        /* \"contracts/Users.sol\":1447:1458  currentRole */\n      dup2\n        /* \"contracts/Users.sol\":1447:1473  currentRole == Role.Vendor */\n      0x03\n      dup2\n      gt\n      iszero\n      tag_122\n      jumpi\n      mstore(0x00, 0x4e487b7100000000000000000000000000000000000000000000000000000000)\n      mstore(0x04, 0x21)\n      revert(0x00, 0x24)\n    tag_122:\n      eq\n        /* \"contracts/Users.sol\":1447:1507  currentRole == Role.Vendor && newUser.roles != Role.Customer */\n      dup1\n      iszero\n      tag_123\n      jumpi\n      pop\n        /* \"contracts/Users.sol\":1494:1507  Role.Customer */\n      0x03\n        /* \"contracts/Users.sol\":1477:1507  newUser.roles != Role.Customer */\n      dup1\n      dup2\n      gt\n      iszero\n      tag_124\n      jumpi\n      mstore(0x00, 0x4e487b7100000000000000000000000000000000000000000000000000000000)\n      mstore(0x04, 0x21)\n      revert(0x00, 0x24)\n    tag_124:\n        /* \"contracts/Users.sol\":1477:1484  newUser */\n      dup4\n        /* \"contracts/Users.sol\":1477:1490  newUser.roles */\n      0x20\n      add\n      mload\n        /* \"contracts/Users.sol\":1477:1507  newUser.roles != Role.Customer */\n      0x03\n      dup2\n      gt\n      iszero\n      tag_125\n      jumpi\n      mstore(0x00, 0x4e487b7100000000000000000000000000000000000000000000000000000000)\n      mstore(0x04, 0x21)\n      revert(0x00, 0x24)\n    tag_125:\n      eq\n      iszero\n        /* \"contracts/Users.sol\":1447:1507  currentRole == Role.Vendor && newUser.roles != Role.Customer */\n    tag_123:\n        /* \"contracts/Users.sol\":1444:1567  if(currentRole == Role.Vendor && newUser.roles != Role.Customer){revert( \"Cannot add manufacturer or supplier or vendor\");} */\n      iszero\n      tag_126\n      jumpi\n        /* \"contracts/Users.sol\":1509:1565  revert( \"Cannot add manufacturer or supplier or vendor\") */\n      mload(0x40)\n      0x08c379a000000000000000000000000000000000000000000000000000000000\n      dup2\n      mstore\n      0x04\n      add\n      tag_127\n      swap1\n      tag_128\n      jump\t// in\n    tag_127:\n      mload(0x40)\n      dup1\n      swap2\n      sub\n      swap1\n      revert\n        /* \"contracts/Users.sol\":1444:1567  if(currentRole == Role.Vendor && newUser.roles != Role.Customer){revert( \"Cannot add manufacturer or supplier or vendor\");} */\n    tag_126:\n        /* \"contracts/Users.sol\":1594:1607  Role.Customer */\n      0x03\n        /* \"contracts/Users.sol\":1579:1607  currentRole == Role.Customer */\n      dup1\n      dup2\n      gt\n      iszero\n      tag_129\n      jumpi\n      mstore(0x00, 0x4e487b7100000000000000000000000000000000000000000000000000000000)\n      mstore(0x04, 0x21)\n      revert(0x00, 0x24)\n    tag_129:\n        /* \"contracts/Users.sol\":1579:1590  currentRole */\n      dup2\n        /* \"contracts/Users.sol\":1579:1607  currentRole == Role.Customer */\n      0x03\n      dup2\n      gt\n      iszero\n      tag_130\n      jumpi\n      mstore(0x00, 0x4e487b7100000000000000000000000000000000000000000000000000000000)\n      mstore(0x04, 0x21)\n      revert(0x00, 0x24)\n    tag_130:\n      eq\n        /* \"contracts/Users.sol\":1576:1641  if(currentRole == Role.Customer) {revert(\"Cannot add an actor\");} */\n      iszero\n      tag_131\n      jumpi\n        /* \"contracts/Users.sol\":1610:1639  revert(\"Cannot add an actor\") */\n      mload(0x40)\n      0x08c379a000000000000000000000000000000000000000000000000000000000\n      dup2\n      mstore\n      0x04\n      add\n      tag_132\n      swap1\n      tag_133\n      jump\t// in\n    tag_132:\n      mload(0x40)\n      dup1\n      swap2\n      sub\n      swap1\n      revert\n        /* \"contracts/Users.sol\":1576:1641  if(currentRole == Role.Customer) {revert(\"Cannot add an actor\");} */\n    tag_131:\n        /* \"contracts/Users.sol\":1147:1651  if(msg.sender != owner){... */\n    tag_104:\n        /* \"contracts/Users.sol\":1673:1690  Actor(name, role) */\n      mload(0x40)\n      dup1\n      0x40\n      add\n      0x40\n      mstore\n      dup1\n        /* \"contracts/Users.sol\":1679:1683  name */\n      dup7\n        /* \"contracts/Users.sol\":1673:1690  Actor(name, role) */\n      dup2\n      mstore\n      0x20\n      add\n        /* \"contracts/Users.sol\":1685:1689  role */\n      dup6\n        /* \"contracts/Users.sol\":1673:1690  Actor(name, role) */\n      0x03\n      dup2\n      gt\n      iszero\n      tag_134\n      jumpi\n      mstore(0x00, 0x4e487b7100000000000000000000000000000000000000000000000000000000)\n      mstore(0x04, 0x21)\n      revert(0x00, 0x24)\n    tag_134:\n      dup2\n      mstore\n      pop\n        /* \"contracts/Users.sol\":1660:1666  actors */\n      0x02\n        /* \"contracts/Users.sol\":1660:1670  actors[id] */\n      0x00\n        /* \"contracts/Users.sol\":1667:1669  id */\n      dup9\n        /* \"contracts/Users.sol\":1660:1670  actors[id] */\n      0xffffffffffffffffffffffffffffffffffffffff\n      and\n      0xffffffffffffffffffffffffffffffffffffffff\n      and\n      dup2\n      mstore\n      0x20\n      add\n      swap1\n      dup2\n      mstore\n      0x20\n      add\n      0x00\n      keccak256\n        /* \"contracts/Users.sol\":1660:1690  actors[id] = Actor(name, role) */\n      0x00\n      dup3\n      add\n      mload\n      dup2\n      0x00\n      add\n      swap1\n      dup1\n      mload\n      swap1\n      0x20\n      add\n      swap1\n      tag_135\n      swap3\n      swap2\n      swap1\n      tag_88\n      jump\t// in\n    tag_135:\n      pop\n      0x20\n      dup3\n      add\n      mload\n      dup2\n      0x01\n      add\n      exp(0x0100, 0x00)\n      dup2\n      sload\n      dup2\n      0xff\n      mul\n      not\n      and\n      swap1\n      dup4\n      0x03\n      dup2\n      gt\n      iszero\n      tag_136\n      jumpi\n      mstore(0x00, 0x4e487b7100000000000000000000000000000000000000000000000000000000)\n      mstore(0x04, 0x21)\n      revert(0x00, 0x24)\n    tag_136:\n      mul\n      or\n      swap1\n      sstore\n      pop\n      swap1\n      pop\n      pop\n        /* \"contracts/Users.sol\":1700:1705  users */\n      0x03\n        /* \"contracts/Users.sol\":1711:1713  id */\n      dup7\n        /* \"contracts/Users.sol\":1700:1714  users.push(id) */\n      swap1\n      dup1\n      0x01\n      dup2\n      sload\n      add\n      dup1\n      dup3\n      sstore\n      dup1\n      swap2\n      pop\n      pop\n      0x01\n      swap1\n      sub\n      swap1\n      0x00\n      mstore\n      keccak256(0x00, 0x20)\n      add\n      0x00\n      swap1\n      swap2\n      swap1\n      swap2\n      swap1\n      swap2\n      0x0100\n      exp\n      dup2\n      sload\n      dup2\n      0xffffffffffffffffffffffffffffffffffffffff\n      mul\n      not\n      and\n      swap1\n      dup4\n      0xffffffffffffffffffffffffffffffffffffffff\n      and\n      mul\n      or\n      swap1\n      sstore\n      pop\n        /* \"contracts/Users.sol\":1724:1742  addToWhitelist(id) */\n      tag_138\n        /* \"contracts/Users.sol\":1739:1741  id */\n      dup7\n        /* \"contracts/Users.sol\":1724:1738  addToWhitelist */\n      tag_63\n        /* \"contracts/Users.sol\":1724:1742  addToWhitelist(id) */\n      jump\t// in\n    tag_138:\n        /* \"contracts/Users.sol\":742:1749  function addUser(address id, string memory name, Role role) public {... */\n      pop\n      pop\n      pop\n      pop\n      pop\n      pop\n      jump\t// out\n        /* \"contracts/Products.sol\":176:202  Products[] public products */\n    tag_34:\n      0x04\n      dup2\n      dup2\n      sload\n      dup2\n      lt\n      tag_139\n      jumpi\n      0x00\n      dup1\n      revert\n    tag_139:\n      swap1\n      0x00\n      mstore\n      keccak256(0x00, 0x20)\n      swap1\n      0x06\n      mul\n      add\n      0x00\n      swap2\n      pop\n      swap1\n      pop\n      dup1\n      0x00\n      add\n      sload\n      swap1\n      dup1\n      0x01\n      add\n      dup1\n      sload\n      tag_141\n      swap1\n      tag_94\n      jump\t// in\n    tag_141:\n      dup1\n      0x1f\n      add\n      0x20\n      dup1\n      swap2\n      div\n      mul\n      0x20\n      add\n      mload(0x40)\n      swap1\n      dup2\n      add\n      0x40\n      mstore\n      dup1\n      swap3\n      swap2\n      swap1\n      dup2\n      dup2\n      mstore\n      0x20\n      add\n      dup3\n      dup1\n      sload\n      tag_142\n      swap1\n      tag_94\n      jump\t// in\n    tag_142:\n      dup1\n      iszero\n      tag_143\n      jumpi\n      dup1\n      0x1f\n      lt\n      tag_144\n      jumpi\n      0x0100\n      dup1\n      dup4\n      sload\n      div\n      mul\n      dup4\n      mstore\n      swap2\n      0x20\n      add\n      swap2\n      jump(tag_143)\n    tag_144:\n      dup3\n      add\n      swap2\n      swap1\n      0x00\n      mstore\n      keccak256(0x00, 0x20)\n      swap1\n    tag_145:\n      dup2\n      sload\n      dup2\n      mstore\n      swap1\n      0x01\n      add\n      swap1\n      0x20\n      add\n      dup1\n      dup4\n      gt\n      tag_145\n      jumpi\n      dup3\n      swap1\n      sub\n      0x1f\n      and\n      dup3\n      add\n      swap2\n    tag_143:\n      pop\n      pop\n      pop\n      pop\n      pop\n      swap1\n      dup1\n      0x02\n      add\n      sload\n      swap1\n      dup1\n      0x03\n      add\n      sload\n      swap1\n      dup1\n      0x04\n      add\n      0x00\n      swap1\n      sload\n      swap1\n      0x0100\n      exp\n      swap1\n      div\n      0xffffffffffffffffffffffffffffffffffffffff\n      and\n      swap1\n      dup1\n      0x05\n      add\n      sload\n      swap1\n      pop\n      dup7\n      jump\t// out\n        /* \"contracts/Products.sol\":1076:2173  function transferProductOwnership(uint _productId, address _newOwner) public onlyWhitelisted {... */\n    tag_40:\n        /* \"contracts/WhiteList.sol\":1088:1092  true */\n      0x01\n        /* \"contracts/WhiteList.sol\":1063:1092  whitelist[msg.sender] == true */\n      iszero\n      iszero\n        /* \"contracts/WhiteList.sol\":1063:1072  whitelist */\n      0x01\n        /* \"contracts/WhiteList.sol\":1063:1084  whitelist[msg.sender] */\n      0x00\n        /* \"contracts/WhiteList.sol\":1073:1083  msg.sender */\n      caller\n        /* \"contracts/WhiteList.sol\":1063:1084  whitelist[msg.sender] */\n      0xffffffffffffffffffffffffffffffffffffffff\n      and\n      0xffffffffffffffffffffffffffffffffffffffff\n      and\n      dup2\n      mstore\n      0x20\n      add\n      swap1\n      dup2\n      mstore\n      0x20\n      add\n      0x00\n      keccak256\n      0x00\n      swap1\n      sload\n      swap1\n      0x0100\n      exp\n      swap1\n      div\n      0xff\n      and\n        /* \"contracts/WhiteList.sol\":1063:1092  whitelist[msg.sender] == true */\n      iszero\n      iszero\n      eq\n        /* \"contracts/WhiteList.sol\":1055:1116  require(whitelist[msg.sender] == true, \"Is not whitelisted\" ) */\n      tag_147\n      jumpi\n      mload(0x40)\n      0x08c379a000000000000000000000000000000000000000000000000000000000\n      dup2\n      mstore\n      0x04\n      add\n      tag_148\n      swap1\n      tag_149\n      jump\t// in\n    tag_148:\n      mload(0x40)\n      dup1\n      swap2\n      sub\n      swap1\n      revert\n    tag_147:\n        /* \"contracts/Products.sol\":1179:1204  Actor memory currentActor */\n      0x00\n        /* \"contracts/Products.sol\":1207:1213  actors */\n      0x02\n        /* \"contracts/Products.sol\":1207:1225  actors[msg.sender] */\n      0x00\n        /* \"contracts/Products.sol\":1214:1224  msg.sender */\n      caller\n        /* \"contracts/Products.sol\":1207:1225  actors[msg.sender] */\n      0xffffffffffffffffffffffffffffffffffffffff\n      and\n      0xffffffffffffffffffffffffffffffffffffffff\n      and\n      dup2\n      mstore\n      0x20\n      add\n      swap1\n      dup2\n      mstore\n      0x20\n      add\n      0x00\n      keccak256\n        /* \"contracts/Products.sol\":1179:1225  Actor memory currentActor = actors[msg.sender] */\n      mload(0x40)\n      dup1\n      0x40\n      add\n      0x40\n      mstore\n      swap1\n      dup2\n      0x00\n      dup3\n      add\n      dup1\n      sload\n      tag_151\n      swap1\n      tag_94\n      jump\t// in\n    tag_151:\n      dup1\n      0x1f\n      add\n      0x20\n      dup1\n      swap2\n      div\n      mul\n      0x20\n      add\n      mload(0x40)\n      swap1\n      dup2\n      add\n      0x40\n      mstore\n      dup1\n      swap3\n      swap2\n      swap1\n      dup2\n      dup2\n      mstore\n      0x20\n      add\n      dup3\n      dup1\n      sload\n      tag_152\n      swap1\n      tag_94\n      jump\t// in\n    tag_152:\n      dup1\n      iszero\n      tag_153\n      jumpi\n      dup1\n      0x1f\n      lt\n      tag_154\n      jumpi\n      0x0100\n      dup1\n      dup4\n      sload\n      div\n      mul\n      dup4\n      mstore\n      swap2\n      0x20\n      add\n      swap2\n      jump(tag_153)\n    tag_154:\n      dup3\n      add\n      swap2\n      swap1\n      0x00\n      mstore\n      keccak256(0x00, 0x20)\n      swap1\n    tag_155:\n      dup2\n      sload\n      dup2\n      mstore\n      swap1\n      0x01\n      add\n      swap1\n      0x20\n      add\n      dup1\n      dup4\n      gt\n      tag_155\n      jumpi\n      dup3\n      swap1\n      sub\n      0x1f\n      and\n      dup3\n      add\n      swap2\n    tag_153:\n      pop\n      pop\n      pop\n      pop\n      pop\n      dup2\n      mstore\n      0x20\n      add\n      0x01\n      dup3\n      add\n      0x00\n      swap1\n      sload\n      swap1\n      0x0100\n      exp\n      swap1\n      div\n      0xff\n      and\n      0x03\n      dup2\n      gt\n      iszero\n      tag_156\n      jumpi\n      mstore(0x00, 0x4e487b7100000000000000000000000000000000000000000000000000000000)\n      mstore(0x04, 0x21)\n      revert(0x00, 0x24)\n    tag_156:\n      0x03\n      dup2\n      gt\n      iszero\n      tag_157\n      jumpi\n      mstore(0x00, 0x4e487b7100000000000000000000000000000000000000000000000000000000)\n      mstore(0x04, 0x21)\n      revert(0x00, 0x24)\n    tag_157:\n      dup2\n      mstore\n      pop\n      pop\n      swap1\n      pop\n        /* \"contracts/Products.sol\":1235:1256  Actor memory newActor */\n      0x00\n        /* \"contracts/Products.sol\":1259:1265  actors */\n      0x02\n        /* \"contracts/Products.sol\":1259:1276  actors[_newOwner] */\n      0x00\n        /* \"contracts/Products.sol\":1266:1275  _newOwner */\n      dup5\n        /* \"contracts/Products.sol\":1259:1276  actors[_newOwner] */\n      0xffffffffffffffffffffffffffffffffffffffff\n      and\n      0xffffffffffffffffffffffffffffffffffffffff\n      and\n      dup2\n      mstore\n      0x20\n      add\n      swap1\n      dup2\n      mstore\n      0x20\n      add\n      0x00\n      keccak256\n        /* \"contracts/Products.sol\":1235:1276  Actor memory newActor = actors[_newOwner] */\n      mload(0x40)\n      dup1\n      0x40\n      add\n      0x40\n      mstore\n      swap1\n      dup2\n      0x00\n      dup3\n      add\n      dup1\n      sload\n      tag_158\n      swap1\n      tag_94\n      jump\t// in\n    tag_158:\n      dup1\n      0x1f\n      add\n      0x20\n      dup1\n      swap2\n      div\n      mul\n      0x20\n      add\n      mload(0x40)\n      swap1\n      dup2\n      add\n      0x40\n      mstore\n      dup1\n      swap3\n      swap2\n      swap1\n      dup2\n      dup2\n      mstore\n      0x20\n      add\n      dup3\n      dup1\n      sload\n      tag_159\n      swap1\n      tag_94\n      jump\t// in\n    tag_159:\n      dup1\n      iszero\n      tag_160\n      jumpi\n      dup1\n      0x1f\n      lt\n      tag_161\n      jumpi\n      0x0100\n      dup1\n      dup4\n      sload\n      div\n      mul\n      dup4\n      mstore\n      swap2\n      0x20\n      add\n      swap2\n      jump(tag_160)\n    tag_161:\n      dup3\n      add\n      swap2\n      swap1\n      0x00\n      mstore\n      keccak256(0x00, 0x20)\n      swap1\n    tag_162:\n      dup2\n      sload\n      dup2\n      mstore\n      swap1\n      0x01\n      add\n      swap1\n      0x20\n      add\n      dup1\n      dup4\n      gt\n      tag_162\n      jumpi\n      dup3\n      swap1\n      sub\n      0x1f\n      and\n      dup3\n      add\n      swap2\n    tag_160:\n      pop\n      pop\n      pop\n      pop\n      pop\n      dup2\n      mstore\n      0x20\n      add\n      0x01\n      dup3\n      add\n      0x00\n      swap1\n      sload\n      swap1\n      0x0100\n      exp\n      swap1\n      div\n      0xff\n      and\n      0x03\n      dup2\n      gt\n      iszero\n      tag_163\n      jumpi\n      mstore(0x00, 0x4e487b7100000000000000000000000000000000000000000000000000000000)\n      mstore(0x04, 0x21)\n      revert(0x00, 0x24)\n    tag_163:\n      0x03\n      dup2\n      gt\n      iszero\n      tag_164\n      jumpi\n      mstore(0x00, 0x4e487b7100000000000000000000000000000000000000000000000000000000)\n      mstore(0x04, 0x21)\n      revert(0x00, 0x24)\n    tag_164:\n      dup2\n      mstore\n      pop\n      pop\n      swap1\n      pop\n        /* \"contracts/Products.sol\":1286:1302  Role currentRole */\n      0x00\n        /* \"contracts/Products.sol\":1305:1317  currentActor */\n      dup3\n        /* \"contracts/Products.sol\":1305:1323  currentActor.roles */\n      0x20\n      add\n      mload\n        /* \"contracts/Products.sol\":1286:1323  Role currentRole = currentActor.roles */\n      swap1\n      pop\n        /* \"contracts/Products.sol\":1333:1342  Role role */\n      0x00\n        /* \"contracts/Products.sol\":1345:1353  newActor */\n      dup3\n        /* \"contracts/Products.sol\":1345:1359  newActor.roles */\n      0x20\n      add\n      mload\n        /* \"contracts/Products.sol\":1333:1359  Role role = newActor.roles */\n      swap1\n      pop\n        /* \"contracts/Products.sol\":1386:1391  owner */\n      0x00\n      dup1\n      sload\n      swap1\n      0x0100\n      exp\n      swap1\n      div\n      0xffffffffffffffffffffffffffffffffffffffff\n      and\n        /* \"contracts/Products.sol\":1372:1391  msg.sender != owner */\n      0xffffffffffffffffffffffffffffffffffffffff\n      and\n        /* \"contracts/Products.sol\":1372:1382  msg.sender */\n      caller\n        /* \"contracts/Products.sol\":1372:1391  msg.sender != owner */\n      0xffffffffffffffffffffffffffffffffffffffff\n      and\n      eq\n        /* \"contracts/Products.sol\":1369:1867  if(msg.sender != owner){... */\n      tag_165\n      jumpi\n        /* \"contracts/Products.sol\":1420:1437  Role.Manufacturer */\n      0x00\n        /* \"contracts/Products.sol\":1405:1437  currentRole == Role.Manufacturer */\n      0x03\n      dup2\n      gt\n      iszero\n      tag_166\n      jumpi\n      mstore(0x00, 0x4e487b7100000000000000000000000000000000000000000000000000000000)\n      mstore(0x04, 0x21)\n      revert(0x00, 0x24)\n    tag_166:\n        /* \"contracts/Products.sol\":1405:1416  currentRole */\n      dup3\n        /* \"contracts/Products.sol\":1405:1437  currentRole == Role.Manufacturer */\n      0x03\n      dup2\n      gt\n      iszero\n      tag_167\n      jumpi\n      mstore(0x00, 0x4e487b7100000000000000000000000000000000000000000000000000000000)\n      mstore(0x04, 0x21)\n      revert(0x00, 0x24)\n    tag_167:\n      eq\n        /* \"contracts/Products.sol\":1405:1462  currentRole == Role.Manufacturer && role != Role.Supplier */\n      dup1\n      iszero\n      tag_168\n      jumpi\n      pop\n        /* \"contracts/Products.sol\":1449:1462  Role.Supplier */\n      0x01\n        /* \"contracts/Products.sol\":1441:1462  role != Role.Supplier */\n      0x03\n      dup2\n      gt\n      iszero\n      tag_169\n      jumpi\n      mstore(0x00, 0x4e487b7100000000000000000000000000000000000000000000000000000000)\n      mstore(0x04, 0x21)\n      revert(0x00, 0x24)\n    tag_169:\n        /* \"contracts/Products.sol\":1441:1445  role */\n      dup2\n        /* \"contracts/Products.sol\":1441:1462  role != Role.Supplier */\n      0x03\n      dup2\n      gt\n      iszero\n      tag_170\n      jumpi\n      mstore(0x00, 0x4e487b7100000000000000000000000000000000000000000000000000000000)\n      mstore(0x04, 0x21)\n      revert(0x00, 0x24)\n    tag_170:\n      eq\n      iszero\n        /* \"contracts/Products.sol\":1405:1462  currentRole == Role.Manufacturer && role != Role.Supplier */\n    tag_168:\n        /* \"contracts/Products.sol\":1402:1525  if(currentRole == Role.Manufacturer && role != Role.Supplier){revert(\"Cannot sell to manufacturer or customer or vendor\");} */\n      iszero\n      tag_171\n      jumpi\n        /* \"contracts/Products.sol\":1464:1523  revert(\"Cannot sell to manufacturer or customer or vendor\") */\n      mload(0x40)\n      0x08c379a000000000000000000000000000000000000000000000000000000000\n      dup2\n      mstore\n      0x04\n      add\n      tag_172\n      swap1\n      tag_173\n      jump\t// in\n    tag_172:\n      mload(0x40)\n      dup1\n      swap2\n      sub\n      swap1\n      revert\n        /* \"contracts/Products.sol\":1402:1525  if(currentRole == Role.Manufacturer && role != Role.Supplier){revert(\"Cannot sell to manufacturer or customer or vendor\");} */\n    tag_171:\n        /* \"contracts/Products.sol\":1552:1565  Role.Supplier */\n      0x01\n        /* \"contracts/Products.sol\":1537:1565  currentRole == Role.Supplier */\n      0x03\n      dup2\n      gt\n      iszero\n      tag_174\n      jumpi\n      mstore(0x00, 0x4e487b7100000000000000000000000000000000000000000000000000000000)\n      mstore(0x04, 0x21)\n      revert(0x00, 0x24)\n    tag_174:\n        /* \"contracts/Products.sol\":1537:1548  currentRole */\n      dup3\n        /* \"contracts/Products.sol\":1537:1565  currentRole == Role.Supplier */\n      0x03\n      dup2\n      gt\n      iszero\n      tag_175\n      jumpi\n      mstore(0x00, 0x4e487b7100000000000000000000000000000000000000000000000000000000)\n      mstore(0x04, 0x21)\n      revert(0x00, 0x24)\n    tag_175:\n      eq\n        /* \"contracts/Products.sol\":1537:1588  currentRole == Role.Supplier && role != Role.Vendor */\n      dup1\n      iszero\n      tag_176\n      jumpi\n      pop\n        /* \"contracts/Products.sol\":1577:1588  Role.Vendor */\n      0x02\n        /* \"contracts/Products.sol\":1569:1588  role != Role.Vendor */\n      0x03\n      dup2\n      gt\n      iszero\n      tag_177\n      jumpi\n      mstore(0x00, 0x4e487b7100000000000000000000000000000000000000000000000000000000)\n      mstore(0x04, 0x21)\n      revert(0x00, 0x24)\n    tag_177:\n        /* \"contracts/Products.sol\":1569:1573  role */\n      dup2\n        /* \"contracts/Products.sol\":1569:1588  role != Role.Vendor */\n      0x03\n      dup2\n      gt\n      iszero\n      tag_178\n      jumpi\n      mstore(0x00, 0x4e487b7100000000000000000000000000000000000000000000000000000000)\n      mstore(0x04, 0x21)\n      revert(0x00, 0x24)\n    tag_178:\n      eq\n      iszero\n        /* \"contracts/Products.sol\":1537:1588  currentRole == Role.Supplier && role != Role.Vendor */\n    tag_176:\n        /* \"contracts/Products.sol\":1534:1654  if(currentRole == Role.Supplier && role != Role.Vendor){revert( \"Cannot sell to manufacturer or supplier or customer\");} */\n      iszero\n      tag_179\n      jumpi\n        /* \"contracts/Products.sol\":1590:1652  revert( \"Cannot sell to manufacturer or supplier or customer\") */\n      mload(0x40)\n      0x08c379a000000000000000000000000000000000000000000000000000000000\n      dup2\n      mstore\n      0x04\n      add\n      tag_180\n      swap1\n      tag_181\n      jump\t// in\n    tag_180:\n      mload(0x40)\n      dup1\n      swap2\n      sub\n      swap1\n      revert\n        /* \"contracts/Products.sol\":1534:1654  if(currentRole == Role.Supplier && role != Role.Vendor){revert( \"Cannot sell to manufacturer or supplier or customer\");} */\n    tag_179:\n        /* \"contracts/Products.sol\":1681:1692  Role.Vendor */\n      0x02\n        /* \"contracts/Products.sol\":1666:1692  currentRole == Role.Vendor */\n      0x03\n      dup2\n      gt\n      iszero\n      tag_182\n      jumpi\n      mstore(0x00, 0x4e487b7100000000000000000000000000000000000000000000000000000000)\n      mstore(0x04, 0x21)\n      revert(0x00, 0x24)\n    tag_182:\n        /* \"contracts/Products.sol\":1666:1677  currentRole */\n      dup3\n        /* \"contracts/Products.sol\":1666:1692  currentRole == Role.Vendor */\n      0x03\n      dup2\n      gt\n      iszero\n      tag_183\n      jumpi\n      mstore(0x00, 0x4e487b7100000000000000000000000000000000000000000000000000000000)\n      mstore(0x04, 0x21)\n      revert(0x00, 0x24)\n    tag_183:\n      eq\n        /* \"contracts/Products.sol\":1666:1717  currentRole == Role.Vendor && role != Role.Customer */\n      dup1\n      iszero\n      tag_184\n      jumpi\n      pop\n        /* \"contracts/Products.sol\":1704:1717  Role.Customer */\n      0x03\n        /* \"contracts/Products.sol\":1696:1717  role != Role.Customer */\n      dup1\n      dup2\n      gt\n      iszero\n      tag_185\n      jumpi\n      mstore(0x00, 0x4e487b7100000000000000000000000000000000000000000000000000000000)\n      mstore(0x04, 0x21)\n      revert(0x00, 0x24)\n    tag_185:\n        /* \"contracts/Products.sol\":1696:1700  role */\n      dup2\n        /* \"contracts/Products.sol\":1696:1717  role != Role.Customer */\n      0x03\n      dup2\n      gt\n      iszero\n      tag_186\n      jumpi\n      mstore(0x00, 0x4e487b7100000000000000000000000000000000000000000000000000000000)\n      mstore(0x04, 0x21)\n      revert(0x00, 0x24)\n    tag_186:\n      eq\n      iszero\n        /* \"contracts/Products.sol\":1666:1717  currentRole == Role.Vendor && role != Role.Customer */\n    tag_184:\n        /* \"contracts/Products.sol\":1663:1781  if(currentRole == Role.Vendor && role != Role.Customer){revert( \"Cannot sell to manufacturer or supplier or vendor\");} */\n      iszero\n      tag_187\n      jumpi\n        /* \"contracts/Products.sol\":1719:1779  revert( \"Cannot sell to manufacturer or supplier or vendor\") */\n      mload(0x40)\n      0x08c379a000000000000000000000000000000000000000000000000000000000\n      dup2\n      mstore\n      0x04\n      add\n      tag_188\n      swap1\n      tag_189\n      jump\t// in\n    tag_188:\n      mload(0x40)\n      dup1\n      swap2\n      sub\n      swap1\n      revert\n        /* \"contracts/Products.sol\":1663:1781  if(currentRole == Role.Vendor && role != Role.Customer){revert( \"Cannot sell to manufacturer or supplier or vendor\");} */\n    tag_187:\n        /* \"contracts/Products.sol\":1808:1821  Role.Customer */\n      0x03\n        /* \"contracts/Products.sol\":1793:1821  currentRole == Role.Customer */\n      dup1\n      dup2\n      gt\n      iszero\n      tag_190\n      jumpi\n      mstore(0x00, 0x4e487b7100000000000000000000000000000000000000000000000000000000)\n      mstore(0x04, 0x21)\n      revert(0x00, 0x24)\n    tag_190:\n        /* \"contracts/Products.sol\":1793:1804  currentRole */\n      dup3\n        /* \"contracts/Products.sol\":1793:1821  currentRole == Role.Customer */\n      0x03\n      dup2\n      gt\n      iszero\n      tag_191\n      jumpi\n      mstore(0x00, 0x4e487b7100000000000000000000000000000000000000000000000000000000)\n      mstore(0x04, 0x21)\n      revert(0x00, 0x24)\n    tag_191:\n      eq\n        /* \"contracts/Products.sol\":1790:1857  if(currentRole == Role.Customer) {revert(\"Cannot sell a product\");} */\n      iszero\n      tag_192\n      jumpi\n        /* \"contracts/Products.sol\":1824:1855  revert(\"Cannot sell a product\") */\n      mload(0x40)\n      0x08c379a000000000000000000000000000000000000000000000000000000000\n      dup2\n      mstore\n      0x04\n      add\n      tag_193\n      swap1\n      tag_194\n      jump\t// in\n    tag_193:\n      mload(0x40)\n      dup1\n      swap2\n      sub\n      swap1\n      revert\n        /* \"contracts/Products.sol\":1790:1857  if(currentRole == Role.Customer) {revert(\"Cannot sell a product\");} */\n    tag_192:\n        /* \"contracts/Products.sol\":1369:1867  if(msg.sender != owner){... */\n    tag_165:\n        /* \"contracts/Products.sol\":1913:1914  0 */\n      0x00\n        /* \"contracts/Products.sol\":1884:1892  products */\n      0x04\n        /* \"contracts/Products.sol\":1904:1905  1 */\n      0x01\n        /* \"contracts/Products.sol\":1893:1903  _productId */\n      dup9\n        /* \"contracts/Products.sol\":1893:1905  _productId-1 */\n      tag_195\n      swap2\n      swap1\n      tag_196\n      jump\t// in\n    tag_195:\n        /* \"contracts/Products.sol\":1884:1906  products[_productId-1] */\n      dup2\n      sload\n      dup2\n      lt\n      tag_197\n      jumpi\n      mstore(0x00, 0x4e487b7100000000000000000000000000000000000000000000000000000000)\n      mstore(0x04, 0x32)\n      revert(0x00, 0x24)\n    tag_197:\n      swap1\n      0x00\n      mstore\n      keccak256(0x00, 0x20)\n      swap1\n      0x06\n      mul\n      add\n        /* \"contracts/Products.sol\":1884:1909  products[_productId-1].id */\n      0x00\n      add\n      sload\n        /* \"contracts/Products.sol\":1884:1914  products[_productId-1].id != 0 */\n      eq\n      iszero\n        /* \"contracts/Products.sol\":1876:1941  require(products[_productId-1].id != 0, \"Product does not exist\") */\n      tag_199\n      jumpi\n      mload(0x40)\n      0x08c379a000000000000000000000000000000000000000000000000000000000\n      dup2\n      mstore\n      0x04\n      add\n      tag_200\n      swap1\n      tag_201\n      jump\t// in\n    tag_200:\n      mload(0x40)\n      dup1\n      swap2\n      sub\n      swap1\n      revert\n    tag_199:\n        /* \"contracts/Products.sol\":1995:2005  msg.sender */\n      caller\n        /* \"contracts/Products.sol\":1959:2005  products[_productId-1].lastOwner == msg.sender */\n      0xffffffffffffffffffffffffffffffffffffffff\n      and\n        /* \"contracts/Products.sol\":1959:1967  products */\n      0x04\n        /* \"contracts/Products.sol\":1979:1980  1 */\n      0x01\n        /* \"contracts/Products.sol\":1968:1978  _productId */\n      dup9\n        /* \"contracts/Products.sol\":1968:1980  _productId-1 */\n      tag_202\n      swap2\n      swap1\n      tag_196\n      jump\t// in\n    tag_202:\n        /* \"contracts/Products.sol\":1959:1981  products[_productId-1] */\n      dup2\n      sload\n      dup2\n      lt\n      tag_203\n      jumpi\n      mstore(0x00, 0x4e487b7100000000000000000000000000000000000000000000000000000000)\n      mstore(0x04, 0x32)\n      revert(0x00, 0x24)\n    tag_203:\n      swap1\n      0x00\n      mstore\n      keccak256(0x00, 0x20)\n      swap1\n      0x06\n      mul\n      add\n        /* \"contracts/Products.sol\":1959:1991  products[_productId-1].lastOwner */\n      0x04\n      add\n      0x00\n      swap1\n      sload\n      swap1\n      0x0100\n      exp\n      swap1\n      div\n      0xffffffffffffffffffffffffffffffffffffffff\n      and\n        /* \"contracts/Products.sol\":1959:2005  products[_productId-1].lastOwner == msg.sender */\n      0xffffffffffffffffffffffffffffffffffffffff\n      and\n      eq\n        /* \"contracts/Products.sol\":1951:2047  require(products[_productId-1].lastOwner == msg.sender, \"You are not the owner of this product\") */\n      tag_205\n      jumpi\n      mload(0x40)\n      0x08c379a000000000000000000000000000000000000000000000000000000000\n      dup2\n      mstore\n      0x04\n      add\n      tag_206\n      swap1\n      tag_207\n      jump\t// in\n    tag_206:\n      mload(0x40)\n      dup1\n      swap2\n      sub\n      swap1\n      revert\n    tag_205:\n        /* \"contracts/Products.sol\":2092:2101  _newOwner */\n      dup5\n        /* \"contracts/Products.sol\":2057:2065  products */\n      0x04\n        /* \"contracts/Products.sol\":2077:2078  1 */\n      0x01\n        /* \"contracts/Products.sol\":2066:2076  _productId */\n      dup9\n        /* \"contracts/Products.sol\":2066:2078  _productId-1 */\n      tag_208\n      swap2\n      swap1\n      tag_196\n      jump\t// in\n    tag_208:\n        /* \"contracts/Products.sol\":2057:2079  products[_productId-1] */\n      dup2\n      sload\n      dup2\n      lt\n      tag_209\n      jumpi\n      mstore(0x00, 0x4e487b7100000000000000000000000000000000000000000000000000000000)\n      mstore(0x04, 0x32)\n      revert(0x00, 0x24)\n    tag_209:\n      swap1\n      0x00\n      mstore\n      keccak256(0x00, 0x20)\n      swap1\n      0x06\n      mul\n      add\n        /* \"contracts/Products.sol\":2057:2089  products[_productId-1].lastOwner */\n      0x04\n      add\n      0x00\n        /* \"contracts/Products.sol\":2057:2101  products[_productId-1].lastOwner = _newOwner */\n      0x0100\n      exp\n      dup2\n      sload\n      dup2\n      0xffffffffffffffffffffffffffffffffffffffff\n      mul\n      not\n      and\n      swap1\n      dup4\n      0xffffffffffffffffffffffffffffffffffffffff\n      and\n      mul\n      or\n      swap1\n      sstore\n      pop\n        /* \"contracts/Products.sol\":2147:2162  block.timestamp */\n      timestamp\n        /* \"contracts/Products.sol\":2111:2119  products */\n      0x04\n        /* \"contracts/Products.sol\":2131:2132  1 */\n      0x01\n        /* \"contracts/Products.sol\":2120:2130  _productId */\n      dup9\n        /* \"contracts/Products.sol\":2120:2132  _productId-1 */\n      tag_211\n      swap2\n      swap1\n      tag_196\n      jump\t// in\n    tag_211:\n        /* \"contracts/Products.sol\":2111:2133  products[_productId-1] */\n      dup2\n      sload\n      dup2\n      lt\n      tag_212\n      jumpi\n      mstore(0x00, 0x4e487b7100000000000000000000000000000000000000000000000000000000)\n      mstore(0x04, 0x32)\n      revert(0x00, 0x24)\n    tag_212:\n      swap1\n      0x00\n      mstore\n      keccak256(0x00, 0x20)\n      swap1\n      0x06\n      mul\n      add\n        /* \"contracts/Products.sol\":2111:2144  products[_productId-1].buyingDate */\n      0x05\n      add\n        /* \"contracts/Products.sol\":2111:2162  products[_productId-1].buyingDate = block.timestamp */\n      dup2\n      swap1\n      sstore\n      pop\n        /* \"contracts/WhiteList.sol\":1125:1126  _ */\n      pop\n      pop\n      pop\n      pop\n        /* \"contracts/Products.sol\":1076:2173  function transferProductOwnership(uint _productId, address _newOwner) public onlyWhitelisted {... */\n      pop\n      pop\n      jump\t// out\n        /* \"contracts/WhiteList.sol\":890:1006  function removeFromWhitelist(address _beneficiary) public onlyOwner {\r... */\n    tag_44:\n        /* \"contracts/Owner.sol\":716:721  owner */\n      0x00\n      dup1\n      sload\n      swap1\n      0x0100\n      exp\n      swap1\n      div\n      0xffffffffffffffffffffffffffffffffffffffff\n      and\n        /* \"contracts/Owner.sol\":702:721  msg.sender == owner */\n      0xffffffffffffffffffffffffffffffffffffffff\n      and\n        /* \"contracts/Owner.sol\":702:712  msg.sender */\n      caller\n        /* \"contracts/Owner.sol\":702:721  msg.sender == owner */\n      0xffffffffffffffffffffffffffffffffffffffff\n      and\n      eq\n        /* \"contracts/Owner.sol\":694:750  require(msg.sender == owner, \"Not authorized operation\") */\n      tag_215\n      jumpi\n      mload(0x40)\n      0x08c379a000000000000000000000000000000000000000000000000000000000\n      dup2\n      mstore\n      0x04\n      add\n      tag_216\n      swap1\n      tag_77\n      jump\t// in\n    tag_216:\n      mload(0x40)\n      dup1\n      swap2\n      sub\n      swap1\n      revert\n    tag_215:\n        /* \"contracts/WhiteList.sol\":993:998  false */\n      0x00\n        /* \"contracts/WhiteList.sol\":967:976  whitelist */\n      0x01\n        /* \"contracts/WhiteList.sol\":967:990  whitelist[_beneficiary] */\n      0x00\n        /* \"contracts/WhiteList.sol\":977:989  _beneficiary */\n      dup4\n        /* \"contracts/WhiteList.sol\":967:990  whitelist[_beneficiary] */\n      0xffffffffffffffffffffffffffffffffffffffff\n      and\n      0xffffffffffffffffffffffffffffffffffffffff\n      and\n      dup2\n      mstore\n      0x20\n      add\n      swap1\n      dup2\n      mstore\n      0x20\n      add\n      0x00\n      keccak256\n      0x00\n        /* \"contracts/WhiteList.sol\":967:998  whitelist[_beneficiary] = false */\n      0x0100\n      exp\n      dup2\n      sload\n      dup2\n      0xff\n      mul\n      not\n      and\n      swap1\n      dup4\n      iszero\n      iszero\n      mul\n      or\n      swap1\n      sstore\n      pop\n        /* \"contracts/WhiteList.sol\":890:1006  function removeFromWhitelist(address _beneficiary) public onlyOwner {\r... */\n      pop\n      jump\t// out\n        /* \"contracts/Owner.sol\":275:295  address public owner */\n    tag_46:\n      0x00\n      dup1\n      sload\n      swap1\n      0x0100\n      exp\n      swap1\n      div\n      0xffffffffffffffffffffffffffffffffffffffff\n      and\n      dup2\n      jump\t// out\n        /* \"contracts/WhiteList.sol\":189:230  mapping(address => bool) public whitelist */\n    tag_50:\n      mstore(0x20, 0x01)\n      dup1\n      0x00\n      mstore\n      keccak256(0x00, 0x40)\n      0x00\n      swap2\n      pop\n      sload\n      swap1\n      0x0100\n      exp\n      swap1\n      div\n      0xff\n      and\n      dup2\n      jump\t// out\n        /* \"contracts/Users.sol\":1804:1892  function getUsersCount() public view returns (uint) {... */\n    tag_54:\n        /* \"contracts/Users.sol\":1850:1854  uint */\n      0x00\n        /* \"contracts/Users.sol\":1873:1878  users */\n      0x03\n        /* \"contracts/Users.sol\":1873:1885  users.length */\n      dup1\n      sload\n      swap1\n      pop\n        /* \"contracts/Users.sol\":1866:1885  return users.length */\n      swap1\n      pop\n        /* \"contracts/Users.sol\":1804:1892  function getUsersCount() public view returns (uint) {... */\n      swap1\n      jump\t// out\n        /* \"contracts/Products.sol\":2179:2325  function seeAllProdducts() public view returns( Products[] memory productList) {... */\n    tag_58:\n        /* \"contracts/Products.sol\":2227:2256  Products[] memory productList */\n      0x60\n        /* \"contracts/Products.sol\":2282:2290  products */\n      0x04\n        /* \"contracts/Products.sol\":2268:2290  productList = products */\n      dup1\n      sload\n      dup1\n      0x20\n      mul\n      0x20\n      add\n      mload(0x40)\n      swap1\n      dup2\n      add\n      0x40\n      mstore\n      dup1\n      swap3\n      swap2\n      swap1\n      dup2\n      dup2\n      mstore\n      0x20\n      add\n      0x00\n      swap1\n    tag_220:\n      dup3\n      dup3\n      lt\n      iszero\n      tag_221\n      jumpi\n      dup4\n      dup3\n      swap1\n      0x00\n      mstore\n      keccak256(0x00, 0x20)\n      swap1\n      0x06\n      mul\n      add\n      mload(0x40)\n      dup1\n      0xc0\n      add\n      0x40\n      mstore\n      swap1\n      dup2\n      0x00\n      dup3\n      add\n      sload\n      dup2\n      mstore\n      0x20\n      add\n      0x01\n      dup3\n      add\n      dup1\n      sload\n      tag_223\n      swap1\n      tag_94\n      jump\t// in\n    tag_223:\n      dup1\n      0x1f\n      add\n      0x20\n      dup1\n      swap2\n      div\n      mul\n      0x20\n      add\n      mload(0x40)\n      swap1\n      dup2\n      add\n      0x40\n      mstore\n      dup1\n      swap3\n      swap2\n      swap1\n      dup2\n      dup2\n      mstore\n      0x20\n      add\n      dup3\n      dup1\n      sload\n      tag_224\n      swap1\n      tag_94\n      jump\t// in\n    tag_224:\n      dup1\n      iszero\n      tag_225\n      jumpi\n      dup1\n      0x1f\n      lt\n      tag_226\n      jumpi\n      0x0100\n      dup1\n      dup4\n      sload\n      div\n      mul\n      dup4\n      mstore\n      swap2\n      0x20\n      add\n      swap2\n      jump(tag_225)\n    tag_226:\n      dup3\n      add\n      swap2\n      swap1\n      0x00\n      mstore\n      keccak256(0x00, 0x20)\n      swap1\n    tag_227:\n      dup2\n      sload\n      dup2\n      mstore\n      swap1\n      0x01\n      add\n      swap1\n      0x20\n      add\n      dup1\n      dup4\n      gt\n      tag_227\n      jumpi\n      dup3\n      swap1\n      sub\n      0x1f\n      and\n      dup3\n      add\n      swap2\n    tag_225:\n      pop\n      pop\n      pop\n      pop\n      pop\n      dup2\n      mstore\n      0x20\n      add\n      0x02\n      dup3\n      add\n      sload\n      dup2\n      mstore\n      0x20\n      add\n      0x03\n      dup3\n      add\n      sload\n      dup2\n      mstore\n      0x20\n      add\n      0x04\n      dup3\n      add\n      0x00\n      swap1\n      sload\n      swap1\n      0x0100\n      exp\n      swap1\n      div\n      0xffffffffffffffffffffffffffffffffffffffff\n      and\n      0xffffffffffffffffffffffffffffffffffffffff\n      and\n      0xffffffffffffffffffffffffffffffffffffffff\n      and\n      dup2\n      mstore\n      0x20\n      add\n      0x05\n      dup3\n      add\n      sload\n      dup2\n      mstore\n      pop\n      pop\n      dup2\n      mstore\n      0x20\n      add\n      swap1\n      0x01\n      add\n      swap1\n      jump(tag_220)\n    tag_221:\n      pop\n      pop\n      pop\n      pop\n      swap1\n      pop\n        /* \"contracts/Products.sol\":2179:2325  function seeAllProdducts() public view returns( Products[] memory productList) {... */\n      swap1\n      jump\t// out\n        /* \"contracts/WhiteList.sol\":624:739  function addToWhitelist(address _beneficiaries) public  {\r... */\n    tag_63:\n        /* \"contracts/WhiteList.sol\":725:729  true */\n      0x01\n        /* \"contracts/WhiteList.sol\":697:706  whitelist */\n      dup1\n        /* \"contracts/WhiteList.sol\":697:722  whitelist[_beneficiaries] */\n      0x00\n        /* \"contracts/WhiteList.sol\":707:721  _beneficiaries */\n      dup4\n        /* \"contracts/WhiteList.sol\":697:722  whitelist[_beneficiaries] */\n      0xffffffffffffffffffffffffffffffffffffffff\n      and\n      0xffffffffffffffffffffffffffffffffffffffff\n      and\n      dup2\n      mstore\n      0x20\n      add\n      swap1\n      dup2\n      mstore\n      0x20\n      add\n      0x00\n      keccak256\n      0x00\n        /* \"contracts/WhiteList.sol\":697:729  whitelist[_beneficiaries] = true */\n      0x0100\n      exp\n      dup2\n      sload\n      dup2\n      0xff\n      mul\n      not\n      and\n      swap1\n      dup4\n      iszero\n      iszero\n      mul\n      or\n      swap1\n      sstore\n      pop\n        /* \"contracts/WhiteList.sol\":624:739  function addToWhitelist(address _beneficiaries) public  {\r... */\n      pop\n      jump\t// out\n        /* \"contracts/Users.sol\":549:588  mapping(address => Actor) public actors */\n    tag_66:\n      mstore(0x20, 0x02)\n      dup1\n      0x00\n      mstore\n      keccak256(0x00, 0x40)\n      0x00\n      swap2\n      pop\n      swap1\n      pop\n      dup1\n      0x00\n      add\n      dup1\n      sload\n      tag_229\n      swap1\n      tag_94\n      jump\t// in\n    tag_229:\n      dup1\n      0x1f\n      add\n      0x20\n      dup1\n      swap2\n      div\n      mul\n      0x20\n      add\n      mload(0x40)\n      swap1\n      dup2\n      add\n      0x40\n      mstore\n      dup1\n      swap3\n      swap2\n      swap1\n      dup2\n      dup2\n      mstore\n      0x20\n      add\n      dup3\n      dup1\n      sload\n      tag_230\n      swap1\n      tag_94\n      jump\t// in\n    tag_230:\n      dup1\n      iszero\n      tag_231\n      jumpi\n      dup1\n      0x1f\n      lt\n      tag_232\n      jumpi\n      0x0100\n      dup1\n      dup4\n      sload\n      div\n      mul\n      dup4\n      mstore\n      swap2\n      0x20\n      add\n      swap2\n      jump(tag_231)\n    tag_232:\n      dup3\n      add\n      swap2\n      swap1\n      0x00\n      mstore\n      keccak256(0x00, 0x20)\n      swap1\n    tag_233:\n      dup2\n      sload\n      dup2\n      mstore\n      swap1\n      0x01\n      add\n      swap1\n      0x20\n      add\n      dup1\n      dup4\n      gt\n      tag_233\n      jumpi\n      dup3\n      swap1\n      sub\n      0x1f\n      and\n      dup3\n      add\n      swap2\n    tag_231:\n      pop\n      pop\n      pop\n      pop\n      pop\n      swap1\n      dup1\n      0x01\n      add\n      0x00\n      swap1\n      sload\n      swap1\n      0x0100\n      exp\n      swap1\n      div\n      0xff\n      and\n      swap1\n      pop\n      dup3\n      jump\t// out\n        /* \"contracts/Owner.sol\":940:1157  function transferOwnership(address newOwner) public onlyOwner {... */\n    tag_71:\n        /* \"contracts/Owner.sol\":716:721  owner */\n      0x00\n      dup1\n      sload\n      swap1\n      0x0100\n      exp\n      swap1\n      div\n      0xffffffffffffffffffffffffffffffffffffffff\n      and\n        /* \"contracts/Owner.sol\":702:721  msg.sender == owner */\n      0xffffffffffffffffffffffffffffffffffffffff\n      and\n        /* \"contracts/Owner.sol\":702:712  msg.sender */\n      caller\n        /* \"contracts/Owner.sol\":702:721  msg.sender == owner */\n      0xffffffffffffffffffffffffffffffffffffffff\n      and\n      eq\n        /* \"contracts/Owner.sol\":694:750  require(msg.sender == owner, \"Not authorized operation\") */\n      tag_235\n      jumpi\n      mload(0x40)\n      0x08c379a000000000000000000000000000000000000000000000000000000000\n      dup2\n      mstore\n      0x04\n      add\n      tag_236\n      swap1\n      tag_77\n      jump\t// in\n    tag_236:\n      mload(0x40)\n      dup1\n      swap2\n      sub\n      swap1\n      revert\n    tag_235:\n        /* \"contracts/Owner.sol\":1040:1041  0 */\n      0x00\n        /* \"contracts/Owner.sol\":1020:1042  newOwner != address(0) */\n      0xffffffffffffffffffffffffffffffffffffffff\n      and\n        /* \"contracts/Owner.sol\":1020:1028  newOwner */\n      dup2\n        /* \"contracts/Owner.sol\":1020:1042  newOwner != address(0) */\n      0xffffffffffffffffffffffffffffffffffffffff\n      and\n      eq\n      iszero\n        /* \"contracts/Owner.sol\":1012:1072  require(newOwner != address(0), \"Address shouldn't be zero\") */\n      tag_238\n      jumpi\n      mload(0x40)\n      0x08c379a000000000000000000000000000000000000000000000000000000000\n      dup2\n      mstore\n      0x04\n      add\n      tag_239\n      swap1\n      tag_240\n      jump\t// in\n    tag_239:\n      mload(0x40)\n      dup1\n      swap2\n      sub\n      swap1\n      revert\n    tag_238:\n        /* \"contracts/Owner.sol\":1115:1123  newOwner */\n      dup1\n        /* \"contracts/Owner.sol\":1087:1124  OwnershipTransferred(owner, newOwner) */\n      0xffffffffffffffffffffffffffffffffffffffff\n      and\n        /* \"contracts/Owner.sol\":1108:1113  owner */\n      0x00\n      dup1\n      sload\n      swap1\n      0x0100\n      exp\n      swap1\n      div\n      0xffffffffffffffffffffffffffffffffffffffff\n      and\n        /* \"contracts/Owner.sol\":1087:1124  OwnershipTransferred(owner, newOwner) */\n      0xffffffffffffffffffffffffffffffffffffffff\n      and\n      0x8be0079c531659141344cd1fd0a4f28419497f9722a3daafe3b4186f6b6457e0\n      mload(0x40)\n      mload(0x40)\n      dup1\n      swap2\n      sub\n      swap1\n      log3\n        /* \"contracts/Owner.sol\":1142:1150  newOwner */\n      dup1\n        /* \"contracts/Owner.sol\":1134:1139  owner */\n      0x00\n      dup1\n        /* \"contracts/Owner.sol\":1134:1150  owner = newOwner */\n      0x0100\n      exp\n      dup2\n      sload\n      dup2\n      0xffffffffffffffffffffffffffffffffffffffff\n      mul\n      not\n      and\n      swap1\n      dup4\n      0xffffffffffffffffffffffffffffffffffffffff\n      and\n      mul\n      or\n      swap1\n      sstore\n      pop\n        /* \"contracts/Owner.sol\":940:1157  function transferOwnership(address newOwner) public onlyOwner {... */\n      pop\n      jump\t// out\n        /* \"contracts/Products.sol\":814:1070  function isProductIdExists(uint _productId) internal view returns (bool) {... */\n    tag_81:\n        /* \"contracts/Products.sol\":881:885  bool */\n      0x00\n        /* \"contracts/Products.sol\":902:908  uint i */\n      dup1\n        /* \"contracts/Products.sol\":911:912  0 */\n      0x00\n        /* \"contracts/Products.sol\":902:912  uint i = 0 */\n      swap1\n      pop\n        /* \"contracts/Products.sol\":897:1042  for (uint i = 0; i < products.length; i++) {... */\n    tag_242:\n        /* \"contracts/Products.sol\":918:926  products */\n      0x04\n        /* \"contracts/Products.sol\":918:933  products.length */\n      dup1\n      sload\n      swap1\n      pop\n        /* \"contracts/Products.sol\":914:915  i */\n      dup2\n        /* \"contracts/Products.sol\":914:933  i < products.length */\n      lt\n        /* \"contracts/Products.sol\":897:1042  for (uint i = 0; i < products.length; i++) {... */\n      iszero\n      tag_243\n      jumpi\n        /* \"contracts/Products.sol\":976:986  _productId */\n      dup3\n        /* \"contracts/Products.sol\":958:966  products */\n      0x04\n        /* \"contracts/Products.sol\":967:968  i */\n      dup3\n        /* \"contracts/Products.sol\":958:969  products[i] */\n      dup2\n      sload\n      dup2\n      lt\n      tag_245\n      jumpi\n      mstore(0x00, 0x4e487b7100000000000000000000000000000000000000000000000000000000)\n      mstore(0x04, 0x32)\n      revert(0x00, 0x24)\n    tag_245:\n      swap1\n      0x00\n      mstore\n      keccak256(0x00, 0x20)\n      swap1\n      0x06\n      mul\n      add\n        /* \"contracts/Products.sol\":958:972  products[i].id */\n      0x00\n      add\n      sload\n        /* \"contracts/Products.sol\":958:986  products[i].id == _productId */\n      eq\n        /* \"contracts/Products.sol\":954:1032  if (products[i].id == _productId) {... */\n      iszero\n      tag_247\n      jumpi\n        /* \"contracts/Products.sol\":1013:1017  true */\n      0x01\n        /* \"contracts/Products.sol\":1006:1017  return true */\n      swap2\n      pop\n      pop\n      jump(tag_241)\n        /* \"contracts/Products.sol\":954:1032  if (products[i].id == _productId) {... */\n    tag_247:\n        /* \"contracts/Products.sol\":935:938  i++ */\n      dup1\n      dup1\n      tag_248\n      swap1\n      tag_249\n      jump\t// in\n    tag_248:\n      swap2\n      pop\n      pop\n        /* \"contracts/Products.sol\":897:1042  for (uint i = 0; i < products.length; i++) {... */\n      jump(tag_242)\n    tag_243:\n      pop\n        /* \"contracts/Products.sol\":1058:1063  false */\n      0x00\n        /* \"contracts/Products.sol\":1051:1063  return false */\n      swap1\n      pop\n        /* \"contracts/Products.sol\":814:1070  function isProductIdExists(uint _productId) internal view returns (bool) {... */\n    tag_241:\n      swap2\n      swap1\n      pop\n      jump\t// out\n    tag_88:\n      dup3\n      dup1\n      sload\n      tag_250\n      swap1\n      tag_94\n      jump\t// in\n    tag_250:\n      swap1\n      0x00\n      mstore\n      keccak256(0x00, 0x20)\n      swap1\n      0x1f\n      add\n      0x20\n      swap1\n      div\n      dup2\n      add\n      swap3\n      dup3\n      tag_252\n      jumpi\n      0x00\n      dup6\n      sstore\n      jump(tag_251)\n    tag_252:\n      dup3\n      0x1f\n      lt\n      tag_253\n      jumpi\n      dup1\n      mload\n      not(0xff)\n      and\n      dup4\n      dup1\n      add\n      or\n      dup6\n      sstore\n      jump(tag_251)\n    tag_253:\n      dup3\n      dup1\n      add\n      0x01\n      add\n      dup6\n      sstore\n      dup3\n      iszero\n      tag_251\n      jumpi\n      swap2\n      dup3\n      add\n    tag_254:\n      dup3\n      dup2\n      gt\n      iszero\n      tag_255\n      jumpi\n      dup3\n      mload\n      dup3\n      sstore\n      swap2\n      0x20\n      add\n      swap2\n      swap1\n      0x01\n      add\n      swap1\n      jump(tag_254)\n    tag_255:\n    tag_251:\n      pop\n      swap1\n      pop\n      tag_256\n      swap2\n      swap1\n      tag_257\n      jump\t// in\n    tag_256:\n      pop\n      swap1\n      jump\t// out\n    tag_257:\n    tag_258:\n      dup1\n      dup3\n      gt\n      iszero\n      tag_259\n      jumpi\n      0x00\n      dup2\n      0x00\n      swap1\n      sstore\n      pop\n      0x01\n      add\n      jump(tag_258)\n    tag_259:\n      pop\n      swap1\n      jump\t// out\n        /* \"#utility.yul\":7:351   */\n    tag_261:\n      0x00\n        /* \"#utility.yul\":110:175   */\n      tag_263\n        /* \"#utility.yul\":125:174   */\n      tag_264\n        /* \"#utility.yul\":167:173   */\n      dup5\n        /* \"#utility.yul\":125:174   */\n      tag_265\n      jump\t// in\n    tag_264:\n        /* \"#utility.yul\":110:175   */\n      tag_266\n      jump\t// in\n    tag_263:\n        /* \"#utility.yul\":101:175   */\n      swap1\n      pop\n        /* \"#utility.yul\":198:204   */\n      dup3\n        /* \"#utility.yul\":191:196   */\n      dup2\n        /* \"#utility.yul\":184:205   */\n      mstore\n        /* \"#utility.yul\":236:240   */\n      0x20\n        /* \"#utility.yul\":229:234   */\n      dup2\n        /* \"#utility.yul\":225:241   */\n      add\n        /* \"#utility.yul\":274:277   */\n      dup5\n        /* \"#utility.yul\":265:271   */\n      dup5\n        /* \"#utility.yul\":260:263   */\n      dup5\n        /* \"#utility.yul\":256:272   */\n      add\n        /* \"#utility.yul\":253:278   */\n      gt\n        /* \"#utility.yul\":250:252   */\n      iszero\n      tag_267\n      jumpi\n        /* \"#utility.yul\":291:292   */\n      0x00\n        /* \"#utility.yul\":288:289   */\n      dup1\n        /* \"#utility.yul\":281:293   */\n      revert\n        /* \"#utility.yul\":250:252   */\n    tag_267:\n        /* \"#utility.yul\":304:345   */\n      tag_268\n        /* \"#utility.yul\":338:344   */\n      dup5\n        /* \"#utility.yul\":333:336   */\n      dup3\n        /* \"#utility.yul\":328:331   */\n      dup6\n        /* \"#utility.yul\":304:345   */\n      tag_269\n      jump\t// in\n    tag_268:\n        /* \"#utility.yul\":91:351   */\n      pop\n      swap4\n      swap3\n      pop\n      pop\n      pop\n      jump\t// out\n        /* \"#utility.yul\":357:496   */\n    tag_270:\n      0x00\n        /* \"#utility.yul\":441:447   */\n      dup2\n        /* \"#utility.yul\":428:448   */\n      calldataload\n        /* \"#utility.yul\":419:448   */\n      swap1\n      pop\n        /* \"#utility.yul\":457:490   */\n      tag_272\n        /* \"#utility.yul\":484:489   */\n      dup2\n        /* \"#utility.yul\":457:490   */\n      tag_273\n      jump\t// in\n    tag_272:\n        /* \"#utility.yul\":409:496   */\n      swap3\n      swap2\n      pop\n      pop\n      jump\t// out\n        /* \"#utility.yul\":502:657   */\n    tag_274:\n      0x00\n        /* \"#utility.yul\":594:600   */\n      dup2\n        /* \"#utility.yul\":581:601   */\n      calldataload\n        /* \"#utility.yul\":572:601   */\n      swap1\n      pop\n        /* \"#utility.yul\":610:651   */\n      tag_276\n        /* \"#utility.yul\":645:650   */\n      dup2\n        /* \"#utility.yul\":610:651   */\n      tag_277\n      jump\t// in\n    tag_276:\n        /* \"#utility.yul\":562:657   */\n      swap3\n      swap2\n      pop\n      pop\n      jump\t// out\n        /* \"#utility.yul\":677:950   */\n    tag_278:\n      0x00\n        /* \"#utility.yul\":782:785   */\n      dup3\n        /* \"#utility.yul\":775:779   */\n      0x1f\n        /* \"#utility.yul\":767:773   */\n      dup4\n        /* \"#utility.yul\":763:780   */\n      add\n        /* \"#utility.yul\":759:786   */\n      slt\n        /* \"#utility.yul\":749:751   */\n      tag_280\n      jumpi\n        /* \"#utility.yul\":800:801   */\n      0x00\n        /* \"#utility.yul\":797:798   */\n      dup1\n        /* \"#utility.yul\":790:802   */\n      revert\n        /* \"#utility.yul\":749:751   */\n    tag_280:\n        /* \"#utility.yul\":840:846   */\n      dup2\n        /* \"#utility.yul\":827:847   */\n      calldataload\n        /* \"#utility.yul\":865:944   */\n      tag_281\n        /* \"#utility.yul\":940:943   */\n      dup5\n        /* \"#utility.yul\":932:938   */\n      dup3\n        /* \"#utility.yul\":925:929   */\n      0x20\n        /* \"#utility.yul\":917:923   */\n      dup7\n        /* \"#utility.yul\":913:930   */\n      add\n        /* \"#utility.yul\":865:944   */\n      tag_261\n      jump\t// in\n    tag_281:\n        /* \"#utility.yul\":856:944   */\n      swap2\n      pop\n        /* \"#utility.yul\":739:950   */\n      pop\n      swap3\n      swap2\n      pop\n      pop\n      jump\t// out\n        /* \"#utility.yul\":956:1095   */\n    tag_282:\n      0x00\n        /* \"#utility.yul\":1040:1046   */\n      dup2\n        /* \"#utility.yul\":1027:1047   */\n      calldataload\n        /* \"#utility.yul\":1018:1047   */\n      swap1\n      pop\n        /* \"#utility.yul\":1056:1089   */\n      tag_284\n        /* \"#utility.yul\":1083:1088   */\n      dup2\n        /* \"#utility.yul\":1056:1089   */\n      tag_285\n      jump\t// in\n    tag_284:\n        /* \"#utility.yul\":1008:1095   */\n      swap3\n      swap2\n      pop\n      pop\n      jump\t// out\n        /* \"#utility.yul\":1101:1363   */\n    tag_43:\n      0x00\n        /* \"#utility.yul\":1209:1211   */\n      0x20\n        /* \"#utility.yul\":1197:1206   */\n      dup3\n        /* \"#utility.yul\":1188:1195   */\n      dup5\n        /* \"#utility.yul\":1184:1207   */\n      sub\n        /* \"#utility.yul\":1180:1212   */\n      slt\n        /* \"#utility.yul\":1177:1179   */\n      iszero\n      tag_287\n      jumpi\n        /* \"#utility.yul\":1225:1226   */\n      0x00\n        /* \"#utility.yul\":1222:1223   */\n      dup1\n        /* \"#utility.yul\":1215:1227   */\n      revert\n        /* \"#utility.yul\":1177:1179   */\n    tag_287:\n        /* \"#utility.yul\":1268:1269   */\n      0x00\n        /* \"#utility.yul\":1293:1346   */\n      tag_288\n        /* \"#utility.yul\":1338:1345   */\n      dup5\n        /* \"#utility.yul\":1329:1335   */\n      dup3\n        /* \"#utility.yul\":1318:1327   */\n      dup6\n        /* \"#utility.yul\":1314:1336   */\n      add\n        /* \"#utility.yul\":1293:1346   */\n      tag_270\n      jump\t// in\n    tag_288:\n        /* \"#utility.yul\":1283:1346   */\n      swap2\n      pop\n        /* \"#utility.yul\":1239:1356   */\n      pop\n        /* \"#utility.yul\":1167:1363   */\n      swap3\n      swap2\n      pop\n      pop\n      jump\t// out\n        /* \"#utility.yul\":1369:2050   */\n    tag_30:\n      0x00\n      dup1\n      0x00\n        /* \"#utility.yul\":1529:1531   */\n      0x60\n        /* \"#utility.yul\":1517:1526   */\n      dup5\n        /* \"#utility.yul\":1508:1515   */\n      dup7\n        /* \"#utility.yul\":1504:1527   */\n      sub\n        /* \"#utility.yul\":1500:1532   */\n      slt\n        /* \"#utility.yul\":1497:1499   */\n      iszero\n      tag_290\n      jumpi\n        /* \"#utility.yul\":1545:1546   */\n      0x00\n        /* \"#utility.yul\":1542:1543   */\n      dup1\n        /* \"#utility.yul\":1535:1547   */\n      revert\n        /* \"#utility.yul\":1497:1499   */\n    tag_290:\n        /* \"#utility.yul\":1588:1589   */\n      0x00\n        /* \"#utility.yul\":1613:1666   */\n      tag_291\n        /* \"#utility.yul\":1658:1665   */\n      dup7\n        /* \"#utility.yul\":1649:1655   */\n      dup3\n        /* \"#utility.yul\":1638:1647   */\n      dup8\n        /* \"#utility.yul\":1634:1656   */\n      add\n        /* \"#utility.yul\":1613:1666   */\n      tag_270\n      jump\t// in\n    tag_291:\n        /* \"#utility.yul\":1603:1666   */\n      swap4\n      pop\n        /* \"#utility.yul\":1559:1676   */\n      pop\n        /* \"#utility.yul\":1743:1745   */\n      0x20\n        /* \"#utility.yul\":1732:1741   */\n      dup5\n        /* \"#utility.yul\":1728:1746   */\n      add\n        /* \"#utility.yul\":1715:1747   */\n      calldataload\n        /* \"#utility.yul\":1774:1792   */\n      0xffffffffffffffff\n        /* \"#utility.yul\":1766:1772   */\n      dup2\n        /* \"#utility.yul\":1763:1793   */\n      gt\n        /* \"#utility.yul\":1760:1762   */\n      iszero\n      tag_292\n      jumpi\n        /* \"#utility.yul\":1806:1807   */\n      0x00\n        /* \"#utility.yul\":1803:1804   */\n      dup1\n        /* \"#utility.yul\":1796:1808   */\n      revert\n        /* \"#utility.yul\":1760:1762   */\n    tag_292:\n        /* \"#utility.yul\":1834:1897   */\n      tag_293\n        /* \"#utility.yul\":1889:1896   */\n      dup7\n        /* \"#utility.yul\":1880:1886   */\n      dup3\n        /* \"#utility.yul\":1869:1878   */\n      dup8\n        /* \"#utility.yul\":1865:1887   */\n      add\n        /* \"#utility.yul\":1834:1897   */\n      tag_278\n      jump\t// in\n    tag_293:\n        /* \"#utility.yul\":1824:1897   */\n      swap3\n      pop\n        /* \"#utility.yul\":1686:1907   */\n      pop\n        /* \"#utility.yul\":1946:1948   */\n      0x40\n        /* \"#utility.yul\":1972:2033   */\n      tag_294\n        /* \"#utility.yul\":2025:2032   */\n      dup7\n        /* \"#utility.yul\":2016:2022   */\n      dup3\n        /* \"#utility.yul\":2005:2014   */\n      dup8\n        /* \"#utility.yul\":2001:2023   */\n      add\n        /* \"#utility.yul\":1972:2033   */\n      tag_274\n      jump\t// in\n    tag_294:\n        /* \"#utility.yul\":1962:2033   */\n      swap2\n      pop\n        /* \"#utility.yul\":1917:2043   */\n      pop\n        /* \"#utility.yul\":1487:2050   */\n      swap3\n      pop\n      swap3\n      pop\n      swap3\n      jump\t// out\n        /* \"#utility.yul\":2056:2721   */\n    tag_20:\n      0x00\n      dup1\n      0x00\n        /* \"#utility.yul\":2208:2210   */\n      0x60\n        /* \"#utility.yul\":2196:2205   */\n      dup5\n        /* \"#utility.yul\":2187:2194   */\n      dup7\n        /* \"#utility.yul\":2183:2206   */\n      sub\n        /* \"#utility.yul\":2179:2211   */\n      slt\n        /* \"#utility.yul\":2176:2178   */\n      iszero\n      tag_296\n      jumpi\n        /* \"#utility.yul\":2224:2225   */\n      0x00\n        /* \"#utility.yul\":2221:2222   */\n      dup1\n        /* \"#utility.yul\":2214:2226   */\n      revert\n        /* \"#utility.yul\":2176:2178   */\n    tag_296:\n        /* \"#utility.yul\":2295:2296   */\n      0x00\n        /* \"#utility.yul\":2284:2293   */\n      dup5\n        /* \"#utility.yul\":2280:2297   */\n      add\n        /* \"#utility.yul\":2267:2298   */\n      calldataload\n        /* \"#utility.yul\":2325:2343   */\n      0xffffffffffffffff\n        /* \"#utility.yul\":2317:2323   */\n      dup2\n        /* \"#utility.yul\":2314:2344   */\n      gt\n        /* \"#utility.yul\":2311:2313   */\n      iszero\n      tag_297\n      jumpi\n        /* \"#utility.yul\":2357:2358   */\n      0x00\n        /* \"#utility.yul\":2354:2355   */\n      dup1\n        /* \"#utility.yul\":2347:2359   */\n      revert\n        /* \"#utility.yul\":2311:2313   */\n    tag_297:\n        /* \"#utility.yul\":2385:2448   */\n      tag_298\n        /* \"#utility.yul\":2440:2447   */\n      dup7\n        /* \"#utility.yul\":2431:2437   */\n      dup3\n        /* \"#utility.yul\":2420:2429   */\n      dup8\n        /* \"#utility.yul\":2416:2438   */\n      add\n        /* \"#utility.yul\":2385:2448   */\n      tag_278\n      jump\t// in\n    tag_298:\n        /* \"#utility.yul\":2375:2448   */\n      swap4\n      pop\n        /* \"#utility.yul\":2238:2458   */\n      pop\n        /* \"#utility.yul\":2497:2499   */\n      0x20\n        /* \"#utility.yul\":2523:2576   */\n      tag_299\n        /* \"#utility.yul\":2568:2575   */\n      dup7\n        /* \"#utility.yul\":2559:2565   */\n      dup3\n        /* \"#utility.yul\":2548:2557   */\n      dup8\n        /* \"#utility.yul\":2544:2566   */\n      add\n        /* \"#utility.yul\":2523:2576   */\n      tag_282\n      jump\t// in\n    tag_299:\n        /* \"#utility.yul\":2513:2576   */\n      swap3\n      pop\n        /* \"#utility.yul\":2468:2586   */\n      pop\n        /* \"#utility.yul\":2625:2627   */\n      0x40\n        /* \"#utility.yul\":2651:2704   */\n      tag_300\n        /* \"#utility.yul\":2696:2703   */\n      dup7\n        /* \"#utility.yul\":2687:2693   */\n      dup3\n        /* \"#utility.yul\":2676:2685   */\n      dup8\n        /* \"#utility.yul\":2672:2694   */\n      add\n        /* \"#utility.yul\":2651:2704   */\n      tag_282\n      jump\t// in\n    tag_300:\n        /* \"#utility.yul\":2641:2704   */\n      swap2\n      pop\n        /* \"#utility.yul\":2596:2714   */\n      pop\n        /* \"#utility.yul\":2166:2721   */\n      swap3\n      pop\n      swap3\n      pop\n      swap3\n      jump\t// out\n        /* \"#utility.yul\":2727:2989   */\n    tag_24:\n      0x00\n        /* \"#utility.yul\":2835:2837   */\n      0x20\n        /* \"#utility.yul\":2823:2832   */\n      dup3\n        /* \"#utility.yul\":2814:2821   */\n      dup5\n        /* \"#utility.yul\":2810:2833   */\n      sub\n        /* \"#utility.yul\":2806:2838   */\n      slt\n        /* \"#utility.yul\":2803:2805   */\n      iszero\n      tag_302\n      jumpi\n        /* \"#utility.yul\":2851:2852   */\n      0x00\n        /* \"#utility.yul\":2848:2849   */\n      dup1\n        /* \"#utility.yul\":2841:2853   */\n      revert\n        /* \"#utility.yul\":2803:2805   */\n    tag_302:\n        /* \"#utility.yul\":2894:2895   */\n      0x00\n        /* \"#utility.yul\":2919:2972   */\n      tag_303\n        /* \"#utility.yul\":2964:2971   */\n      dup5\n        /* \"#utility.yul\":2955:2961   */\n      dup3\n        /* \"#utility.yul\":2944:2953   */\n      dup6\n        /* \"#utility.yul\":2940:2962   */\n      add\n        /* \"#utility.yul\":2919:2972   */\n      tag_282\n      jump\t// in\n    tag_303:\n        /* \"#utility.yul\":2909:2972   */\n      swap2\n      pop\n        /* \"#utility.yul\":2865:2982   */\n      pop\n        /* \"#utility.yul\":2793:2989   */\n      swap3\n      swap2\n      pop\n      pop\n      jump\t// out\n        /* \"#utility.yul\":2995:3402   */\n    tag_39:\n      0x00\n      dup1\n        /* \"#utility.yul\":3120:3122   */\n      0x40\n        /* \"#utility.yul\":3108:3117   */\n      dup4\n        /* \"#utility.yul\":3099:3106   */\n      dup6\n        /* \"#utility.yul\":3095:3118   */\n      sub\n        /* \"#utility.yul\":3091:3123   */\n      slt\n        /* \"#utility.yul\":3088:3090   */\n      iszero\n      tag_305\n      jumpi\n        /* \"#utility.yul\":3136:3137   */\n      0x00\n        /* \"#utility.yul\":3133:3134   */\n      dup1\n        /* \"#utility.yul\":3126:3138   */\n      revert\n        /* \"#utility.yul\":3088:3090   */\n    tag_305:\n        /* \"#utility.yul\":3179:3180   */\n      0x00\n        /* \"#utility.yul\":3204:3257   */\n      tag_306\n        /* \"#utility.yul\":3249:3256   */\n      dup6\n        /* \"#utility.yul\":3240:3246   */\n      dup3\n        /* \"#utility.yul\":3229:3238   */\n      dup7\n        /* \"#utility.yul\":3225:3247   */\n      add\n        /* \"#utility.yul\":3204:3257   */\n      tag_282\n      jump\t// in\n    tag_306:\n        /* \"#utility.yul\":3194:3257   */\n      swap3\n      pop\n        /* \"#utility.yul\":3150:3267   */\n      pop\n        /* \"#utility.yul\":3306:3308   */\n      0x20\n        /* \"#utility.yul\":3332:3385   */\n      tag_307\n        /* \"#utility.yul\":3377:3384   */\n      dup6\n        /* \"#utility.yul\":3368:3374   */\n      dup3\n        /* \"#utility.yul\":3357:3366   */\n      dup7\n        /* \"#utility.yul\":3353:3375   */\n      add\n        /* \"#utility.yul\":3332:3385   */\n      tag_270\n      jump\t// in\n    tag_307:\n        /* \"#utility.yul\":3322:3385   */\n      swap2\n      pop\n        /* \"#utility.yul\":3277:3395   */\n      pop\n        /* \"#utility.yul\":3078:3402   */\n      swap3\n      pop\n      swap3\n      swap1\n      pop\n      jump\t// out\n        /* \"#utility.yul\":3408:3664   */\n    tag_308:\n      0x00\n        /* \"#utility.yul\":3562:3658   */\n      tag_310\n        /* \"#utility.yul\":3654:3657   */\n      dup4\n        /* \"#utility.yul\":3646:3652   */\n      dup4\n        /* \"#utility.yul\":3562:3658   */\n      tag_311\n      jump\t// in\n    tag_310:\n        /* \"#utility.yul\":3548:3658   */\n      swap1\n      pop\n        /* \"#utility.yul\":3538:3664   */\n      swap3\n      swap2\n      pop\n      pop\n      jump\t// out\n        /* \"#utility.yul\":3670:3778   */\n    tag_312:\n        /* \"#utility.yul\":3747:3771   */\n      tag_314\n        /* \"#utility.yul\":3765:3770   */\n      dup2\n        /* \"#utility.yul\":3747:3771   */\n      tag_315\n      jump\t// in\n    tag_314:\n        /* \"#utility.yul\":3742:3745   */\n      dup3\n        /* \"#utility.yul\":3735:3772   */\n      mstore\n        /* \"#utility.yul\":3725:3778   */\n      pop\n      pop\n      jump\t// out\n        /* \"#utility.yul\":3784:3902   */\n    tag_316:\n        /* \"#utility.yul\":3871:3895   */\n      tag_318\n        /* \"#utility.yul\":3889:3894   */\n      dup2\n        /* \"#utility.yul\":3871:3895   */\n      tag_315\n      jump\t// in\n    tag_318:\n        /* \"#utility.yul\":3866:3869   */\n      dup3\n        /* \"#utility.yul\":3859:3896   */\n      mstore\n        /* \"#utility.yul\":3849:3902   */\n      pop\n      pop\n      jump\t// out\n        /* \"#utility.yul\":3966:5077   */\n    tag_319:\n      0x00\n        /* \"#utility.yul\":4164:4243   */\n      tag_321\n        /* \"#utility.yul\":4237:4242   */\n      dup3\n        /* \"#utility.yul\":4164:4243   */\n      tag_322\n      jump\t// in\n    tag_321:\n        /* \"#utility.yul\":4259:4370   */\n      tag_323\n        /* \"#utility.yul\":4363:4369   */\n      dup2\n        /* \"#utility.yul\":4358:4361   */\n      dup6\n        /* \"#utility.yul\":4259:4370   */\n      tag_324\n      jump\t// in\n    tag_323:\n        /* \"#utility.yul\":4252:4370   */\n      swap4\n      pop\n        /* \"#utility.yul\":4396:4399   */\n      dup4\n        /* \"#utility.yul\":4441:4445   */\n      0x20\n        /* \"#utility.yul\":4433:4439   */\n      dup3\n        /* \"#utility.yul\":4429:4446   */\n      mul\n        /* \"#utility.yul\":4424:4427   */\n      dup6\n        /* \"#utility.yul\":4420:4447   */\n      add\n        /* \"#utility.yul\":4471:4552   */\n      tag_325\n        /* \"#utility.yul\":4546:4551   */\n      dup6\n        /* \"#utility.yul\":4471:4552   */\n      tag_326\n      jump\t// in\n    tag_325:\n        /* \"#utility.yul\":4575:4582   */\n      dup1\n        /* \"#utility.yul\":4606:4607   */\n      0x00\n        /* \"#utility.yul\":4591:5032   */\n    tag_327:\n        /* \"#utility.yul\":4616:4622   */\n      dup6\n        /* \"#utility.yul\":4613:4614   */\n      dup2\n        /* \"#utility.yul\":4610:4623   */\n      lt\n        /* \"#utility.yul\":4591:5032   */\n      iszero\n      tag_329\n      jumpi\n        /* \"#utility.yul\":4687:4696   */\n      dup5\n        /* \"#utility.yul\":4681:4685   */\n      dup5\n        /* \"#utility.yul\":4677:4697   */\n      sub\n        /* \"#utility.yul\":4672:4675   */\n      dup10\n        /* \"#utility.yul\":4665:4698   */\n      mstore\n        /* \"#utility.yul\":4738:4744   */\n      dup2\n        /* \"#utility.yul\":4732:4745   */\n      mload\n        /* \"#utility.yul\":4766:4880   */\n      tag_330\n        /* \"#utility.yul\":4875:4879   */\n      dup6\n        /* \"#utility.yul\":4860:4873   */\n      dup3\n        /* \"#utility.yul\":4766:4880   */\n      tag_308\n      jump\t// in\n    tag_330:\n        /* \"#utility.yul\":4758:4880   */\n      swap5\n      pop\n        /* \"#utility.yul\":4903:4988   */\n      tag_331\n        /* \"#utility.yul\":4981:4987   */\n      dup4\n        /* \"#utility.yul\":4903:4988   */\n      tag_332\n      jump\t// in\n    tag_331:\n        /* \"#utility.yul\":4893:4988   */\n      swap3\n      pop\n        /* \"#utility.yul\":5017:5021   */\n      0x20\n        /* \"#utility.yul\":5012:5015   */\n      dup11\n        /* \"#utility.yul\":5008:5022   */\n      add\n        /* \"#utility.yul\":5001:5022   */\n      swap10\n      pop\n        /* \"#utility.yul\":4651:5032   */\n      pop\n        /* \"#utility.yul\":4638:4639   */\n      0x01\n        /* \"#utility.yul\":4635:4636   */\n      dup2\n        /* \"#utility.yul\":4631:4640   */\n      add\n        /* \"#utility.yul\":4626:4640   */\n      swap1\n      pop\n        /* \"#utility.yul\":4591:5032   */\n      jump(tag_327)\n    tag_329:\n        /* \"#utility.yul\":4595:4609   */\n      pop\n        /* \"#utility.yul\":5048:5052   */\n      dup3\n        /* \"#utility.yul\":5041:5052   */\n      swap8\n      pop\n        /* \"#utility.yul\":5068:5071   */\n      dup8\n        /* \"#utility.yul\":5061:5071   */\n      swap6\n      pop\n        /* \"#utility.yul\":4140:5077   */\n      pop\n      pop\n      pop\n      pop\n      pop\n      swap3\n      swap2\n      pop\n      pop\n      jump\t// out\n        /* \"#utility.yul\":5083:5192   */\n    tag_333:\n        /* \"#utility.yul\":5164:5185   */\n      tag_335\n        /* \"#utility.yul\":5179:5184   */\n      dup2\n        /* \"#utility.yul\":5164:5185   */\n      tag_336\n      jump\t// in\n    tag_335:\n        /* \"#utility.yul\":5159:5162   */\n      dup3\n        /* \"#utility.yul\":5152:5186   */\n      mstore\n        /* \"#utility.yul\":5142:5192   */\n      pop\n      pop\n      jump\t// out\n        /* \"#utility.yul\":5198:5341   */\n    tag_337:\n        /* \"#utility.yul\":5291:5334   */\n      tag_339\n        /* \"#utility.yul\":5328:5333   */\n      dup2\n        /* \"#utility.yul\":5291:5334   */\n      tag_340\n      jump\t// in\n    tag_339:\n        /* \"#utility.yul\":5286:5289   */\n      dup3\n        /* \"#utility.yul\":5279:5335   */\n      mstore\n        /* \"#utility.yul\":5269:5341   */\n      pop\n      pop\n      jump\t// out\n        /* \"#utility.yul\":5347:5691   */\n    tag_341:\n      0x00\n        /* \"#utility.yul\":5453:5492   */\n      tag_343\n        /* \"#utility.yul\":5486:5491   */\n      dup3\n        /* \"#utility.yul\":5453:5492   */\n      tag_344\n      jump\t// in\n    tag_343:\n        /* \"#utility.yul\":5508:5569   */\n      tag_345\n        /* \"#utility.yul\":5562:5568   */\n      dup2\n        /* \"#utility.yul\":5557:5560   */\n      dup6\n        /* \"#utility.yul\":5508:5569   */\n      tag_346\n      jump\t// in\n    tag_345:\n        /* \"#utility.yul\":5501:5569   */\n      swap4\n      pop\n        /* \"#utility.yul\":5578:5630   */\n      tag_347\n        /* \"#utility.yul\":5623:5629   */\n      dup2\n        /* \"#utility.yul\":5618:5621   */\n      dup6\n        /* \"#utility.yul\":5611:5615   */\n      0x20\n        /* \"#utility.yul\":5604:5609   */\n      dup7\n        /* \"#utility.yul\":5600:5616   */\n      add\n        /* \"#utility.yul\":5578:5630   */\n      tag_348\n      jump\t// in\n    tag_347:\n        /* \"#utility.yul\":5655:5684   */\n      tag_349\n        /* \"#utility.yul\":5677:5683   */\n      dup2\n        /* \"#utility.yul\":5655:5684   */\n      tag_350\n      jump\t// in\n    tag_349:\n        /* \"#utility.yul\":5650:5653   */\n      dup5\n        /* \"#utility.yul\":5646:5685   */\n      add\n        /* \"#utility.yul\":5639:5685   */\n      swap2\n      pop\n        /* \"#utility.yul\":5429:5691   */\n      pop\n      swap3\n      swap2\n      pop\n      pop\n      jump\t// out\n        /* \"#utility.yul\":5697:6061   */\n    tag_351:\n      0x00\n        /* \"#utility.yul\":5813:5852   */\n      tag_353\n        /* \"#utility.yul\":5846:5851   */\n      dup3\n        /* \"#utility.yul\":5813:5852   */\n      tag_344\n      jump\t// in\n    tag_353:\n        /* \"#utility.yul\":5868:5939   */\n      tag_354\n        /* \"#utility.yul\":5932:5938   */\n      dup2\n        /* \"#utility.yul\":5927:5930   */\n      dup6\n        /* \"#utility.yul\":5868:5939   */\n      tag_355\n      jump\t// in\n    tag_354:\n        /* \"#utility.yul\":5861:5939   */\n      swap4\n      pop\n        /* \"#utility.yul\":5948:6000   */\n      tag_356\n        /* \"#utility.yul\":5993:5999   */\n      dup2\n        /* \"#utility.yul\":5988:5991   */\n      dup6\n        /* \"#utility.yul\":5981:5985   */\n      0x20\n        /* \"#utility.yul\":5974:5979   */\n      dup7\n        /* \"#utility.yul\":5970:5986   */\n      add\n        /* \"#utility.yul\":5948:6000   */\n      tag_348\n      jump\t// in\n    tag_356:\n        /* \"#utility.yul\":6025:6054   */\n      tag_357\n        /* \"#utility.yul\":6047:6053   */\n      dup2\n        /* \"#utility.yul\":6025:6054   */\n      tag_350\n      jump\t// in\n    tag_357:\n        /* \"#utility.yul\":6020:6023   */\n      dup5\n        /* \"#utility.yul\":6016:6055   */\n      add\n        /* \"#utility.yul\":6009:6055   */\n      swap2\n      pop\n        /* \"#utility.yul\":5789:6061   */\n      pop\n      swap3\n      swap2\n      pop\n      pop\n      jump\t// out\n        /* \"#utility.yul\":6091:6893   */\n    tag_358:\n      0x00\n        /* \"#utility.yul\":6213:6218   */\n      dup2\n        /* \"#utility.yul\":6207:6219   */\n      sload\n        /* \"#utility.yul\":6242:6278   */\n      tag_360\n        /* \"#utility.yul\":6268:6277   */\n      dup2\n        /* \"#utility.yul\":6242:6278   */\n      tag_94\n      jump\t// in\n    tag_360:\n        /* \"#utility.yul\":6294:6365   */\n      tag_361\n        /* \"#utility.yul\":6358:6364   */\n      dup2\n        /* \"#utility.yul\":6353:6356   */\n      dup7\n        /* \"#utility.yul\":6294:6365   */\n      tag_355\n      jump\t// in\n    tag_361:\n        /* \"#utility.yul\":6287:6365   */\n      swap5\n      pop\n        /* \"#utility.yul\":6396:6397   */\n      0x01\n        /* \"#utility.yul\":6385:6394   */\n      dup3\n        /* \"#utility.yul\":6381:6398   */\n      and\n        /* \"#utility.yul\":6412:6413   */\n      0x00\n        /* \"#utility.yul\":6407:6542   */\n      dup2\n      eq\n      tag_363\n      jumpi\n        /* \"#utility.yul\":6556:6557   */\n      0x01\n        /* \"#utility.yul\":6551:6887   */\n      dup2\n      eq\n      tag_364\n      jumpi\n        /* \"#utility.yul\":6374:6887   */\n      jump(tag_362)\n        /* \"#utility.yul\":6407:6542   */\n    tag_363:\n        /* \"#utility.yul\":6491:6495   */\n      0xff\n        /* \"#utility.yul\":6487:6496   */\n      not\n        /* \"#utility.yul\":6476:6485   */\n      dup4\n        /* \"#utility.yul\":6472:6497   */\n      and\n        /* \"#utility.yul\":6467:6470   */\n      dup7\n        /* \"#utility.yul\":6460:6498   */\n      mstore\n        /* \"#utility.yul\":6527:6531   */\n      0x20\n        /* \"#utility.yul\":6522:6525   */\n      dup7\n        /* \"#utility.yul\":6518:6532   */\n      add\n        /* \"#utility.yul\":6511:6532   */\n      swap4\n      pop\n        /* \"#utility.yul\":6407:6542   */\n      jump(tag_362)\n        /* \"#utility.yul\":6551:6887   */\n    tag_364:\n        /* \"#utility.yul\":6618:6656   */\n      tag_365\n        /* \"#utility.yul\":6650:6655   */\n      dup6\n        /* \"#utility.yul\":6618:6656   */\n      tag_366\n      jump\t// in\n    tag_365:\n        /* \"#utility.yul\":6678:6679   */\n      0x00\n        /* \"#utility.yul\":6692:6846   */\n    tag_367:\n        /* \"#utility.yul\":6706:6712   */\n      dup4\n        /* \"#utility.yul\":6703:6704   */\n      dup2\n        /* \"#utility.yul\":6700:6713   */\n      lt\n        /* \"#utility.yul\":6692:6846   */\n      iszero\n      tag_369\n      jumpi\n        /* \"#utility.yul\":6780:6787   */\n      dup2\n        /* \"#utility.yul\":6774:6788   */\n      sload\n        /* \"#utility.yul\":6770:6771   */\n      dup2\n        /* \"#utility.yul\":6765:6768   */\n      dup10\n        /* \"#utility.yul\":6761:6772   */\n      add\n        /* \"#utility.yul\":6754:6789   */\n      mstore\n        /* \"#utility.yul\":6830:6831   */\n      0x01\n        /* \"#utility.yul\":6821:6828   */\n      dup3\n        /* \"#utility.yul\":6817:6832   */\n      add\n        /* \"#utility.yul\":6806:6832   */\n      swap2\n      pop\n        /* \"#utility.yul\":6728:6732   */\n      0x20\n        /* \"#utility.yul\":6725:6726   */\n      dup2\n        /* \"#utility.yul\":6721:6733   */\n      add\n        /* \"#utility.yul\":6716:6733   */\n      swap1\n      pop\n        /* \"#utility.yul\":6692:6846   */\n      jump(tag_367)\n    tag_369:\n        /* \"#utility.yul\":6875:6876   */\n      dup1\n        /* \"#utility.yul\":6870:6873   */\n      dup9\n        /* \"#utility.yul\":6866:6877   */\n      add\n        /* \"#utility.yul\":6859:6877   */\n      swap6\n      pop\n        /* \"#utility.yul\":6558:6887   */\n      pop\n      pop\n        /* \"#utility.yul\":6374:6887   */\n    tag_362:\n      pop\n        /* \"#utility.yul\":6180:6893   */\n      pop\n      pop\n      swap3\n      swap2\n      pop\n      pop\n      jump\t// out\n        /* \"#utility.yul\":6899:7219   */\n    tag_370:\n      0x00\n        /* \"#utility.yul\":7062:7129   */\n      tag_372\n        /* \"#utility.yul\":7126:7128   */\n      0x16\n        /* \"#utility.yul\":7121:7124   */\n      dup4\n        /* \"#utility.yul\":7062:7129   */\n      tag_355\n      jump\t// in\n    tag_372:\n        /* \"#utility.yul\":7055:7129   */\n      swap2\n      pop\n        /* \"#utility.yul\":7159:7183   */\n      0x50726f6475637420646f6573206e6f7420657869737400000000000000000000\n        /* \"#utility.yul\":7155:7156   */\n      0x00\n        /* \"#utility.yul\":7150:7153   */\n      dup4\n        /* \"#utility.yul\":7146:7157   */\n      add\n        /* \"#utility.yul\":7139:7184   */\n      mstore\n        /* \"#utility.yul\":7210:7212   */\n      0x20\n        /* \"#utility.yul\":7205:7208   */\n      dup3\n        /* \"#utility.yul\":7201:7213   */\n      add\n        /* \"#utility.yul\":7194:7213   */\n      swap1\n      pop\n        /* \"#utility.yul\":7045:7219   */\n      swap2\n      swap1\n      pop\n      jump\t// out\n        /* \"#utility.yul\":7225:7594   */\n    tag_373:\n      0x00\n        /* \"#utility.yul\":7388:7455   */\n      tag_375\n        /* \"#utility.yul\":7452:7454   */\n      0x25\n        /* \"#utility.yul\":7447:7450   */\n      dup4\n        /* \"#utility.yul\":7388:7455   */\n      tag_355\n      jump\t// in\n    tag_375:\n        /* \"#utility.yul\":7381:7455   */\n      swap2\n      pop\n        /* \"#utility.yul\":7485:7519   */\n      0x596f7520617265206e6f7420746865206f776e6572206f662074686973207072\n        /* \"#utility.yul\":7481:7482   */\n      0x00\n        /* \"#utility.yul\":7476:7479   */\n      dup4\n        /* \"#utility.yul\":7472:7483   */\n      add\n        /* \"#utility.yul\":7465:7520   */\n      mstore\n        /* \"#utility.yul\":7551:7558   */\n      0x6f64756374000000000000000000000000000000000000000000000000000000\n        /* \"#utility.yul\":7546:7548   */\n      0x20\n        /* \"#utility.yul\":7541:7544   */\n      dup4\n        /* \"#utility.yul\":7537:7549   */\n      add\n        /* \"#utility.yul\":7530:7559   */\n      mstore\n        /* \"#utility.yul\":7585:7587   */\n      0x40\n        /* \"#utility.yul\":7580:7583   */\n      dup3\n        /* \"#utility.yul\":7576:7588   */\n      add\n        /* \"#utility.yul\":7569:7588   */\n      swap1\n      pop\n        /* \"#utility.yul\":7371:7594   */\n      swap2\n      swap1\n      pop\n      jump\t// out\n        /* \"#utility.yul\":7600:7919   */\n    tag_376:\n      0x00\n        /* \"#utility.yul\":7763:7830   */\n      tag_378\n        /* \"#utility.yul\":7827:7829   */\n      0x15\n        /* \"#utility.yul\":7822:7825   */\n      dup4\n        /* \"#utility.yul\":7763:7830   */\n      tag_355\n      jump\t// in\n    tag_378:\n        /* \"#utility.yul\":7756:7830   */\n      swap2\n      pop\n        /* \"#utility.yul\":7860:7883   */\n      0x43616e6e6f742073656c6c20612070726f647563740000000000000000000000\n        /* \"#utility.yul\":7856:7857   */\n      0x00\n        /* \"#utility.yul\":7851:7854   */\n      dup4\n        /* \"#utility.yul\":7847:7858   */\n      add\n        /* \"#utility.yul\":7840:7884   */\n      mstore\n        /* \"#utility.yul\":7910:7912   */\n      0x20\n        /* \"#utility.yul\":7905:7908   */\n      dup3\n        /* \"#utility.yul\":7901:7913   */\n      add\n        /* \"#utility.yul\":7894:7913   */\n      swap1\n      pop\n        /* \"#utility.yul\":7746:7919   */\n      swap2\n      swap1\n      pop\n      jump\t// out\n        /* \"#utility.yul\":7925:8248   */\n    tag_379:\n      0x00\n        /* \"#utility.yul\":8088:8155   */\n      tag_381\n        /* \"#utility.yul\":8152:8154   */\n      0x19\n        /* \"#utility.yul\":8147:8150   */\n      dup4\n        /* \"#utility.yul\":8088:8155   */\n      tag_355\n      jump\t// in\n    tag_381:\n        /* \"#utility.yul\":8081:8155   */\n      swap2\n      pop\n        /* \"#utility.yul\":8185:8212   */\n      0x50726f6475637420494420616c72656164792065786973747300000000000000\n        /* \"#utility.yul\":8181:8182   */\n      0x00\n        /* \"#utility.yul\":8176:8179   */\n      dup4\n        /* \"#utility.yul\":8172:8183   */\n      add\n        /* \"#utility.yul\":8165:8213   */\n      mstore\n        /* \"#utility.yul\":8239:8241   */\n      0x20\n        /* \"#utility.yul\":8234:8237   */\n      dup3\n        /* \"#utility.yul\":8230:8242   */\n      add\n        /* \"#utility.yul\":8223:8242   */\n      swap1\n      pop\n        /* \"#utility.yul\":8071:8248   */\n      swap2\n      swap1\n      pop\n      jump\t// out\n        /* \"#utility.yul\":8254:8635   */\n    tag_382:\n      0x00\n        /* \"#utility.yul\":8417:8484   */\n      tag_384\n        /* \"#utility.yul\":8481:8483   */\n      0x31\n        /* \"#utility.yul\":8476:8479   */\n      dup4\n        /* \"#utility.yul\":8417:8484   */\n      tag_355\n      jump\t// in\n    tag_384:\n        /* \"#utility.yul\":8410:8484   */\n      swap2\n      pop\n        /* \"#utility.yul\":8514:8548   */\n      0x43616e6e6f742073656c6c20746f206d616e756661637475726572206f722073\n        /* \"#utility.yul\":8510:8511   */\n      0x00\n        /* \"#utility.yul\":8505:8508   */\n      dup4\n        /* \"#utility.yul\":8501:8512   */\n      add\n        /* \"#utility.yul\":8494:8549   */\n      mstore\n        /* \"#utility.yul\":8580:8599   */\n      0x7570706c696572206f722076656e646f72000000000000000000000000000000\n        /* \"#utility.yul\":8575:8577   */\n      0x20\n        /* \"#utility.yul\":8570:8573   */\n      dup4\n        /* \"#utility.yul\":8566:8578   */\n      add\n        /* \"#utility.yul\":8559:8600   */\n      mstore\n        /* \"#utility.yul\":8626:8628   */\n      0x40\n        /* \"#utility.yul\":8621:8624   */\n      dup3\n        /* \"#utility.yul\":8617:8629   */\n      add\n        /* \"#utility.yul\":8610:8629   */\n      swap1\n      pop\n        /* \"#utility.yul\":8400:8635   */\n      swap2\n      swap1\n      pop\n      jump\t// out\n        /* \"#utility.yul\":8641:9024   */\n    tag_385:\n      0x00\n        /* \"#utility.yul\":8804:8871   */\n      tag_387\n        /* \"#utility.yul\":8868:8870   */\n      0x33\n        /* \"#utility.yul\":8863:8866   */\n      dup4\n        /* \"#utility.yul\":8804:8871   */\n      tag_355\n      jump\t// in\n    tag_387:\n        /* \"#utility.yul\":8797:8871   */\n      swap2\n      pop\n        /* \"#utility.yul\":8901:8935   */\n      0x43616e6e6f742073656c6c20746f206d616e756661637475726572206f722073\n        /* \"#utility.yul\":8897:8898   */\n      0x00\n        /* \"#utility.yul\":8892:8895   */\n      dup4\n        /* \"#utility.yul\":8888:8899   */\n      add\n        /* \"#utility.yul\":8881:8936   */\n      mstore\n        /* \"#utility.yul\":8967:8988   */\n      0x7570706c696572206f7220637573746f6d657200000000000000000000000000\n        /* \"#utility.yul\":8962:8964   */\n      0x20\n        /* \"#utility.yul\":8957:8960   */\n      dup4\n        /* \"#utility.yul\":8953:8965   */\n      add\n        /* \"#utility.yul\":8946:8989   */\n      mstore\n        /* \"#utility.yul\":9015:9017   */\n      0x40\n        /* \"#utility.yul\":9010:9013   */\n      dup3\n        /* \"#utility.yul\":9006:9018   */\n      add\n        /* \"#utility.yul\":8999:9018   */\n      swap1\n      pop\n        /* \"#utility.yul\":8787:9024   */\n      swap2\n      swap1\n      pop\n      jump\t// out\n        /* \"#utility.yul\":9030:9353   */\n    tag_388:\n      0x00\n        /* \"#utility.yul\":9193:9260   */\n      tag_390\n        /* \"#utility.yul\":9257:9259   */\n      0x19\n        /* \"#utility.yul\":9252:9255   */\n      dup4\n        /* \"#utility.yul\":9193:9260   */\n      tag_355\n      jump\t// in\n    tag_390:\n        /* \"#utility.yul\":9186:9260   */\n      swap2\n      pop\n        /* \"#utility.yul\":9290:9317   */\n      0x416464726573732073686f756c646e2774206265207a65726f00000000000000\n        /* \"#utility.yul\":9286:9287   */\n      0x00\n        /* \"#utility.yul\":9281:9284   */\n      dup4\n        /* \"#utility.yul\":9277:9288   */\n      add\n        /* \"#utility.yul\":9270:9318   */\n      mstore\n        /* \"#utility.yul\":9344:9346   */\n      0x20\n        /* \"#utility.yul\":9339:9342   */\n      dup3\n        /* \"#utility.yul\":9335:9347   */\n      add\n        /* \"#utility.yul\":9328:9347   */\n      swap1\n      pop\n        /* \"#utility.yul\":9176:9353   */\n      swap2\n      swap1\n      pop\n      jump\t// out\n        /* \"#utility.yul\":9359:9736   */\n    tag_391:\n      0x00\n        /* \"#utility.yul\":9522:9589   */\n      tag_393\n        /* \"#utility.yul\":9586:9588   */\n      0x2d\n        /* \"#utility.yul\":9581:9584   */\n      dup4\n        /* \"#utility.yul\":9522:9589   */\n      tag_355\n      jump\t// in\n    tag_393:\n        /* \"#utility.yul\":9515:9589   */\n      swap2\n      pop\n        /* \"#utility.yul\":9619:9653   */\n      0x43616e6e6f7420616464206d616e756661637475726572206f7220737570706c\n        /* \"#utility.yul\":9615:9616   */\n      0x00\n        /* \"#utility.yul\":9610:9613   */\n      dup4\n        /* \"#utility.yul\":9606:9617   */\n      add\n        /* \"#utility.yul\":9599:9654   */\n      mstore\n        /* \"#utility.yul\":9685:9700   */\n      0x696572206f722076656e646f7200000000000000000000000000000000000000\n        /* \"#utility.yul\":9680:9682   */\n      0x20\n        /* \"#utility.yul\":9675:9678   */\n      dup4\n        /* \"#utility.yul\":9671:9683   */\n      add\n        /* \"#utility.yul\":9664:9701   */\n      mstore\n        /* \"#utility.yul\":9727:9729   */\n      0x40\n        /* \"#utility.yul\":9722:9725   */\n      dup3\n        /* \"#utility.yul\":9718:9730   */\n      add\n        /* \"#utility.yul\":9711:9730   */\n      swap1\n      pop\n        /* \"#utility.yul\":9505:9736   */\n      swap2\n      swap1\n      pop\n      jump\t// out\n        /* \"#utility.yul\":9742:10121   */\n    tag_394:\n      0x00\n        /* \"#utility.yul\":9905:9972   */\n      tag_396\n        /* \"#utility.yul\":9969:9971   */\n      0x2f\n        /* \"#utility.yul\":9964:9967   */\n      dup4\n        /* \"#utility.yul\":9905:9972   */\n      tag_355\n      jump\t// in\n    tag_396:\n        /* \"#utility.yul\":9898:9972   */\n      swap2\n      pop\n        /* \"#utility.yul\":10002:10036   */\n      0x43616e6e6f7420616464206d616e756661637475726572206f7220637573746f\n        /* \"#utility.yul\":9998:9999   */\n      0x00\n        /* \"#utility.yul\":9993:9996   */\n      dup4\n        /* \"#utility.yul\":9989:10000   */\n      add\n        /* \"#utility.yul\":9982:10037   */\n      mstore\n        /* \"#utility.yul\":10068:10085   */\n      0x6d6572206f7220737570706c6965720000000000000000000000000000000000\n        /* \"#utility.yul\":10063:10065   */\n      0x20\n        /* \"#utility.yul\":10058:10061   */\n      dup4\n        /* \"#utility.yul\":10054:10066   */\n      add\n        /* \"#utility.yul\":10047:10086   */\n      mstore\n        /* \"#utility.yul\":10112:10114   */\n      0x40\n        /* \"#utility.yul\":10107:10110   */\n      dup3\n        /* \"#utility.yul\":10103:10115   */\n      add\n        /* \"#utility.yul\":10096:10115   */\n      swap1\n      pop\n        /* \"#utility.yul\":9888:10121   */\n      swap2\n      swap1\n      pop\n      jump\t// out\n        /* \"#utility.yul\":10127:10444   */\n    tag_397:\n      0x00\n        /* \"#utility.yul\":10290:10357   */\n      tag_399\n        /* \"#utility.yul\":10354:10356   */\n      0x13\n        /* \"#utility.yul\":10349:10352   */\n      dup4\n        /* \"#utility.yul\":10290:10357   */\n      tag_355\n      jump\t// in\n    tag_399:\n        /* \"#utility.yul\":10283:10357   */\n      swap2\n      pop\n        /* \"#utility.yul\":10387:10408   */\n      0x43616e6e6f742061646420616e206163746f7200000000000000000000000000\n        /* \"#utility.yul\":10383:10384   */\n      0x00\n        /* \"#utility.yul\":10378:10381   */\n      dup4\n        /* \"#utility.yul\":10374:10385   */\n      add\n        /* \"#utility.yul\":10367:10409   */\n      mstore\n        /* \"#utility.yul\":10435:10437   */\n      0x20\n        /* \"#utility.yul\":10430:10433   */\n      dup3\n        /* \"#utility.yul\":10426:10438   */\n      add\n        /* \"#utility.yul\":10419:10438   */\n      swap1\n      pop\n        /* \"#utility.yul\":10273:10444   */\n      swap2\n      swap1\n      pop\n      jump\t// out\n        /* \"#utility.yul\":10450:10766   */\n    tag_400:\n      0x00\n        /* \"#utility.yul\":10613:10680   */\n      tag_402\n        /* \"#utility.yul\":10677:10679   */\n      0x12\n        /* \"#utility.yul\":10672:10675   */\n      dup4\n        /* \"#utility.yul\":10613:10680   */\n      tag_355\n      jump\t// in\n    tag_402:\n        /* \"#utility.yul\":10606:10680   */\n      swap2\n      pop\n        /* \"#utility.yul\":10710:10730   */\n      0x4973206e6f742077686974656c69737465640000000000000000000000000000\n        /* \"#utility.yul\":10706:10707   */\n      0x00\n        /* \"#utility.yul\":10701:10704   */\n      dup4\n        /* \"#utility.yul\":10697:10708   */\n      add\n        /* \"#utility.yul\":10690:10731   */\n      mstore\n        /* \"#utility.yul\":10757:10759   */\n      0x20\n        /* \"#utility.yul\":10752:10755   */\n      dup3\n        /* \"#utility.yul\":10748:10760   */\n      add\n        /* \"#utility.yul\":10741:10760   */\n      swap1\n      pop\n        /* \"#utility.yul\":10596:10766   */\n      swap2\n      swap1\n      pop\n      jump\t// out\n        /* \"#utility.yul\":10772:11153   */\n    tag_403:\n      0x00\n        /* \"#utility.yul\":10935:11002   */\n      tag_405\n        /* \"#utility.yul\":10999:11001   */\n      0x31\n        /* \"#utility.yul\":10994:10997   */\n      dup4\n        /* \"#utility.yul\":10935:11002   */\n      tag_355\n      jump\t// in\n    tag_405:\n        /* \"#utility.yul\":10928:11002   */\n      swap2\n      pop\n        /* \"#utility.yul\":11032:11066   */\n      0x43616e6e6f742073656c6c20746f206d616e756661637475726572206f722063\n        /* \"#utility.yul\":11028:11029   */\n      0x00\n        /* \"#utility.yul\":11023:11026   */\n      dup4\n        /* \"#utility.yul\":11019:11030   */\n      add\n        /* \"#utility.yul\":11012:11067   */\n      mstore\n        /* \"#utility.yul\":11098:11117   */\n      0x7573746f6d6572206f722076656e646f72000000000000000000000000000000\n        /* \"#utility.yul\":11093:11095   */\n      0x20\n        /* \"#utility.yul\":11088:11091   */\n      dup4\n        /* \"#utility.yul\":11084:11096   */\n      add\n        /* \"#utility.yul\":11077:11118   */\n      mstore\n        /* \"#utility.yul\":11144:11146   */\n      0x40\n        /* \"#utility.yul\":11139:11142   */\n      dup3\n        /* \"#utility.yul\":11135:11147   */\n      add\n        /* \"#utility.yul\":11128:11147   */\n      swap1\n      pop\n        /* \"#utility.yul\":10918:11153   */\n      swap2\n      swap1\n      pop\n      jump\t// out\n        /* \"#utility.yul\":11159:11481   */\n    tag_406:\n      0x00\n        /* \"#utility.yul\":11322:11389   */\n      tag_408\n        /* \"#utility.yul\":11386:11388   */\n      0x18\n        /* \"#utility.yul\":11381:11384   */\n      dup4\n        /* \"#utility.yul\":11322:11389   */\n      tag_355\n      jump\t// in\n    tag_408:\n        /* \"#utility.yul\":11315:11389   */\n      swap2\n      pop\n        /* \"#utility.yul\":11419:11445   */\n      0x4e6f7420617574686f72697a6564206f7065726174696f6e0000000000000000\n        /* \"#utility.yul\":11415:11416   */\n      0x00\n        /* \"#utility.yul\":11410:11413   */\n      dup4\n        /* \"#utility.yul\":11406:11417   */\n      add\n        /* \"#utility.yul\":11399:11446   */\n      mstore\n        /* \"#utility.yul\":11472:11474   */\n      0x20\n        /* \"#utility.yul\":11467:11470   */\n      dup3\n        /* \"#utility.yul\":11463:11475   */\n      add\n        /* \"#utility.yul\":11456:11475   */\n      swap1\n      pop\n        /* \"#utility.yul\":11305:11481   */\n      swap2\n      swap1\n      pop\n      jump\t// out\n        /* \"#utility.yul\":11487:11866   */\n    tag_409:\n      0x00\n        /* \"#utility.yul\":11650:11717   */\n      tag_411\n        /* \"#utility.yul\":11714:11716   */\n      0x2f\n        /* \"#utility.yul\":11709:11712   */\n      dup4\n        /* \"#utility.yul\":11650:11717   */\n      tag_355\n      jump\t// in\n    tag_411:\n        /* \"#utility.yul\":11643:11717   */\n      swap2\n      pop\n        /* \"#utility.yul\":11747:11781   */\n      0x43616e6e6f7420616464206d616e756661637475726572206f7220737570706c\n        /* \"#utility.yul\":11743:11744   */\n      0x00\n        /* \"#utility.yul\":11738:11741   */\n      dup4\n        /* \"#utility.yul\":11734:11745   */\n      add\n        /* \"#utility.yul\":11727:11782   */\n      mstore\n        /* \"#utility.yul\":11813:11830   */\n      0x696572206f7220637573746f6d65720000000000000000000000000000000000\n        /* \"#utility.yul\":11808:11810   */\n      0x20\n        /* \"#utility.yul\":11803:11806   */\n      dup4\n        /* \"#utility.yul\":11799:11811   */\n      add\n        /* \"#utility.yul\":11792:11831   */\n      mstore\n        /* \"#utility.yul\":11857:11859   */\n      0x40\n        /* \"#utility.yul\":11852:11855   */\n      dup3\n        /* \"#utility.yul\":11848:11860   */\n      add\n        /* \"#utility.yul\":11841:11860   */\n      swap1\n      pop\n        /* \"#utility.yul\":11633:11866   */\n      swap2\n      swap1\n      pop\n      jump\t// out\n        /* \"#utility.yul\":11926:13251   */\n    tag_311:\n      0x00\n        /* \"#utility.yul\":12071:12075   */\n      0xc0\n        /* \"#utility.yul\":12066:12069   */\n      dup4\n        /* \"#utility.yul\":12062:12076   */\n      add\n        /* \"#utility.yul\":12156:12160   */\n      0x00\n        /* \"#utility.yul\":12149:12154   */\n      dup4\n        /* \"#utility.yul\":12145:12161   */\n      add\n        /* \"#utility.yul\":12139:12162   */\n      mload\n        /* \"#utility.yul\":12175:12238   */\n      tag_413\n        /* \"#utility.yul\":12232:12236   */\n      0x00\n        /* \"#utility.yul\":12227:12230   */\n      dup7\n        /* \"#utility.yul\":12223:12237   */\n      add\n        /* \"#utility.yul\":12209:12221   */\n      dup3\n        /* \"#utility.yul\":12175:12238   */\n      tag_414\n      jump\t// in\n    tag_413:\n        /* \"#utility.yul\":12086:12248   */\n      pop\n        /* \"#utility.yul\":12337:12341   */\n      0x20\n        /* \"#utility.yul\":12330:12335   */\n      dup4\n        /* \"#utility.yul\":12326:12342   */\n      add\n        /* \"#utility.yul\":12320:12343   */\n      mload\n        /* \"#utility.yul\":12390:12393   */\n      dup5\n        /* \"#utility.yul\":12384:12388   */\n      dup3\n        /* \"#utility.yul\":12380:12394   */\n      sub\n        /* \"#utility.yul\":12373:12377   */\n      0x20\n        /* \"#utility.yul\":12368:12371   */\n      dup7\n        /* \"#utility.yul\":12364:12378   */\n      add\n        /* \"#utility.yul\":12357:12395   */\n      mstore\n        /* \"#utility.yul\":12416:12489   */\n      tag_415\n        /* \"#utility.yul\":12484:12488   */\n      dup3\n        /* \"#utility.yul\":12470:12482   */\n      dup3\n        /* \"#utility.yul\":12416:12489   */\n      tag_341\n      jump\t// in\n    tag_415:\n        /* \"#utility.yul\":12408:12489   */\n      swap2\n      pop\n        /* \"#utility.yul\":12258:12500   */\n      pop\n        /* \"#utility.yul\":12585:12589   */\n      0x40\n        /* \"#utility.yul\":12578:12583   */\n      dup4\n        /* \"#utility.yul\":12574:12590   */\n      add\n        /* \"#utility.yul\":12568:12591   */\n      mload\n        /* \"#utility.yul\":12604:12667   */\n      tag_416\n        /* \"#utility.yul\":12661:12665   */\n      0x40\n        /* \"#utility.yul\":12656:12659   */\n      dup7\n        /* \"#utility.yul\":12652:12666   */\n      add\n        /* \"#utility.yul\":12638:12650   */\n      dup3\n        /* \"#utility.yul\":12604:12667   */\n      tag_414\n      jump\t// in\n    tag_416:\n        /* \"#utility.yul\":12510:12677   */\n      pop\n        /* \"#utility.yul\":12773:12777   */\n      0x60\n        /* \"#utility.yul\":12766:12771   */\n      dup4\n        /* \"#utility.yul\":12762:12778   */\n      add\n        /* \"#utility.yul\":12756:12779   */\n      mload\n        /* \"#utility.yul\":12792:12855   */\n      tag_417\n        /* \"#utility.yul\":12849:12853   */\n      0x60\n        /* \"#utility.yul\":12844:12847   */\n      dup7\n        /* \"#utility.yul\":12840:12854   */\n      add\n        /* \"#utility.yul\":12826:12838   */\n      dup3\n        /* \"#utility.yul\":12792:12855   */\n      tag_414\n      jump\t// in\n    tag_417:\n        /* \"#utility.yul\":12687:12865   */\n      pop\n        /* \"#utility.yul\":12952:12956   */\n      0x80\n        /* \"#utility.yul\":12945:12950   */\n      dup4\n        /* \"#utility.yul\":12941:12957   */\n      add\n        /* \"#utility.yul\":12935:12958   */\n      mload\n        /* \"#utility.yul\":12971:13034   */\n      tag_418\n        /* \"#utility.yul\":13028:13032   */\n      0x80\n        /* \"#utility.yul\":13023:13026   */\n      dup7\n        /* \"#utility.yul\":13019:13033   */\n      add\n        /* \"#utility.yul\":13005:13017   */\n      dup3\n        /* \"#utility.yul\":12971:13034   */\n      tag_312\n      jump\t// in\n    tag_418:\n        /* \"#utility.yul\":12875:13044   */\n      pop\n        /* \"#utility.yul\":13132:13136   */\n      0xa0\n        /* \"#utility.yul\":13125:13130   */\n      dup4\n        /* \"#utility.yul\":13121:13137   */\n      add\n        /* \"#utility.yul\":13115:13138   */\n      mload\n        /* \"#utility.yul\":13151:13214   */\n      tag_419\n        /* \"#utility.yul\":13208:13212   */\n      0xa0\n        /* \"#utility.yul\":13203:13206   */\n      dup7\n        /* \"#utility.yul\":13199:13213   */\n      add\n        /* \"#utility.yul\":13185:13197   */\n      dup3\n        /* \"#utility.yul\":13151:13214   */\n      tag_414\n      jump\t// in\n    tag_419:\n        /* \"#utility.yul\":13054:13224   */\n      pop\n        /* \"#utility.yul\":13241:13245   */\n      dup1\n        /* \"#utility.yul\":13234:13245   */\n      swap2\n      pop\n        /* \"#utility.yul\":12040:13251   */\n      pop\n      swap3\n      swap2\n      pop\n      pop\n      jump\t// out\n        /* \"#utility.yul\":13257:13365   */\n    tag_414:\n        /* \"#utility.yul\":13334:13358   */\n      tag_421\n        /* \"#utility.yul\":13352:13357   */\n      dup2\n        /* \"#utility.yul\":13334:13358   */\n      tag_422\n      jump\t// in\n    tag_421:\n        /* \"#utility.yul\":13329:13332   */\n      dup3\n        /* \"#utility.yul\":13322:13359   */\n      mstore\n        /* \"#utility.yul\":13312:13365   */\n      pop\n      pop\n      jump\t// out\n        /* \"#utility.yul\":13371:13489   */\n    tag_423:\n        /* \"#utility.yul\":13458:13482   */\n      tag_425\n        /* \"#utility.yul\":13476:13481   */\n      dup2\n        /* \"#utility.yul\":13458:13482   */\n      tag_422\n      jump\t// in\n    tag_425:\n        /* \"#utility.yul\":13453:13456   */\n      dup3\n        /* \"#utility.yul\":13446:13483   */\n      mstore\n        /* \"#utility.yul\":13436:13489   */\n      pop\n      pop\n      jump\t// out\n        /* \"#utility.yul\":13495:13717   */\n    tag_27:\n      0x00\n        /* \"#utility.yul\":13626:13628   */\n      0x20\n        /* \"#utility.yul\":13615:13624   */\n      dup3\n        /* \"#utility.yul\":13611:13629   */\n      add\n        /* \"#utility.yul\":13603:13629   */\n      swap1\n      pop\n        /* \"#utility.yul\":13639:13710   */\n      tag_427\n        /* \"#utility.yul\":13707:13708   */\n      0x00\n        /* \"#utility.yul\":13696:13705   */\n      dup4\n        /* \"#utility.yul\":13692:13709   */\n      add\n        /* \"#utility.yul\":13683:13689   */\n      dup5\n        /* \"#utility.yul\":13639:13710   */\n      tag_316\n      jump\t// in\n    tag_427:\n        /* \"#utility.yul\":13593:13717   */\n      swap3\n      swap2\n      pop\n      pop\n      jump\t// out\n        /* \"#utility.yul\":13723:14262   */\n    tag_102:\n      0x00\n        /* \"#utility.yul\":13933:13935   */\n      0x60\n        /* \"#utility.yul\":13922:13931   */\n      dup3\n        /* \"#utility.yul\":13918:13936   */\n      add\n        /* \"#utility.yul\":13910:13936   */\n      swap1\n      pop\n        /* \"#utility.yul\":13946:14017   */\n      tag_429\n        /* \"#utility.yul\":14014:14015   */\n      0x00\n        /* \"#utility.yul\":14003:14012   */\n      dup4\n        /* \"#utility.yul\":13999:14016   */\n      add\n        /* \"#utility.yul\":13990:13996   */\n      dup7\n        /* \"#utility.yul\":13946:14017   */\n      tag_316\n      jump\t// in\n    tag_429:\n        /* \"#utility.yul\":14064:14073   */\n      dup2\n        /* \"#utility.yul\":14058:14062   */\n      dup2\n        /* \"#utility.yul\":14054:14074   */\n      sub\n        /* \"#utility.yul\":14049:14051   */\n      0x20\n        /* \"#utility.yul\":14038:14047   */\n      dup4\n        /* \"#utility.yul\":14034:14052   */\n      add\n        /* \"#utility.yul\":14027:14075   */\n      mstore\n        /* \"#utility.yul\":14092:14167   */\n      tag_430\n        /* \"#utility.yul\":14162:14166   */\n      dup2\n        /* \"#utility.yul\":14153:14159   */\n      dup6\n        /* \"#utility.yul\":14092:14167   */\n      tag_358\n      jump\t// in\n    tag_430:\n        /* \"#utility.yul\":14084:14167   */\n      swap1\n      pop\n        /* \"#utility.yul\":14177:14255   */\n      tag_431\n        /* \"#utility.yul\":14251:14253   */\n      0x40\n        /* \"#utility.yul\":14240:14249   */\n      dup4\n        /* \"#utility.yul\":14236:14254   */\n      add\n        /* \"#utility.yul\":14227:14233   */\n      dup5\n        /* \"#utility.yul\":14177:14255   */\n      tag_337\n      jump\t// in\n    tag_431:\n        /* \"#utility.yul\":13900:14262   */\n      swap5\n      swap4\n      pop\n      pop\n      pop\n      pop\n      jump\t// out\n        /* \"#utility.yul\":14268:14741   */\n    tag_60:\n      0x00\n        /* \"#utility.yul\":14499:14501   */\n      0x20\n        /* \"#utility.yul\":14488:14497   */\n      dup3\n        /* \"#utility.yul\":14484:14502   */\n      add\n        /* \"#utility.yul\":14476:14502   */\n      swap1\n      pop\n        /* \"#utility.yul\":14548:14557   */\n      dup2\n        /* \"#utility.yul\":14542:14546   */\n      dup2\n        /* \"#utility.yul\":14538:14558   */\n      sub\n        /* \"#utility.yul\":14534:14535   */\n      0x00\n        /* \"#utility.yul\":14523:14532   */\n      dup4\n        /* \"#utility.yul\":14519:14536   */\n      add\n        /* \"#utility.yul\":14512:14559   */\n      mstore\n        /* \"#utility.yul\":14576:14734   */\n      tag_433\n        /* \"#utility.yul\":14729:14733   */\n      dup2\n        /* \"#utility.yul\":14720:14726   */\n      dup5\n        /* \"#utility.yul\":14576:14734   */\n      tag_319\n      jump\t// in\n    tag_433:\n        /* \"#utility.yul\":14568:14734   */\n      swap1\n      pop\n        /* \"#utility.yul\":14466:14741   */\n      swap3\n      swap2\n      pop\n      pop\n      jump\t// out\n        /* \"#utility.yul\":14747:14957   */\n    tag_52:\n      0x00\n        /* \"#utility.yul\":14872:14874   */\n      0x20\n        /* \"#utility.yul\":14861:14870   */\n      dup3\n        /* \"#utility.yul\":14857:14875   */\n      add\n        /* \"#utility.yul\":14849:14875   */\n      swap1\n      pop\n        /* \"#utility.yul\":14885:14950   */\n      tag_435\n        /* \"#utility.yul\":14947:14948   */\n      0x00\n        /* \"#utility.yul\":14936:14945   */\n      dup4\n        /* \"#utility.yul\":14932:14949   */\n      add\n        /* \"#utility.yul\":14923:14929   */\n      dup5\n        /* \"#utility.yul\":14885:14950   */\n      tag_333\n      jump\t// in\n    tag_435:\n        /* \"#utility.yul\":14839:14957   */\n      swap3\n      swap2\n      pop\n      pop\n      jump\t// out\n        /* \"#utility.yul\":14963:15398   */\n    tag_68:\n      0x00\n        /* \"#utility.yul\":15148:15150   */\n      0x40\n        /* \"#utility.yul\":15137:15146   */\n      dup3\n        /* \"#utility.yul\":15133:15151   */\n      add\n        /* \"#utility.yul\":15125:15151   */\n      swap1\n      pop\n        /* \"#utility.yul\":15197:15206   */\n      dup2\n        /* \"#utility.yul\":15191:15195   */\n      dup2\n        /* \"#utility.yul\":15187:15207   */\n      sub\n        /* \"#utility.yul\":15183:15184   */\n      0x00\n        /* \"#utility.yul\":15172:15181   */\n      dup4\n        /* \"#utility.yul\":15168:15185   */\n      add\n        /* \"#utility.yul\":15161:15208   */\n      mstore\n        /* \"#utility.yul\":15225:15303   */\n      tag_437\n        /* \"#utility.yul\":15298:15302   */\n      dup2\n        /* \"#utility.yul\":15289:15295   */\n      dup6\n        /* \"#utility.yul\":15225:15303   */\n      tag_351\n      jump\t// in\n    tag_437:\n        /* \"#utility.yul\":15217:15303   */\n      swap1\n      pop\n        /* \"#utility.yul\":15313:15391   */\n      tag_438\n        /* \"#utility.yul\":15387:15389   */\n      0x20\n        /* \"#utility.yul\":15376:15385   */\n      dup4\n        /* \"#utility.yul\":15372:15390   */\n      add\n        /* \"#utility.yul\":15363:15369   */\n      dup5\n        /* \"#utility.yul\":15313:15391   */\n      tag_337\n      jump\t// in\n    tag_438:\n        /* \"#utility.yul\":15115:15398   */\n      swap4\n      swap3\n      pop\n      pop\n      pop\n      jump\t// out\n        /* \"#utility.yul\":15404:15823   */\n    tag_201:\n      0x00\n        /* \"#utility.yul\":15608:15610   */\n      0x20\n        /* \"#utility.yul\":15597:15606   */\n      dup3\n        /* \"#utility.yul\":15593:15611   */\n      add\n        /* \"#utility.yul\":15585:15611   */\n      swap1\n      pop\n        /* \"#utility.yul\":15657:15666   */\n      dup2\n        /* \"#utility.yul\":15651:15655   */\n      dup2\n        /* \"#utility.yul\":15647:15667   */\n      sub\n        /* \"#utility.yul\":15643:15644   */\n      0x00\n        /* \"#utility.yul\":15632:15641   */\n      dup4\n        /* \"#utility.yul\":15628:15645   */\n      add\n        /* \"#utility.yul\":15621:15668   */\n      mstore\n        /* \"#utility.yul\":15685:15816   */\n      tag_440\n        /* \"#utility.yul\":15811:15815   */\n      dup2\n        /* \"#utility.yul\":15685:15816   */\n      tag_370\n      jump\t// in\n    tag_440:\n        /* \"#utility.yul\":15677:15816   */\n      swap1\n      pop\n        /* \"#utility.yul\":15575:15823   */\n      swap2\n      swap1\n      pop\n      jump\t// out\n        /* \"#utility.yul\":15829:16248   */\n    tag_207:\n      0x00\n        /* \"#utility.yul\":16033:16035   */\n      0x20\n        /* \"#utility.yul\":16022:16031   */\n      dup3\n        /* \"#utility.yul\":16018:16036   */\n      add\n        /* \"#utility.yul\":16010:16036   */\n      swap1\n      pop\n        /* \"#utility.yul\":16082:16091   */\n      dup2\n        /* \"#utility.yul\":16076:16080   */\n      dup2\n        /* \"#utility.yul\":16072:16092   */\n      sub\n        /* \"#utility.yul\":16068:16069   */\n      0x00\n        /* \"#utility.yul\":16057:16066   */\n      dup4\n        /* \"#utility.yul\":16053:16070   */\n      add\n        /* \"#utility.yul\":16046:16093   */\n      mstore\n        /* \"#utility.yul\":16110:16241   */\n      tag_442\n        /* \"#utility.yul\":16236:16240   */\n      dup2\n        /* \"#utility.yul\":16110:16241   */\n      tag_373\n      jump\t// in\n    tag_442:\n        /* \"#utility.yul\":16102:16241   */\n      swap1\n      pop\n        /* \"#utility.yul\":16000:16248   */\n      swap2\n      swap1\n      pop\n      jump\t// out\n        /* \"#utility.yul\":16254:16673   */\n    tag_194:\n      0x00\n        /* \"#utility.yul\":16458:16460   */\n      0x20\n        /* \"#utility.yul\":16447:16456   */\n      dup3\n        /* \"#utility.yul\":16443:16461   */\n      add\n        /* \"#utility.yul\":16435:16461   */\n      swap1\n      pop\n        /* \"#utility.yul\":16507:16516   */\n      dup2\n        /* \"#utility.yul\":16501:16505   */\n      dup2\n        /* \"#utility.yul\":16497:16517   */\n      sub\n        /* \"#utility.yul\":16493:16494   */\n      0x00\n        /* \"#utility.yul\":16482:16491   */\n      dup4\n        /* \"#utility.yul\":16478:16495   */\n      add\n        /* \"#utility.yul\":16471:16518   */\n      mstore\n        /* \"#utility.yul\":16535:16666   */\n      tag_444\n        /* \"#utility.yul\":16661:16665   */\n      dup2\n        /* \"#utility.yul\":16535:16666   */\n      tag_376\n      jump\t// in\n    tag_444:\n        /* \"#utility.yul\":16527:16666   */\n      swap1\n      pop\n        /* \"#utility.yul\":16425:16673   */\n      swap2\n      swap1\n      pop\n      jump\t// out\n        /* \"#utility.yul\":16679:17098   */\n    tag_84:\n      0x00\n        /* \"#utility.yul\":16883:16885   */\n      0x20\n        /* \"#utility.yul\":16872:16881   */\n      dup3\n        /* \"#utility.yul\":16868:16886   */\n      add\n        /* \"#utility.yul\":16860:16886   */\n      swap1\n      pop\n        /* \"#utility.yul\":16932:16941   */\n      dup2\n        /* \"#utility.yul\":16926:16930   */\n      dup2\n        /* \"#utility.yul\":16922:16942   */\n      sub\n        /* \"#utility.yul\":16918:16919   */\n      0x00\n        /* \"#utility.yul\":16907:16916   */\n      dup4\n        /* \"#utility.yul\":16903:16920   */\n      add\n        /* \"#utility.yul\":16896:16943   */\n      mstore\n        /* \"#utility.yul\":16960:17091   */\n      tag_446\n        /* \"#utility.yul\":17086:17090   */\n      dup2\n        /* \"#utility.yul\":16960:17091   */\n      tag_379\n      jump\t// in\n    tag_446:\n        /* \"#utility.yul\":16952:17091   */\n      swap1\n      pop\n        /* \"#utility.yul\":16850:17098   */\n      swap2\n      swap1\n      pop\n      jump\t// out\n        /* \"#utility.yul\":17104:17523   */\n    tag_189:\n      0x00\n        /* \"#utility.yul\":17308:17310   */\n      0x20\n        /* \"#utility.yul\":17297:17306   */\n      dup3\n        /* \"#utility.yul\":17293:17311   */\n      add\n        /* \"#utility.yul\":17285:17311   */\n      swap1\n      pop\n        /* \"#utility.yul\":17357:17366   */\n      dup2\n        /* \"#utility.yul\":17351:17355   */\n      dup2\n        /* \"#utility.yul\":17347:17367   */\n      sub\n        /* \"#utility.yul\":17343:17344   */\n      0x00\n        /* \"#utility.yul\":17332:17341   */\n      dup4\n        /* \"#utility.yul\":17328:17345   */\n      add\n        /* \"#utility.yul\":17321:17368   */\n      mstore\n        /* \"#utility.yul\":17385:17516   */\n      tag_448\n        /* \"#utility.yul\":17511:17515   */\n      dup2\n        /* \"#utility.yul\":17385:17516   */\n      tag_382\n      jump\t// in\n    tag_448:\n        /* \"#utility.yul\":17377:17516   */\n      swap1\n      pop\n        /* \"#utility.yul\":17275:17523   */\n      swap2\n      swap1\n      pop\n      jump\t// out\n        /* \"#utility.yul\":17529:17948   */\n    tag_181:\n      0x00\n        /* \"#utility.yul\":17733:17735   */\n      0x20\n        /* \"#utility.yul\":17722:17731   */\n      dup3\n        /* \"#utility.yul\":17718:17736   */\n      add\n        /* \"#utility.yul\":17710:17736   */\n      swap1\n      pop\n        /* \"#utility.yul\":17782:17791   */\n      dup2\n        /* \"#utility.yul\":17776:17780   */\n      dup2\n        /* \"#utility.yul\":17772:17792   */\n      sub\n        /* \"#utility.yul\":17768:17769   */\n      0x00\n        /* \"#utility.yul\":17757:17766   */\n      dup4\n        /* \"#utility.yul\":17753:17770   */\n      add\n        /* \"#utility.yul\":17746:17793   */\n      mstore\n        /* \"#utility.yul\":17810:17941   */\n      tag_450\n        /* \"#utility.yul\":17936:17940   */\n      dup2\n        /* \"#utility.yul\":17810:17941   */\n      tag_385\n      jump\t// in\n    tag_450:\n        /* \"#utility.yul\":17802:17941   */\n      swap1\n      pop\n        /* \"#utility.yul\":17700:17948   */\n      swap2\n      swap1\n      pop\n      jump\t// out\n        /* \"#utility.yul\":17954:18373   */\n    tag_240:\n      0x00\n        /* \"#utility.yul\":18158:18160   */\n      0x20\n        /* \"#utility.yul\":18147:18156   */\n      dup3\n        /* \"#utility.yul\":18143:18161   */\n      add\n        /* \"#utility.yul\":18135:18161   */\n      swap1\n      pop\n        /* \"#utility.yul\":18207:18216   */\n      dup2\n        /* \"#utility.yul\":18201:18205   */\n      dup2\n        /* \"#utility.yul\":18197:18217   */\n      sub\n        /* \"#utility.yul\":18193:18194   */\n      0x00\n        /* \"#utility.yul\":18182:18191   */\n      dup4\n        /* \"#utility.yul\":18178:18195   */\n      add\n        /* \"#utility.yul\":18171:18218   */\n      mstore\n        /* \"#utility.yul\":18235:18366   */\n      tag_452\n        /* \"#utility.yul\":18361:18365   */\n      dup2\n        /* \"#utility.yul\":18235:18366   */\n      tag_388\n      jump\t// in\n    tag_452:\n        /* \"#utility.yul\":18227:18366   */\n      swap1\n      pop\n        /* \"#utility.yul\":18125:18373   */\n      swap2\n      swap1\n      pop\n      jump\t// out\n        /* \"#utility.yul\":18379:18798   */\n    tag_128:\n      0x00\n        /* \"#utility.yul\":18583:18585   */\n      0x20\n        /* \"#utility.yul\":18572:18581   */\n      dup3\n        /* \"#utility.yul\":18568:18586   */\n      add\n        /* \"#utility.yul\":18560:18586   */\n      swap1\n      pop\n        /* \"#utility.yul\":18632:18641   */\n      dup2\n        /* \"#utility.yul\":18626:18630   */\n      dup2\n        /* \"#utility.yul\":18622:18642   */\n      sub\n        /* \"#utility.yul\":18618:18619   */\n      0x00\n        /* \"#utility.yul\":18607:18616   */\n      dup4\n        /* \"#utility.yul\":18603:18620   */\n      add\n        /* \"#utility.yul\":18596:18643   */\n      mstore\n        /* \"#utility.yul\":18660:18791   */\n      tag_454\n        /* \"#utility.yul\":18786:18790   */\n      dup2\n        /* \"#utility.yul\":18660:18791   */\n      tag_391\n      jump\t// in\n    tag_454:\n        /* \"#utility.yul\":18652:18791   */\n      swap1\n      pop\n        /* \"#utility.yul\":18550:18798   */\n      swap2\n      swap1\n      pop\n      jump\t// out\n        /* \"#utility.yul\":18804:19223   */\n    tag_112:\n      0x00\n        /* \"#utility.yul\":19008:19010   */\n      0x20\n        /* \"#utility.yul\":18997:19006   */\n      dup3\n        /* \"#utility.yul\":18993:19011   */\n      add\n        /* \"#utility.yul\":18985:19011   */\n      swap1\n      pop\n        /* \"#utility.yul\":19057:19066   */\n      dup2\n        /* \"#utility.yul\":19051:19055   */\n      dup2\n        /* \"#utility.yul\":19047:19067   */\n      sub\n        /* \"#utility.yul\":19043:19044   */\n      0x00\n        /* \"#utility.yul\":19032:19041   */\n      dup4\n        /* \"#utility.yul\":19028:19045   */\n      add\n        /* \"#utility.yul\":19021:19068   */\n      mstore\n        /* \"#utility.yul\":19085:19216   */\n      tag_456\n        /* \"#utility.yul\":19211:19215   */\n      dup2\n        /* \"#utility.yul\":19085:19216   */\n      tag_394\n      jump\t// in\n    tag_456:\n        /* \"#utility.yul\":19077:19216   */\n      swap1\n      pop\n        /* \"#utility.yul\":18975:19223   */\n      swap2\n      swap1\n      pop\n      jump\t// out\n        /* \"#utility.yul\":19229:19648   */\n    tag_133:\n      0x00\n        /* \"#utility.yul\":19433:19435   */\n      0x20\n        /* \"#utility.yul\":19422:19431   */\n      dup3\n        /* \"#utility.yul\":19418:19436   */\n      add\n        /* \"#utility.yul\":19410:19436   */\n      swap1\n      pop\n        /* \"#utility.yul\":19482:19491   */\n      dup2\n        /* \"#utility.yul\":19476:19480   */\n      dup2\n        /* \"#utility.yul\":19472:19492   */\n      sub\n        /* \"#utility.yul\":19468:19469   */\n      0x00\n        /* \"#utility.yul\":19457:19466   */\n      dup4\n        /* \"#utility.yul\":19453:19470   */\n      add\n        /* \"#utility.yul\":19446:19493   */\n      mstore\n        /* \"#utility.yul\":19510:19641   */\n      tag_458\n        /* \"#utility.yul\":19636:19640   */\n      dup2\n        /* \"#utility.yul\":19510:19641   */\n      tag_397\n      jump\t// in\n    tag_458:\n        /* \"#utility.yul\":19502:19641   */\n      swap1\n      pop\n        /* \"#utility.yul\":19400:19648   */\n      swap2\n      swap1\n      pop\n      jump\t// out\n        /* \"#utility.yul\":19654:20073   */\n    tag_149:\n      0x00\n        /* \"#utility.yul\":19858:19860   */\n      0x20\n        /* \"#utility.yul\":19847:19856   */\n      dup3\n        /* \"#utility.yul\":19843:19861   */\n      add\n        /* \"#utility.yul\":19835:19861   */\n      swap1\n      pop\n        /* \"#utility.yul\":19907:19916   */\n      dup2\n        /* \"#utility.yul\":19901:19905   */\n      dup2\n        /* \"#utility.yul\":19897:19917   */\n      sub\n        /* \"#utility.yul\":19893:19894   */\n      0x00\n        /* \"#utility.yul\":19882:19891   */\n      dup4\n        /* \"#utility.yul\":19878:19895   */\n      add\n        /* \"#utility.yul\":19871:19918   */\n      mstore\n        /* \"#utility.yul\":19935:20066   */\n      tag_460\n        /* \"#utility.yul\":20061:20065   */\n      dup2\n        /* \"#utility.yul\":19935:20066   */\n      tag_400\n      jump\t// in\n    tag_460:\n        /* \"#utility.yul\":19927:20066   */\n      swap1\n      pop\n        /* \"#utility.yul\":19825:20073   */\n      swap2\n      swap1\n      pop\n      jump\t// out\n        /* \"#utility.yul\":20079:20498   */\n    tag_173:\n      0x00\n        /* \"#utility.yul\":20283:20285   */\n      0x20\n        /* \"#utility.yul\":20272:20281   */\n      dup3\n        /* \"#utility.yul\":20268:20286   */\n      add\n        /* \"#utility.yul\":20260:20286   */\n      swap1\n      pop\n        /* \"#utility.yul\":20332:20341   */\n      dup2\n        /* \"#utility.yul\":20326:20330   */\n      dup2\n        /* \"#utility.yul\":20322:20342   */\n      sub\n        /* \"#utility.yul\":20318:20319   */\n      0x00\n        /* \"#utility.yul\":20307:20316   */\n      dup4\n        /* \"#utility.yul\":20303:20320   */\n      add\n        /* \"#utility.yul\":20296:20343   */\n      mstore\n        /* \"#utility.yul\":20360:20491   */\n      tag_462\n        /* \"#utility.yul\":20486:20490   */\n      dup2\n        /* \"#utility.yul\":20360:20491   */\n      tag_403\n      jump\t// in\n    tag_462:\n        /* \"#utility.yul\":20352:20491   */\n      swap1\n      pop\n        /* \"#utility.yul\":20250:20498   */\n      swap2\n      swap1\n      pop\n      jump\t// out\n        /* \"#utility.yul\":20504:20923   */\n    tag_77:\n      0x00\n        /* \"#utility.yul\":20708:20710   */\n      0x20\n        /* \"#utility.yul\":20697:20706   */\n      dup3\n        /* \"#utility.yul\":20693:20711   */\n      add\n        /* \"#utility.yul\":20685:20711   */\n      swap1\n      pop\n        /* \"#utility.yul\":20757:20766   */\n      dup2\n        /* \"#utility.yul\":20751:20755   */\n      dup2\n        /* \"#utility.yul\":20747:20767   */\n      sub\n        /* \"#utility.yul\":20743:20744   */\n      0x00\n        /* \"#utility.yul\":20732:20741   */\n      dup4\n        /* \"#utility.yul\":20728:20745   */\n      add\n        /* \"#utility.yul\":20721:20768   */\n      mstore\n        /* \"#utility.yul\":20785:20916   */\n      tag_464\n        /* \"#utility.yul\":20911:20915   */\n      dup2\n        /* \"#utility.yul\":20785:20916   */\n      tag_406\n      jump\t// in\n    tag_464:\n        /* \"#utility.yul\":20777:20916   */\n      swap1\n      pop\n        /* \"#utility.yul\":20675:20923   */\n      swap2\n      swap1\n      pop\n      jump\t// out\n        /* \"#utility.yul\":20929:21348   */\n    tag_120:\n      0x00\n        /* \"#utility.yul\":21133:21135   */\n      0x20\n        /* \"#utility.yul\":21122:21131   */\n      dup3\n        /* \"#utility.yul\":21118:21136   */\n      add\n        /* \"#utility.yul\":21110:21136   */\n      swap1\n      pop\n        /* \"#utility.yul\":21182:21191   */\n      dup2\n        /* \"#utility.yul\":21176:21180   */\n      dup2\n        /* \"#utility.yul\":21172:21192   */\n      sub\n        /* \"#utility.yul\":21168:21169   */\n      0x00\n        /* \"#utility.yul\":21157:21166   */\n      dup4\n        /* \"#utility.yul\":21153:21170   */\n      add\n        /* \"#utility.yul\":21146:21193   */\n      mstore\n        /* \"#utility.yul\":21210:21341   */\n      tag_466\n        /* \"#utility.yul\":21336:21340   */\n      dup2\n        /* \"#utility.yul\":21210:21341   */\n      tag_409\n      jump\t// in\n    tag_466:\n        /* \"#utility.yul\":21202:21341   */\n      swap1\n      pop\n        /* \"#utility.yul\":21100:21348   */\n      swap2\n      swap1\n      pop\n      jump\t// out\n        /* \"#utility.yul\":21354:21576   */\n    tag_56:\n      0x00\n        /* \"#utility.yul\":21485:21487   */\n      0x20\n        /* \"#utility.yul\":21474:21483   */\n      dup3\n        /* \"#utility.yul\":21470:21488   */\n      add\n        /* \"#utility.yul\":21462:21488   */\n      swap1\n      pop\n        /* \"#utility.yul\":21498:21569   */\n      tag_468\n        /* \"#utility.yul\":21566:21567   */\n      0x00\n        /* \"#utility.yul\":21555:21564   */\n      dup4\n        /* \"#utility.yul\":21551:21568   */\n      add\n        /* \"#utility.yul\":21542:21548   */\n      dup5\n        /* \"#utility.yul\":21498:21569   */\n      tag_423\n      jump\t// in\n    tag_468:\n        /* \"#utility.yul\":21452:21576   */\n      swap3\n      swap2\n      pop\n      pop\n      jump\t// out\n        /* \"#utility.yul\":21582:22448   */\n    tag_36:\n      0x00\n        /* \"#utility.yul\":21873:21876   */\n      0xc0\n        /* \"#utility.yul\":21862:21871   */\n      dup3\n        /* \"#utility.yul\":21858:21877   */\n      add\n        /* \"#utility.yul\":21850:21877   */\n      swap1\n      pop\n        /* \"#utility.yul\":21887:21958   */\n      tag_470\n        /* \"#utility.yul\":21955:21956   */\n      0x00\n        /* \"#utility.yul\":21944:21953   */\n      dup4\n        /* \"#utility.yul\":21940:21957   */\n      add\n        /* \"#utility.yul\":21931:21937   */\n      dup10\n        /* \"#utility.yul\":21887:21958   */\n      tag_423\n      jump\t// in\n    tag_470:\n        /* \"#utility.yul\":22005:22014   */\n      dup2\n        /* \"#utility.yul\":21999:22003   */\n      dup2\n        /* \"#utility.yul\":21995:22015   */\n      sub\n        /* \"#utility.yul\":21990:21992   */\n      0x20\n        /* \"#utility.yul\":21979:21988   */\n      dup4\n        /* \"#utility.yul\":21975:21993   */\n      add\n        /* \"#utility.yul\":21968:22016   */\n      mstore\n        /* \"#utility.yul\":22033:22111   */\n      tag_471\n        /* \"#utility.yul\":22106:22110   */\n      dup2\n        /* \"#utility.yul\":22097:22103   */\n      dup9\n        /* \"#utility.yul\":22033:22111   */\n      tag_351\n      jump\t// in\n    tag_471:\n        /* \"#utility.yul\":22025:22111   */\n      swap1\n      pop\n        /* \"#utility.yul\":22121:22193   */\n      tag_472\n        /* \"#utility.yul\":22189:22191   */\n      0x40\n        /* \"#utility.yul\":22178:22187   */\n      dup4\n        /* \"#utility.yul\":22174:22192   */\n      add\n        /* \"#utility.yul\":22165:22171   */\n      dup8\n        /* \"#utility.yul\":22121:22193   */\n      tag_423\n      jump\t// in\n    tag_472:\n        /* \"#utility.yul\":22203:22275   */\n      tag_473\n        /* \"#utility.yul\":22271:22273   */\n      0x60\n        /* \"#utility.yul\":22260:22269   */\n      dup4\n        /* \"#utility.yul\":22256:22274   */\n      add\n        /* \"#utility.yul\":22247:22253   */\n      dup7\n        /* \"#utility.yul\":22203:22275   */\n      tag_423\n      jump\t// in\n    tag_473:\n        /* \"#utility.yul\":22285:22358   */\n      tag_474\n        /* \"#utility.yul\":22353:22356   */\n      0x80\n        /* \"#utility.yul\":22342:22351   */\n      dup4\n        /* \"#utility.yul\":22338:22357   */\n      add\n        /* \"#utility.yul\":22329:22335   */\n      dup6\n        /* \"#utility.yul\":22285:22358   */\n      tag_316\n      jump\t// in\n    tag_474:\n        /* \"#utility.yul\":22368:22441   */\n      tag_475\n        /* \"#utility.yul\":22436:22439   */\n      0xa0\n        /* \"#utility.yul\":22425:22434   */\n      dup4\n        /* \"#utility.yul\":22421:22440   */\n      add\n        /* \"#utility.yul\":22412:22418   */\n      dup5\n        /* \"#utility.yul\":22368:22441   */\n      tag_423\n      jump\t// in\n    tag_475:\n        /* \"#utility.yul\":21840:22448   */\n      swap8\n      swap7\n      pop\n      pop\n      pop\n      pop\n      pop\n      pop\n      pop\n      jump\t// out\n        /* \"#utility.yul\":22454:22737   */\n    tag_266:\n      0x00\n        /* \"#utility.yul\":22520:22522   */\n      0x40\n        /* \"#utility.yul\":22514:22523   */\n      mload\n        /* \"#utility.yul\":22504:22523   */\n      swap1\n      pop\n        /* \"#utility.yul\":22562:22566   */\n      dup2\n        /* \"#utility.yul\":22554:22560   */\n      dup2\n        /* \"#utility.yul\":22550:22567   */\n      add\n        /* \"#utility.yul\":22669:22675   */\n      dup2\n        /* \"#utility.yul\":22657:22667   */\n      dup2\n        /* \"#utility.yul\":22654:22676   */\n      lt\n        /* \"#utility.yul\":22633:22651   */\n      0xffffffffffffffff\n        /* \"#utility.yul\":22621:22631   */\n      dup3\n        /* \"#utility.yul\":22618:22652   */\n      gt\n        /* \"#utility.yul\":22615:22677   */\n      or\n        /* \"#utility.yul\":22612:22614   */\n      iszero\n      tag_477\n      jumpi\n        /* \"#utility.yul\":22680:22698   */\n      tag_478\n      tag_479\n      jump\t// in\n    tag_478:\n        /* \"#utility.yul\":22612:22614   */\n    tag_477:\n        /* \"#utility.yul\":22720:22730   */\n      dup1\n        /* \"#utility.yul\":22716:22718   */\n      0x40\n        /* \"#utility.yul\":22709:22731   */\n      mstore\n        /* \"#utility.yul\":22494:22737   */\n      pop\n      swap2\n      swap1\n      pop\n      jump\t// out\n        /* \"#utility.yul\":22743:23075   */\n    tag_265:\n      0x00\n        /* \"#utility.yul\":22895:22913   */\n      0xffffffffffffffff\n        /* \"#utility.yul\":22887:22893   */\n      dup3\n        /* \"#utility.yul\":22884:22914   */\n      gt\n        /* \"#utility.yul\":22881:22883   */\n      iszero\n      tag_481\n      jumpi\n        /* \"#utility.yul\":22917:22935   */\n      tag_482\n      tag_479\n      jump\t// in\n    tag_482:\n        /* \"#utility.yul\":22881:22883   */\n    tag_481:\n        /* \"#utility.yul\":23002:23006   */\n      0x1f\n        /* \"#utility.yul\":22998:23007   */\n      not\n        /* \"#utility.yul\":22991:22995   */\n      0x1f\n        /* \"#utility.yul\":22983:22989   */\n      dup4\n        /* \"#utility.yul\":22979:22996   */\n      add\n        /* \"#utility.yul\":22975:23008   */\n      and\n        /* \"#utility.yul\":22967:23008   */\n      swap1\n      pop\n        /* \"#utility.yul\":23063:23067   */\n      0x20\n        /* \"#utility.yul\":23057:23061   */\n      dup2\n        /* \"#utility.yul\":23053:23068   */\n      add\n        /* \"#utility.yul\":23045:23068   */\n      swap1\n      pop\n        /* \"#utility.yul\":22810:23075   */\n      swap2\n      swap1\n      pop\n      jump\t// out\n        /* \"#utility.yul\":23081:23238   */\n    tag_326:\n      0x00\n        /* \"#utility.yul\":23196:23199   */\n      dup2\n        /* \"#utility.yul\":23188:23199   */\n      swap1\n      pop\n        /* \"#utility.yul\":23226:23230   */\n      0x20\n        /* \"#utility.yul\":23221:23224   */\n      dup3\n        /* \"#utility.yul\":23217:23231   */\n      add\n        /* \"#utility.yul\":23209:23231   */\n      swap1\n      pop\n        /* \"#utility.yul\":23178:23238   */\n      swap2\n      swap1\n      pop\n      jump\t// out\n        /* \"#utility.yul\":23244:23385   */\n    tag_366:\n      0x00\n        /* \"#utility.yul\":23316:23319   */\n      dup2\n        /* \"#utility.yul\":23308:23319   */\n      swap1\n      pop\n        /* \"#utility.yul\":23339:23342   */\n      dup2\n        /* \"#utility.yul\":23336:23337   */\n      0x00\n        /* \"#utility.yul\":23329:23343   */\n      mstore\n        /* \"#utility.yul\":23373:23377   */\n      0x20\n        /* \"#utility.yul\":23370:23371   */\n      0x00\n        /* \"#utility.yul\":23360:23378   */\n      keccak256\n        /* \"#utility.yul\":23352:23378   */\n      swap1\n      pop\n        /* \"#utility.yul\":23298:23385   */\n      swap2\n      swap1\n      pop\n      jump\t// out\n        /* \"#utility.yul\":23391:23530   */\n    tag_322:\n      0x00\n        /* \"#utility.yul\":23517:23522   */\n      dup2\n        /* \"#utility.yul\":23511:23523   */\n      mload\n        /* \"#utility.yul\":23501:23523   */\n      swap1\n      pop\n        /* \"#utility.yul\":23490:23530   */\n      swap2\n      swap1\n      pop\n      jump\t// out\n        /* \"#utility.yul\":23536:23635   */\n    tag_344:\n      0x00\n        /* \"#utility.yul\":23622:23627   */\n      dup2\n        /* \"#utility.yul\":23616:23628   */\n      mload\n        /* \"#utility.yul\":23606:23628   */\n      swap1\n      pop\n        /* \"#utility.yul\":23595:23635   */\n      swap2\n      swap1\n      pop\n      jump\t// out\n        /* \"#utility.yul\":23641:23779   */\n    tag_332:\n      0x00\n        /* \"#utility.yul\":23768:23772   */\n      0x20\n        /* \"#utility.yul\":23763:23766   */\n      dup3\n        /* \"#utility.yul\":23759:23773   */\n      add\n        /* \"#utility.yul\":23751:23773   */\n      swap1\n      pop\n        /* \"#utility.yul\":23741:23779   */\n      swap2\n      swap1\n      pop\n      jump\t// out\n        /* \"#utility.yul\":23785:23994   */\n    tag_324:\n      0x00\n        /* \"#utility.yul\":23943:23949   */\n      dup3\n        /* \"#utility.yul\":23938:23941   */\n      dup3\n        /* \"#utility.yul\":23931:23950   */\n      mstore\n        /* \"#utility.yul\":23983:23987   */\n      0x20\n        /* \"#utility.yul\":23978:23981   */\n      dup3\n        /* \"#utility.yul\":23974:23988   */\n      add\n        /* \"#utility.yul\":23959:23988   */\n      swap1\n      pop\n        /* \"#utility.yul\":23921:23994   */\n      swap3\n      swap2\n      pop\n      pop\n      jump\t// out\n        /* \"#utility.yul\":24000:24159   */\n    tag_346:\n      0x00\n        /* \"#utility.yul\":24108:24114   */\n      dup3\n        /* \"#utility.yul\":24103:24106   */\n      dup3\n        /* \"#utility.yul\":24096:24115   */\n      mstore\n        /* \"#utility.yul\":24148:24152   */\n      0x20\n        /* \"#utility.yul\":24143:24146   */\n      dup3\n        /* \"#utility.yul\":24139:24153   */\n      add\n        /* \"#utility.yul\":24124:24153   */\n      swap1\n      pop\n        /* \"#utility.yul\":24086:24159   */\n      swap3\n      swap2\n      pop\n      pop\n      jump\t// out\n        /* \"#utility.yul\":24165:24334   */\n    tag_355:\n      0x00\n        /* \"#utility.yul\":24283:24289   */\n      dup3\n        /* \"#utility.yul\":24278:24281   */\n      dup3\n        /* \"#utility.yul\":24271:24290   */\n      mstore\n        /* \"#utility.yul\":24323:24327   */\n      0x20\n        /* \"#utility.yul\":24318:24321   */\n      dup3\n        /* \"#utility.yul\":24314:24328   */\n      add\n        /* \"#utility.yul\":24299:24328   */\n      swap1\n      pop\n        /* \"#utility.yul\":24261:24334   */\n      swap3\n      swap2\n      pop\n      pop\n      jump\t// out\n        /* \"#utility.yul\":24340:24645   */\n    tag_80:\n      0x00\n        /* \"#utility.yul\":24399:24419   */\n      tag_492\n        /* \"#utility.yul\":24417:24418   */\n      dup3\n        /* \"#utility.yul\":24399:24419   */\n      tag_422\n      jump\t// in\n    tag_492:\n        /* \"#utility.yul\":24394:24419   */\n      swap2\n      pop\n        /* \"#utility.yul\":24433:24453   */\n      tag_493\n        /* \"#utility.yul\":24451:24452   */\n      dup4\n        /* \"#utility.yul\":24433:24453   */\n      tag_422\n      jump\t// in\n    tag_493:\n        /* \"#utility.yul\":24428:24453   */\n      swap3\n      pop\n        /* \"#utility.yul\":24587:24588   */\n      dup3\n        /* \"#utility.yul\":24519:24585   */\n      0xffffffffffffffffffffffffffffffffffffffffffffffffffffffffffffffff\n        /* \"#utility.yul\":24515:24589   */\n      sub\n        /* \"#utility.yul\":24512:24513   */\n      dup3\n        /* \"#utility.yul\":24509:24590   */\n      gt\n        /* \"#utility.yul\":24506:24508   */\n      iszero\n      tag_494\n      jumpi\n        /* \"#utility.yul\":24593:24611   */\n      tag_495\n      tag_496\n      jump\t// in\n    tag_495:\n        /* \"#utility.yul\":24506:24508   */\n    tag_494:\n        /* \"#utility.yul\":24637:24638   */\n      dup3\n        /* \"#utility.yul\":24634:24635   */\n      dup3\n        /* \"#utility.yul\":24630:24639   */\n      add\n        /* \"#utility.yul\":24623:24639   */\n      swap1\n      pop\n        /* \"#utility.yul\":24384:24645   */\n      swap3\n      swap2\n      pop\n      pop\n      jump\t// out\n        /* \"#utility.yul\":24651:24842   */\n    tag_196:\n      0x00\n        /* \"#utility.yul\":24711:24731   */\n      tag_498\n        /* \"#utility.yul\":24729:24730   */\n      dup3\n        /* \"#utility.yul\":24711:24731   */\n      tag_422\n      jump\t// in\n    tag_498:\n        /* \"#utility.yul\":24706:24731   */\n      swap2\n      pop\n        /* \"#utility.yul\":24745:24765   */\n      tag_499\n        /* \"#utility.yul\":24763:24764   */\n      dup4\n        /* \"#utility.yul\":24745:24765   */\n      tag_422\n      jump\t// in\n    tag_499:\n        /* \"#utility.yul\":24740:24765   */\n      swap3\n      pop\n        /* \"#utility.yul\":24784:24785   */\n      dup3\n        /* \"#utility.yul\":24781:24782   */\n      dup3\n        /* \"#utility.yul\":24778:24786   */\n      lt\n        /* \"#utility.yul\":24775:24777   */\n      iszero\n      tag_500\n      jumpi\n        /* \"#utility.yul\":24789:24807   */\n      tag_501\n      tag_496\n      jump\t// in\n    tag_501:\n        /* \"#utility.yul\":24775:24777   */\n    tag_500:\n        /* \"#utility.yul\":24834:24835   */\n      dup3\n        /* \"#utility.yul\":24831:24832   */\n      dup3\n        /* \"#utility.yul\":24827:24836   */\n      sub\n        /* \"#utility.yul\":24819:24836   */\n      swap1\n      pop\n        /* \"#utility.yul\":24696:24842   */\n      swap3\n      swap2\n      pop\n      pop\n      jump\t// out\n        /* \"#utility.yul\":24848:24944   */\n    tag_315:\n      0x00\n        /* \"#utility.yul\":24914:24938   */\n      tag_503\n        /* \"#utility.yul\":24932:24937   */\n      dup3\n        /* \"#utility.yul\":24914:24938   */\n      tag_504\n      jump\t// in\n    tag_503:\n        /* \"#utility.yul\":24903:24938   */\n      swap1\n      pop\n        /* \"#utility.yul\":24893:24944   */\n      swap2\n      swap1\n      pop\n      jump\t// out\n        /* \"#utility.yul\":24950:25040   */\n    tag_336:\n      0x00\n        /* \"#utility.yul\":25027:25032   */\n      dup2\n        /* \"#utility.yul\":25020:25033   */\n      iszero\n        /* \"#utility.yul\":25013:25034   */\n      iszero\n        /* \"#utility.yul\":25002:25034   */\n      swap1\n      pop\n        /* \"#utility.yul\":24992:25040   */\n      swap2\n      swap1\n      pop\n      jump\t// out\n        /* \"#utility.yul\":25046:25173   */\n    tag_506:\n      0x00\n        /* \"#utility.yul\":25120:25125   */\n      dup2\n        /* \"#utility.yul\":25109:25125   */\n      swap1\n      pop\n        /* \"#utility.yul\":25126:25167   */\n      tag_508\n        /* \"#utility.yul\":25161:25166   */\n      dup3\n        /* \"#utility.yul\":25126:25167   */\n      tag_509\n      jump\t// in\n    tag_508:\n        /* \"#utility.yul\":25099:25173   */\n      swap2\n      swap1\n      pop\n      jump\t// out\n        /* \"#utility.yul\":25179:25305   */\n    tag_504:\n      0x00\n        /* \"#utility.yul\":25256:25298   */\n      0xffffffffffffffffffffffffffffffffffffffff\n        /* \"#utility.yul\":25249:25254   */\n      dup3\n        /* \"#utility.yul\":25245:25299   */\n      and\n        /* \"#utility.yul\":25234:25299   */\n      swap1\n      pop\n        /* \"#utility.yul\":25224:25305   */\n      swap2\n      swap1\n      pop\n      jump\t// out\n        /* \"#utility.yul\":25311:25388   */\n    tag_422:\n      0x00\n        /* \"#utility.yul\":25377:25382   */\n      dup2\n        /* \"#utility.yul\":25366:25382   */\n      swap1\n      pop\n        /* \"#utility.yul\":25356:25388   */\n      swap2\n      swap1\n      pop\n      jump\t// out\n        /* \"#utility.yul\":25394:25521   */\n    tag_340:\n      0x00\n        /* \"#utility.yul\":25483:25515   */\n      tag_513\n        /* \"#utility.yul\":25509:25514   */\n      dup3\n        /* \"#utility.yul\":25483:25515   */\n      tag_506\n      jump\t// in\n    tag_513:\n        /* \"#utility.yul\":25470:25515   */\n      swap1\n      pop\n        /* \"#utility.yul\":25460:25521   */\n      swap2\n      swap1\n      pop\n      jump\t// out\n        /* \"#utility.yul\":25527:25681   */\n    tag_269:\n        /* \"#utility.yul\":25611:25617   */\n      dup3\n        /* \"#utility.yul\":25606:25609   */\n      dup2\n        /* \"#utility.yul\":25601:25604   */\n      dup4\n        /* \"#utility.yul\":25588:25618   */\n      calldatacopy\n        /* \"#utility.yul\":25673:25674   */\n      0x00\n        /* \"#utility.yul\":25664:25670   */\n      dup4\n        /* \"#utility.yul\":25659:25662   */\n      dup4\n        /* \"#utility.yul\":25655:25671   */\n      add\n        /* \"#utility.yul\":25648:25675   */\n      mstore\n        /* \"#utility.yul\":25578:25681   */\n      pop\n      pop\n      pop\n      jump\t// out\n        /* \"#utility.yul\":25687:25994   */\n    tag_348:\n        /* \"#utility.yul\":25755:25756   */\n      0x00\n        /* \"#utility.yul\":25765:25878   */\n    tag_516:\n        /* \"#utility.yul\":25779:25785   */\n      dup4\n        /* \"#utility.yul\":25776:25777   */\n      dup2\n        /* \"#utility.yul\":25773:25786   */\n      lt\n        /* \"#utility.yul\":25765:25878   */\n      iszero\n      tag_518\n      jumpi\n        /* \"#utility.yul\":25864:25865   */\n      dup1\n        /* \"#utility.yul\":25859:25862   */\n      dup3\n        /* \"#utility.yul\":25855:25866   */\n      add\n        /* \"#utility.yul\":25849:25867   */\n      mload\n        /* \"#utility.yul\":25845:25846   */\n      dup2\n        /* \"#utility.yul\":25840:25843   */\n      dup5\n        /* \"#utility.yul\":25836:25847   */\n      add\n        /* \"#utility.yul\":25829:25868   */\n      mstore\n        /* \"#utility.yul\":25801:25803   */\n      0x20\n        /* \"#utility.yul\":25798:25799   */\n      dup2\n        /* \"#utility.yul\":25794:25804   */\n      add\n        /* \"#utility.yul\":25789:25804   */\n      swap1\n      pop\n        /* \"#utility.yul\":25765:25878   */\n      jump(tag_516)\n    tag_518:\n        /* \"#utility.yul\":25896:25902   */\n      dup4\n        /* \"#utility.yul\":25893:25894   */\n      dup2\n        /* \"#utility.yul\":25890:25903   */\n      gt\n        /* \"#utility.yul\":25887:25889   */\n      iszero\n      tag_519\n      jumpi\n        /* \"#utility.yul\":25976:25977   */\n      0x00\n        /* \"#utility.yul\":25967:25973   */\n      dup5\n        /* \"#utility.yul\":25962:25965   */\n      dup5\n        /* \"#utility.yul\":25958:25974   */\n      add\n        /* \"#utility.yul\":25951:25978   */\n      mstore\n        /* \"#utility.yul\":25887:25889   */\n    tag_519:\n        /* \"#utility.yul\":25736:25994   */\n      pop\n      pop\n      pop\n      pop\n      jump\t// out\n        /* \"#utility.yul\":26000:26320   */\n    tag_94:\n      0x00\n        /* \"#utility.yul\":26081:26082   */\n      0x02\n        /* \"#utility.yul\":26075:26079   */\n      dup3\n        /* \"#utility.yul\":26071:26083   */\n      div\n        /* \"#utility.yul\":26061:26083   */\n      swap1\n      pop\n        /* \"#utility.yul\":26128:26129   */\n      0x01\n        /* \"#utility.yul\":26122:26126   */\n      dup3\n        /* \"#utility.yul\":26118:26130   */\n      and\n        /* \"#utility.yul\":26149:26167   */\n      dup1\n        /* \"#utility.yul\":26139:26141   */\n      tag_521\n      jumpi\n        /* \"#utility.yul\":26205:26209   */\n      0x7f\n        /* \"#utility.yul\":26197:26203   */\n      dup3\n        /* \"#utility.yul\":26193:26210   */\n      and\n        /* \"#utility.yul\":26183:26210   */\n      swap2\n      pop\n        /* \"#utility.yul\":26139:26141   */\n    tag_521:\n        /* \"#utility.yul\":26267:26269   */\n      0x20\n        /* \"#utility.yul\":26259:26265   */\n      dup3\n        /* \"#utility.yul\":26256:26270   */\n      lt\n        /* \"#utility.yul\":26236:26254   */\n      dup2\n        /* \"#utility.yul\":26233:26271   */\n      eq\n        /* \"#utility.yul\":26230:26232   */\n      iszero\n      tag_522\n      jumpi\n        /* \"#utility.yul\":26286:26304   */\n      tag_523\n      tag_524\n      jump\t// in\n    tag_523:\n        /* \"#utility.yul\":26230:26232   */\n    tag_522:\n        /* \"#utility.yul\":26051:26320   */\n      pop\n      swap2\n      swap1\n      pop\n      jump\t// out\n        /* \"#utility.yul\":26326:26559   */\n    tag_249:\n      0x00\n        /* \"#utility.yul\":26388:26412   */\n      tag_526\n        /* \"#utility.yul\":26406:26411   */\n      dup3\n        /* \"#utility.yul\":26388:26412   */\n      tag_422\n      jump\t// in\n    tag_526:\n        /* \"#utility.yul\":26379:26412   */\n      swap2\n      pop\n        /* \"#utility.yul\":26434:26500   */\n      0xffffffffffffffffffffffffffffffffffffffffffffffffffffffffffffffff\n        /* \"#utility.yul\":26427:26432   */\n      dup3\n        /* \"#utility.yul\":26424:26501   */\n      eq\n        /* \"#utility.yul\":26421:26423   */\n      iszero\n      tag_527\n      jumpi\n        /* \"#utility.yul\":26504:26522   */\n      tag_528\n      tag_496\n      jump\t// in\n    tag_528:\n        /* \"#utility.yul\":26421:26423   */\n    tag_527:\n        /* \"#utility.yul\":26551:26552   */\n      0x01\n        /* \"#utility.yul\":26544:26549   */\n      dup3\n        /* \"#utility.yul\":26540:26553   */\n      add\n        /* \"#utility.yul\":26533:26553   */\n      swap1\n      pop\n        /* \"#utility.yul\":26369:26559   */\n      swap2\n      swap1\n      pop\n      jump\t// out\n        /* \"#utility.yul\":26565:26745   */\n    tag_496:\n        /* \"#utility.yul\":26613:26690   */\n      0x4e487b7100000000000000000000000000000000000000000000000000000000\n        /* \"#utility.yul\":26610:26611   */\n      0x00\n        /* \"#utility.yul\":26603:26691   */\n      mstore\n        /* \"#utility.yul\":26710:26714   */\n      0x11\n        /* \"#utility.yul\":26707:26708   */\n      0x04\n        /* \"#utility.yul\":26700:26715   */\n      mstore\n        /* \"#utility.yul\":26734:26738   */\n      0x24\n        /* \"#utility.yul\":26731:26732   */\n      0x00\n        /* \"#utility.yul\":26724:26739   */\n      revert\n        /* \"#utility.yul\":26751:26931   */\n    tag_530:\n        /* \"#utility.yul\":26799:26876   */\n      0x4e487b7100000000000000000000000000000000000000000000000000000000\n        /* \"#utility.yul\":26796:26797   */\n      0x00\n        /* \"#utility.yul\":26789:26877   */\n      mstore\n        /* \"#utility.yul\":26896:26900   */\n      0x21\n        /* \"#utility.yul\":26893:26894   */\n      0x04\n        /* \"#utility.yul\":26886:26901   */\n      mstore\n        /* \"#utility.yul\":26920:26924   */\n      0x24\n        /* \"#utility.yul\":26917:26918   */\n      0x00\n        /* \"#utility.yul\":26910:26925   */\n      revert\n        /* \"#utility.yul\":26937:27117   */\n    tag_524:\n        /* \"#utility.yul\":26985:27062   */\n      0x4e487b7100000000000000000000000000000000000000000000000000000000\n        /* \"#utility.yul\":26982:26983   */\n      0x00\n        /* \"#utility.yul\":26975:27063   */\n      mstore\n        /* \"#utility.yul\":27082:27086   */\n      0x22\n        /* \"#utility.yul\":27079:27080   */\n      0x04\n        /* \"#utility.yul\":27072:27087   */\n      mstore\n        /* \"#utility.yul\":27106:27110   */\n      0x24\n        /* \"#utility.yul\":27103:27104   */\n      0x00\n        /* \"#utility.yul\":27096:27111   */\n      revert\n        /* \"#utility.yul\":27123:27303   */\n    tag_479:\n        /* \"#utility.yul\":27171:27248   */\n      0x4e487b7100000000000000000000000000000000000000000000000000000000\n        /* \"#utility.yul\":27168:27169   */\n      0x00\n        /* \"#utility.yul\":27161:27249   */\n      mstore\n        /* \"#utility.yul\":27268:27272   */\n      0x41\n        /* \"#utility.yul\":27265:27266   */\n      0x04\n        /* \"#utility.yul\":27258:27273   */\n      mstore\n        /* \"#utility.yul\":27292:27296   */\n      0x24\n        /* \"#utility.yul\":27289:27290   */\n      0x00\n        /* \"#utility.yul\":27282:27297   */\n      revert\n        /* \"#utility.yul\":27309:27411   */\n    tag_350:\n      0x00\n        /* \"#utility.yul\":27401:27403   */\n      0x1f\n        /* \"#utility.yul\":27397:27404   */\n      not\n        /* \"#utility.yul\":27392:27394   */\n      0x1f\n        /* \"#utility.yul\":27385:27390   */\n      dup4\n        /* \"#utility.yul\":27381:27395   */\n      add\n        /* \"#utility.yul\":27377:27405   */\n      and\n        /* \"#utility.yul\":27367:27405   */\n      swap1\n      pop\n        /* \"#utility.yul\":27357:27411   */\n      swap2\n      swap1\n      pop\n      jump\t// out\n        /* \"#utility.yul\":27417:27530   */\n    tag_509:\n        /* \"#utility.yul\":27498:27499   */\n      0x04\n        /* \"#utility.yul\":27491:27496   */\n      dup2\n        /* \"#utility.yul\":27488:27500   */\n      lt\n        /* \"#utility.yul\":27478:27480   */\n      tag_536\n      jumpi\n        /* \"#utility.yul\":27504:27522   */\n      tag_537\n      tag_530\n      jump\t// in\n    tag_537:\n        /* \"#utility.yul\":27478:27480   */\n    tag_536:\n        /* \"#utility.yul\":27468:27530   */\n      pop\n      jump\t// out\n        /* \"#utility.yul\":27536:27658   */\n    tag_273:\n        /* \"#utility.yul\":27609:27633   */\n      tag_539\n        /* \"#utility.yul\":27627:27632   */\n      dup2\n        /* \"#utility.yul\":27609:27633   */\n      tag_315\n      jump\t// in\n    tag_539:\n        /* \"#utility.yul\":27602:27607   */\n      dup2\n        /* \"#utility.yul\":27599:27634   */\n      eq\n        /* \"#utility.yul\":27589:27591   */\n      tag_540\n      jumpi\n        /* \"#utility.yul\":27648:27649   */\n      0x00\n        /* \"#utility.yul\":27645:27646   */\n      dup1\n        /* \"#utility.yul\":27638:27650   */\n      revert\n        /* \"#utility.yul\":27589:27591   */\n    tag_540:\n        /* \"#utility.yul\":27579:27658   */\n      pop\n      jump\t// out\n        /* \"#utility.yul\":27664:27771   */\n    tag_277:\n        /* \"#utility.yul\":27745:27746   */\n      0x04\n        /* \"#utility.yul\":27738:27743   */\n      dup2\n        /* \"#utility.yul\":27735:27747   */\n      lt\n        /* \"#utility.yul\":27725:27727   */\n      tag_542\n      jumpi\n        /* \"#utility.yul\":27761:27762   */\n      0x00\n        /* \"#utility.yul\":27758:27759   */\n      dup1\n        /* \"#utility.yul\":27751:27763   */\n      revert\n        /* \"#utility.yul\":27725:27727   */\n    tag_542:\n        /* \"#utility.yul\":27715:27771   */\n      pop\n      jump\t// out\n        /* \"#utility.yul\":27777:27899   */\n    tag_285:\n        /* \"#utility.yul\":27850:27874   */\n      tag_544\n        /* \"#utility.yul\":27868:27873   */\n      dup2\n        /* \"#utility.yul\":27850:27874   */\n      tag_422\n      jump\t// in\n    tag_544:\n        /* \"#utility.yul\":27843:27848   */\n      dup2\n        /* \"#utility.yul\":27840:27875   */\n      eq\n        /* \"#utility.yul\":27830:27832   */\n      tag_545\n      jumpi\n        /* \"#utility.yul\":27889:27890   */\n      0x00\n        /* \"#utility.yul\":27886:27887   */\n      dup1\n        /* \"#utility.yul\":27879:27891   */\n      revert\n        /* \"#utility.yul\":27830:27832   */\n    tag_545:\n        /* \"#utility.yul\":27820:27899   */\n      pop\n      jump\t// out\n\n    auxdata: 0xa2646970667358221220eff70cefb342a9411c1766bba7fa59c91f1308337cf07e027463e33999f3eb6364736f6c63430008000033\n}\n",
				"bytecode": {
					"linkReferences": {},
					"object": "608060405234801561001057600080fd5b50336000806101000a81548173ffffffffffffffffffffffffffffffffffffffff021916908373ffffffffffffffffffffffffffffffffffffffff1602179055506130c0806100606000396000f3fe608060405234801561001057600080fd5b50600436106100cf5760003560e01c80638da5cb5b1161008c578063d38e8db711610066578063d38e8db714610215578063e43252d714610233578063eaa66a3c1461024f578063f2fde38b14610280576100cf565b80638da5cb5b146101a95780639b19251a146101c7578063a4a1e263146101f7576100cf565b8063125b0b34146100d4578063365b98b2146100f057806340d26854146101205780637acc0b201461013c57806386b0e812146101715780638ab1d6811461018d575b600080fd5b6100ee60048036038101906100e9919061221e565b61029c565b005b61010a60048036038101906101059190612285565b610516565b60405161011791906129d2565b60405180910390f35b61013a600480360381019061013591906121b7565b610555565b005b61015660048036038101906101519190612285565b610ec3565b60405161016896959493929190612c73565b60405180910390f35b61018b600480360381019061018691906122ae565b610fb7565b005b6101a760048036038101906101a2919061218e565b611a3d565b005b6101b1611b26565b6040516101be91906129d2565b60405180910390f35b6101e160048036038101906101dc919061218e565b611b4a565b6040516101ee9190612a4d565b60405180910390f35b6101ff611b6a565b60405161020c9190612c58565b60405180910390f35b61021d611b77565b60405161022a9190612a2b565b60405180910390f35b61024d6004803603810190610248919061218e565b611ce6565b005b6102696004803603810190610264919061218e565b611d40565b604051610277929190612a68565b60405180910390f35b61029a6004803603810190610295919061218e565b611df9565b005b6000600260003373ffffffffffffffffffffffffffffffffffffffff1673ffffffffffffffffffffffffffffffffffffffff168152602001908152602001600020905060008160010160009054906101000a900460ff1690506000600381111561032f577f4e487b7100000000000000000000000000000000000000000000000000000000600052602160045260246000fd5b816003811115610368577f4e487b7100000000000000000000000000000000000000000000000000000000600052602160045260246000fd5b146103a8576040517f08c379a000000000000000000000000000000000000000000000000000000000815260040161039f90612c18565b60405180910390fd5b6103c260016004805490506103bd9190612db7565b611fb4565b15610402576040517f08c379a00000000000000000000000000000000000000000000000000000000081526004016103f990612af8565b60405180910390fd5b60046040518060c0016040528060016004805490506104219190612db7565b81526020018781526020018681526020018581526020013373ffffffffffffffffffffffffffffffffffffffff1681526020014281525090806001815401808255809150506001900390600052602060002090600602016000909190919091506000820151816000015560208201518160010190805190602001906104a7929190612044565b50604082015181600201556060820151816003015560808201518160040160006101000a81548173ffffffffffffffffffffffffffffffffffffffff021916908373ffffffffffffffffffffffffffffffffffffffff16021790555060a0820151816005015550505050505050565b6003818154811061052657600080fd5b906000526020600020016000915054906101000a900473ffffffffffffffffffffffffffffffffffffffff1681565b600060405180604001604052808481526020018360038111156105a1577f4e487b7100000000000000000000000000000000000000000000000000000000600052602160045260246000fd5b81525090506000600260003373ffffffffffffffffffffffffffffffffffffffff1673ffffffffffffffffffffffffffffffffffffffff16815260200190815260200160002060405180604001604052908160008201805461060290612ef0565b80601f016020809104026020016040519081016040528092919081815260200182805461062e90612ef0565b801561067b5780601f106106505761010080835404028352916020019161067b565b820191906000526020600020905b81548152906001019060200180831161065e57829003601f168201915b505050505081526020016001820160009054906101000a900460ff1660038111156106cf577f4e487b7100000000000000000000000000000000000000000000000000000000600052602160045260246000fd5b6003811115610707577f4e487b7100000000000000000000000000000000000000000000000000000000600052602160045260246000fd5b8152505090507ffcf56e8b77543617e075beddc33f51b3921b2dc365ae569ce204aab0c333fd5333600260003373ffffffffffffffffffffffffffffffffffffffff1673ffffffffffffffffffffffffffffffffffffffff168152602001908152602001600020600001600260003373ffffffffffffffffffffffffffffffffffffffff1673ffffffffffffffffffffffffffffffffffffffff16815260200190815260200160002060010160009054906101000a900460ff166040516107d0939291906129ed565b60405180910390a17ffcf56e8b77543617e075beddc33f51b3921b2dc365ae569ce204aab0c333fd5333600260003373ffffffffffffffffffffffffffffffffffffffff1673ffffffffffffffffffffffffffffffffffffffff168152602001908152602001600020600001600260003373ffffffffffffffffffffffffffffffffffffffff1673ffffffffffffffffffffffffffffffffffffffff16815260200190815260200160002060010160009054906101000a900460ff1660405161089b939291906129ed565b60405180910390a160008160200151905060008054906101000a900473ffffffffffffffffffffffffffffffffffffffff1673ffffffffffffffffffffffffffffffffffffffff163373ffffffffffffffffffffffffffffffffffffffff1614610d4d5760006003811115610939577f4e487b7100000000000000000000000000000000000000000000000000000000600052602160045260246000fd5b816003811115610972577f4e487b7100000000000000000000000000000000000000000000000000000000600052602160045260246000fd5b1480156109f05750600160038111156109b4577f4e487b7100000000000000000000000000000000000000000000000000000000600052602160045260246000fd5b8460038111156109ed577f4e487b7100000000000000000000000000000000000000000000000000000000600052602160045260246000fd5b14155b15610a30576040517f08c379a0000000000000000000000000000000000000000000000000000000008152600401610a2790612b98565b60405180910390fd5b60016003811115610a6a577f4e487b7100000000000000000000000000000000000000000000000000000000600052602160045260246000fd5b816003811115610aa3577f4e487b7100000000000000000000000000000000000000000000000000000000600052602160045260246000fd5b148015610b25575060026003811115610ae5577f4e487b7100000000000000000000000000000000000000000000000000000000600052602160045260246000fd5b83602001516003811115610b22577f4e487b7100000000000000000000000000000000000000000000000000000000600052602160045260246000fd5b14155b15610b65576040517f08c379a0000000000000000000000000000000000000000000000000000000008152600401610b5c90612c38565b60405180910390fd5b60026003811115610b9f577f4e487b7100000000000000000000000000000000000000000000000000000000600052602160045260246000fd5b816003811115610bd8577f4e487b7100000000000000000000000000000000000000000000000000000000600052602160045260246000fd5b148015610c595750600380811115610c19577f4e487b7100000000000000000000000000000000000000000000000000000000600052602160045260246000fd5b83602001516003811115610c56577f4e487b7100000000000000000000000000000000000000000000000000000000600052602160045260246000fd5b14155b15610c99576040517f08c379a0000000000000000000000000000000000000000000000000000000008152600401610c9090612b78565b60405180910390fd5b600380811115610cd2577f4e487b7100000000000000000000000000000000000000000000000000000000600052602160045260246000fd5b816003811115610d0b577f4e487b7100000000000000000000000000000000000000000000000000000000600052602160045260246000fd5b1415610d4c576040517f08c379a0000000000000000000000000000000000000000000000000000000008152600401610d4390612bb8565b60405180910390fd5b5b6040518060400160405280868152602001856003811115610d97577f4e487b7100000000000000000000000000000000000000000000000000000000600052602160045260246000fd5b815250600260008873ffffffffffffffffffffffffffffffffffffffff1673ffffffffffffffffffffffffffffffffffffffff1681526020019081526020016000206000820151816000019080519060200190610df5929190612044565b5060208201518160010160006101000a81548160ff02191690836003811115610e47577f4e487b7100000000000000000000000000000000000000000000000000000000600052602160045260246000fd5b02179055509050506003869080600181540180825580915050600190039060005260206000200160009091909190916101000a81548173ffffffffffffffffffffffffffffffffffffffff021916908373ffffffffffffffffffffffffffffffffffffffff160217905550610ebb86611ce6565b505050505050565b60048181548110610ed357600080fd5b9060005260206000209060060201600091509050806000015490806001018054610efc90612ef0565b80601f0160208091040260200160405190810160405280929190818152602001828054610f2890612ef0565b8015610f755780601f10610f4a57610100808354040283529160200191610f75565b820191906000526020600020905b815481529060010190602001808311610f5857829003601f168201915b5050505050908060020154908060030154908060040160009054906101000a900473ffffffffffffffffffffffffffffffffffffffff16908060050154905086565b60011515600160003373ffffffffffffffffffffffffffffffffffffffff1673ffffffffffffffffffffffffffffffffffffffff16815260200190815260200160002060009054906101000a900460ff1615151461104a576040517f08c379a000000000000000000000000000000000000000000000000000000000815260040161104190612bd8565b60405180910390fd5b6000600260003373ffffffffffffffffffffffffffffffffffffffff1673ffffffffffffffffffffffffffffffffffffffff1681526020019081526020016000206040518060400160405290816000820180546110a690612ef0565b80601f01602080910402602001604051908101604052809291908181526020018280546110d290612ef0565b801561111f5780601f106110f45761010080835404028352916020019161111f565b820191906000526020600020905b81548152906001019060200180831161110257829003601f168201915b505050505081526020016001820160009054906101000a900460ff166003811115611173577f4e487b7100000000000000000000000000000000000000000000000000000000600052602160045260246000fd5b60038111156111ab577f4e487b7100000000000000000000000000000000000000000000000000000000600052602160045260246000fd5b8152505090506000600260008473ffffffffffffffffffffffffffffffffffffffff1673ffffffffffffffffffffffffffffffffffffffff16815260200190815260200160002060405180604001604052908160008201805461120d90612ef0565b80601f016020809104026020016040519081016040528092919081815260200182805461123990612ef0565b80156112865780601f1061125b57610100808354040283529160200191611286565b820191906000526020600020905b81548152906001019060200180831161126957829003601f168201915b505050505081526020016001820160009054906101000a900460ff1660038111156112da577f4e487b7100000000000000000000000000000000000000000000000000000000600052602160045260246000fd5b6003811115611312577f4e487b7100000000000000000000000000000000000000000000000000000000600052602160045260246000fd5b81525050905060008260200151905060008260200151905060008054906101000a900473ffffffffffffffffffffffffffffffffffffffff1673ffffffffffffffffffffffffffffffffffffffff163373ffffffffffffffffffffffffffffffffffffffff16146117c357600060038111156113b7577f4e487b7100000000000000000000000000000000000000000000000000000000600052602160045260246000fd5b8260038111156113f0577f4e487b7100000000000000000000000000000000000000000000000000000000600052602160045260246000fd5b14801561146e575060016003811115611432577f4e487b7100000000000000000000000000000000000000000000000000000000600052602160045260246000fd5b81600381111561146b577f4e487b7100000000000000000000000000000000000000000000000000000000600052602160045260246000fd5b14155b156114ae576040517f08c379a00000000000000000000000000000000000000000000000000000000081526004016114a590612bf8565b60405180910390fd5b600160038111156114e8577f4e487b7100000000000000000000000000000000000000000000000000000000600052602160045260246000fd5b826003811115611521577f4e487b7100000000000000000000000000000000000000000000000000000000600052602160045260246000fd5b14801561159f575060026003811115611563577f4e487b7100000000000000000000000000000000000000000000000000000000600052602160045260246000fd5b81600381111561159c577f4e487b7100000000000000000000000000000000000000000000000000000000600052602160045260246000fd5b14155b156115df576040517f08c379a00000000000000000000000000000000000000000000000000000000081526004016115d690612b38565b60405180910390fd5b60026003811115611619577f4e487b7100000000000000000000000000000000000000000000000000000000600052602160045260246000fd5b826003811115611652577f4e487b7100000000000000000000000000000000000000000000000000000000600052602160045260246000fd5b1480156116cf5750600380811115611693577f4e487b7100000000000000000000000000000000000000000000000000000000600052602160045260246000fd5b8160038111156116cc577f4e487b7100000000000000000000000000000000000000000000000000000000600052602160045260246000fd5b14155b1561170f576040517f08c379a000000000000000000000000000000000000000000000000000000000815260040161170690612b18565b60405180910390fd5b600380811115611748577f4e487b7100000000000000000000000000000000000000000000000000000000600052602160045260246000fd5b826003811115611781577f4e487b7100000000000000000000000000000000000000000000000000000000600052602160045260246000fd5b14156117c2576040517f08c379a00000000000000000000000000000000000000000000000000000000081526004016117b990612ad8565b60405180910390fd5b5b600060046001886117d49190612e0d565b8154811061180b577f4e487b7100000000000000000000000000000000000000000000000000000000600052603260045260246000fd5b906000526020600020906006020160000154141561185e576040517f08c379a000000000000000000000000000000000000000000000000000000000815260040161185590612a98565b60405180910390fd5b3373ffffffffffffffffffffffffffffffffffffffff1660046001886118849190612e0d565b815481106118bb577f4e487b7100000000000000000000000000000000000000000000000000000000600052603260045260246000fd5b906000526020600020906006020160040160009054906101000a900473ffffffffffffffffffffffffffffffffffffffff1673ffffffffffffffffffffffffffffffffffffffff1614611943576040517f08c379a000000000000000000000000000000000000000000000000000000000815260040161193a90612ab8565b60405180910390fd5b8460046001886119539190612e0d565b8154811061198a577f4e487b7100000000000000000000000000000000000000000000000000000000600052603260045260246000fd5b906000526020600020906006020160040160006101000a81548173ffffffffffffffffffffffffffffffffffffffff021916908373ffffffffffffffffffffffffffffffffffffffff1602179055504260046001886119e99190612e0d565b81548110611a20577f4e487b7100000000000000000000000000000000000000000000000000000000600052603260045260246000fd5b906000526020600020906006020160050181905550505050505050565b60008054906101000a900473ffffffffffffffffffffffffffffffffffffffff1673ffffffffffffffffffffffffffffffffffffffff163373ffffffffffffffffffffffffffffffffffffffff1614611acb576040517f08c379a0000000000000000000000000000000000000000000000000000000008152600401611ac290612c18565b60405180910390fd5b6000600160008373ffffffffffffffffffffffffffffffffffffffff1673ffffffffffffffffffffffffffffffffffffffff16815260200190815260200160002060006101000a81548160ff02191690831515021790555050565b60008054906101000a900473ffffffffffffffffffffffffffffffffffffffff1681565b60016020528060005260406000206000915054906101000a900460ff1681565b6000600380549050905090565b60606004805480602002602001604051908101604052809291908181526020016000905b82821015611cdd57838290600052602060002090600602016040518060c001604052908160008201548152602001600182018054611bd890612ef0565b80601f0160208091040260200160405190810160405280929190818152602001828054611c0490612ef0565b8015611c515780601f10611c2657610100808354040283529160200191611c51565b820191906000526020600020905b815481529060010190602001808311611c3457829003601f168201915b5050505050815260200160028201548152602001600382015481526020016004820160009054906101000a900473ffffffffffffffffffffffffffffffffffffffff1673ffffffffffffffffffffffffffffffffffffffff1673ffffffffffffffffffffffffffffffffffffffff16815260200160058201548152505081526020019060010190611b9b565b50505050905090565b60018060008373ffffffffffffffffffffffffffffffffffffffff1673ffffffffffffffffffffffffffffffffffffffff16815260200190815260200160002060006101000a81548160ff02191690831515021790555050565b6002602052806000526040600020600091509050806000018054611d6390612ef0565b80601f0160208091040260200160405190810160405280929190818152602001828054611d8f90612ef0565b8015611ddc5780601f10611db157610100808354040283529160200191611ddc565b820191906000526020600020905b815481529060010190602001808311611dbf57829003601f168201915b5050505050908060010160009054906101000a900460ff16905082565b60008054906101000a900473ffffffffffffffffffffffffffffffffffffffff1673ffffffffffffffffffffffffffffffffffffffff163373ffffffffffffffffffffffffffffffffffffffff1614611e87576040517f08c379a0000000000000000000000000000000000000000000000000000000008152600401611e7e90612c18565b60405180910390fd5b600073ffffffffffffffffffffffffffffffffffffffff168173ffffffffffffffffffffffffffffffffffffffff161415611ef7576040517f08c379a0000000000000000000000000000000000000000000000000000000008152600401611eee90612b58565b60405180910390fd5b8073ffffffffffffffffffffffffffffffffffffffff1660008054906101000a900473ffffffffffffffffffffffffffffffffffffffff1673ffffffffffffffffffffffffffffffffffffffff167f8be0079c531659141344cd1fd0a4f28419497f9722a3daafe3b4186f6b6457e060405160405180910390a3806000806101000a81548173ffffffffffffffffffffffffffffffffffffffff021916908373ffffffffffffffffffffffffffffffffffffffff16021790555050565b600080600090505b600480549050811015612039578260048281548110612004577f4e487b7100000000000000000000000000000000000000000000000000000000600052603260045260246000fd5b906000526020600020906006020160000154141561202657600191505061203f565b808061203190612f22565b915050611fbc565b50600090505b919050565b82805461205090612ef0565b90600052602060002090601f01602090048101928261207257600085556120b9565b82601f1061208b57805160ff19168380011785556120b9565b828001600101855582156120b9579182015b828111156120b857825182559160200191906001019061209d565b5b5090506120c691906120ca565b5090565b5b808211156120e35760008160009055506001016120cb565b5090565b60006120fa6120f584612d0c565b612cdb565b90508281526020810184848401111561211257600080fd5b61211d848285612eae565b509392505050565b6000813590506121348161304c565b92915050565b60008135905061214981613063565b92915050565b600082601f83011261216057600080fd5b81356121708482602086016120e7565b91505092915050565b60008135905061218881613073565b92915050565b6000602082840312156121a057600080fd5b60006121ae84828501612125565b91505092915050565b6000806000606084860312156121cc57600080fd5b60006121da86828701612125565b935050602084013567ffffffffffffffff8111156121f757600080fd5b6122038682870161214f565b92505060406122148682870161213a565b9150509250925092565b60008060006060848603121561223357600080fd5b600084013567ffffffffffffffff81111561224d57600080fd5b6122598682870161214f565b935050602061226a86828701612179565b925050604061227b86828701612179565b9150509250925092565b60006020828403121561229757600080fd5b60006122a584828501612179565b91505092915050565b600080604083850312156122c157600080fd5b60006122cf85828601612179565b92505060206122e085828601612125565b9150509250929050565b60006122f6838361292b565b905092915050565b61230781612e41565b82525050565b61231681612e41565b82525050565b600061232782612d61565b6123318185612d84565b93508360208202850161234385612d3c565b8060005b8581101561237f578484038952815161236085826122ea565b945061236b83612d77565b925060208a01995050600181019050612347565b50829750879550505050505092915050565b61239a81612e53565b82525050565b6123a981612e9c565b82525050565b60006123ba82612d6c565b6123c48185612d95565b93506123d4818560208601612ebd565b6123dd81613027565b840191505092915050565b60006123f382612d6c565b6123fd8185612da6565b935061240d818560208601612ebd565b61241681613027565b840191505092915050565b6000815461242e81612ef0565b6124388186612da6565b94506001821660008114612453576001811461246557612498565b60ff1983168652602086019350612498565b61246e85612d4c565b60005b8381101561249057815481890152600182019150602081019050612471565b808801955050505b50505092915050565b60006124ae601683612da6565b91507f50726f6475637420646f6573206e6f74206578697374000000000000000000006000830152602082019050919050565b60006124ee602583612da6565b91507f596f7520617265206e6f7420746865206f776e6572206f66207468697320707260008301527f6f647563740000000000000000000000000000000000000000000000000000006020830152604082019050919050565b6000612554601583612da6565b91507f43616e6e6f742073656c6c20612070726f6475637400000000000000000000006000830152602082019050919050565b6000612594601983612da6565b91507f50726f6475637420494420616c726561647920657869737473000000000000006000830152602082019050919050565b60006125d4603183612da6565b91507f43616e6e6f742073656c6c20746f206d616e756661637475726572206f72207360008301527f7570706c696572206f722076656e646f720000000000000000000000000000006020830152604082019050919050565b600061263a603383612da6565b91507f43616e6e6f742073656c6c20746f206d616e756661637475726572206f72207360008301527f7570706c696572206f7220637573746f6d6572000000000000000000000000006020830152604082019050919050565b60006126a0601983612da6565b91507f416464726573732073686f756c646e2774206265207a65726f000000000000006000830152602082019050919050565b60006126e0602d83612da6565b91507f43616e6e6f7420616464206d616e756661637475726572206f7220737570706c60008301527f696572206f722076656e646f72000000000000000000000000000000000000006020830152604082019050919050565b6000612746602f83612da6565b91507f43616e6e6f7420616464206d616e756661637475726572206f7220637573746f60008301527f6d6572206f7220737570706c69657200000000000000000000000000000000006020830152604082019050919050565b60006127ac601383612da6565b91507f43616e6e6f742061646420616e206163746f72000000000000000000000000006000830152602082019050919050565b60006127ec601283612da6565b91507f4973206e6f742077686974656c697374656400000000000000000000000000006000830152602082019050919050565b600061282c603183612da6565b91507f43616e6e6f742073656c6c20746f206d616e756661637475726572206f72206360008301527f7573746f6d6572206f722076656e646f720000000000000000000000000000006020830152604082019050919050565b6000612892601883612da6565b91507f4e6f7420617574686f72697a6564206f7065726174696f6e00000000000000006000830152602082019050919050565b60006128d2602f83612da6565b91507f43616e6e6f7420616464206d616e756661637475726572206f7220737570706c60008301527f696572206f7220637573746f6d657200000000000000000000000000000000006020830152604082019050919050565b600060c08301600083015161294360008601826129b4565b506020830151848203602086015261295b82826123af565b915050604083015161297060408601826129b4565b50606083015161298360608601826129b4565b50608083015161299660808601826122fe565b5060a08301516129a960a08601826129b4565b508091505092915050565b6129bd81612e92565b82525050565b6129cc81612e92565b82525050565b60006020820190506129e7600083018461230d565b92915050565b6000606082019050612a02600083018661230d565b8181036020830152612a148185612421565b9050612a2360408301846123a0565b949350505050565b60006020820190508181036000830152612a45818461231c565b905092915050565b6000602082019050612a626000830184612391565b92915050565b60006040820190508181036000830152612a8281856123e8565b9050612a9160208301846123a0565b9392505050565b60006020820190508181036000830152612ab1816124a1565b9050919050565b60006020820190508181036000830152612ad1816124e1565b9050919050565b60006020820190508181036000830152612af181612547565b9050919050565b60006020820190508181036000830152612b1181612587565b9050919050565b60006020820190508181036000830152612b31816125c7565b9050919050565b60006020820190508181036000830152612b518161262d565b9050919050565b60006020820190508181036000830152612b7181612693565b9050919050565b60006020820190508181036000830152612b91816126d3565b9050919050565b60006020820190508181036000830152612bb181612739565b9050919050565b60006020820190508181036000830152612bd18161279f565b9050919050565b60006020820190508181036000830152612bf1816127df565b9050919050565b60006020820190508181036000830152612c118161281f565b9050919050565b60006020820190508181036000830152612c3181612885565b9050919050565b60006020820190508181036000830152612c51816128c5565b9050919050565b6000602082019050612c6d60008301846129c3565b92915050565b600060c082019050612c8860008301896129c3565b8181036020830152612c9a81886123e8565b9050612ca960408301876129c3565b612cb660608301866129c3565b612cc3608083018561230d565b612cd060a08301846129c3565b979650505050505050565b6000604051905081810181811067ffffffffffffffff82111715612d0257612d01612ff8565b5b8060405250919050565b600067ffffffffffffffff821115612d2757612d26612ff8565b5b601f19601f8301169050602081019050919050565b6000819050602082019050919050565b60008190508160005260206000209050919050565b600081519050919050565b600081519050919050565b6000602082019050919050565b600082825260208201905092915050565b600082825260208201905092915050565b600082825260208201905092915050565b6000612dc282612e92565b9150612dcd83612e92565b9250827fffffffffffffffffffffffffffffffffffffffffffffffffffffffffffffffff03821115612e0257612e01612f6b565b5b828201905092915050565b6000612e1882612e92565b9150612e2383612e92565b925082821015612e3657612e35612f6b565b5b828203905092915050565b6000612e4c82612e72565b9050919050565b60008115159050919050565b6000819050612e6d82613038565b919050565b600073ffffffffffffffffffffffffffffffffffffffff82169050919050565b6000819050919050565b6000612ea782612e5f565b9050919050565b82818337600083830152505050565b60005b83811015612edb578082015181840152602081019050612ec0565b83811115612eea576000848401525b50505050565b60006002820490506001821680612f0857607f821691505b60208210811415612f1c57612f1b612fc9565b5b50919050565b6000612f2d82612e92565b91507fffffffffffffffffffffffffffffffffffffffffffffffffffffffffffffffff821415612f6057612f5f612f6b565b5b600182019050919050565b7f4e487b7100000000000000000000000000000000000000000000000000000000600052601160045260246000fd5b7f4e487b7100000000000000000000000000000000000000000000000000000000600052602160045260246000fd5b7f4e487b7100000000000000000000000000000000000000000000000000000000600052602260045260246000fd5b7f4e487b7100000000000000000000000000000000000000000000000000000000600052604160045260246000fd5b6000601f19601f8301169050919050565b6004811061304957613048612f9a565b5b50565b61305581612e41565b811461306057600080fd5b50565b6004811061307057600080fd5b50565b61307c81612e92565b811461308757600080fd5b5056fea2646970667358221220eff70cefb342a9411c1766bba7fa59c91f1308337cf07e027463e33999f3eb6364736f6c63430008000033",
					"opcodes": "PUSH1 0x80 PUSH1 0x40 MSTORE CALLVALUE DUP1 ISZERO PUSH2 0x10 JUMPI PUSH1 0x0 DUP1 REVERT JUMPDEST POP CALLER PUSH1 0x0 DUP1 PUSH2 0x100 EXP DUP2 SLOAD DUP2 PUSH20 0xFFFFFFFFFFFFFFFFFFFFFFFFFFFFFFFFFFFFFFFF MUL NOT AND SWAP1 DUP4 PUSH20 0xFFFFFFFFFFFFFFFFFFFFFFFFFFFFFFFFFFFFFFFF AND MUL OR SWAP1 SSTORE POP PUSH2 0x30C0 DUP1 PUSH2 0x60 PUSH1 0x0 CODECOPY PUSH1 0x0 RETURN INVALID PUSH1 0x80 PUSH1 0x40 MSTORE CALLVALUE DUP1 ISZERO PUSH2 0x10 JUMPI PUSH1 0x0 DUP1 REVERT JUMPDEST POP PUSH1 0x4 CALLDATASIZE LT PUSH2 0xCF JUMPI PUSH1 0x0 CALLDATALOAD PUSH1 0xE0 SHR DUP1 PUSH4 0x8DA5CB5B GT PUSH2 0x8C JUMPI DUP1 PUSH4 0xD38E8DB7 GT PUSH2 0x66 JUMPI DUP1 PUSH4 0xD38E8DB7 EQ PUSH2 0x215 JUMPI DUP1 PUSH4 0xE43252D7 EQ PUSH2 0x233 JUMPI DUP1 PUSH4 0xEAA66A3C EQ PUSH2 0x24F JUMPI DUP1 PUSH4 0xF2FDE38B EQ PUSH2 0x280 JUMPI PUSH2 0xCF JUMP JUMPDEST DUP1 PUSH4 0x8DA5CB5B EQ PUSH2 0x1A9 JUMPI DUP1 PUSH4 0x9B19251A EQ PUSH2 0x1C7 JUMPI DUP1 PUSH4 0xA4A1E263 EQ PUSH2 0x1F7 JUMPI PUSH2 0xCF JUMP JUMPDEST DUP1 PUSH4 0x125B0B34 EQ PUSH2 0xD4 JUMPI DUP1 PUSH4 0x365B98B2 EQ PUSH2 0xF0 JUMPI DUP1 PUSH4 0x40D26854 EQ PUSH2 0x120 JUMPI DUP1 PUSH4 0x7ACC0B20 EQ PUSH2 0x13C JUMPI DUP1 PUSH4 0x86B0E812 EQ PUSH2 0x171 JUMPI DUP1 PUSH4 0x8AB1D681 EQ PUSH2 0x18D JUMPI JUMPDEST PUSH1 0x0 DUP1 REVERT JUMPDEST PUSH2 0xEE PUSH1 0x4 DUP1 CALLDATASIZE SUB DUP2 ADD SWAP1 PUSH2 0xE9 SWAP2 SWAP1 PUSH2 0x221E JUMP JUMPDEST PUSH2 0x29C JUMP JUMPDEST STOP JUMPDEST PUSH2 0x10A PUSH1 0x4 DUP1 CALLDATASIZE SUB DUP2 ADD SWAP1 PUSH2 0x105 SWAP2 SWAP1 PUSH2 0x2285 JUMP JUMPDEST PUSH2 0x516 JUMP JUMPDEST PUSH1 0x40 MLOAD PUSH2 0x117 SWAP2 SWAP1 PUSH2 0x29D2 JUMP JUMPDEST PUSH1 0x40 MLOAD DUP1 SWAP2 SUB SWAP1 RETURN JUMPDEST PUSH2 0x13A PUSH1 0x4 DUP1 CALLDATASIZE SUB DUP2 ADD SWAP1 PUSH2 0x135 SWAP2 SWAP1 PUSH2 0x21B7 JUMP JUMPDEST PUSH2 0x555 JUMP JUMPDEST STOP JUMPDEST PUSH2 0x156 PUSH1 0x4 DUP1 CALLDATASIZE SUB DUP2 ADD SWAP1 PUSH2 0x151 SWAP2 SWAP1 PUSH2 0x2285 JUMP JUMPDEST PUSH2 0xEC3 JUMP JUMPDEST PUSH1 0x40 MLOAD PUSH2 0x168 SWAP7 SWAP6 SWAP5 SWAP4 SWAP3 SWAP2 SWAP1 PUSH2 0x2C73 JUMP JUMPDEST PUSH1 0x40 MLOAD DUP1 SWAP2 SUB SWAP1 RETURN JUMPDEST PUSH2 0x18B PUSH1 0x4 DUP1 CALLDATASIZE SUB DUP2 ADD SWAP1 PUSH2 0x186 SWAP2 SWAP1 PUSH2 0x22AE JUMP JUMPDEST PUSH2 0xFB7 JUMP JUMPDEST STOP JUMPDEST PUSH2 0x1A7 PUSH1 0x4 DUP1 CALLDATASIZE SUB DUP2 ADD SWAP1 PUSH2 0x1A2 SWAP2 SWAP1 PUSH2 0x218E JUMP JUMPDEST PUSH2 0x1A3D JUMP JUMPDEST STOP JUMPDEST PUSH2 0x1B1 PUSH2 0x1B26 JUMP JUMPDEST PUSH1 0x40 MLOAD PUSH2 0x1BE SWAP2 SWAP1 PUSH2 0x29D2 JUMP JUMPDEST PUSH1 0x40 MLOAD DUP1 SWAP2 SUB SWAP1 RETURN JUMPDEST PUSH2 0x1E1 PUSH1 0x4 DUP1 CALLDATASIZE SUB DUP2 ADD SWAP1 PUSH2 0x1DC SWAP2 SWAP1 PUSH2 0x218E JUMP JUMPDEST PUSH2 0x1B4A JUMP JUMPDEST PUSH1 0x40 MLOAD PUSH2 0x1EE SWAP2 SWAP1 PUSH2 0x2A4D JUMP JUMPDEST PUSH1 0x40 MLOAD DUP1 SWAP2 SUB SWAP1 RETURN JUMPDEST PUSH2 0x1FF PUSH2 0x1B6A JUMP JUMPDEST PUSH1 0x40 MLOAD PUSH2 0x20C SWAP2 SWAP1 PUSH2 0x2C58 JUMP JUMPDEST PUSH1 0x40 MLOAD DUP1 SWAP2 SUB SWAP1 RETURN JUMPDEST PUSH2 0x21D PUSH2 0x1B77 JUMP JUMPDEST PUSH1 0x40 MLOAD PUSH2 0x22A SWAP2 SWAP1 PUSH2 0x2A2B JUMP JUMPDEST PUSH1 0x40 MLOAD DUP1 SWAP2 SUB SWAP1 RETURN JUMPDEST PUSH2 0x24D PUSH1 0x4 DUP1 CALLDATASIZE SUB DUP2 ADD SWAP1 PUSH2 0x248 SWAP2 SWAP1 PUSH2 0x218E JUMP JUMPDEST PUSH2 0x1CE6 JUMP JUMPDEST STOP JUMPDEST PUSH2 0x269 PUSH1 0x4 DUP1 CALLDATASIZE SUB DUP2 ADD SWAP1 PUSH2 0x264 SWAP2 SWAP1 PUSH2 0x218E JUMP JUMPDEST PUSH2 0x1D40 JUMP JUMPDEST PUSH1 0x40 MLOAD PUSH2 0x277 SWAP3 SWAP2 SWAP1 PUSH2 0x2A68 JUMP JUMPDEST PUSH1 0x40 MLOAD DUP1 SWAP2 SUB SWAP1 RETURN JUMPDEST PUSH2 0x29A PUSH1 0x4 DUP1 CALLDATASIZE SUB DUP2 ADD SWAP1 PUSH2 0x295 SWAP2 SWAP1 PUSH2 0x218E JUMP JUMPDEST PUSH2 0x1DF9 JUMP JUMPDEST STOP JUMPDEST PUSH1 0x0 PUSH1 0x2 PUSH1 0x0 CALLER PUSH20 0xFFFFFFFFFFFFFFFFFFFFFFFFFFFFFFFFFFFFFFFF AND PUSH20 0xFFFFFFFFFFFFFFFFFFFFFFFFFFFFFFFFFFFFFFFF AND DUP2 MSTORE PUSH1 0x20 ADD SWAP1 DUP2 MSTORE PUSH1 0x20 ADD PUSH1 0x0 KECCAK256 SWAP1 POP PUSH1 0x0 DUP2 PUSH1 0x1 ADD PUSH1 0x0 SWAP1 SLOAD SWAP1 PUSH2 0x100 EXP SWAP1 DIV PUSH1 0xFF AND SWAP1 POP PUSH1 0x0 PUSH1 0x3 DUP2 GT ISZERO PUSH2 0x32F JUMPI PUSH32 0x4E487B7100000000000000000000000000000000000000000000000000000000 PUSH1 0x0 MSTORE PUSH1 0x21 PUSH1 0x4 MSTORE PUSH1 0x24 PUSH1 0x0 REVERT JUMPDEST DUP2 PUSH1 0x3 DUP2 GT ISZERO PUSH2 0x368 JUMPI PUSH32 0x4E487B7100000000000000000000000000000000000000000000000000000000 PUSH1 0x0 MSTORE PUSH1 0x21 PUSH1 0x4 MSTORE PUSH1 0x24 PUSH1 0x0 REVERT JUMPDEST EQ PUSH2 0x3A8 JUMPI PUSH1 0x40 MLOAD PUSH32 0x8C379A000000000000000000000000000000000000000000000000000000000 DUP2 MSTORE PUSH1 0x4 ADD PUSH2 0x39F SWAP1 PUSH2 0x2C18 JUMP JUMPDEST PUSH1 0x40 MLOAD DUP1 SWAP2 SUB SWAP1 REVERT JUMPDEST PUSH2 0x3C2 PUSH1 0x1 PUSH1 0x4 DUP1 SLOAD SWAP1 POP PUSH2 0x3BD SWAP2 SWAP1 PUSH2 0x2DB7 JUMP JUMPDEST PUSH2 0x1FB4 JUMP JUMPDEST ISZERO PUSH2 0x402 JUMPI PUSH1 0x40 MLOAD PUSH32 0x8C379A000000000000000000000000000000000000000000000000000000000 DUP2 MSTORE PUSH1 0x4 ADD PUSH2 0x3F9 SWAP1 PUSH2 0x2AF8 JUMP JUMPDEST PUSH1 0x40 MLOAD DUP1 SWAP2 SUB SWAP1 REVERT JUMPDEST PUSH1 0x4 PUSH1 0x40 MLOAD DUP1 PUSH1 0xC0 ADD PUSH1 0x40 MSTORE DUP1 PUSH1 0x1 PUSH1 0x4 DUP1 SLOAD SWAP1 POP PUSH2 0x421 SWAP2 SWAP1 PUSH2 0x2DB7 JUMP JUMPDEST DUP2 MSTORE PUSH1 0x20 ADD DUP8 DUP2 MSTORE PUSH1 0x20 ADD DUP7 DUP2 MSTORE PUSH1 0x20 ADD DUP6 DUP2 MSTORE PUSH1 0x20 ADD CALLER PUSH20 0xFFFFFFFFFFFFFFFFFFFFFFFFFFFFFFFFFFFFFFFF AND DUP2 MSTORE PUSH1 0x20 ADD TIMESTAMP DUP2 MSTORE POP SWAP1 DUP1 PUSH1 0x1 DUP2 SLOAD ADD DUP1 DUP3 SSTORE DUP1 SWAP2 POP POP PUSH1 0x1 SWAP1 SUB SWAP1 PUSH1 0x0 MSTORE PUSH1 0x20 PUSH1 0x0 KECCAK256 SWAP1 PUSH1 0x6 MUL ADD PUSH1 0x0 SWAP1 SWAP2 SWAP1 SWAP2 SWAP1 SWAP2 POP PUSH1 0x0 DUP3 ADD MLOAD DUP2 PUSH1 0x0 ADD SSTORE PUSH1 0x20 DUP3 ADD MLOAD DUP2 PUSH1 0x1 ADD SWAP1 DUP1 MLOAD SWAP1 PUSH1 0x20 ADD SWAP1 PUSH2 0x4A7 SWAP3 SWAP2 SWAP1 PUSH2 0x2044 JUMP JUMPDEST POP PUSH1 0x40 DUP3 ADD MLOAD DUP2 PUSH1 0x2 ADD SSTORE PUSH1 0x60 DUP3 ADD MLOAD DUP2 PUSH1 0x3 ADD SSTORE PUSH1 0x80 DUP3 ADD MLOAD DUP2 PUSH1 0x4 ADD PUSH1 0x0 PUSH2 0x100 EXP DUP2 SLOAD DUP2 PUSH20 0xFFFFFFFFFFFFFFFFFFFFFFFFFFFFFFFFFFFFFFFF MUL NOT AND SWAP1 DUP4 PUSH20 0xFFFFFFFFFFFFFFFFFFFFFFFFFFFFFFFFFFFFFFFF AND MUL OR SWAP1 SSTORE POP PUSH1 0xA0 DUP3 ADD MLOAD DUP2 PUSH1 0x5 ADD SSTORE POP POP POP POP POP POP POP JUMP JUMPDEST PUSH1 0x3 DUP2 DUP2 SLOAD DUP2 LT PUSH2 0x526 JUMPI PUSH1 0x0 DUP1 REVERT JUMPDEST SWAP1 PUSH1 0x0 MSTORE PUSH1 0x20 PUSH1 0x0 KECCAK256 ADD PUSH1 0x0 SWAP2 POP SLOAD SWAP1 PUSH2 0x100 EXP SWAP1 DIV PUSH20 0xFFFFFFFFFFFFFFFFFFFFFFFFFFFFFFFFFFFFFFFF AND DUP2 JUMP JUMPDEST PUSH1 0x0 PUSH1 0x40 MLOAD DUP1 PUSH1 0x40 ADD PUSH1 0x40 MSTORE DUP1 DUP5 DUP2 MSTORE PUSH1 0x20 ADD DUP4 PUSH1 0x3 DUP2 GT ISZERO PUSH2 0x5A1 JUMPI PUSH32 0x4E487B7100000000000000000000000000000000000000000000000000000000 PUSH1 0x0 MSTORE PUSH1 0x21 PUSH1 0x4 MSTORE PUSH1 0x24 PUSH1 0x0 REVERT JUMPDEST DUP2 MSTORE POP SWAP1 POP PUSH1 0x0 PUSH1 0x2 PUSH1 0x0 CALLER PUSH20 0xFFFFFFFFFFFFFFFFFFFFFFFFFFFFFFFFFFFFFFFF AND PUSH20 0xFFFFFFFFFFFFFFFFFFFFFFFFFFFFFFFFFFFFFFFF AND DUP2 MSTORE PUSH1 0x20 ADD SWAP1 DUP2 MSTORE PUSH1 0x20 ADD PUSH1 0x0 KECCAK256 PUSH1 0x40 MLOAD DUP1 PUSH1 0x40 ADD PUSH1 0x40 MSTORE SWAP1 DUP2 PUSH1 0x0 DUP3 ADD DUP1 SLOAD PUSH2 0x602 SWAP1 PUSH2 0x2EF0 JUMP JUMPDEST DUP1 PUSH1 0x1F ADD PUSH1 0x20 DUP1 SWAP2 DIV MUL PUSH1 0x20 ADD PUSH1 0x40 MLOAD SWAP1 DUP2 ADD PUSH1 0x40 MSTORE DUP1 SWAP3 SWAP2 SWAP1 DUP2 DUP2 MSTORE PUSH1 0x20 ADD DUP3 DUP1 SLOAD PUSH2 0x62E SWAP1 PUSH2 0x2EF0 JUMP JUMPDEST DUP1 ISZERO PUSH2 0x67B JUMPI DUP1 PUSH1 0x1F LT PUSH2 0x650 JUMPI PUSH2 0x100 DUP1 DUP4 SLOAD DIV MUL DUP4 MSTORE SWAP2 PUSH1 0x20 ADD SWAP2 PUSH2 0x67B JUMP JUMPDEST DUP3 ADD SWAP2 SWAP1 PUSH1 0x0 MSTORE PUSH1 0x20 PUSH1 0x0 KECCAK256 SWAP1 JUMPDEST DUP2 SLOAD DUP2 MSTORE SWAP1 PUSH1 0x1 ADD SWAP1 PUSH1 0x20 ADD DUP1 DUP4 GT PUSH2 0x65E JUMPI DUP3 SWAP1 SUB PUSH1 0x1F AND DUP3 ADD SWAP2 JUMPDEST POP POP POP POP POP DUP2 MSTORE PUSH1 0x20 ADD PUSH1 0x1 DUP3 ADD PUSH1 0x0 SWAP1 SLOAD SWAP1 PUSH2 0x100 EXP SWAP1 DIV PUSH1 0xFF AND PUSH1 0x3 DUP2 GT ISZERO PUSH2 0x6CF JUMPI PUSH32 0x4E487B7100000000000000000000000000000000000000000000000000000000 PUSH1 0x0 MSTORE PUSH1 0x21 PUSH1 0x4 MSTORE PUSH1 0x24 PUSH1 0x0 REVERT JUMPDEST PUSH1 0x3 DUP2 GT ISZERO PUSH2 0x707 JUMPI PUSH32 0x4E487B7100000000000000000000000000000000000000000000000000000000 PUSH1 0x0 MSTORE PUSH1 0x21 PUSH1 0x4 MSTORE PUSH1 0x24 PUSH1 0x0 REVERT JUMPDEST DUP2 MSTORE POP POP SWAP1 POP PUSH32 0xFCF56E8B77543617E075BEDDC33F51B3921B2DC365AE569CE204AAB0C333FD53 CALLER PUSH1 0x2 PUSH1 0x0 CALLER PUSH20 0xFFFFFFFFFFFFFFFFFFFFFFFFFFFFFFFFFFFFFFFF AND PUSH20 0xFFFFFFFFFFFFFFFFFFFFFFFFFFFFFFFFFFFFFFFF AND DUP2 MSTORE PUSH1 0x20 ADD SWAP1 DUP2 MSTORE PUSH1 0x20 ADD PUSH1 0x0 KECCAK256 PUSH1 0x0 ADD PUSH1 0x2 PUSH1 0x0 CALLER PUSH20 0xFFFFFFFFFFFFFFFFFFFFFFFFFFFFFFFFFFFFFFFF AND PUSH20 0xFFFFFFFFFFFFFFFFFFFFFFFFFFFFFFFFFFFFFFFF AND DUP2 MSTORE PUSH1 0x20 ADD SWAP1 DUP2 MSTORE PUSH1 0x20 ADD PUSH1 0x0 KECCAK256 PUSH1 0x1 ADD PUSH1 0x0 SWAP1 SLOAD SWAP1 PUSH2 0x100 EXP SWAP1 DIV PUSH1 0xFF AND PUSH1 0x40 MLOAD PUSH2 0x7D0 SWAP4 SWAP3 SWAP2 SWAP1 PUSH2 0x29ED JUMP JUMPDEST PUSH1 0x40 MLOAD DUP1 SWAP2 SUB SWAP1 LOG1 PUSH32 0xFCF56E8B77543617E075BEDDC33F51B3921B2DC365AE569CE204AAB0C333FD53 CALLER PUSH1 0x2 PUSH1 0x0 CALLER PUSH20 0xFFFFFFFFFFFFFFFFFFFFFFFFFFFFFFFFFFFFFFFF AND PUSH20 0xFFFFFFFFFFFFFFFFFFFFFFFFFFFFFFFFFFFFFFFF AND DUP2 MSTORE PUSH1 0x20 ADD SWAP1 DUP2 MSTORE PUSH1 0x20 ADD PUSH1 0x0 KECCAK256 PUSH1 0x0 ADD PUSH1 0x2 PUSH1 0x0 CALLER PUSH20 0xFFFFFFFFFFFFFFFFFFFFFFFFFFFFFFFFFFFFFFFF AND PUSH20 0xFFFFFFFFFFFFFFFFFFFFFFFFFFFFFFFFFFFFFFFF AND DUP2 MSTORE PUSH1 0x20 ADD SWAP1 DUP2 MSTORE PUSH1 0x20 ADD PUSH1 0x0 KECCAK256 PUSH1 0x1 ADD PUSH1 0x0 SWAP1 SLOAD SWAP1 PUSH2 0x100 EXP SWAP1 DIV PUSH1 0xFF AND PUSH1 0x40 MLOAD PUSH2 0x89B SWAP4 SWAP3 SWAP2 SWAP1 PUSH2 0x29ED JUMP JUMPDEST PUSH1 0x40 MLOAD DUP1 SWAP2 SUB SWAP1 LOG1 PUSH1 0x0 DUP2 PUSH1 0x20 ADD MLOAD SWAP1 POP PUSH1 0x0 DUP1 SLOAD SWAP1 PUSH2 0x100 EXP SWAP1 DIV PUSH20 0xFFFFFFFFFFFFFFFFFFFFFFFFFFFFFFFFFFFFFFFF AND PUSH20 0xFFFFFFFFFFFFFFFFFFFFFFFFFFFFFFFFFFFFFFFF AND CALLER PUSH20 0xFFFFFFFFFFFFFFFFFFFFFFFFFFFFFFFFFFFFFFFF AND EQ PUSH2 0xD4D JUMPI PUSH1 0x0 PUSH1 0x3 DUP2 GT ISZERO PUSH2 0x939 JUMPI PUSH32 0x4E487B7100000000000000000000000000000000000000000000000000000000 PUSH1 0x0 MSTORE PUSH1 0x21 PUSH1 0x4 MSTORE PUSH1 0x24 PUSH1 0x0 REVERT JUMPDEST DUP2 PUSH1 0x3 DUP2 GT ISZERO PUSH2 0x972 JUMPI PUSH32 0x4E487B7100000000000000000000000000000000000000000000000000000000 PUSH1 0x0 MSTORE PUSH1 0x21 PUSH1 0x4 MSTORE PUSH1 0x24 PUSH1 0x0 REVERT JUMPDEST EQ DUP1 ISZERO PUSH2 0x9F0 JUMPI POP PUSH1 0x1 PUSH1 0x3 DUP2 GT ISZERO PUSH2 0x9B4 JUMPI PUSH32 0x4E487B7100000000000000000000000000000000000000000000000000000000 PUSH1 0x0 MSTORE PUSH1 0x21 PUSH1 0x4 MSTORE PUSH1 0x24 PUSH1 0x0 REVERT JUMPDEST DUP5 PUSH1 0x3 DUP2 GT ISZERO PUSH2 0x9ED JUMPI PUSH32 0x4E487B7100000000000000000000000000000000000000000000000000000000 PUSH1 0x0 MSTORE PUSH1 0x21 PUSH1 0x4 MSTORE PUSH1 0x24 PUSH1 0x0 REVERT JUMPDEST EQ ISZERO JUMPDEST ISZERO PUSH2 0xA30 JUMPI PUSH1 0x40 MLOAD PUSH32 0x8C379A000000000000000000000000000000000000000000000000000000000 DUP2 MSTORE PUSH1 0x4 ADD PUSH2 0xA27 SWAP1 PUSH2 0x2B98 JUMP JUMPDEST PUSH1 0x40 MLOAD DUP1 SWAP2 SUB SWAP1 REVERT JUMPDEST PUSH1 0x1 PUSH1 0x3 DUP2 GT ISZERO PUSH2 0xA6A JUMPI PUSH32 0x4E487B7100000000000000000000000000000000000000000000000000000000 PUSH1 0x0 MSTORE PUSH1 0x21 PUSH1 0x4 MSTORE PUSH1 0x24 PUSH1 0x0 REVERT JUMPDEST DUP2 PUSH1 0x3 DUP2 GT ISZERO PUSH2 0xAA3 JUMPI PUSH32 0x4E487B7100000000000000000000000000000000000000000000000000000000 PUSH1 0x0 MSTORE PUSH1 0x21 PUSH1 0x4 MSTORE PUSH1 0x24 PUSH1 0x0 REVERT JUMPDEST EQ DUP1 ISZERO PUSH2 0xB25 JUMPI POP PUSH1 0x2 PUSH1 0x3 DUP2 GT ISZERO PUSH2 0xAE5 JUMPI PUSH32 0x4E487B7100000000000000000000000000000000000000000000000000000000 PUSH1 0x0 MSTORE PUSH1 0x21 PUSH1 0x4 MSTORE PUSH1 0x24 PUSH1 0x0 REVERT JUMPDEST DUP4 PUSH1 0x20 ADD MLOAD PUSH1 0x3 DUP2 GT ISZERO PUSH2 0xB22 JUMPI PUSH32 0x4E487B7100000000000000000000000000000000000000000000000000000000 PUSH1 0x0 MSTORE PUSH1 0x21 PUSH1 0x4 MSTORE PUSH1 0x24 PUSH1 0x0 REVERT JUMPDEST EQ ISZERO JUMPDEST ISZERO PUSH2 0xB65 JUMPI PUSH1 0x40 MLOAD PUSH32 0x8C379A000000000000000000000000000000000000000000000000000000000 DUP2 MSTORE PUSH1 0x4 ADD PUSH2 0xB5C SWAP1 PUSH2 0x2C38 JUMP JUMPDEST PUSH1 0x40 MLOAD DUP1 SWAP2 SUB SWAP1 REVERT JUMPDEST PUSH1 0x2 PUSH1 0x3 DUP2 GT ISZERO PUSH2 0xB9F JUMPI PUSH32 0x4E487B7100000000000000000000000000000000000000000000000000000000 PUSH1 0x0 MSTORE PUSH1 0x21 PUSH1 0x4 MSTORE PUSH1 0x24 PUSH1 0x0 REVERT JUMPDEST DUP2 PUSH1 0x3 DUP2 GT ISZERO PUSH2 0xBD8 JUMPI PUSH32 0x4E487B7100000000000000000000000000000000000000000000000000000000 PUSH1 0x0 MSTORE PUSH1 0x21 PUSH1 0x4 MSTORE PUSH1 0x24 PUSH1 0x0 REVERT JUMPDEST EQ DUP1 ISZERO PUSH2 0xC59 JUMPI POP PUSH1 0x3 DUP1 DUP2 GT ISZERO PUSH2 0xC19 JUMPI PUSH32 0x4E487B7100000000000000000000000000000000000000000000000000000000 PUSH1 0x0 MSTORE PUSH1 0x21 PUSH1 0x4 MSTORE PUSH1 0x24 PUSH1 0x0 REVERT JUMPDEST DUP4 PUSH1 0x20 ADD MLOAD PUSH1 0x3 DUP2 GT ISZERO PUSH2 0xC56 JUMPI PUSH32 0x4E487B7100000000000000000000000000000000000000000000000000000000 PUSH1 0x0 MSTORE PUSH1 0x21 PUSH1 0x4 MSTORE PUSH1 0x24 PUSH1 0x0 REVERT JUMPDEST EQ ISZERO JUMPDEST ISZERO PUSH2 0xC99 JUMPI PUSH1 0x40 MLOAD PUSH32 0x8C379A000000000000000000000000000000000000000000000000000000000 DUP2 MSTORE PUSH1 0x4 ADD PUSH2 0xC90 SWAP1 PUSH2 0x2B78 JUMP JUMPDEST PUSH1 0x40 MLOAD DUP1 SWAP2 SUB SWAP1 REVERT JUMPDEST PUSH1 0x3 DUP1 DUP2 GT ISZERO PUSH2 0xCD2 JUMPI PUSH32 0x4E487B7100000000000000000000000000000000000000000000000000000000 PUSH1 0x0 MSTORE PUSH1 0x21 PUSH1 0x4 MSTORE PUSH1 0x24 PUSH1 0x0 REVERT JUMPDEST DUP2 PUSH1 0x3 DUP2 GT ISZERO PUSH2 0xD0B JUMPI PUSH32 0x4E487B7100000000000000000000000000000000000000000000000000000000 PUSH1 0x0 MSTORE PUSH1 0x21 PUSH1 0x4 MSTORE PUSH1 0x24 PUSH1 0x0 REVERT JUMPDEST EQ ISZERO PUSH2 0xD4C JUMPI PUSH1 0x40 MLOAD PUSH32 0x8C379A000000000000000000000000000000000000000000000000000000000 DUP2 MSTORE PUSH1 0x4 ADD PUSH2 0xD43 SWAP1 PUSH2 0x2BB8 JUMP JUMPDEST PUSH1 0x40 MLOAD DUP1 SWAP2 SUB SWAP1 REVERT JUMPDEST JUMPDEST PUSH1 0x40 MLOAD DUP1 PUSH1 0x40 ADD PUSH1 0x40 MSTORE DUP1 DUP7 DUP2 MSTORE PUSH1 0x20 ADD DUP6 PUSH1 0x3 DUP2 GT ISZERO PUSH2 0xD97 JUMPI PUSH32 0x4E487B7100000000000000000000000000000000000000000000000000000000 PUSH1 0x0 MSTORE PUSH1 0x21 PUSH1 0x4 MSTORE PUSH1 0x24 PUSH1 0x0 REVERT JUMPDEST DUP2 MSTORE POP PUSH1 0x2 PUSH1 0x0 DUP9 PUSH20 0xFFFFFFFFFFFFFFFFFFFFFFFFFFFFFFFFFFFFFFFF AND PUSH20 0xFFFFFFFFFFFFFFFFFFFFFFFFFFFFFFFFFFFFFFFF AND DUP2 MSTORE PUSH1 0x20 ADD SWAP1 DUP2 MSTORE PUSH1 0x20 ADD PUSH1 0x0 KECCAK256 PUSH1 0x0 DUP3 ADD MLOAD DUP2 PUSH1 0x0 ADD SWAP1 DUP1 MLOAD SWAP1 PUSH1 0x20 ADD SWAP1 PUSH2 0xDF5 SWAP3 SWAP2 SWAP1 PUSH2 0x2044 JUMP JUMPDEST POP PUSH1 0x20 DUP3 ADD MLOAD DUP2 PUSH1 0x1 ADD PUSH1 0x0 PUSH2 0x100 EXP DUP2 SLOAD DUP2 PUSH1 0xFF MUL NOT AND SWAP1 DUP4 PUSH1 0x3 DUP2 GT ISZERO PUSH2 0xE47 JUMPI PUSH32 0x4E487B7100000000000000000000000000000000000000000000000000000000 PUSH1 0x0 MSTORE PUSH1 0x21 PUSH1 0x4 MSTORE PUSH1 0x24 PUSH1 0x0 REVERT JUMPDEST MUL OR SWAP1 SSTORE POP SWAP1 POP POP PUSH1 0x3 DUP7 SWAP1 DUP1 PUSH1 0x1 DUP2 SLOAD ADD DUP1 DUP3 SSTORE DUP1 SWAP2 POP POP PUSH1 0x1 SWAP1 SUB SWAP1 PUSH1 0x0 MSTORE PUSH1 0x20 PUSH1 0x0 KECCAK256 ADD PUSH1 0x0 SWAP1 SWAP2 SWAP1 SWAP2 SWAP1 SWAP2 PUSH2 0x100 EXP DUP2 SLOAD DUP2 PUSH20 0xFFFFFFFFFFFFFFFFFFFFFFFFFFFFFFFFFFFFFFFF MUL NOT AND SWAP1 DUP4 PUSH20 0xFFFFFFFFFFFFFFFFFFFFFFFFFFFFFFFFFFFFFFFF AND MUL OR SWAP1 SSTORE POP PUSH2 0xEBB DUP7 PUSH2 0x1CE6 JUMP JUMPDEST POP POP POP POP POP POP JUMP JUMPDEST PUSH1 0x4 DUP2 DUP2 SLOAD DUP2 LT PUSH2 0xED3 JUMPI PUSH1 0x0 DUP1 REVERT JUMPDEST SWAP1 PUSH1 0x0 MSTORE PUSH1 0x20 PUSH1 0x0 KECCAK256 SWAP1 PUSH1 0x6 MUL ADD PUSH1 0x0 SWAP2 POP SWAP1 POP DUP1 PUSH1 0x0 ADD SLOAD SWAP1 DUP1 PUSH1 0x1 ADD DUP1 SLOAD PUSH2 0xEFC SWAP1 PUSH2 0x2EF0 JUMP JUMPDEST DUP1 PUSH1 0x1F ADD PUSH1 0x20 DUP1 SWAP2 DIV MUL PUSH1 0x20 ADD PUSH1 0x40 MLOAD SWAP1 DUP2 ADD PUSH1 0x40 MSTORE DUP1 SWAP3 SWAP2 SWAP1 DUP2 DUP2 MSTORE PUSH1 0x20 ADD DUP3 DUP1 SLOAD PUSH2 0xF28 SWAP1 PUSH2 0x2EF0 JUMP JUMPDEST DUP1 ISZERO PUSH2 0xF75 JUMPI DUP1 PUSH1 0x1F LT PUSH2 0xF4A JUMPI PUSH2 0x100 DUP1 DUP4 SLOAD DIV MUL DUP4 MSTORE SWAP2 PUSH1 0x20 ADD SWAP2 PUSH2 0xF75 JUMP JUMPDEST DUP3 ADD SWAP2 SWAP1 PUSH1 0x0 MSTORE PUSH1 0x20 PUSH1 0x0 KECCAK256 SWAP1 JUMPDEST DUP2 SLOAD DUP2 MSTORE SWAP1 PUSH1 0x1 ADD SWAP1 PUSH1 0x20 ADD DUP1 DUP4 GT PUSH2 0xF58 JUMPI DUP3 SWAP1 SUB PUSH1 0x1F AND DUP3 ADD SWAP2 JUMPDEST POP POP POP POP POP SWAP1 DUP1 PUSH1 0x2 ADD SLOAD SWAP1 DUP1 PUSH1 0x3 ADD SLOAD SWAP1 DUP1 PUSH1 0x4 ADD PUSH1 0x0 SWAP1 SLOAD SWAP1 PUSH2 0x100 EXP SWAP1 DIV PUSH20 0xFFFFFFFFFFFFFFFFFFFFFFFFFFFFFFFFFFFFFFFF AND SWAP1 DUP1 PUSH1 0x5 ADD SLOAD SWAP1 POP DUP7 JUMP JUMPDEST PUSH1 0x1 ISZERO ISZERO PUSH1 0x1 PUSH1 0x0 CALLER PUSH20 0xFFFFFFFFFFFFFFFFFFFFFFFFFFFFFFFFFFFFFFFF AND PUSH20 0xFFFFFFFFFFFFFFFFFFFFFFFFFFFFFFFFFFFFFFFF AND DUP2 MSTORE PUSH1 0x20 ADD SWAP1 DUP2 MSTORE PUSH1 0x20 ADD PUSH1 0x0 KECCAK256 PUSH1 0x0 SWAP1 SLOAD SWAP1 PUSH2 0x100 EXP SWAP1 DIV PUSH1 0xFF AND ISZERO ISZERO EQ PUSH2 0x104A JUMPI PUSH1 0x40 MLOAD PUSH32 0x8C379A000000000000000000000000000000000000000000000000000000000 DUP2 MSTORE PUSH1 0x4 ADD PUSH2 0x1041 SWAP1 PUSH2 0x2BD8 JUMP JUMPDEST PUSH1 0x40 MLOAD DUP1 SWAP2 SUB SWAP1 REVERT JUMPDEST PUSH1 0x0 PUSH1 0x2 PUSH1 0x0 CALLER PUSH20 0xFFFFFFFFFFFFFFFFFFFFFFFFFFFFFFFFFFFFFFFF AND PUSH20 0xFFFFFFFFFFFFFFFFFFFFFFFFFFFFFFFFFFFFFFFF AND DUP2 MSTORE PUSH1 0x20 ADD SWAP1 DUP2 MSTORE PUSH1 0x20 ADD PUSH1 0x0 KECCAK256 PUSH1 0x40 MLOAD DUP1 PUSH1 0x40 ADD PUSH1 0x40 MSTORE SWAP1 DUP2 PUSH1 0x0 DUP3 ADD DUP1 SLOAD PUSH2 0x10A6 SWAP1 PUSH2 0x2EF0 JUMP JUMPDEST DUP1 PUSH1 0x1F ADD PUSH1 0x20 DUP1 SWAP2 DIV MUL PUSH1 0x20 ADD PUSH1 0x40 MLOAD SWAP1 DUP2 ADD PUSH1 0x40 MSTORE DUP1 SWAP3 SWAP2 SWAP1 DUP2 DUP2 MSTORE PUSH1 0x20 ADD DUP3 DUP1 SLOAD PUSH2 0x10D2 SWAP1 PUSH2 0x2EF0 JUMP JUMPDEST DUP1 ISZERO PUSH2 0x111F JUMPI DUP1 PUSH1 0x1F LT PUSH2 0x10F4 JUMPI PUSH2 0x100 DUP1 DUP4 SLOAD DIV MUL DUP4 MSTORE SWAP2 PUSH1 0x20 ADD SWAP2 PUSH2 0x111F JUMP JUMPDEST DUP3 ADD SWAP2 SWAP1 PUSH1 0x0 MSTORE PUSH1 0x20 PUSH1 0x0 KECCAK256 SWAP1 JUMPDEST DUP2 SLOAD DUP2 MSTORE SWAP1 PUSH1 0x1 ADD SWAP1 PUSH1 0x20 ADD DUP1 DUP4 GT PUSH2 0x1102 JUMPI DUP3 SWAP1 SUB PUSH1 0x1F AND DUP3 ADD SWAP2 JUMPDEST POP POP POP POP POP DUP2 MSTORE PUSH1 0x20 ADD PUSH1 0x1 DUP3 ADD PUSH1 0x0 SWAP1 SLOAD SWAP1 PUSH2 0x100 EXP SWAP1 DIV PUSH1 0xFF AND PUSH1 0x3 DUP2 GT ISZERO PUSH2 0x1173 JUMPI PUSH32 0x4E487B7100000000000000000000000000000000000000000000000000000000 PUSH1 0x0 MSTORE PUSH1 0x21 PUSH1 0x4 MSTORE PUSH1 0x24 PUSH1 0x0 REVERT JUMPDEST PUSH1 0x3 DUP2 GT ISZERO PUSH2 0x11AB JUMPI PUSH32 0x4E487B7100000000000000000000000000000000000000000000000000000000 PUSH1 0x0 MSTORE PUSH1 0x21 PUSH1 0x4 MSTORE PUSH1 0x24 PUSH1 0x0 REVERT JUMPDEST DUP2 MSTORE POP POP SWAP1 POP PUSH1 0x0 PUSH1 0x2 PUSH1 0x0 DUP5 PUSH20 0xFFFFFFFFFFFFFFFFFFFFFFFFFFFFFFFFFFFFFFFF AND PUSH20 0xFFFFFFFFFFFFFFFFFFFFFFFFFFFFFFFFFFFFFFFF AND DUP2 MSTORE PUSH1 0x20 ADD SWAP1 DUP2 MSTORE PUSH1 0x20 ADD PUSH1 0x0 KECCAK256 PUSH1 0x40 MLOAD DUP1 PUSH1 0x40 ADD PUSH1 0x40 MSTORE SWAP1 DUP2 PUSH1 0x0 DUP3 ADD DUP1 SLOAD PUSH2 0x120D SWAP1 PUSH2 0x2EF0 JUMP JUMPDEST DUP1 PUSH1 0x1F ADD PUSH1 0x20 DUP1 SWAP2 DIV MUL PUSH1 0x20 ADD PUSH1 0x40 MLOAD SWAP1 DUP2 ADD PUSH1 0x40 MSTORE DUP1 SWAP3 SWAP2 SWAP1 DUP2 DUP2 MSTORE PUSH1 0x20 ADD DUP3 DUP1 SLOAD PUSH2 0x1239 SWAP1 PUSH2 0x2EF0 JUMP JUMPDEST DUP1 ISZERO PUSH2 0x1286 JUMPI DUP1 PUSH1 0x1F LT PUSH2 0x125B JUMPI PUSH2 0x100 DUP1 DUP4 SLOAD DIV MUL DUP4 MSTORE SWAP2 PUSH1 0x20 ADD SWAP2 PUSH2 0x1286 JUMP JUMPDEST DUP3 ADD SWAP2 SWAP1 PUSH1 0x0 MSTORE PUSH1 0x20 PUSH1 0x0 KECCAK256 SWAP1 JUMPDEST DUP2 SLOAD DUP2 MSTORE SWAP1 PUSH1 0x1 ADD SWAP1 PUSH1 0x20 ADD DUP1 DUP4 GT PUSH2 0x1269 JUMPI DUP3 SWAP1 SUB PUSH1 0x1F AND DUP3 ADD SWAP2 JUMPDEST POP POP POP POP POP DUP2 MSTORE PUSH1 0x20 ADD PUSH1 0x1 DUP3 ADD PUSH1 0x0 SWAP1 SLOAD SWAP1 PUSH2 0x100 EXP SWAP1 DIV PUSH1 0xFF AND PUSH1 0x3 DUP2 GT ISZERO PUSH2 0x12DA JUMPI PUSH32 0x4E487B7100000000000000000000000000000000000000000000000000000000 PUSH1 0x0 MSTORE PUSH1 0x21 PUSH1 0x4 MSTORE PUSH1 0x24 PUSH1 0x0 REVERT JUMPDEST PUSH1 0x3 DUP2 GT ISZERO PUSH2 0x1312 JUMPI PUSH32 0x4E487B7100000000000000000000000000000000000000000000000000000000 PUSH1 0x0 MSTORE PUSH1 0x21 PUSH1 0x4 MSTORE PUSH1 0x24 PUSH1 0x0 REVERT JUMPDEST DUP2 MSTORE POP POP SWAP1 POP PUSH1 0x0 DUP3 PUSH1 0x20 ADD MLOAD SWAP1 POP PUSH1 0x0 DUP3 PUSH1 0x20 ADD MLOAD SWAP1 POP PUSH1 0x0 DUP1 SLOAD SWAP1 PUSH2 0x100 EXP SWAP1 DIV PUSH20 0xFFFFFFFFFFFFFFFFFFFFFFFFFFFFFFFFFFFFFFFF AND PUSH20 0xFFFFFFFFFFFFFFFFFFFFFFFFFFFFFFFFFFFFFFFF AND CALLER PUSH20 0xFFFFFFFFFFFFFFFFFFFFFFFFFFFFFFFFFFFFFFFF AND EQ PUSH2 0x17C3 JUMPI PUSH1 0x0 PUSH1 0x3 DUP2 GT ISZERO PUSH2 0x13B7 JUMPI PUSH32 0x4E487B7100000000000000000000000000000000000000000000000000000000 PUSH1 0x0 MSTORE PUSH1 0x21 PUSH1 0x4 MSTORE PUSH1 0x24 PUSH1 0x0 REVERT JUMPDEST DUP3 PUSH1 0x3 DUP2 GT ISZERO PUSH2 0x13F0 JUMPI PUSH32 0x4E487B7100000000000000000000000000000000000000000000000000000000 PUSH1 0x0 MSTORE PUSH1 0x21 PUSH1 0x4 MSTORE PUSH1 0x24 PUSH1 0x0 REVERT JUMPDEST EQ DUP1 ISZERO PUSH2 0x146E JUMPI POP PUSH1 0x1 PUSH1 0x3 DUP2 GT ISZERO PUSH2 0x1432 JUMPI PUSH32 0x4E487B7100000000000000000000000000000000000000000000000000000000 PUSH1 0x0 MSTORE PUSH1 0x21 PUSH1 0x4 MSTORE PUSH1 0x24 PUSH1 0x0 REVERT JUMPDEST DUP2 PUSH1 0x3 DUP2 GT ISZERO PUSH2 0x146B JUMPI PUSH32 0x4E487B7100000000000000000000000000000000000000000000000000000000 PUSH1 0x0 MSTORE PUSH1 0x21 PUSH1 0x4 MSTORE PUSH1 0x24 PUSH1 0x0 REVERT JUMPDEST EQ ISZERO JUMPDEST ISZERO PUSH2 0x14AE JUMPI PUSH1 0x40 MLOAD PUSH32 0x8C379A000000000000000000000000000000000000000000000000000000000 DUP2 MSTORE PUSH1 0x4 ADD PUSH2 0x14A5 SWAP1 PUSH2 0x2BF8 JUMP JUMPDEST PUSH1 0x40 MLOAD DUP1 SWAP2 SUB SWAP1 REVERT JUMPDEST PUSH1 0x1 PUSH1 0x3 DUP2 GT ISZERO PUSH2 0x14E8 JUMPI PUSH32 0x4E487B7100000000000000000000000000000000000000000000000000000000 PUSH1 0x0 MSTORE PUSH1 0x21 PUSH1 0x4 MSTORE PUSH1 0x24 PUSH1 0x0 REVERT JUMPDEST DUP3 PUSH1 0x3 DUP2 GT ISZERO PUSH2 0x1521 JUMPI PUSH32 0x4E487B7100000000000000000000000000000000000000000000000000000000 PUSH1 0x0 MSTORE PUSH1 0x21 PUSH1 0x4 MSTORE PUSH1 0x24 PUSH1 0x0 REVERT JUMPDEST EQ DUP1 ISZERO PUSH2 0x159F JUMPI POP PUSH1 0x2 PUSH1 0x3 DUP2 GT ISZERO PUSH2 0x1563 JUMPI PUSH32 0x4E487B7100000000000000000000000000000000000000000000000000000000 PUSH1 0x0 MSTORE PUSH1 0x21 PUSH1 0x4 MSTORE PUSH1 0x24 PUSH1 0x0 REVERT JUMPDEST DUP2 PUSH1 0x3 DUP2 GT ISZERO PUSH2 0x159C JUMPI PUSH32 0x4E487B7100000000000000000000000000000000000000000000000000000000 PUSH1 0x0 MSTORE PUSH1 0x21 PUSH1 0x4 MSTORE PUSH1 0x24 PUSH1 0x0 REVERT JUMPDEST EQ ISZERO JUMPDEST ISZERO PUSH2 0x15DF JUMPI PUSH1 0x40 MLOAD PUSH32 0x8C379A000000000000000000000000000000000000000000000000000000000 DUP2 MSTORE PUSH1 0x4 ADD PUSH2 0x15D6 SWAP1 PUSH2 0x2B38 JUMP JUMPDEST PUSH1 0x40 MLOAD DUP1 SWAP2 SUB SWAP1 REVERT JUMPDEST PUSH1 0x2 PUSH1 0x3 DUP2 GT ISZERO PUSH2 0x1619 JUMPI PUSH32 0x4E487B7100000000000000000000000000000000000000000000000000000000 PUSH1 0x0 MSTORE PUSH1 0x21 PUSH1 0x4 MSTORE PUSH1 0x24 PUSH1 0x0 REVERT JUMPDEST DUP3 PUSH1 0x3 DUP2 GT ISZERO PUSH2 0x1652 JUMPI PUSH32 0x4E487B7100000000000000000000000000000000000000000000000000000000 PUSH1 0x0 MSTORE PUSH1 0x21 PUSH1 0x4 MSTORE PUSH1 0x24 PUSH1 0x0 REVERT JUMPDEST EQ DUP1 ISZERO PUSH2 0x16CF JUMPI POP PUSH1 0x3 DUP1 DUP2 GT ISZERO PUSH2 0x1693 JUMPI PUSH32 0x4E487B7100000000000000000000000000000000000000000000000000000000 PUSH1 0x0 MSTORE PUSH1 0x21 PUSH1 0x4 MSTORE PUSH1 0x24 PUSH1 0x0 REVERT JUMPDEST DUP2 PUSH1 0x3 DUP2 GT ISZERO PUSH2 0x16CC JUMPI PUSH32 0x4E487B7100000000000000000000000000000000000000000000000000000000 PUSH1 0x0 MSTORE PUSH1 0x21 PUSH1 0x4 MSTORE PUSH1 0x24 PUSH1 0x0 REVERT JUMPDEST EQ ISZERO JUMPDEST ISZERO PUSH2 0x170F JUMPI PUSH1 0x40 MLOAD PUSH32 0x8C379A000000000000000000000000000000000000000000000000000000000 DUP2 MSTORE PUSH1 0x4 ADD PUSH2 0x1706 SWAP1 PUSH2 0x2B18 JUMP JUMPDEST PUSH1 0x40 MLOAD DUP1 SWAP2 SUB SWAP1 REVERT JUMPDEST PUSH1 0x3 DUP1 DUP2 GT ISZERO PUSH2 0x1748 JUMPI PUSH32 0x4E487B7100000000000000000000000000000000000000000000000000000000 PUSH1 0x0 MSTORE PUSH1 0x21 PUSH1 0x4 MSTORE PUSH1 0x24 PUSH1 0x0 REVERT JUMPDEST DUP3 PUSH1 0x3 DUP2 GT ISZERO PUSH2 0x1781 JUMPI PUSH32 0x4E487B7100000000000000000000000000000000000000000000000000000000 PUSH1 0x0 MSTORE PUSH1 0x21 PUSH1 0x4 MSTORE PUSH1 0x24 PUSH1 0x0 REVERT JUMPDEST EQ ISZERO PUSH2 0x17C2 JUMPI PUSH1 0x40 MLOAD PUSH32 0x8C379A000000000000000000000000000000000000000000000000000000000 DUP2 MSTORE PUSH1 0x4 ADD PUSH2 0x17B9 SWAP1 PUSH2 0x2AD8 JUMP JUMPDEST PUSH1 0x40 MLOAD DUP1 SWAP2 SUB SWAP1 REVERT JUMPDEST JUMPDEST PUSH1 0x0 PUSH1 0x4 PUSH1 0x1 DUP9 PUSH2 0x17D4 SWAP2 SWAP1 PUSH2 0x2E0D JUMP JUMPDEST DUP2 SLOAD DUP2 LT PUSH2 0x180B JUMPI PUSH32 0x4E487B7100000000000000000000000000000000000000000000000000000000 PUSH1 0x0 MSTORE PUSH1 0x32 PUSH1 0x4 MSTORE PUSH1 0x24 PUSH1 0x0 REVERT JUMPDEST SWAP1 PUSH1 0x0 MSTORE PUSH1 0x20 PUSH1 0x0 KECCAK256 SWAP1 PUSH1 0x6 MUL ADD PUSH1 0x0 ADD SLOAD EQ ISZERO PUSH2 0x185E JUMPI PUSH1 0x40 MLOAD PUSH32 0x8C379A000000000000000000000000000000000000000000000000000000000 DUP2 MSTORE PUSH1 0x4 ADD PUSH2 0x1855 SWAP1 PUSH2 0x2A98 JUMP JUMPDEST PUSH1 0x40 MLOAD DUP1 SWAP2 SUB SWAP1 REVERT JUMPDEST CALLER PUSH20 0xFFFFFFFFFFFFFFFFFFFFFFFFFFFFFFFFFFFFFFFF AND PUSH1 0x4 PUSH1 0x1 DUP9 PUSH2 0x1884 SWAP2 SWAP1 PUSH2 0x2E0D JUMP JUMPDEST DUP2 SLOAD DUP2 LT PUSH2 0x18BB JUMPI PUSH32 0x4E487B7100000000000000000000000000000000000000000000000000000000 PUSH1 0x0 MSTORE PUSH1 0x32 PUSH1 0x4 MSTORE PUSH1 0x24 PUSH1 0x0 REVERT JUMPDEST SWAP1 PUSH1 0x0 MSTORE PUSH1 0x20 PUSH1 0x0 KECCAK256 SWAP1 PUSH1 0x6 MUL ADD PUSH1 0x4 ADD PUSH1 0x0 SWAP1 SLOAD SWAP1 PUSH2 0x100 EXP SWAP1 DIV PUSH20 0xFFFFFFFFFFFFFFFFFFFFFFFFFFFFFFFFFFFFFFFF AND PUSH20 0xFFFFFFFFFFFFFFFFFFFFFFFFFFFFFFFFFFFFFFFF AND EQ PUSH2 0x1943 JUMPI PUSH1 0x40 MLOAD PUSH32 0x8C379A000000000000000000000000000000000000000000000000000000000 DUP2 MSTORE PUSH1 0x4 ADD PUSH2 0x193A SWAP1 PUSH2 0x2AB8 JUMP JUMPDEST PUSH1 0x40 MLOAD DUP1 SWAP2 SUB SWAP1 REVERT JUMPDEST DUP5 PUSH1 0x4 PUSH1 0x1 DUP9 PUSH2 0x1953 SWAP2 SWAP1 PUSH2 0x2E0D JUMP JUMPDEST DUP2 SLOAD DUP2 LT PUSH2 0x198A JUMPI PUSH32 0x4E487B7100000000000000000000000000000000000000000000000000000000 PUSH1 0x0 MSTORE PUSH1 0x32 PUSH1 0x4 MSTORE PUSH1 0x24 PUSH1 0x0 REVERT JUMPDEST SWAP1 PUSH1 0x0 MSTORE PUSH1 0x20 PUSH1 0x0 KECCAK256 SWAP1 PUSH1 0x6 MUL ADD PUSH1 0x4 ADD PUSH1 0x0 PUSH2 0x100 EXP DUP2 SLOAD DUP2 PUSH20 0xFFFFFFFFFFFFFFFFFFFFFFFFFFFFFFFFFFFFFFFF MUL NOT AND SWAP1 DUP4 PUSH20 0xFFFFFFFFFFFFFFFFFFFFFFFFFFFFFFFFFFFFFFFF AND MUL OR SWAP1 SSTORE POP TIMESTAMP PUSH1 0x4 PUSH1 0x1 DUP9 PUSH2 0x19E9 SWAP2 SWAP1 PUSH2 0x2E0D JUMP JUMPDEST DUP2 SLOAD DUP2 LT PUSH2 0x1A20 JUMPI PUSH32 0x4E487B7100000000000000000000000000000000000000000000000000000000 PUSH1 0x0 MSTORE PUSH1 0x32 PUSH1 0x4 MSTORE PUSH1 0x24 PUSH1 0x0 REVERT JUMPDEST SWAP1 PUSH1 0x0 MSTORE PUSH1 0x20 PUSH1 0x0 KECCAK256 SWAP1 PUSH1 0x6 MUL ADD PUSH1 0x5 ADD DUP2 SWAP1 SSTORE POP POP POP POP POP POP POP JUMP JUMPDEST PUSH1 0x0 DUP1 SLOAD SWAP1 PUSH2 0x100 EXP SWAP1 DIV PUSH20 0xFFFFFFFFFFFFFFFFFFFFFFFFFFFFFFFFFFFFFFFF AND PUSH20 0xFFFFFFFFFFFFFFFFFFFFFFFFFFFFFFFFFFFFFFFF AND CALLER PUSH20 0xFFFFFFFFFFFFFFFFFFFFFFFFFFFFFFFFFFFFFFFF AND EQ PUSH2 0x1ACB JUMPI PUSH1 0x40 MLOAD PUSH32 0x8C379A000000000000000000000000000000000000000000000000000000000 DUP2 MSTORE PUSH1 0x4 ADD PUSH2 0x1AC2 SWAP1 PUSH2 0x2C18 JUMP JUMPDEST PUSH1 0x40 MLOAD DUP1 SWAP2 SUB SWAP1 REVERT JUMPDEST PUSH1 0x0 PUSH1 0x1 PUSH1 0x0 DUP4 PUSH20 0xFFFFFFFFFFFFFFFFFFFFFFFFFFFFFFFFFFFFFFFF AND PUSH20 0xFFFFFFFFFFFFFFFFFFFFFFFFFFFFFFFFFFFFFFFF AND DUP2 MSTORE PUSH1 0x20 ADD SWAP1 DUP2 MSTORE PUSH1 0x20 ADD PUSH1 0x0 KECCAK256 PUSH1 0x0 PUSH2 0x100 EXP DUP2 SLOAD DUP2 PUSH1 0xFF MUL NOT AND SWAP1 DUP4 ISZERO ISZERO MUL OR SWAP1 SSTORE POP POP JUMP JUMPDEST PUSH1 0x0 DUP1 SLOAD SWAP1 PUSH2 0x100 EXP SWAP1 DIV PUSH20 0xFFFFFFFFFFFFFFFFFFFFFFFFFFFFFFFFFFFFFFFF AND DUP2 JUMP JUMPDEST PUSH1 0x1 PUSH1 0x20 MSTORE DUP1 PUSH1 0x0 MSTORE PUSH1 0x40 PUSH1 0x0 KECCAK256 PUSH1 0x0 SWAP2 POP SLOAD SWAP1 PUSH2 0x100 EXP SWAP1 DIV PUSH1 0xFF AND DUP2 JUMP JUMPDEST PUSH1 0x0 PUSH1 0x3 DUP1 SLOAD SWAP1 POP SWAP1 POP SWAP1 JUMP JUMPDEST PUSH1 0x60 PUSH1 0x4 DUP1 SLOAD DUP1 PUSH1 0x20 MUL PUSH1 0x20 ADD PUSH1 0x40 MLOAD SWAP1 DUP2 ADD PUSH1 0x40 MSTORE DUP1 SWAP3 SWAP2 SWAP1 DUP2 DUP2 MSTORE PUSH1 0x20 ADD PUSH1 0x0 SWAP1 JUMPDEST DUP3 DUP3 LT ISZERO PUSH2 0x1CDD JUMPI DUP4 DUP3 SWAP1 PUSH1 0x0 MSTORE PUSH1 0x20 PUSH1 0x0 KECCAK256 SWAP1 PUSH1 0x6 MUL ADD PUSH1 0x40 MLOAD DUP1 PUSH1 0xC0 ADD PUSH1 0x40 MSTORE SWAP1 DUP2 PUSH1 0x0 DUP3 ADD SLOAD DUP2 MSTORE PUSH1 0x20 ADD PUSH1 0x1 DUP3 ADD DUP1 SLOAD PUSH2 0x1BD8 SWAP1 PUSH2 0x2EF0 JUMP JUMPDEST DUP1 PUSH1 0x1F ADD PUSH1 0x20 DUP1 SWAP2 DIV MUL PUSH1 0x20 ADD PUSH1 0x40 MLOAD SWAP1 DUP2 ADD PUSH1 0x40 MSTORE DUP1 SWAP3 SWAP2 SWAP1 DUP2 DUP2 MSTORE PUSH1 0x20 ADD DUP3 DUP1 SLOAD PUSH2 0x1C04 SWAP1 PUSH2 0x2EF0 JUMP JUMPDEST DUP1 ISZERO PUSH2 0x1C51 JUMPI DUP1 PUSH1 0x1F LT PUSH2 0x1C26 JUMPI PUSH2 0x100 DUP1 DUP4 SLOAD DIV MUL DUP4 MSTORE SWAP2 PUSH1 0x20 ADD SWAP2 PUSH2 0x1C51 JUMP JUMPDEST DUP3 ADD SWAP2 SWAP1 PUSH1 0x0 MSTORE PUSH1 0x20 PUSH1 0x0 KECCAK256 SWAP1 JUMPDEST DUP2 SLOAD DUP2 MSTORE SWAP1 PUSH1 0x1 ADD SWAP1 PUSH1 0x20 ADD DUP1 DUP4 GT PUSH2 0x1C34 JUMPI DUP3 SWAP1 SUB PUSH1 0x1F AND DUP3 ADD SWAP2 JUMPDEST POP POP POP POP POP DUP2 MSTORE PUSH1 0x20 ADD PUSH1 0x2 DUP3 ADD SLOAD DUP2 MSTORE PUSH1 0x20 ADD PUSH1 0x3 DUP3 ADD SLOAD DUP2 MSTORE PUSH1 0x20 ADD PUSH1 0x4 DUP3 ADD PUSH1 0x0 SWAP1 SLOAD SWAP1 PUSH2 0x100 EXP SWAP1 DIV PUSH20 0xFFFFFFFFFFFFFFFFFFFFFFFFFFFFFFFFFFFFFFFF AND PUSH20 0xFFFFFFFFFFFFFFFFFFFFFFFFFFFFFFFFFFFFFFFF AND PUSH20 0xFFFFFFFFFFFFFFFFFFFFFFFFFFFFFFFFFFFFFFFF AND DUP2 MSTORE PUSH1 0x20 ADD PUSH1 0x5 DUP3 ADD SLOAD DUP2 MSTORE POP POP DUP2 MSTORE PUSH1 0x20 ADD SWAP1 PUSH1 0x1 ADD SWAP1 PUSH2 0x1B9B JUMP JUMPDEST POP POP POP POP SWAP1 POP SWAP1 JUMP JUMPDEST PUSH1 0x1 DUP1 PUSH1 0x0 DUP4 PUSH20 0xFFFFFFFFFFFFFFFFFFFFFFFFFFFFFFFFFFFFFFFF AND PUSH20 0xFFFFFFFFFFFFFFFFFFFFFFFFFFFFFFFFFFFFFFFF AND DUP2 MSTORE PUSH1 0x20 ADD SWAP1 DUP2 MSTORE PUSH1 0x20 ADD PUSH1 0x0 KECCAK256 PUSH1 0x0 PUSH2 0x100 EXP DUP2 SLOAD DUP2 PUSH1 0xFF MUL NOT AND SWAP1 DUP4 ISZERO ISZERO MUL OR SWAP1 SSTORE POP POP JUMP JUMPDEST PUSH1 0x2 PUSH1 0x20 MSTORE DUP1 PUSH1 0x0 MSTORE PUSH1 0x40 PUSH1 0x0 KECCAK256 PUSH1 0x0 SWAP2 POP SWAP1 POP DUP1 PUSH1 0x0 ADD DUP1 SLOAD PUSH2 0x1D63 SWAP1 PUSH2 0x2EF0 JUMP JUMPDEST DUP1 PUSH1 0x1F ADD PUSH1 0x20 DUP1 SWAP2 DIV MUL PUSH1 0x20 ADD PUSH1 0x40 MLOAD SWAP1 DUP2 ADD PUSH1 0x40 MSTORE DUP1 SWAP3 SWAP2 SWAP1 DUP2 DUP2 MSTORE PUSH1 0x20 ADD DUP3 DUP1 SLOAD PUSH2 0x1D8F SWAP1 PUSH2 0x2EF0 JUMP JUMPDEST DUP1 ISZERO PUSH2 0x1DDC JUMPI DUP1 PUSH1 0x1F LT PUSH2 0x1DB1 JUMPI PUSH2 0x100 DUP1 DUP4 SLOAD DIV MUL DUP4 MSTORE SWAP2 PUSH1 0x20 ADD SWAP2 PUSH2 0x1DDC JUMP JUMPDEST DUP3 ADD SWAP2 SWAP1 PUSH1 0x0 MSTORE PUSH1 0x20 PUSH1 0x0 KECCAK256 SWAP1 JUMPDEST DUP2 SLOAD DUP2 MSTORE SWAP1 PUSH1 0x1 ADD SWAP1 PUSH1 0x20 ADD DUP1 DUP4 GT PUSH2 0x1DBF JUMPI DUP3 SWAP1 SUB PUSH1 0x1F AND DUP3 ADD SWAP2 JUMPDEST POP POP POP POP POP SWAP1 DUP1 PUSH1 0x1 ADD PUSH1 0x0 SWAP1 SLOAD SWAP1 PUSH2 0x100 EXP SWAP1 DIV PUSH1 0xFF AND SWAP1 POP DUP3 JUMP JUMPDEST PUSH1 0x0 DUP1 SLOAD SWAP1 PUSH2 0x100 EXP SWAP1 DIV PUSH20 0xFFFFFFFFFFFFFFFFFFFFFFFFFFFFFFFFFFFFFFFF AND PUSH20 0xFFFFFFFFFFFFFFFFFFFFFFFFFFFFFFFFFFFFFFFF AND CALLER PUSH20 0xFFFFFFFFFFFFFFFFFFFFFFFFFFFFFFFFFFFFFFFF AND EQ PUSH2 0x1E87 JUMPI PUSH1 0x40 MLOAD PUSH32 0x8C379A000000000000000000000000000000000000000000000000000000000 DUP2 MSTORE PUSH1 0x4 ADD PUSH2 0x1E7E SWAP1 PUSH2 0x2C18 JUMP JUMPDEST PUSH1 0x40 MLOAD DUP1 SWAP2 SUB SWAP1 REVERT JUMPDEST PUSH1 0x0 PUSH20 0xFFFFFFFFFFFFFFFFFFFFFFFFFFFFFFFFFFFFFFFF AND DUP2 PUSH20 0xFFFFFFFFFFFFFFFFFFFFFFFFFFFFFFFFFFFFFFFF AND EQ ISZERO PUSH2 0x1EF7 JUMPI PUSH1 0x40 MLOAD PUSH32 0x8C379A000000000000000000000000000000000000000000000000000000000 DUP2 MSTORE PUSH1 0x4 ADD PUSH2 0x1EEE SWAP1 PUSH2 0x2B58 JUMP JUMPDEST PUSH1 0x40 MLOAD DUP1 SWAP2 SUB SWAP1 REVERT JUMPDEST DUP1 PUSH20 0xFFFFFFFFFFFFFFFFFFFFFFFFFFFFFFFFFFFFFFFF AND PUSH1 0x0 DUP1 SLOAD SWAP1 PUSH2 0x100 EXP SWAP1 DIV PUSH20 0xFFFFFFFFFFFFFFFFFFFFFFFFFFFFFFFFFFFFFFFF AND PUSH20 0xFFFFFFFFFFFFFFFFFFFFFFFFFFFFFFFFFFFFFFFF AND PUSH32 0x8BE0079C531659141344CD1FD0A4F28419497F9722A3DAAFE3B4186F6B6457E0 PUSH1 0x40 MLOAD PUSH1 0x40 MLOAD DUP1 SWAP2 SUB SWAP1 LOG3 DUP1 PUSH1 0x0 DUP1 PUSH2 0x100 EXP DUP2 SLOAD DUP2 PUSH20 0xFFFFFFFFFFFFFFFFFFFFFFFFFFFFFFFFFFFFFFFF MUL NOT AND SWAP1 DUP4 PUSH20 0xFFFFFFFFFFFFFFFFFFFFFFFFFFFFFFFFFFFFFFFF AND MUL OR SWAP1 SSTORE POP POP JUMP JUMPDEST PUSH1 0x0 DUP1 PUSH1 0x0 SWAP1 POP JUMPDEST PUSH1 0x4 DUP1 SLOAD SWAP1 POP DUP2 LT ISZERO PUSH2 0x2039 JUMPI DUP3 PUSH1 0x4 DUP3 DUP2 SLOAD DUP2 LT PUSH2 0x2004 JUMPI PUSH32 0x4E487B7100000000000000000000000000000000000000000000000000000000 PUSH1 0x0 MSTORE PUSH1 0x32 PUSH1 0x4 MSTORE PUSH1 0x24 PUSH1 0x0 REVERT JUMPDEST SWAP1 PUSH1 0x0 MSTORE PUSH1 0x20 PUSH1 0x0 KECCAK256 SWAP1 PUSH1 0x6 MUL ADD PUSH1 0x0 ADD SLOAD EQ ISZERO PUSH2 0x2026 JUMPI PUSH1 0x1 SWAP2 POP POP PUSH2 0x203F JUMP JUMPDEST DUP1 DUP1 PUSH2 0x2031 SWAP1 PUSH2 0x2F22 JUMP JUMPDEST SWAP2 POP POP PUSH2 0x1FBC JUMP JUMPDEST POP PUSH1 0x0 SWAP1 POP JUMPDEST SWAP2 SWAP1 POP JUMP JUMPDEST DUP3 DUP1 SLOAD PUSH2 0x2050 SWAP1 PUSH2 0x2EF0 JUMP JUMPDEST SWAP1 PUSH1 0x0 MSTORE PUSH1 0x20 PUSH1 0x0 KECCAK256 SWAP1 PUSH1 0x1F ADD PUSH1 0x20 SWAP1 DIV DUP2 ADD SWAP3 DUP3 PUSH2 0x2072 JUMPI PUSH1 0x0 DUP6 SSTORE PUSH2 0x20B9 JUMP JUMPDEST DUP3 PUSH1 0x1F LT PUSH2 0x208B JUMPI DUP1 MLOAD PUSH1 0xFF NOT AND DUP4 DUP1 ADD OR DUP6 SSTORE PUSH2 0x20B9 JUMP JUMPDEST DUP3 DUP1 ADD PUSH1 0x1 ADD DUP6 SSTORE DUP3 ISZERO PUSH2 0x20B9 JUMPI SWAP2 DUP3 ADD JUMPDEST DUP3 DUP2 GT ISZERO PUSH2 0x20B8 JUMPI DUP3 MLOAD DUP3 SSTORE SWAP2 PUSH1 0x20 ADD SWAP2 SWAP1 PUSH1 0x1 ADD SWAP1 PUSH2 0x209D JUMP JUMPDEST JUMPDEST POP SWAP1 POP PUSH2 0x20C6 SWAP2 SWAP1 PUSH2 0x20CA JUMP JUMPDEST POP SWAP1 JUMP JUMPDEST JUMPDEST DUP1 DUP3 GT ISZERO PUSH2 0x20E3 JUMPI PUSH1 0x0 DUP2 PUSH1 0x0 SWAP1 SSTORE POP PUSH1 0x1 ADD PUSH2 0x20CB JUMP JUMPDEST POP SWAP1 JUMP JUMPDEST PUSH1 0x0 PUSH2 0x20FA PUSH2 0x20F5 DUP5 PUSH2 0x2D0C JUMP JUMPDEST PUSH2 0x2CDB JUMP JUMPDEST SWAP1 POP DUP3 DUP2 MSTORE PUSH1 0x20 DUP2 ADD DUP5 DUP5 DUP5 ADD GT ISZERO PUSH2 0x2112 JUMPI PUSH1 0x0 DUP1 REVERT JUMPDEST PUSH2 0x211D DUP5 DUP3 DUP6 PUSH2 0x2EAE JUMP JUMPDEST POP SWAP4 SWAP3 POP POP POP JUMP JUMPDEST PUSH1 0x0 DUP2 CALLDATALOAD SWAP1 POP PUSH2 0x2134 DUP2 PUSH2 0x304C JUMP JUMPDEST SWAP3 SWAP2 POP POP JUMP JUMPDEST PUSH1 0x0 DUP2 CALLDATALOAD SWAP1 POP PUSH2 0x2149 DUP2 PUSH2 0x3063 JUMP JUMPDEST SWAP3 SWAP2 POP POP JUMP JUMPDEST PUSH1 0x0 DUP3 PUSH1 0x1F DUP4 ADD SLT PUSH2 0x2160 JUMPI PUSH1 0x0 DUP1 REVERT JUMPDEST DUP2 CALLDATALOAD PUSH2 0x2170 DUP5 DUP3 PUSH1 0x20 DUP7 ADD PUSH2 0x20E7 JUMP JUMPDEST SWAP2 POP POP SWAP3 SWAP2 POP POP JUMP JUMPDEST PUSH1 0x0 DUP2 CALLDATALOAD SWAP1 POP PUSH2 0x2188 DUP2 PUSH2 0x3073 JUMP JUMPDEST SWAP3 SWAP2 POP POP JUMP JUMPDEST PUSH1 0x0 PUSH1 0x20 DUP3 DUP5 SUB SLT ISZERO PUSH2 0x21A0 JUMPI PUSH1 0x0 DUP1 REVERT JUMPDEST PUSH1 0x0 PUSH2 0x21AE DUP5 DUP3 DUP6 ADD PUSH2 0x2125 JUMP JUMPDEST SWAP2 POP POP SWAP3 SWAP2 POP POP JUMP JUMPDEST PUSH1 0x0 DUP1 PUSH1 0x0 PUSH1 0x60 DUP5 DUP7 SUB SLT ISZERO PUSH2 0x21CC JUMPI PUSH1 0x0 DUP1 REVERT JUMPDEST PUSH1 0x0 PUSH2 0x21DA DUP7 DUP3 DUP8 ADD PUSH2 0x2125 JUMP JUMPDEST SWAP4 POP POP PUSH1 0x20 DUP5 ADD CALLDATALOAD PUSH8 0xFFFFFFFFFFFFFFFF DUP2 GT ISZERO PUSH2 0x21F7 JUMPI PUSH1 0x0 DUP1 REVERT JUMPDEST PUSH2 0x2203 DUP7 DUP3 DUP8 ADD PUSH2 0x214F JUMP JUMPDEST SWAP3 POP POP PUSH1 0x40 PUSH2 0x2214 DUP7 DUP3 DUP8 ADD PUSH2 0x213A JUMP JUMPDEST SWAP2 POP POP SWAP3 POP SWAP3 POP SWAP3 JUMP JUMPDEST PUSH1 0x0 DUP1 PUSH1 0x0 PUSH1 0x60 DUP5 DUP7 SUB SLT ISZERO PUSH2 0x2233 JUMPI PUSH1 0x0 DUP1 REVERT JUMPDEST PUSH1 0x0 DUP5 ADD CALLDATALOAD PUSH8 0xFFFFFFFFFFFFFFFF DUP2 GT ISZERO PUSH2 0x224D JUMPI PUSH1 0x0 DUP1 REVERT JUMPDEST PUSH2 0x2259 DUP7 DUP3 DUP8 ADD PUSH2 0x214F JUMP JUMPDEST SWAP4 POP POP PUSH1 0x20 PUSH2 0x226A DUP7 DUP3 DUP8 ADD PUSH2 0x2179 JUMP JUMPDEST SWAP3 POP POP PUSH1 0x40 PUSH2 0x227B DUP7 DUP3 DUP8 ADD PUSH2 0x2179 JUMP JUMPDEST SWAP2 POP POP SWAP3 POP SWAP3 POP SWAP3 JUMP JUMPDEST PUSH1 0x0 PUSH1 0x20 DUP3 DUP5 SUB SLT ISZERO PUSH2 0x2297 JUMPI PUSH1 0x0 DUP1 REVERT JUMPDEST PUSH1 0x0 PUSH2 0x22A5 DUP5 DUP3 DUP6 ADD PUSH2 0x2179 JUMP JUMPDEST SWAP2 POP POP SWAP3 SWAP2 POP POP JUMP JUMPDEST PUSH1 0x0 DUP1 PUSH1 0x40 DUP4 DUP6 SUB SLT ISZERO PUSH2 0x22C1 JUMPI PUSH1 0x0 DUP1 REVERT JUMPDEST PUSH1 0x0 PUSH2 0x22CF DUP6 DUP3 DUP7 ADD PUSH2 0x2179 JUMP JUMPDEST SWAP3 POP POP PUSH1 0x20 PUSH2 0x22E0 DUP6 DUP3 DUP7 ADD PUSH2 0x2125 JUMP JUMPDEST SWAP2 POP POP SWAP3 POP SWAP3 SWAP1 POP JUMP JUMPDEST PUSH1 0x0 PUSH2 0x22F6 DUP4 DUP4 PUSH2 0x292B JUMP JUMPDEST SWAP1 POP SWAP3 SWAP2 POP POP JUMP JUMPDEST PUSH2 0x2307 DUP2 PUSH2 0x2E41 JUMP JUMPDEST DUP3 MSTORE POP POP JUMP JUMPDEST PUSH2 0x2316 DUP2 PUSH2 0x2E41 JUMP JUMPDEST DUP3 MSTORE POP POP JUMP JUMPDEST PUSH1 0x0 PUSH2 0x2327 DUP3 PUSH2 0x2D61 JUMP JUMPDEST PUSH2 0x2331 DUP2 DUP6 PUSH2 0x2D84 JUMP JUMPDEST SWAP4 POP DUP4 PUSH1 0x20 DUP3 MUL DUP6 ADD PUSH2 0x2343 DUP6 PUSH2 0x2D3C JUMP JUMPDEST DUP1 PUSH1 0x0 JUMPDEST DUP6 DUP2 LT ISZERO PUSH2 0x237F JUMPI DUP5 DUP5 SUB DUP10 MSTORE DUP2 MLOAD PUSH2 0x2360 DUP6 DUP3 PUSH2 0x22EA JUMP JUMPDEST SWAP5 POP PUSH2 0x236B DUP4 PUSH2 0x2D77 JUMP JUMPDEST SWAP3 POP PUSH1 0x20 DUP11 ADD SWAP10 POP POP PUSH1 0x1 DUP2 ADD SWAP1 POP PUSH2 0x2347 JUMP JUMPDEST POP DUP3 SWAP8 POP DUP8 SWAP6 POP POP POP POP POP POP SWAP3 SWAP2 POP POP JUMP JUMPDEST PUSH2 0x239A DUP2 PUSH2 0x2E53 JUMP JUMPDEST DUP3 MSTORE POP POP JUMP JUMPDEST PUSH2 0x23A9 DUP2 PUSH2 0x2E9C JUMP JUMPDEST DUP3 MSTORE POP POP JUMP JUMPDEST PUSH1 0x0 PUSH2 0x23BA DUP3 PUSH2 0x2D6C JUMP JUMPDEST PUSH2 0x23C4 DUP2 DUP6 PUSH2 0x2D95 JUMP JUMPDEST SWAP4 POP PUSH2 0x23D4 DUP2 DUP6 PUSH1 0x20 DUP7 ADD PUSH2 0x2EBD JUMP JUMPDEST PUSH2 0x23DD DUP2 PUSH2 0x3027 JUMP JUMPDEST DUP5 ADD SWAP2 POP POP SWAP3 SWAP2 POP POP JUMP JUMPDEST PUSH1 0x0 PUSH2 0x23F3 DUP3 PUSH2 0x2D6C JUMP JUMPDEST PUSH2 0x23FD DUP2 DUP6 PUSH2 0x2DA6 JUMP JUMPDEST SWAP4 POP PUSH2 0x240D DUP2 DUP6 PUSH1 0x20 DUP7 ADD PUSH2 0x2EBD JUMP JUMPDEST PUSH2 0x2416 DUP2 PUSH2 0x3027 JUMP JUMPDEST DUP5 ADD SWAP2 POP POP SWAP3 SWAP2 POP POP JUMP JUMPDEST PUSH1 0x0 DUP2 SLOAD PUSH2 0x242E DUP2 PUSH2 0x2EF0 JUMP JUMPDEST PUSH2 0x2438 DUP2 DUP7 PUSH2 0x2DA6 JUMP JUMPDEST SWAP5 POP PUSH1 0x1 DUP3 AND PUSH1 0x0 DUP2 EQ PUSH2 0x2453 JUMPI PUSH1 0x1 DUP2 EQ PUSH2 0x2465 JUMPI PUSH2 0x2498 JUMP JUMPDEST PUSH1 0xFF NOT DUP4 AND DUP7 MSTORE PUSH1 0x20 DUP7 ADD SWAP4 POP PUSH2 0x2498 JUMP JUMPDEST PUSH2 0x246E DUP6 PUSH2 0x2D4C JUMP JUMPDEST PUSH1 0x0 JUMPDEST DUP4 DUP2 LT ISZERO PUSH2 0x2490 JUMPI DUP2 SLOAD DUP2 DUP10 ADD MSTORE PUSH1 0x1 DUP3 ADD SWAP2 POP PUSH1 0x20 DUP2 ADD SWAP1 POP PUSH2 0x2471 JUMP JUMPDEST DUP1 DUP9 ADD SWAP6 POP POP POP JUMPDEST POP POP POP SWAP3 SWAP2 POP POP JUMP JUMPDEST PUSH1 0x0 PUSH2 0x24AE PUSH1 0x16 DUP4 PUSH2 0x2DA6 JUMP JUMPDEST SWAP2 POP PUSH32 0x50726F6475637420646F6573206E6F7420657869737400000000000000000000 PUSH1 0x0 DUP4 ADD MSTORE PUSH1 0x20 DUP3 ADD SWAP1 POP SWAP2 SWAP1 POP JUMP JUMPDEST PUSH1 0x0 PUSH2 0x24EE PUSH1 0x25 DUP4 PUSH2 0x2DA6 JUMP JUMPDEST SWAP2 POP PUSH32 0x596F7520617265206E6F7420746865206F776E6572206F662074686973207072 PUSH1 0x0 DUP4 ADD MSTORE PUSH32 0x6F64756374000000000000000000000000000000000000000000000000000000 PUSH1 0x20 DUP4 ADD MSTORE PUSH1 0x40 DUP3 ADD SWAP1 POP SWAP2 SWAP1 POP JUMP JUMPDEST PUSH1 0x0 PUSH2 0x2554 PUSH1 0x15 DUP4 PUSH2 0x2DA6 JUMP JUMPDEST SWAP2 POP PUSH32 0x43616E6E6F742073656C6C20612070726F647563740000000000000000000000 PUSH1 0x0 DUP4 ADD MSTORE PUSH1 0x20 DUP3 ADD SWAP1 POP SWAP2 SWAP1 POP JUMP JUMPDEST PUSH1 0x0 PUSH2 0x2594 PUSH1 0x19 DUP4 PUSH2 0x2DA6 JUMP JUMPDEST SWAP2 POP PUSH32 0x50726F6475637420494420616C72656164792065786973747300000000000000 PUSH1 0x0 DUP4 ADD MSTORE PUSH1 0x20 DUP3 ADD SWAP1 POP SWAP2 SWAP1 POP JUMP JUMPDEST PUSH1 0x0 PUSH2 0x25D4 PUSH1 0x31 DUP4 PUSH2 0x2DA6 JUMP JUMPDEST SWAP2 POP PUSH32 0x43616E6E6F742073656C6C20746F206D616E756661637475726572206F722073 PUSH1 0x0 DUP4 ADD MSTORE PUSH32 0x7570706C696572206F722076656E646F72000000000000000000000000000000 PUSH1 0x20 DUP4 ADD MSTORE PUSH1 0x40 DUP3 ADD SWAP1 POP SWAP2 SWAP1 POP JUMP JUMPDEST PUSH1 0x0 PUSH2 0x263A PUSH1 0x33 DUP4 PUSH2 0x2DA6 JUMP JUMPDEST SWAP2 POP PUSH32 0x43616E6E6F742073656C6C20746F206D616E756661637475726572206F722073 PUSH1 0x0 DUP4 ADD MSTORE PUSH32 0x7570706C696572206F7220637573746F6D657200000000000000000000000000 PUSH1 0x20 DUP4 ADD MSTORE PUSH1 0x40 DUP3 ADD SWAP1 POP SWAP2 SWAP1 POP JUMP JUMPDEST PUSH1 0x0 PUSH2 0x26A0 PUSH1 0x19 DUP4 PUSH2 0x2DA6 JUMP JUMPDEST SWAP2 POP PUSH32 0x416464726573732073686F756C646E2774206265207A65726F00000000000000 PUSH1 0x0 DUP4 ADD MSTORE PUSH1 0x20 DUP3 ADD SWAP1 POP SWAP2 SWAP1 POP JUMP JUMPDEST PUSH1 0x0 PUSH2 0x26E0 PUSH1 0x2D DUP4 PUSH2 0x2DA6 JUMP JUMPDEST SWAP2 POP PUSH32 0x43616E6E6F7420616464206D616E756661637475726572206F7220737570706C PUSH1 0x0 DUP4 ADD MSTORE PUSH32 0x696572206F722076656E646F7200000000000000000000000000000000000000 PUSH1 0x20 DUP4 ADD MSTORE PUSH1 0x40 DUP3 ADD SWAP1 POP SWAP2 SWAP1 POP JUMP JUMPDEST PUSH1 0x0 PUSH2 0x2746 PUSH1 0x2F DUP4 PUSH2 0x2DA6 JUMP JUMPDEST SWAP2 POP PUSH32 0x43616E6E6F7420616464206D616E756661637475726572206F7220637573746F PUSH1 0x0 DUP4 ADD MSTORE PUSH32 0x6D6572206F7220737570706C6965720000000000000000000000000000000000 PUSH1 0x20 DUP4 ADD MSTORE PUSH1 0x40 DUP3 ADD SWAP1 POP SWAP2 SWAP1 POP JUMP JUMPDEST PUSH1 0x0 PUSH2 0x27AC PUSH1 0x13 DUP4 PUSH2 0x2DA6 JUMP JUMPDEST SWAP2 POP PUSH32 0x43616E6E6F742061646420616E206163746F7200000000000000000000000000 PUSH1 0x0 DUP4 ADD MSTORE PUSH1 0x20 DUP3 ADD SWAP1 POP SWAP2 SWAP1 POP JUMP JUMPDEST PUSH1 0x0 PUSH2 0x27EC PUSH1 0x12 DUP4 PUSH2 0x2DA6 JUMP JUMPDEST SWAP2 POP PUSH32 0x4973206E6F742077686974656C69737465640000000000000000000000000000 PUSH1 0x0 DUP4 ADD MSTORE PUSH1 0x20 DUP3 ADD SWAP1 POP SWAP2 SWAP1 POP JUMP JUMPDEST PUSH1 0x0 PUSH2 0x282C PUSH1 0x31 DUP4 PUSH2 0x2DA6 JUMP JUMPDEST SWAP2 POP PUSH32 0x43616E6E6F742073656C6C20746F206D616E756661637475726572206F722063 PUSH1 0x0 DUP4 ADD MSTORE PUSH32 0x7573746F6D6572206F722076656E646F72000000000000000000000000000000 PUSH1 0x20 DUP4 ADD MSTORE PUSH1 0x40 DUP3 ADD SWAP1 POP SWAP2 SWAP1 POP JUMP JUMPDEST PUSH1 0x0 PUSH2 0x2892 PUSH1 0x18 DUP4 PUSH2 0x2DA6 JUMP JUMPDEST SWAP2 POP PUSH32 0x4E6F7420617574686F72697A6564206F7065726174696F6E0000000000000000 PUSH1 0x0 DUP4 ADD MSTORE PUSH1 0x20 DUP3 ADD SWAP1 POP SWAP2 SWAP1 POP JUMP JUMPDEST PUSH1 0x0 PUSH2 0x28D2 PUSH1 0x2F DUP4 PUSH2 0x2DA6 JUMP JUMPDEST SWAP2 POP PUSH32 0x43616E6E6F7420616464206D616E756661637475726572206F7220737570706C PUSH1 0x0 DUP4 ADD MSTORE PUSH32 0x696572206F7220637573746F6D65720000000000000000000000000000000000 PUSH1 0x20 DUP4 ADD MSTORE PUSH1 0x40 DUP3 ADD SWAP1 POP SWAP2 SWAP1 POP JUMP JUMPDEST PUSH1 0x0 PUSH1 0xC0 DUP4 ADD PUSH1 0x0 DUP4 ADD MLOAD PUSH2 0x2943 PUSH1 0x0 DUP7 ADD DUP3 PUSH2 0x29B4 JUMP JUMPDEST POP PUSH1 0x20 DUP4 ADD MLOAD DUP5 DUP3 SUB PUSH1 0x20 DUP7 ADD MSTORE PUSH2 0x295B DUP3 DUP3 PUSH2 0x23AF JUMP JUMPDEST SWAP2 POP POP PUSH1 0x40 DUP4 ADD MLOAD PUSH2 0x2970 PUSH1 0x40 DUP7 ADD DUP3 PUSH2 0x29B4 JUMP JUMPDEST POP PUSH1 0x60 DUP4 ADD MLOAD PUSH2 0x2983 PUSH1 0x60 DUP7 ADD DUP3 PUSH2 0x29B4 JUMP JUMPDEST POP PUSH1 0x80 DUP4 ADD MLOAD PUSH2 0x2996 PUSH1 0x80 DUP7 ADD DUP3 PUSH2 0x22FE JUMP JUMPDEST POP PUSH1 0xA0 DUP4 ADD MLOAD PUSH2 0x29A9 PUSH1 0xA0 DUP7 ADD DUP3 PUSH2 0x29B4 JUMP JUMPDEST POP DUP1 SWAP2 POP POP SWAP3 SWAP2 POP POP JUMP JUMPDEST PUSH2 0x29BD DUP2 PUSH2 0x2E92 JUMP JUMPDEST DUP3 MSTORE POP POP JUMP JUMPDEST PUSH2 0x29CC DUP2 PUSH2 0x2E92 JUMP JUMPDEST DUP3 MSTORE POP POP JUMP JUMPDEST PUSH1 0x0 PUSH1 0x20 DUP3 ADD SWAP1 POP PUSH2 0x29E7 PUSH1 0x0 DUP4 ADD DUP5 PUSH2 0x230D JUMP JUMPDEST SWAP3 SWAP2 POP POP JUMP JUMPDEST PUSH1 0x0 PUSH1 0x60 DUP3 ADD SWAP1 POP PUSH2 0x2A02 PUSH1 0x0 DUP4 ADD DUP7 PUSH2 0x230D JUMP JUMPDEST DUP2 DUP2 SUB PUSH1 0x20 DUP4 ADD MSTORE PUSH2 0x2A14 DUP2 DUP6 PUSH2 0x2421 JUMP JUMPDEST SWAP1 POP PUSH2 0x2A23 PUSH1 0x40 DUP4 ADD DUP5 PUSH2 0x23A0 JUMP JUMPDEST SWAP5 SWAP4 POP POP POP POP JUMP JUMPDEST PUSH1 0x0 PUSH1 0x20 DUP3 ADD SWAP1 POP DUP2 DUP2 SUB PUSH1 0x0 DUP4 ADD MSTORE PUSH2 0x2A45 DUP2 DUP5 PUSH2 0x231C JUMP JUMPDEST SWAP1 POP SWAP3 SWAP2 POP POP JUMP JUMPDEST PUSH1 0x0 PUSH1 0x20 DUP3 ADD SWAP1 POP PUSH2 0x2A62 PUSH1 0x0 DUP4 ADD DUP5 PUSH2 0x2391 JUMP JUMPDEST SWAP3 SWAP2 POP POP JUMP JUMPDEST PUSH1 0x0 PUSH1 0x40 DUP3 ADD SWAP1 POP DUP2 DUP2 SUB PUSH1 0x0 DUP4 ADD MSTORE PUSH2 0x2A82 DUP2 DUP6 PUSH2 0x23E8 JUMP JUMPDEST SWAP1 POP PUSH2 0x2A91 PUSH1 0x20 DUP4 ADD DUP5 PUSH2 0x23A0 JUMP JUMPDEST SWAP4 SWAP3 POP POP POP JUMP JUMPDEST PUSH1 0x0 PUSH1 0x20 DUP3 ADD SWAP1 POP DUP2 DUP2 SUB PUSH1 0x0 DUP4 ADD MSTORE PUSH2 0x2AB1 DUP2 PUSH2 0x24A1 JUMP JUMPDEST SWAP1 POP SWAP2 SWAP1 POP JUMP JUMPDEST PUSH1 0x0 PUSH1 0x20 DUP3 ADD SWAP1 POP DUP2 DUP2 SUB PUSH1 0x0 DUP4 ADD MSTORE PUSH2 0x2AD1 DUP2 PUSH2 0x24E1 JUMP JUMPDEST SWAP1 POP SWAP2 SWAP1 POP JUMP JUMPDEST PUSH1 0x0 PUSH1 0x20 DUP3 ADD SWAP1 POP DUP2 DUP2 SUB PUSH1 0x0 DUP4 ADD MSTORE PUSH2 0x2AF1 DUP2 PUSH2 0x2547 JUMP JUMPDEST SWAP1 POP SWAP2 SWAP1 POP JUMP JUMPDEST PUSH1 0x0 PUSH1 0x20 DUP3 ADD SWAP1 POP DUP2 DUP2 SUB PUSH1 0x0 DUP4 ADD MSTORE PUSH2 0x2B11 DUP2 PUSH2 0x2587 JUMP JUMPDEST SWAP1 POP SWAP2 SWAP1 POP JUMP JUMPDEST PUSH1 0x0 PUSH1 0x20 DUP3 ADD SWAP1 POP DUP2 DUP2 SUB PUSH1 0x0 DUP4 ADD MSTORE PUSH2 0x2B31 DUP2 PUSH2 0x25C7 JUMP JUMPDEST SWAP1 POP SWAP2 SWAP1 POP JUMP JUMPDEST PUSH1 0x0 PUSH1 0x20 DUP3 ADD SWAP1 POP DUP2 DUP2 SUB PUSH1 0x0 DUP4 ADD MSTORE PUSH2 0x2B51 DUP2 PUSH2 0x262D JUMP JUMPDEST SWAP1 POP SWAP2 SWAP1 POP JUMP JUMPDEST PUSH1 0x0 PUSH1 0x20 DUP3 ADD SWAP1 POP DUP2 DUP2 SUB PUSH1 0x0 DUP4 ADD MSTORE PUSH2 0x2B71 DUP2 PUSH2 0x2693 JUMP JUMPDEST SWAP1 POP SWAP2 SWAP1 POP JUMP JUMPDEST PUSH1 0x0 PUSH1 0x20 DUP3 ADD SWAP1 POP DUP2 DUP2 SUB PUSH1 0x0 DUP4 ADD MSTORE PUSH2 0x2B91 DUP2 PUSH2 0x26D3 JUMP JUMPDEST SWAP1 POP SWAP2 SWAP1 POP JUMP JUMPDEST PUSH1 0x0 PUSH1 0x20 DUP3 ADD SWAP1 POP DUP2 DUP2 SUB PUSH1 0x0 DUP4 ADD MSTORE PUSH2 0x2BB1 DUP2 PUSH2 0x2739 JUMP JUMPDEST SWAP1 POP SWAP2 SWAP1 POP JUMP JUMPDEST PUSH1 0x0 PUSH1 0x20 DUP3 ADD SWAP1 POP DUP2 DUP2 SUB PUSH1 0x0 DUP4 ADD MSTORE PUSH2 0x2BD1 DUP2 PUSH2 0x279F JUMP JUMPDEST SWAP1 POP SWAP2 SWAP1 POP JUMP JUMPDEST PUSH1 0x0 PUSH1 0x20 DUP3 ADD SWAP1 POP DUP2 DUP2 SUB PUSH1 0x0 DUP4 ADD MSTORE PUSH2 0x2BF1 DUP2 PUSH2 0x27DF JUMP JUMPDEST SWAP1 POP SWAP2 SWAP1 POP JUMP JUMPDEST PUSH1 0x0 PUSH1 0x20 DUP3 ADD SWAP1 POP DUP2 DUP2 SUB PUSH1 0x0 DUP4 ADD MSTORE PUSH2 0x2C11 DUP2 PUSH2 0x281F JUMP JUMPDEST SWAP1 POP SWAP2 SWAP1 POP JUMP JUMPDEST PUSH1 0x0 PUSH1 0x20 DUP3 ADD SWAP1 POP DUP2 DUP2 SUB PUSH1 0x0 DUP4 ADD MSTORE PUSH2 0x2C31 DUP2 PUSH2 0x2885 JUMP JUMPDEST SWAP1 POP SWAP2 SWAP1 POP JUMP JUMPDEST PUSH1 0x0 PUSH1 0x20 DUP3 ADD SWAP1 POP DUP2 DUP2 SUB PUSH1 0x0 DUP4 ADD MSTORE PUSH2 0x2C51 DUP2 PUSH2 0x28C5 JUMP JUMPDEST SWAP1 POP SWAP2 SWAP1 POP JUMP JUMPDEST PUSH1 0x0 PUSH1 0x20 DUP3 ADD SWAP1 POP PUSH2 0x2C6D PUSH1 0x0 DUP4 ADD DUP5 PUSH2 0x29C3 JUMP JUMPDEST SWAP3 SWAP2 POP POP JUMP JUMPDEST PUSH1 0x0 PUSH1 0xC0 DUP3 ADD SWAP1 POP PUSH2 0x2C88 PUSH1 0x0 DUP4 ADD DUP10 PUSH2 0x29C3 JUMP JUMPDEST DUP2 DUP2 SUB PUSH1 0x20 DUP4 ADD MSTORE PUSH2 0x2C9A DUP2 DUP9 PUSH2 0x23E8 JUMP JUMPDEST SWAP1 POP PUSH2 0x2CA9 PUSH1 0x40 DUP4 ADD DUP8 PUSH2 0x29C3 JUMP JUMPDEST PUSH2 0x2CB6 PUSH1 0x60 DUP4 ADD DUP7 PUSH2 0x29C3 JUMP JUMPDEST PUSH2 0x2CC3 PUSH1 0x80 DUP4 ADD DUP6 PUSH2 0x230D JUMP JUMPDEST PUSH2 0x2CD0 PUSH1 0xA0 DUP4 ADD DUP5 PUSH2 0x29C3 JUMP JUMPDEST SWAP8 SWAP7 POP POP POP POP POP POP POP JUMP JUMPDEST PUSH1 0x0 PUSH1 0x40 MLOAD SWAP1 POP DUP2 DUP2 ADD DUP2 DUP2 LT PUSH8 0xFFFFFFFFFFFFFFFF DUP3 GT OR ISZERO PUSH2 0x2D02 JUMPI PUSH2 0x2D01 PUSH2 0x2FF8 JUMP JUMPDEST JUMPDEST DUP1 PUSH1 0x40 MSTORE POP SWAP2 SWAP1 POP JUMP JUMPDEST PUSH1 0x0 PUSH8 0xFFFFFFFFFFFFFFFF DUP3 GT ISZERO PUSH2 0x2D27 JUMPI PUSH2 0x2D26 PUSH2 0x2FF8 JUMP JUMPDEST JUMPDEST PUSH1 0x1F NOT PUSH1 0x1F DUP4 ADD AND SWAP1 POP PUSH1 0x20 DUP2 ADD SWAP1 POP SWAP2 SWAP1 POP JUMP JUMPDEST PUSH1 0x0 DUP2 SWAP1 POP PUSH1 0x20 DUP3 ADD SWAP1 POP SWAP2 SWAP1 POP JUMP JUMPDEST PUSH1 0x0 DUP2 SWAP1 POP DUP2 PUSH1 0x0 MSTORE PUSH1 0x20 PUSH1 0x0 KECCAK256 SWAP1 POP SWAP2 SWAP1 POP JUMP JUMPDEST PUSH1 0x0 DUP2 MLOAD SWAP1 POP SWAP2 SWAP1 POP JUMP JUMPDEST PUSH1 0x0 DUP2 MLOAD SWAP1 POP SWAP2 SWAP1 POP JUMP JUMPDEST PUSH1 0x0 PUSH1 0x20 DUP3 ADD SWAP1 POP SWAP2 SWAP1 POP JUMP JUMPDEST PUSH1 0x0 DUP3 DUP3 MSTORE PUSH1 0x20 DUP3 ADD SWAP1 POP SWAP3 SWAP2 POP POP JUMP JUMPDEST PUSH1 0x0 DUP3 DUP3 MSTORE PUSH1 0x20 DUP3 ADD SWAP1 POP SWAP3 SWAP2 POP POP JUMP JUMPDEST PUSH1 0x0 DUP3 DUP3 MSTORE PUSH1 0x20 DUP3 ADD SWAP1 POP SWAP3 SWAP2 POP POP JUMP JUMPDEST PUSH1 0x0 PUSH2 0x2DC2 DUP3 PUSH2 0x2E92 JUMP JUMPDEST SWAP2 POP PUSH2 0x2DCD DUP4 PUSH2 0x2E92 JUMP JUMPDEST SWAP3 POP DUP3 PUSH32 0xFFFFFFFFFFFFFFFFFFFFFFFFFFFFFFFFFFFFFFFFFFFFFFFFFFFFFFFFFFFFFFFF SUB DUP3 GT ISZERO PUSH2 0x2E02 JUMPI PUSH2 0x2E01 PUSH2 0x2F6B JUMP JUMPDEST JUMPDEST DUP3 DUP3 ADD SWAP1 POP SWAP3 SWAP2 POP POP JUMP JUMPDEST PUSH1 0x0 PUSH2 0x2E18 DUP3 PUSH2 0x2E92 JUMP JUMPDEST SWAP2 POP PUSH2 0x2E23 DUP4 PUSH2 0x2E92 JUMP JUMPDEST SWAP3 POP DUP3 DUP3 LT ISZERO PUSH2 0x2E36 JUMPI PUSH2 0x2E35 PUSH2 0x2F6B JUMP JUMPDEST JUMPDEST DUP3 DUP3 SUB SWAP1 POP SWAP3 SWAP2 POP POP JUMP JUMPDEST PUSH1 0x0 PUSH2 0x2E4C DUP3 PUSH2 0x2E72 JUMP JUMPDEST SWAP1 POP SWAP2 SWAP1 POP JUMP JUMPDEST PUSH1 0x0 DUP2 ISZERO ISZERO SWAP1 POP SWAP2 SWAP1 POP JUMP JUMPDEST PUSH1 0x0 DUP2 SWAP1 POP PUSH2 0x2E6D DUP3 PUSH2 0x3038 JUMP JUMPDEST SWAP2 SWAP1 POP JUMP JUMPDEST PUSH1 0x0 PUSH20 0xFFFFFFFFFFFFFFFFFFFFFFFFFFFFFFFFFFFFFFFF DUP3 AND SWAP1 POP SWAP2 SWAP1 POP JUMP JUMPDEST PUSH1 0x0 DUP2 SWAP1 POP SWAP2 SWAP1 POP JUMP JUMPDEST PUSH1 0x0 PUSH2 0x2EA7 DUP3 PUSH2 0x2E5F JUMP JUMPDEST SWAP1 POP SWAP2 SWAP1 POP JUMP JUMPDEST DUP3 DUP2 DUP4 CALLDATACOPY PUSH1 0x0 DUP4 DUP4 ADD MSTORE POP POP POP JUMP JUMPDEST PUSH1 0x0 JUMPDEST DUP4 DUP2 LT ISZERO PUSH2 0x2EDB JUMPI DUP1 DUP3 ADD MLOAD DUP2 DUP5 ADD MSTORE PUSH1 0x20 DUP2 ADD SWAP1 POP PUSH2 0x2EC0 JUMP JUMPDEST DUP4 DUP2 GT ISZERO PUSH2 0x2EEA JUMPI PUSH1 0x0 DUP5 DUP5 ADD MSTORE JUMPDEST POP POP POP POP JUMP JUMPDEST PUSH1 0x0 PUSH1 0x2 DUP3 DIV SWAP1 POP PUSH1 0x1 DUP3 AND DUP1 PUSH2 0x2F08 JUMPI PUSH1 0x7F DUP3 AND SWAP2 POP JUMPDEST PUSH1 0x20 DUP3 LT DUP2 EQ ISZERO PUSH2 0x2F1C JUMPI PUSH2 0x2F1B PUSH2 0x2FC9 JUMP JUMPDEST JUMPDEST POP SWAP2 SWAP1 POP JUMP JUMPDEST PUSH1 0x0 PUSH2 0x2F2D DUP3 PUSH2 0x2E92 JUMP JUMPDEST SWAP2 POP PUSH32 0xFFFFFFFFFFFFFFFFFFFFFFFFFFFFFFFFFFFFFFFFFFFFFFFFFFFFFFFFFFFFFFFF DUP3 EQ ISZERO PUSH2 0x2F60 JUMPI PUSH2 0x2F5F PUSH2 0x2F6B JUMP JUMPDEST JUMPDEST PUSH1 0x1 DUP3 ADD SWAP1 POP SWAP2 SWAP1 POP JUMP JUMPDEST PUSH32 0x4E487B7100000000000000000000000000000000000000000000000000000000 PUSH1 0x0 MSTORE PUSH1 0x11 PUSH1 0x4 MSTORE PUSH1 0x24 PUSH1 0x0 REVERT JUMPDEST PUSH32 0x4E487B7100000000000000000000000000000000000000000000000000000000 PUSH1 0x0 MSTORE PUSH1 0x21 PUSH1 0x4 MSTORE PUSH1 0x24 PUSH1 0x0 REVERT JUMPDEST PUSH32 0x4E487B7100000000000000000000000000000000000000000000000000000000 PUSH1 0x0 MSTORE PUSH1 0x22 PUSH1 0x4 MSTORE PUSH1 0x24 PUSH1 0x0 REVERT JUMPDEST PUSH32 0x4E487B7100000000000000000000000000000000000000000000000000000000 PUSH1 0x0 MSTORE PUSH1 0x41 PUSH1 0x4 MSTORE PUSH1 0x24 PUSH1 0x0 REVERT JUMPDEST PUSH1 0x0 PUSH1 0x1F NOT PUSH1 0x1F DUP4 ADD AND SWAP1 POP SWAP2 SWAP1 POP JUMP JUMPDEST PUSH1 0x4 DUP2 LT PUSH2 0x3049 JUMPI PUSH2 0x3048 PUSH2 0x2F9A JUMP JUMPDEST JUMPDEST POP JUMP JUMPDEST PUSH2 0x3055 DUP2 PUSH2 0x2E41 JUMP JUMPDEST DUP2 EQ PUSH2 0x3060 JUMPI PUSH1 0x0 DUP1 REVERT JUMPDEST POP JUMP JUMPDEST PUSH1 0x4 DUP2 LT PUSH2 0x3070 JUMPI PUSH1 0x0 DUP1 REVERT JUMPDEST POP JUMP JUMPDEST PUSH2 0x307C DUP2 PUSH2 0x2E92 JUMP JUMPDEST DUP2 EQ PUSH2 0x3087 JUMPI PUSH1 0x0 DUP1 REVERT JUMPDEST POP JUMP INVALID LOG2 PUSH5 0x6970667358 0x22 SLT KECCAK256 0xEF 0xF7 0xC 0xEF 0xB3 TIMESTAMP 0xA9 COINBASE SHR OR PUSH7 0xBBA7FA59C91F13 ADDMOD CALLER PUSH29 0xF07E027463E33999F3EB6364736F6C6343000800003300000000000000 "
				},
				"gasEstimates": {
					"creation": {
						"codeDepositCost": "2496000",
						"executionCost": "23554",
						"totalCost": "2519554"
					},
					"external": {
						"actors(address)": "infinite",
						"addProduct(string,uint256,uint256)": "infinite",
						"addToWhitelist(address)": "21456",
						"addUser(address,string,uint8)": "infinite",
						"getUsersCount()": "1212",
						"owner()": "1234",
						"products(uint256)": "infinite",
						"removeFromWhitelist(address)": "22390",
						"seeAllProdducts()": "infinite",
						"transferOwnership(address)": "24693",
						"transferProductOwnership(uint256,address)": "infinite",
						"users(uint256)": "2379",
						"whitelist(address)": "1590"
					},
					"internal": {
						"isProductIdExists(uint256)": "infinite"
					}
				},
				"methodIdentifiers": {
					"actors(address)": "eaa66a3c",
					"addProduct(string,uint256,uint256)": "125b0b34",
					"addToWhitelist(address)": "e43252d7",
					"addUser(address,string,uint8)": "40d26854",
					"getUsersCount()": "a4a1e263",
					"owner()": "8da5cb5b",
					"products(uint256)": "7acc0b20",
					"removeFromWhitelist(address)": "8ab1d681",
					"seeAllProdducts()": "d38e8db7",
					"transferOwnership(address)": "f2fde38b",
					"transferProductOwnership(uint256,address)": "86b0e812",
					"users(uint256)": "365b98b2",
					"whitelist(address)": "9b19251a"
				}
			},
			"storageLayout": {
				"storage": [
					{
						"astId": 4,
						"contract": "contracts/Products.sol:Product",
						"label": "owner",
						"offset": 0,
						"slot": "0",
						"type": "t_address"
					},
					{
						"astId": 541,
						"contract": "contracts/Products.sol:Product",
						"label": "whitelist",
						"offset": 0,
						"slot": "1",
						"type": "t_mapping(t_address,t_bool)"
					},
					{
						"astId": 364,
						"contract": "contracts/Products.sol:Product",
						"label": "actors",
						"offset": 0,
						"slot": "2",
						"type": "t_mapping(t_address,t_struct(Actor)341_storage)"
					},
					{
						"astId": 376,
						"contract": "contracts/Products.sol:Product",
						"label": "users",
						"offset": 0,
						"slot": "3",
						"type": "t_array(t_address)dyn_storage"
					},
					{
						"astId": 75,
						"contract": "contracts/Products.sol:Product",
						"label": "products",
						"offset": 0,
						"slot": "4",
						"type": "t_array(t_struct(Products)354_storage)dyn_storage"
					}
				],
				"types": {
					"t_address": {
						"encoding": "inplace",
						"label": "address",
						"numberOfBytes": "20"
					},
					"t_array(t_address)dyn_storage": {
						"base": "t_address",
						"encoding": "dynamic_array",
						"label": "address[]",
						"numberOfBytes": "32"
					},
					"t_array(t_struct(Products)354_storage)dyn_storage": {
						"base": "t_struct(Products)354_storage",
						"encoding": "dynamic_array",
						"label": "struct Users.Products[]",
						"numberOfBytes": "32"
					},
					"t_bool": {
						"encoding": "inplace",
						"label": "bool",
						"numberOfBytes": "1"
					},
					"t_enum(Role)359": {
						"encoding": "inplace",
						"label": "enum Users.Role",
						"numberOfBytes": "1"
					},
					"t_mapping(t_address,t_bool)": {
						"encoding": "mapping",
						"key": "t_address",
						"label": "mapping(address => bool)",
						"numberOfBytes": "32",
						"value": "t_bool"
					},
					"t_mapping(t_address,t_struct(Actor)341_storage)": {
						"encoding": "mapping",
						"key": "t_address",
						"label": "mapping(address => struct Users.Actor)",
						"numberOfBytes": "32",
						"value": "t_struct(Actor)341_storage"
					},
					"t_string_storage": {
						"encoding": "bytes",
						"label": "string",
						"numberOfBytes": "32"
					},
					"t_struct(Actor)341_storage": {
						"encoding": "inplace",
						"label": "struct Users.Actor",
						"members": [
							{
								"astId": 337,
								"contract": "contracts/Products.sol:Product",
								"label": "name",
								"offset": 0,
								"slot": "0",
								"type": "t_string_storage"
							},
							{
								"astId": 340,
								"contract": "contracts/Products.sol:Product",
								"label": "roles",
								"offset": 0,
								"slot": "1",
								"type": "t_enum(Role)359"
							}
						],
						"numberOfBytes": "64"
					},
					"t_struct(Products)354_storage": {
						"encoding": "inplace",
						"label": "struct Users.Products",
						"members": [
							{
								"astId": 343,
								"contract": "contracts/Products.sol:Product",
								"label": "id",
								"offset": 0,
								"slot": "0",
								"type": "t_uint256"
							},
							{
								"astId": 345,
								"contract": "contracts/Products.sol:Product",
								"label": "nameProduct",
								"offset": 0,
								"slot": "1",
								"type": "t_string_storage"
							},
							{
								"astId": 347,
								"contract": "contracts/Products.sol:Product",
								"label": "nbBatch",
								"offset": 0,
								"slot": "2",
								"type": "t_uint256"
							},
							{
								"astId": 349,
								"contract": "contracts/Products.sol:Product",
								"label": "nbProductsPerBatch",
								"offset": 0,
								"slot": "3",
								"type": "t_uint256"
							},
							{
								"astId": 351,
								"contract": "contracts/Products.sol:Product",
								"label": "lastOwner",
								"offset": 0,
								"slot": "4",
								"type": "t_address"
							},
							{
								"astId": 353,
								"contract": "contracts/Products.sol:Product",
								"label": "buyingDate",
								"offset": 0,
								"slot": "5",
								"type": "t_uint256"
							}
						],
						"numberOfBytes": "192"
					},
					"t_uint256": {
						"encoding": "inplace",
						"label": "uint256",
						"numberOfBytes": "32"
					}
				}
			},
			"userdoc": {
				"kind": "user",
				"methods": {},
				"version": 1
			}
		}
	}
}